{
  "_format": "hh-sol-artifact-1",
  "contractName": "TicketSale",
  "sourceName": "contracts/Ticketsale.sol",
  "abi": [
    {
      "anonymous": false,
      "inputs": [
        {
          "indexed": false,
          "internalType": "uint256",
          "name": "ticketID",
          "type": "uint256"
        },
        {
          "indexed": false,
          "internalType": "address",
          "name": "purchaser",
          "type": "address"
        }
      ],
      "name": "TicketPurchased",
      "type": "event"
    },
    {
      "anonymous": false,
      "inputs": [
        {
          "indexed": false,
          "internalType": "uint256",
          "name": "ticketID",
          "type": "uint256"
        },
        {
          "indexed": false,
          "internalType": "address",
          "name": "returner",
          "type": "address"
        },
        {
          "indexed": false,
          "internalType": "uint256",
          "name": "refundAmount",
          "type": "uint256"
        }
      ],
      "name": "TicketReturned",
      "type": "event"
    },
    {
      "anonymous": false,
      "inputs": [
        {
          "indexed": false,
          "internalType": "uint256",
          "name": "ticketID",
          "type": "uint256"
        },
        {
          "indexed": false,
          "internalType": "address",
          "name": "acceptor",
          "type": "address"
        }
      ],
      "name": "TicketSwapAccepted",
      "type": "event"
    },
    {
      "anonymous": false,
      "inputs": [
        {
          "indexed": false,
          "internalType": "uint256",
          "name": "ticketID",
          "type": "uint256"
        },
        {
          "indexed": false,
          "internalType": "address",
          "name": "offerer",
          "type": "address"
        }
      ],
      "name": "TicketSwapOffered",
      "type": "event"
    },
    {
      "inputs": [
        {
          "internalType": "uint256",
          "name": "ticketID",
          "type": "uint256"
        }
      ],
      "name": "acceptSwap",
      "outputs": [],
      "stateMutability": "nonpayable",
      "type": "function"
    },
    {
      "inputs": [
        {
          "internalType": "address",
          "name": "user",
          "type": "address"
        }
      ],
      "name": "getTicketByAddress",
      "outputs": [
        {
          "internalType": "uint256[]",
          "name": "",
          "type": "uint256[]"
        }
      ],
      "stateMutability": "view",
      "type": "function"
    },
    {
      "inputs": [
        {
          "internalType": "uint256",
          "name": "ticketID",
          "type": "uint256"
        }
      ],
      "name": "getTicketInfo",
      "outputs": [
        {
          "internalType": "address",
          "name": "",
          "type": "address"
        },
        {
          "internalType": "bool",
          "name": "",
          "type": "bool"
        },
        {
          "internalType": "bool",
          "name": "",
          "type": "bool"
        }
      ],
      "stateMutability": "view",
      "type": "function"
    },
    {
      "inputs": [
        {
          "internalType": "uint256",
          "name": "ticketID",
          "type": "uint256"
        }
      ],
      "name": "offerSwap",
      "outputs": [],
      "stateMutability": "nonpayable",
      "type": "function"
    },
    {
      "inputs": [],
      "name": "purchaseTicket",
      "outputs": [],
      "stateMutability": "payable",
      "type": "function"
    },
    {
      "inputs": [
        {
          "internalType": "uint256",
          "name": "ticketID",
          "type": "uint256"
        }
      ],
      "name": "returnTicket",
      "outputs": [],
      "stateMutability": "nonpayable",
      "type": "function"
    },
    {
      "inputs": [],
      "name": "serviceFee",
      "outputs": [
        {
          "internalType": "uint256",
          "name": "",
          "type": "uint256"
        }
      ],
      "stateMutability": "view",
      "type": "function"
    },
    {
      "inputs": [],
      "name": "ticketCounter",
      "outputs": [
        {
          "internalType": "uint256",
          "name": "",
          "type": "uint256"
        }
      ],
      "stateMutability": "view",
      "type": "function"
    },
    {
      "inputs": [
        {
          "internalType": "uint256",
          "name": "",
          "type": "uint256"
        }
      ],
      "name": "tickets",
      "outputs": [
        {
          "internalType": "address",
          "name": "owner",
          "type": "address"
        },
        {
          "internalType": "bool",
          "name": "isPurchased",
          "type": "bool"
        },
        {
          "internalType": "bool",
          "name": "isSwapPending",
          "type": "bool"
        }
      ],
      "stateMutability": "view",
      "type": "function"
    }
  ],
  "bytecode": "0x608060405267016345785d8a000060015534801561001c57600080fd5b506112ae8061002c6000396000f3fe6080604052600436106100865760003560e01c806350b447121161005957806350b44712146101245780638abdf5aa146101635780638c4d59d01461018e578063da30bd1a146101b9578063ff99a063146101e257610086565b80631bf330041461008b57806321846c76146100b4578063406b2c2c146100be5780634ac15662146100e7575b600080fd5b34801561009757600080fd5b506100b260048036038101906100ad9190610d1d565b610221565b005b6100bc6103ef565b005b3480156100ca57600080fd5b506100e560048036038101906100e09190610d1d565b610562565b005b3480156100f357600080fd5b5061010e60048036038101906101099190610cf4565b610738565b60405161011b9190610faf565b60405180910390f35b34801561013057600080fd5b5061014b60048036038101906101469190610d1d565b6109b5565b60405161015a93929190610f78565b60405180910390f35b34801561016f57600080fd5b50610178610a19565b6040516101859190611091565b60405180910390f35b34801561019a57600080fd5b506101a3610a1f565b6040516101b09190611091565b60405180910390f35b3480156101c557600080fd5b506101e060048036038101906101db9190610d1d565b610a25565b005b3480156101ee57600080fd5b5061020960048036038101906102049190610d1d565b610bfb565b60405161021893929190610f78565b60405180910390f35b6002600082815260200190815260200160002060000160159054906101000a900460ff16610284576040517f08c379a000000000000000000000000000000000000000000000000000000000815260040161027b90611011565b60405180910390fd5b60006002600083815260200190815260200160002060000160009054906101000a900473ffffffffffffffffffffffffffffffffffffffff1690503373ffffffffffffffffffffffffffffffffffffffff168173ffffffffffffffffffffffffffffffffffffffff16141561032e576040517f08c379a000000000000000000000000000000000000000000000000000000000815260040161032590610ff1565b60405180910390fd5b336002600084815260200190815260200160002060000160006101000a81548173ffffffffffffffffffffffffffffffffffffffff021916908373ffffffffffffffffffffffffffffffffffffffff16021790555060006002600084815260200190815260200160002060000160156101000a81548160ff0219169083151502179055507fd400d0bf8b4ae602bee73fe6e31b8487352b615ff415c67d5c217b92b5fe38ba82336040516103e39291906110ac565b60405180910390a15050565b670de0b6b3a76400003414610439576040517f08c379a000000000000000000000000000000000000000000000000000000000815260040161043090611031565b60405180910390fd5b60008081548092919061044b906111d2565b919050555060405180606001604052803373ffffffffffffffffffffffffffffffffffffffff16815260200160011515815260200160001515815250600260008054815260200190815260200160002060008201518160000160006101000a81548173ffffffffffffffffffffffffffffffffffffffff021916908373ffffffffffffffffffffffffffffffffffffffff16021790555060208201518160000160146101000a81548160ff02191690831515021790555060408201518160000160156101000a81548160ff0219169083151502179055509050507f785f2865353ae960010300f584fc6c577b757a853af69a99c769df3c8232d3de600054336040516105589291906110ac565b60405180910390a1565b6002600082815260200190815260200160002060000160149054906101000a900460ff166105c5576040517f08c379a00000000000000000000000000000000000000000000000000000000081526004016105bc90611051565b60405180910390fd5b3373ffffffffffffffffffffffffffffffffffffffff166002600083815260200190815260200160002060000160009054906101000a900473ffffffffffffffffffffffffffffffffffffffff1673ffffffffffffffffffffffffffffffffffffffff1614610669576040517f08c379a000000000000000000000000000000000000000000000000000000000815260040161066090611071565b60405180910390fd5b6002600082815260200190815260200160002060000160159054906101000a900460ff16156106cd576040517f08c379a00000000000000000000000000000000000000000000000000000000081526004016106c490610fd1565b60405180910390fd5b60016002600083815260200190815260200160002060000160156101000a81548160ff0219169083151502179055507f0c429c57e135043f6747763fe5b3b53a88a48f2f03c709eaeb8634d2bf3d3f7c813360405161072d9291906110ac565b60405180910390a150565b60606000805467ffffffffffffffff81111561077d577f4e487b7100000000000000000000000000000000000000000000000000000000600052604160045260246000fd5b6040519080825280602002602001820160405280156107ab5781602001602082028036833780820191505090505b509050600080600190505b6000548111610891578473ffffffffffffffffffffffffffffffffffffffff166002600083815260200190815260200160002060000160009054906101000a900473ffffffffffffffffffffffffffffffffffffffff1673ffffffffffffffffffffffffffffffffffffffff16141561087e5780838381518110610863577f4e487b7100000000000000000000000000000000000000000000000000000000600052603260045260246000fd5b602002602001018181525050818061087a906111d2565b9250505b8080610889906111d2565b9150506107b6565b5060008167ffffffffffffffff8111156108d4577f4e487b7100000000000000000000000000000000000000000000000000000000600052604160045260246000fd5b6040519080825280602002602001820160405280156109025781602001602082028036833780820191505090505b50905060005b828110156109a957838181518110610949577f4e487b7100000000000000000000000000000000000000000000000000000000600052603260045260246000fd5b602002602001015182828151811061098a577f4e487b7100000000000000000000000000000000000000000000000000000000600052603260045260246000fd5b60200260200101818152505080806109a1906111d2565b915050610908565b50809350505050919050565b60026020528060005260406000206000915090508060000160009054906101000a900473ffffffffffffffffffffffffffffffffffffffff16908060000160149054906101000a900460ff16908060000160159054906101000a900460ff16905083565b60015481565b60005481565b3373ffffffffffffffffffffffffffffffffffffffff166002600083815260200190815260200160002060000160009054906101000a900473ffffffffffffffffffffffffffffffffffffffff1673ffffffffffffffffffffffffffffffffffffffff1614610ac9576040517f08c379a0000000000000000000000000000000000000000000000000000000008152600401610ac090611071565b60405180910390fd5b6002600082815260200190815260200160002060000160149054906101000a900460ff16610b2c576040517f08c379a0000000000000000000000000000000000000000000000000000000008152600401610b2390611051565b60405180910390fd5b6000600154670de0b6b3a7640000610b449190611156565b905060006002600084815260200190815260200160002060000160146101000a81548160ff0219169083151502179055503373ffffffffffffffffffffffffffffffffffffffff166108fc829081150290604051600060405180830381858888f19350505050158015610bbb573d6000803e3d6000fd5b507f40b7887f382a28c53f89b0e0eeef2b760e0ab00538c3fd30eccdbb41229c57e7823383604051610bef939291906110d5565b60405180910390a15050565b600080600080600260008681526020019081526020016000206040518060600160405290816000820160009054906101000a900473ffffffffffffffffffffffffffffffffffffffff1673ffffffffffffffffffffffffffffffffffffffff1673ffffffffffffffffffffffffffffffffffffffff1681526020016000820160149054906101000a900460ff161515151581526020016000820160159054906101000a900460ff1615151515815250509050806000015181602001518260400151935093509350509193909250565b600081359050610cd98161124a565b92915050565b600081359050610cee81611261565b92915050565b600060208284031215610d0657600080fd5b6000610d1484828501610cca565b91505092915050565b600060208284031215610d2f57600080fd5b6000610d3d84828501610cdf565b91505092915050565b6000610d528383610f5a565b60208301905092915050565b610d678161118a565b82525050565b6000610d788261111c565b610d828185611134565b9350610d8d8361110c565b8060005b83811015610dbe578151610da58882610d46565b9750610db083611127565b925050600181019050610d91565b5085935050505092915050565b610dd48161119c565b82525050565b6000610de7601583611145565b91507f5377617020616c72656164792070656e64696e672e00000000000000000000006000830152602082019050919050565b6000610e27601e83611145565b91507f596f752063616e6e6f742073776170207769746820796f757273656c662e00006000830152602082019050919050565b6000610e67601e83611145565b91507f4e6f2073776170206f6666657220666f722074686973207469636b65742e00006000830152602082019050919050565b6000610ea7601883611145565b91507f5469636b657420707269636520697320312065746865722e00000000000000006000830152602082019050919050565b6000610ee7601583611145565b91507f5469636b6574206e6f74207075726368617365642e00000000000000000000006000830152602082019050919050565b6000610f27601a83611145565b91507f596f7520646f6e2774206f776e2074686973207469636b65742e0000000000006000830152602082019050919050565b610f63816111c8565b82525050565b610f72816111c8565b82525050565b6000606082019050610f8d6000830186610d5e565b610f9a6020830185610dcb565b610fa76040830184610dcb565b949350505050565b60006020820190508181036000830152610fc98184610d6d565b905092915050565b60006020820190508181036000830152610fea81610dda565b9050919050565b6000602082019050818103600083015261100a81610e1a565b9050919050565b6000602082019050818103600083015261102a81610e5a565b9050919050565b6000602082019050818103600083015261104a81610e9a565b9050919050565b6000602082019050818103600083015261106a81610eda565b9050919050565b6000602082019050818103600083015261108a81610f1a565b9050919050565b60006020820190506110a66000830184610f69565b92915050565b60006040820190506110c16000830185610f69565b6110ce6020830184610d5e565b9392505050565b60006060820190506110ea6000830186610f69565b6110f76020830185610d5e565b6111046040830184610f69565b949350505050565b6000819050602082019050919050565b600081519050919050565b6000602082019050919050565b600082825260208201905092915050565b600082825260208201905092915050565b6000611161826111c8565b915061116c836111c8565b92508282101561117f5761117e61121b565b5b828203905092915050565b6000611195826111a8565b9050919050565b60008115159050919050565b600073ffffffffffffffffffffffffffffffffffffffff82169050919050565b6000819050919050565b60006111dd826111c8565b91507fffffffffffffffffffffffffffffffffffffffffffffffffffffffffffffffff8214156112105761120f61121b565b5b600182019050919050565b7f4e487b7100000000000000000000000000000000000000000000000000000000600052601160045260246000fd5b6112538161118a565b811461125e57600080fd5b50565b61126a816111c8565b811461127557600080fd5b5056fea2646970667358221220bfeaef8bf9673664e1f6bfef767c6e375004d31bb451f4aefdfeeb1fea73bbd264736f6c63430008000033",
  "linkReferences": {},
  "deployedLinkReferences": {}
}