{
	"contracts/Ticketsale.sol": {
		"TicketSale": {
			"abi": [
				{
					"anonymous": false,
					"inputs": [
						{
							"indexed": false,
							"internalType": "uint256",
							"name": "ticketID",
							"type": "uint256"
						},
						{
							"indexed": false,
							"internalType": "address",
							"name": "purchaser",
							"type": "address"
						}
					],
					"name": "TicketPurchased",
					"type": "event"
				},
				{
					"anonymous": false,
					"inputs": [
						{
							"indexed": false,
							"internalType": "uint256",
							"name": "ticketID",
							"type": "uint256"
						},
						{
							"indexed": false,
							"internalType": "address",
							"name": "returner",
							"type": "address"
						},
						{
							"indexed": false,
							"internalType": "uint256",
							"name": "refundAmount",
							"type": "uint256"
						}
					],
					"name": "TicketReturned",
					"type": "event"
				},
				{
					"anonymous": false,
					"inputs": [
						{
							"indexed": false,
							"internalType": "uint256",
							"name": "ticketID",
							"type": "uint256"
						},
						{
							"indexed": false,
							"internalType": "address",
							"name": "acceptor",
							"type": "address"
						}
					],
					"name": "TicketSwapAccepted",
					"type": "event"
				},
				{
					"anonymous": false,
					"inputs": [
						{
							"indexed": false,
							"internalType": "uint256",
							"name": "ticketID",
							"type": "uint256"
						},
						{
							"indexed": false,
							"internalType": "address",
							"name": "offerer",
							"type": "address"
						}
					],
					"name": "TicketSwapOffered",
					"type": "event"
				},
				{
					"inputs": [
						{
							"internalType": "uint256",
							"name": "ticketID",
							"type": "uint256"
						}
					],
					"name": "acceptSwap",
					"outputs": [],
					"stateMutability": "nonpayable",
					"type": "function"
				},
				{
					"inputs": [
						{
							"internalType": "address",
							"name": "user",
							"type": "address"
						}
					],
					"name": "getTicketByAddress",
					"outputs": [
						{
							"internalType": "uint256[]",
							"name": "",
							"type": "uint256[]"
						}
					],
					"stateMutability": "view",
					"type": "function"
				},
				{
					"inputs": [
						{
							"internalType": "uint256",
							"name": "ticketID",
							"type": "uint256"
						}
					],
					"name": "getTicketInfo",
					"outputs": [
						{
							"internalType": "address",
							"name": "",
							"type": "address"
						},
						{
							"internalType": "bool",
							"name": "",
							"type": "bool"
						},
						{
							"internalType": "bool",
							"name": "",
							"type": "bool"
						}
					],
					"stateMutability": "view",
					"type": "function"
				},
				{
					"inputs": [
						{
							"internalType": "uint256",
							"name": "ticketID",
							"type": "uint256"
						}
					],
					"name": "offerSwap",
					"outputs": [],
					"stateMutability": "nonpayable",
					"type": "function"
				},
				{
					"inputs": [],
					"name": "purchaseTicket",
					"outputs": [],
					"stateMutability": "payable",
					"type": "function"
				},
				{
					"inputs": [
						{
							"internalType": "uint256",
							"name": "ticketID",
							"type": "uint256"
						}
					],
					"name": "returnTicket",
					"outputs": [],
					"stateMutability": "nonpayable",
					"type": "function"
				},
				{
					"inputs": [],
					"name": "serviceFee",
					"outputs": [
						{
							"internalType": "uint256",
							"name": "",
							"type": "uint256"
						}
					],
					"stateMutability": "view",
					"type": "function"
				},
				{
					"inputs": [],
					"name": "ticketCounter",
					"outputs": [
						{
							"internalType": "uint256",
							"name": "",
							"type": "uint256"
						}
					],
					"stateMutability": "view",
					"type": "function"
				},
				{
					"inputs": [
						{
							"internalType": "uint256",
							"name": "",
							"type": "uint256"
						}
					],
					"name": "tickets",
					"outputs": [
						{
							"internalType": "address",
							"name": "owner",
							"type": "address"
						},
						{
							"internalType": "bool",
							"name": "isPurchased",
							"type": "bool"
						},
						{
							"internalType": "bool",
							"name": "isSwapPending",
							"type": "bool"
						}
					],
					"stateMutability": "view",
					"type": "function"
				}
			],
			"devdoc": {
				"kind": "dev",
				"methods": {},
				"version": 1
			},
			"evm": {
				"assembly": "    /* \"contracts/Ticketsale.sol\":57:4473  contract TicketSale {... */\n  mstore(0x40, 0x80)\n    /* \"contracts/Ticketsale.sol\":167:176  0.1 ether */\n  0x016345785d8a0000\n    /* \"contracts/Ticketsale.sol\":142:176  uint public serviceFee = 0.1 ether */\n  0x01\n  sstore\n    /* \"contracts/Ticketsale.sol\":57:4473  contract TicketSale {... */\n  callvalue\n  dup1\n  iszero\n  tag_1\n  jumpi\n  0x00\n  dup1\n  revert\ntag_1:\n  pop\n  dataSize(sub_0)\n  dup1\n  dataOffset(sub_0)\n  0x00\n  codecopy\n  0x00\n  return\nstop\n\nsub_0: assembly {\n        /* \"contracts/Ticketsale.sol\":57:4473  contract TicketSale {... */\n      mstore(0x40, 0x80)\n      jumpi(tag_1, lt(calldatasize, 0x04))\n      shr(0xe0, calldataload(0x00))\n      dup1\n      0x50b44712\n      gt\n      tag_11\n      jumpi\n      dup1\n      0x50b44712\n      eq\n      tag_6\n      jumpi\n      dup1\n      0x8abdf5aa\n      eq\n      tag_7\n      jumpi\n      dup1\n      0x8c4d59d0\n      eq\n      tag_8\n      jumpi\n      dup1\n      0xda30bd1a\n      eq\n      tag_9\n      jumpi\n      dup1\n      0xff99a063\n      eq\n      tag_10\n      jumpi\n      jump(tag_1)\n    tag_11:\n      dup1\n      0x1bf33004\n      eq\n      tag_2\n      jumpi\n      dup1\n      0x21846c76\n      eq\n      tag_3\n      jumpi\n      dup1\n      0x406b2c2c\n      eq\n      tag_4\n      jumpi\n      dup1\n      0x4ac15662\n      eq\n      tag_5\n      jumpi\n    tag_1:\n      0x00\n      dup1\n      revert\n        /* \"contracts/Ticketsale.sol\":2002:2685  function acceptSwap(uint ticketID) public {... */\n    tag_2:\n      callvalue\n      dup1\n      iszero\n      tag_12\n      jumpi\n      0x00\n      dup1\n      revert\n    tag_12:\n      pop\n      tag_13\n      0x04\n      dup1\n      calldatasize\n      sub\n      dup2\n      add\n      swap1\n      tag_14\n      swap2\n      swap1\n      tag_15\n      jump\t// in\n    tag_14:\n      tag_16\n      jump\t// in\n    tag_13:\n      stop\n        /* \"contracts/Ticketsale.sol\":781:1369  function purchaseTicket() public payable {... */\n    tag_3:\n      tag_17\n      tag_18\n      jump\t// in\n    tag_17:\n      stop\n        /* \"contracts/Ticketsale.sol\":1414:1957  function offerSwap(uint ticketID) public {... */\n    tag_4:\n      callvalue\n      dup1\n      iszero\n      tag_19\n      jumpi\n      0x00\n      dup1\n      revert\n    tag_19:\n      pop\n      tag_20\n      0x04\n      dup1\n      calldatasize\n      sub\n      dup2\n      add\n      swap1\n      tag_21\n      swap2\n      swap1\n      tag_15\n      jump\t// in\n    tag_21:\n      tag_22\n      jump\t// in\n    tag_20:\n      stop\n        /* \"contracts/Ticketsale.sol\":3783:4471  function getTicketByAddress(address user) public view returns (uint[] memory) {... */\n    tag_5:\n      callvalue\n      dup1\n      iszero\n      tag_23\n      jumpi\n      0x00\n      dup1\n      revert\n    tag_23:\n      pop\n      tag_24\n      0x04\n      dup1\n      calldatasize\n      sub\n      dup2\n      add\n      swap1\n      tag_25\n      swap2\n      swap1\n      tag_26\n      jump\t// in\n    tag_25:\n      tag_27\n      jump\t// in\n    tag_24:\n      mload(0x40)\n      tag_28\n      swap2\n      swap1\n      tag_29\n      jump\t// in\n    tag_28:\n      mload(0x40)\n      dup1\n      swap2\n      sub\n      swap1\n      return\n        /* \"contracts/Ticketsale.sol\":401:439  mapping(uint => Ticket) public tickets */\n    tag_6:\n      callvalue\n      dup1\n      iszero\n      tag_30\n      jumpi\n      0x00\n      dup1\n      revert\n    tag_30:\n      pop\n      tag_31\n      0x04\n      dup1\n      calldatasize\n      sub\n      dup2\n      add\n      swap1\n      tag_32\n      swap2\n      swap1\n      tag_15\n      jump\t// in\n    tag_32:\n      tag_33\n      jump\t// in\n    tag_31:\n      mload(0x40)\n      tag_34\n      swap4\n      swap3\n      swap2\n      swap1\n      tag_35\n      jump\t// in\n    tag_34:\n      mload(0x40)\n      dup1\n      swap2\n      sub\n      swap1\n      return\n        /* \"contracts/Ticketsale.sol\":142:176  uint public serviceFee = 0.1 ether */\n    tag_7:\n      callvalue\n      dup1\n      iszero\n      tag_36\n      jumpi\n      0x00\n      dup1\n      revert\n    tag_36:\n      pop\n      tag_37\n      tag_38\n      jump\t// in\n    tag_37:\n      mload(0x40)\n      tag_39\n      swap2\n      swap1\n      tag_40\n      jump\t// in\n    tag_39:\n      mload(0x40)\n      dup1\n      swap2\n      sub\n      swap1\n      return\n        /* \"contracts/Ticketsale.sol\":84:109  uint public ticketCounter */\n    tag_8:\n      callvalue\n      dup1\n      iszero\n      tag_41\n      jumpi\n      0x00\n      dup1\n      revert\n    tag_41:\n      pop\n      tag_42\n      tag_43\n      jump\t// in\n    tag_42:\n      mload(0x40)\n      tag_44\n      swap2\n      swap1\n      tag_40\n      jump\t// in\n    tag_44:\n      mload(0x40)\n      dup1\n      swap2\n      sub\n      swap1\n      return\n        /* \"contracts/Ticketsale.sol\":2743:3429  function returnTicket(uint ticketID) public {... */\n    tag_9:\n      callvalue\n      dup1\n      iszero\n      tag_45\n      jumpi\n      0x00\n      dup1\n      revert\n    tag_45:\n      pop\n      tag_46\n      0x04\n      dup1\n      calldatasize\n      sub\n      dup2\n      add\n      swap1\n      tag_47\n      swap2\n      swap1\n      tag_15\n      jump\t// in\n    tag_47:\n      tag_48\n      jump\t// in\n    tag_46:\n      stop\n        /* \"contracts/Ticketsale.sol\":3504:3714  function getTicketInfo(uint ticketID) public view returns (address, bool, bool) {... */\n    tag_10:\n      callvalue\n      dup1\n      iszero\n      tag_49\n      jumpi\n      0x00\n      dup1\n      revert\n    tag_49:\n      pop\n      tag_50\n      0x04\n      dup1\n      calldatasize\n      sub\n      dup2\n      add\n      swap1\n      tag_51\n      swap2\n      swap1\n      tag_15\n      jump\t// in\n    tag_51:\n      tag_52\n      jump\t// in\n    tag_50:\n      mload(0x40)\n      tag_53\n      swap4\n      swap3\n      swap2\n      swap1\n      tag_35\n      jump\t// in\n    tag_53:\n      mload(0x40)\n      dup1\n      swap2\n      sub\n      swap1\n      return\n        /* \"contracts/Ticketsale.sol\":2002:2685  function acceptSwap(uint ticketID) public {... */\n    tag_16:\n        /* \"contracts/Ticketsale.sol\":2121:2128  tickets */\n      0x02\n        /* \"contracts/Ticketsale.sol\":2121:2138  tickets[ticketID] */\n      0x00\n        /* \"contracts/Ticketsale.sol\":2129:2137  ticketID */\n      dup3\n        /* \"contracts/Ticketsale.sol\":2121:2138  tickets[ticketID] */\n      dup2\n      mstore\n      0x20\n      add\n      swap1\n      dup2\n      mstore\n      0x20\n      add\n      0x00\n      keccak256\n        /* \"contracts/Ticketsale.sol\":2121:2152  tickets[ticketID].isSwapPending */\n      0x00\n      add\n      0x15\n      swap1\n      sload\n      swap1\n      0x0100\n      exp\n      swap1\n      div\n      0xff\n      and\n        /* \"contracts/Ticketsale.sol\":2113:2187  require(tickets[ticketID].isSwapPending, \"No swap offer for this ticket.\") */\n      tag_55\n      jumpi\n      mload(0x40)\n      0x08c379a000000000000000000000000000000000000000000000000000000000\n      dup2\n      mstore\n      0x04\n      add\n      tag_56\n      swap1\n      tag_57\n      jump\t// in\n    tag_56:\n      mload(0x40)\n      dup1\n      swap2\n      sub\n      swap1\n      revert\n    tag_55:\n        /* \"contracts/Ticketsale.sol\":2258:2279  address previousOwner */\n      0x00\n        /* \"contracts/Ticketsale.sol\":2282:2289  tickets */\n      0x02\n        /* \"contracts/Ticketsale.sol\":2282:2299  tickets[ticketID] */\n      0x00\n        /* \"contracts/Ticketsale.sol\":2290:2298  ticketID */\n      dup4\n        /* \"contracts/Ticketsale.sol\":2282:2299  tickets[ticketID] */\n      dup2\n      mstore\n      0x20\n      add\n      swap1\n      dup2\n      mstore\n      0x20\n      add\n      0x00\n      keccak256\n        /* \"contracts/Ticketsale.sol\":2282:2305  tickets[ticketID].owner */\n      0x00\n      add\n      0x00\n      swap1\n      sload\n      swap1\n      0x0100\n      exp\n      swap1\n      div\n      0xffffffffffffffffffffffffffffffffffffffff\n      and\n        /* \"contracts/Ticketsale.sol\":2258:2305  address previousOwner = tickets[ticketID].owner */\n      swap1\n      pop\n        /* \"contracts/Ticketsale.sol\":2340:2350  msg.sender */\n      caller\n        /* \"contracts/Ticketsale.sol\":2323:2350  previousOwner != msg.sender */\n      0xffffffffffffffffffffffffffffffffffffffff\n      and\n        /* \"contracts/Ticketsale.sol\":2323:2336  previousOwner */\n      dup2\n        /* \"contracts/Ticketsale.sol\":2323:2350  previousOwner != msg.sender */\n      0xffffffffffffffffffffffffffffffffffffffff\n      and\n      sub\n        /* \"contracts/Ticketsale.sol\":2315:2385  require(previousOwner != msg.sender, \"You cannot swap with yourself.\") */\n      tag_58\n      jumpi\n      mload(0x40)\n      0x08c379a000000000000000000000000000000000000000000000000000000000\n      dup2\n      mstore\n      0x04\n      add\n      tag_59\n      swap1\n      tag_60\n      jump\t// in\n    tag_59:\n      mload(0x40)\n      dup1\n      swap2\n      sub\n      swap1\n      revert\n    tag_58:\n        /* \"contracts/Ticketsale.sol\":2480:2490  msg.sender */\n      caller\n        /* \"contracts/Ticketsale.sol\":2454:2461  tickets */\n      0x02\n        /* \"contracts/Ticketsale.sol\":2454:2471  tickets[ticketID] */\n      0x00\n        /* \"contracts/Ticketsale.sol\":2462:2470  ticketID */\n      dup5\n        /* \"contracts/Ticketsale.sol\":2454:2471  tickets[ticketID] */\n      dup2\n      mstore\n      0x20\n      add\n      swap1\n      dup2\n      mstore\n      0x20\n      add\n      0x00\n      keccak256\n        /* \"contracts/Ticketsale.sol\":2454:2477  tickets[ticketID].owner */\n      0x00\n      add\n      0x00\n        /* \"contracts/Ticketsale.sol\":2454:2490  tickets[ticketID].owner = msg.sender */\n      0x0100\n      exp\n      dup2\n      sload\n      dup2\n      0xffffffffffffffffffffffffffffffffffffffff\n      mul\n      not\n      and\n      swap1\n      dup4\n      0xffffffffffffffffffffffffffffffffffffffff\n      and\n      mul\n      or\n      swap1\n      sstore\n      pop\n        /* \"contracts/Ticketsale.sol\":2572:2577  false */\n      0x00\n        /* \"contracts/Ticketsale.sol\":2538:2545  tickets */\n      0x02\n        /* \"contracts/Ticketsale.sol\":2538:2555  tickets[ticketID] */\n      0x00\n        /* \"contracts/Ticketsale.sol\":2546:2554  ticketID */\n      dup5\n        /* \"contracts/Ticketsale.sol\":2538:2555  tickets[ticketID] */\n      dup2\n      mstore\n      0x20\n      add\n      swap1\n      dup2\n      mstore\n      0x20\n      add\n      0x00\n      keccak256\n        /* \"contracts/Ticketsale.sol\":2538:2569  tickets[ticketID].isSwapPending */\n      0x00\n      add\n      0x15\n        /* \"contracts/Ticketsale.sol\":2538:2577  tickets[ticketID].isSwapPending = false */\n      0x0100\n      exp\n      dup2\n      sload\n      dup2\n      0xff\n      mul\n      not\n      and\n      swap1\n      dup4\n      iszero\n      iszero\n      mul\n      or\n      swap1\n      sstore\n      pop\n        /* \"contracts/Ticketsale.sol\":2638:2678  TicketSwapAccepted(ticketID, msg.sender) */\n      0xd400d0bf8b4ae602bee73fe6e31b8487352b615ff415c67d5c217b92b5fe38ba\n        /* \"contracts/Ticketsale.sol\":2657:2665  ticketID */\n      dup3\n        /* \"contracts/Ticketsale.sol\":2667:2677  msg.sender */\n      caller\n        /* \"contracts/Ticketsale.sol\":2638:2678  TicketSwapAccepted(ticketID, msg.sender) */\n      mload(0x40)\n      tag_61\n      swap3\n      swap2\n      swap1\n      tag_62\n      jump\t// in\n    tag_61:\n      mload(0x40)\n      dup1\n      swap2\n      sub\n      swap1\n      log1\n        /* \"contracts/Ticketsale.sol\":2044:2685  {... */\n      pop\n        /* \"contracts/Ticketsale.sol\":2002:2685  function acceptSwap(uint ticketID) public {... */\n      pop\n      jump\t// out\n        /* \"contracts/Ticketsale.sol\":781:1369  function purchaseTicket() public payable {... */\n    tag_18:\n        /* \"contracts/Ticketsale.sol\":931:938  1 ether */\n      0x0de0b6b3a7640000\n        /* \"contracts/Ticketsale.sol\":918:927  msg.value */\n      callvalue\n        /* \"contracts/Ticketsale.sol\":918:938  msg.value == 1 ether */\n      eq\n        /* \"contracts/Ticketsale.sol\":910:967  require(msg.value == 1 ether, \"Ticket price is 1 ether.\") */\n      tag_64\n      jumpi\n      mload(0x40)\n      0x08c379a000000000000000000000000000000000000000000000000000000000\n      dup2\n      mstore\n      0x04\n      add\n      tag_65\n      swap1\n      tag_66\n      jump\t// in\n    tag_65:\n      mload(0x40)\n      dup1\n      swap2\n      sub\n      swap1\n      revert\n    tag_64:\n        /* \"contracts/Ticketsale.sol\":1041:1054  ticketCounter */\n      0x00\n      dup1\n        /* \"contracts/Ticketsale.sol\":1041:1056  ticketCounter++ */\n      dup2\n      sload\n      dup1\n      swap3\n      swap2\n      swap1\n      tag_67\n      swap1\n      tag_68\n      jump\t// in\n    tag_67:\n      swap2\n      swap1\n      pop\n      sstore\n      pop\n        /* \"contracts/Ticketsale.sol\":1138:1252  Ticket({... */\n      mload(0x40)\n      dup1\n      0x60\n      add\n      0x40\n      mstore\n      dup1\n        /* \"contracts/Ticketsale.sol\":1166:1176  msg.sender */\n      caller\n        /* \"contracts/Ticketsale.sol\":1138:1252  Ticket({... */\n      0xffffffffffffffffffffffffffffffffffffffff\n      and\n      dup2\n      mstore\n      0x20\n      add\n        /* \"contracts/Ticketsale.sol\":1203:1207  true */\n      0x01\n        /* \"contracts/Ticketsale.sol\":1138:1252  Ticket({... */\n      iszero\n      iszero\n      dup2\n      mstore\n      0x20\n      add\n        /* \"contracts/Ticketsale.sol\":1236:1241  false */\n      0x00\n        /* \"contracts/Ticketsale.sol\":1138:1252  Ticket({... */\n      iszero\n      iszero\n      dup2\n      mstore\n      pop\n        /* \"contracts/Ticketsale.sol\":1113:1120  tickets */\n      0x02\n        /* \"contracts/Ticketsale.sol\":1113:1135  tickets[ticketCounter] */\n      0x00\n        /* \"contracts/Ticketsale.sol\":1121:1134  ticketCounter */\n      dup1\n      sload\n        /* \"contracts/Ticketsale.sol\":1113:1135  tickets[ticketCounter] */\n      dup2\n      mstore\n      0x20\n      add\n      swap1\n      dup2\n      mstore\n      0x20\n      add\n      0x00\n      keccak256\n        /* \"contracts/Ticketsale.sol\":1113:1252  tickets[ticketCounter] = Ticket({... */\n      0x00\n      dup3\n      add\n      mload\n      dup2\n      0x00\n      add\n      exp(0x0100, 0x00)\n      dup2\n      sload\n      dup2\n      0xffffffffffffffffffffffffffffffffffffffff\n      mul\n      not\n      and\n      swap1\n      dup4\n      0xffffffffffffffffffffffffffffffffffffffff\n      and\n      mul\n      or\n      swap1\n      sstore\n      pop\n      0x20\n      dup3\n      add\n      mload\n      dup2\n      0x00\n      add\n      exp(0x0100, 0x14)\n      dup2\n      sload\n      dup2\n      0xff\n      mul\n      not\n      and\n      swap1\n      dup4\n      iszero\n      iszero\n      mul\n      or\n      swap1\n      sstore\n      pop\n      0x40\n      dup3\n      add\n      mload\n      dup2\n      0x00\n      add\n      exp(0x0100, 0x15)\n      dup2\n      sload\n      dup2\n      0xff\n      mul\n      not\n      and\n      swap1\n      dup4\n      iszero\n      iszero\n      mul\n      or\n      swap1\n      sstore\n      pop\n      swap1\n      pop\n      pop\n        /* \"contracts/Ticketsale.sol\":1320:1362  TicketPurchased(ticketCounter, msg.sender) */\n      0x785f2865353ae960010300f584fc6c577b757a853af69a99c769df3c8232d3de\n        /* \"contracts/Ticketsale.sol\":1336:1349  ticketCounter */\n      sload(0x00)\n        /* \"contracts/Ticketsale.sol\":1351:1361  msg.sender */\n      caller\n        /* \"contracts/Ticketsale.sol\":1320:1362  TicketPurchased(ticketCounter, msg.sender) */\n      mload(0x40)\n      tag_69\n      swap3\n      swap2\n      swap1\n      tag_62\n      jump\t// in\n    tag_69:\n      mload(0x40)\n      dup1\n      swap2\n      sub\n      swap1\n      log1\n        /* \"contracts/Ticketsale.sol\":781:1369  function purchaseTicket() public payable {... */\n      jump\t// out\n        /* \"contracts/Ticketsale.sol\":1414:1957  function offerSwap(uint ticketID) public {... */\n    tag_22:\n        /* \"contracts/Ticketsale.sol\":1535:1542  tickets */\n      0x02\n        /* \"contracts/Ticketsale.sol\":1535:1552  tickets[ticketID] */\n      0x00\n        /* \"contracts/Ticketsale.sol\":1543:1551  ticketID */\n      dup3\n        /* \"contracts/Ticketsale.sol\":1535:1552  tickets[ticketID] */\n      dup2\n      mstore\n      0x20\n      add\n      swap1\n      dup2\n      mstore\n      0x20\n      add\n      0x00\n      keccak256\n        /* \"contracts/Ticketsale.sol\":1535:1564  tickets[ticketID].isPurchased */\n      0x00\n      add\n      0x14\n      swap1\n      sload\n      swap1\n      0x0100\n      exp\n      swap1\n      div\n      0xff\n      and\n        /* \"contracts/Ticketsale.sol\":1527:1590  require(tickets[ticketID].isPurchased, \"Ticket not purchased.\") */\n      tag_71\n      jumpi\n      mload(0x40)\n      0x08c379a000000000000000000000000000000000000000000000000000000000\n      dup2\n      mstore\n      0x04\n      add\n      tag_72\n      swap1\n      tag_73\n      jump\t// in\n    tag_72:\n      mload(0x40)\n      dup1\n      swap2\n      sub\n      swap1\n      revert\n    tag_71:\n        /* \"contracts/Ticketsale.sol\":1635:1645  msg.sender */\n      caller\n        /* \"contracts/Ticketsale.sol\":1608:1645  tickets[ticketID].owner == msg.sender */\n      0xffffffffffffffffffffffffffffffffffffffff\n      and\n        /* \"contracts/Ticketsale.sol\":1608:1615  tickets */\n      0x02\n        /* \"contracts/Ticketsale.sol\":1608:1625  tickets[ticketID] */\n      0x00\n        /* \"contracts/Ticketsale.sol\":1616:1624  ticketID */\n      dup4\n        /* \"contracts/Ticketsale.sol\":1608:1625  tickets[ticketID] */\n      dup2\n      mstore\n      0x20\n      add\n      swap1\n      dup2\n      mstore\n      0x20\n      add\n      0x00\n      keccak256\n        /* \"contracts/Ticketsale.sol\":1608:1631  tickets[ticketID].owner */\n      0x00\n      add\n      0x00\n      swap1\n      sload\n      swap1\n      0x0100\n      exp\n      swap1\n      div\n      0xffffffffffffffffffffffffffffffffffffffff\n      and\n        /* \"contracts/Ticketsale.sol\":1608:1645  tickets[ticketID].owner == msg.sender */\n      0xffffffffffffffffffffffffffffffffffffffff\n      and\n      eq\n        /* \"contracts/Ticketsale.sol\":1600:1676  require(tickets[ticketID].owner == msg.sender, \"You don't own this ticket.\") */\n      tag_74\n      jumpi\n      mload(0x40)\n      0x08c379a000000000000000000000000000000000000000000000000000000000\n      dup2\n      mstore\n      0x04\n      add\n      tag_75\n      swap1\n      tag_76\n      jump\t// in\n    tag_75:\n      mload(0x40)\n      dup1\n      swap2\n      sub\n      swap1\n      revert\n    tag_74:\n        /* \"contracts/Ticketsale.sol\":1695:1702  tickets */\n      0x02\n        /* \"contracts/Ticketsale.sol\":1695:1712  tickets[ticketID] */\n      0x00\n        /* \"contracts/Ticketsale.sol\":1703:1711  ticketID */\n      dup3\n        /* \"contracts/Ticketsale.sol\":1695:1712  tickets[ticketID] */\n      dup2\n      mstore\n      0x20\n      add\n      swap1\n      dup2\n      mstore\n      0x20\n      add\n      0x00\n      keccak256\n        /* \"contracts/Ticketsale.sol\":1695:1726  tickets[ticketID].isSwapPending */\n      0x00\n      add\n      0x15\n      swap1\n      sload\n      swap1\n      0x0100\n      exp\n      swap1\n      div\n      0xff\n      and\n        /* \"contracts/Ticketsale.sol\":1694:1726  !tickets[ticketID].isSwapPending */\n      iszero\n        /* \"contracts/Ticketsale.sol\":1686:1752  require(!tickets[ticketID].isSwapPending, \"Swap already pending.\") */\n      tag_77\n      jumpi\n      mload(0x40)\n      0x08c379a000000000000000000000000000000000000000000000000000000000\n      dup2\n      mstore\n      0x04\n      add\n      tag_78\n      swap1\n      tag_79\n      jump\t// in\n    tag_78:\n      mload(0x40)\n      dup1\n      swap2\n      sub\n      swap1\n      revert\n    tag_77:\n        /* \"contracts/Ticketsale.sol\":1849:1853  true */\n      0x01\n        /* \"contracts/Ticketsale.sol\":1815:1822  tickets */\n      0x02\n        /* \"contracts/Ticketsale.sol\":1815:1832  tickets[ticketID] */\n      0x00\n        /* \"contracts/Ticketsale.sol\":1823:1831  ticketID */\n      dup4\n        /* \"contracts/Ticketsale.sol\":1815:1832  tickets[ticketID] */\n      dup2\n      mstore\n      0x20\n      add\n      swap1\n      dup2\n      mstore\n      0x20\n      add\n      0x00\n      keccak256\n        /* \"contracts/Ticketsale.sol\":1815:1846  tickets[ticketID].isSwapPending */\n      0x00\n      add\n      0x15\n        /* \"contracts/Ticketsale.sol\":1815:1853  tickets[ticketID].isSwapPending = true */\n      0x0100\n      exp\n      dup2\n      sload\n      dup2\n      0xff\n      mul\n      not\n      and\n      swap1\n      dup4\n      iszero\n      iszero\n      mul\n      or\n      swap1\n      sstore\n      pop\n        /* \"contracts/Ticketsale.sol\":1911:1950  TicketSwapOffered(ticketID, msg.sender) */\n      0x0c429c57e135043f6747763fe5b3b53a88a48f2f03c709eaeb8634d2bf3d3f7c\n        /* \"contracts/Ticketsale.sol\":1929:1937  ticketID */\n      dup2\n        /* \"contracts/Ticketsale.sol\":1939:1949  msg.sender */\n      caller\n        /* \"contracts/Ticketsale.sol\":1911:1950  TicketSwapOffered(ticketID, msg.sender) */\n      mload(0x40)\n      tag_80\n      swap3\n      swap2\n      swap1\n      tag_62\n      jump\t// in\n    tag_80:\n      mload(0x40)\n      dup1\n      swap2\n      sub\n      swap1\n      log1\n        /* \"contracts/Ticketsale.sol\":1414:1957  function offerSwap(uint ticketID) public {... */\n      pop\n      jump\t// out\n        /* \"contracts/Ticketsale.sol\":3783:4471  function getTicketByAddress(address user) public view returns (uint[] memory) {... */\n    tag_27:\n        /* \"contracts/Ticketsale.sol\":3846:3859  uint[] memory */\n      0x60\n        /* \"contracts/Ticketsale.sol\":3871:3897  uint[] memory ownedTickets */\n      0x00\n        /* \"contracts/Ticketsale.sol\":3911:3924  ticketCounter */\n      dup1\n      sload\n        /* \"contracts/Ticketsale.sol\":3900:3925  new uint[](ticketCounter) */\n      0xffffffffffffffff\n      dup2\n      gt\n      iszero\n      tag_82\n      jumpi\n      tag_83\n      tag_84\n      jump\t// in\n    tag_83:\n    tag_82:\n      mload(0x40)\n      swap1\n      dup1\n      dup3\n      mstore\n      dup1\n      0x20\n      mul\n      0x20\n      add\n      dup3\n      add\n      0x40\n      mstore\n      dup1\n      iszero\n      tag_85\n      jumpi\n      dup2\n      0x20\n      add\n      0x20\n      dup3\n      mul\n      dup1\n      calldatasize\n      dup4\n      calldatacopy\n      dup1\n      dup3\n      add\n      swap2\n      pop\n      pop\n      swap1\n      pop\n    tag_85:\n      pop\n        /* \"contracts/Ticketsale.sol\":3871:3925  uint[] memory ownedTickets = new uint[](ticketCounter) */\n      swap1\n      pop\n        /* \"contracts/Ticketsale.sol\":3935:3945  uint count */\n      0x00\n        /* \"contracts/Ticketsale.sol\":4048:4054  uint i */\n      dup1\n        /* \"contracts/Ticketsale.sol\":4057:4058  1 */\n      0x01\n        /* \"contracts/Ticketsale.sol\":4048:4058  uint i = 1 */\n      swap1\n      pop\n        /* \"contracts/Ticketsale.sol\":4043:4220  for (uint i = 1; i <= ticketCounter; i++) {... */\n    tag_86:\n        /* \"contracts/Ticketsale.sol\":4065:4078  ticketCounter */\n      sload(0x00)\n        /* \"contracts/Ticketsale.sol\":4060:4061  i */\n      dup2\n        /* \"contracts/Ticketsale.sol\":4060:4078  i <= ticketCounter */\n      gt\n        /* \"contracts/Ticketsale.sol\":4043:4220  for (uint i = 1; i <= ticketCounter; i++) {... */\n      tag_87\n      jumpi\n        /* \"contracts/Ticketsale.sol\":4123:4127  user */\n      dup5\n        /* \"contracts/Ticketsale.sol\":4103:4127  tickets[i].owner == user */\n      0xffffffffffffffffffffffffffffffffffffffff\n      and\n        /* \"contracts/Ticketsale.sol\":4103:4110  tickets */\n      0x02\n        /* \"contracts/Ticketsale.sol\":4103:4113  tickets[i] */\n      0x00\n        /* \"contracts/Ticketsale.sol\":4111:4112  i */\n      dup4\n        /* \"contracts/Ticketsale.sol\":4103:4113  tickets[i] */\n      dup2\n      mstore\n      0x20\n      add\n      swap1\n      dup2\n      mstore\n      0x20\n      add\n      0x00\n      keccak256\n        /* \"contracts/Ticketsale.sol\":4103:4119  tickets[i].owner */\n      0x00\n      add\n      0x00\n      swap1\n      sload\n      swap1\n      0x0100\n      exp\n      swap1\n      div\n      0xffffffffffffffffffffffffffffffffffffffff\n      and\n        /* \"contracts/Ticketsale.sol\":4103:4127  tickets[i].owner == user */\n      0xffffffffffffffffffffffffffffffffffffffff\n      and\n      sub\n        /* \"contracts/Ticketsale.sol\":4099:4210  if (tickets[i].owner == user) {... */\n      tag_89\n      jumpi\n        /* \"contracts/Ticketsale.sol\":4169:4170  i */\n      dup1\n        /* \"contracts/Ticketsale.sol\":4147:4159  ownedTickets */\n      dup4\n        /* \"contracts/Ticketsale.sol\":4160:4165  count */\n      dup4\n        /* \"contracts/Ticketsale.sol\":4147:4166  ownedTickets[count] */\n      dup2\n      mload\n      dup2\n      lt\n      tag_90\n      jumpi\n      tag_91\n      tag_92\n      jump\t// in\n    tag_91:\n    tag_90:\n      0x20\n      mul\n      0x20\n      add\n      add\n        /* \"contracts/Ticketsale.sol\":4147:4170  ownedTickets[count] = i */\n      dup2\n      dup2\n      mstore\n      pop\n      pop\n        /* \"contracts/Ticketsale.sol\":4188:4195  count++ */\n      dup2\n      dup1\n      tag_93\n      swap1\n      tag_68\n      jump\t// in\n    tag_93:\n      swap3\n      pop\n      pop\n        /* \"contracts/Ticketsale.sol\":4099:4210  if (tickets[i].owner == user) {... */\n    tag_89:\n        /* \"contracts/Ticketsale.sol\":4080:4083  i++ */\n      dup1\n      dup1\n      tag_94\n      swap1\n      tag_68\n      jump\t// in\n    tag_94:\n      swap2\n      pop\n      pop\n        /* \"contracts/Ticketsale.sol\":4043:4220  for (uint i = 1; i <= ticketCounter; i++) {... */\n      jump(tag_86)\n    tag_87:\n      pop\n        /* \"contracts/Ticketsale.sol\":4307:4327  uint[] memory result */\n      0x00\n        /* \"contracts/Ticketsale.sol\":4341:4346  count */\n      dup2\n        /* \"contracts/Ticketsale.sol\":4330:4347  new uint[](count) */\n      0xffffffffffffffff\n      dup2\n      gt\n      iszero\n      tag_95\n      jumpi\n      tag_96\n      tag_84\n      jump\t// in\n    tag_96:\n    tag_95:\n      mload(0x40)\n      swap1\n      dup1\n      dup3\n      mstore\n      dup1\n      0x20\n      mul\n      0x20\n      add\n      dup3\n      add\n      0x40\n      mstore\n      dup1\n      iszero\n      tag_97\n      jumpi\n      dup2\n      0x20\n      add\n      0x20\n      dup3\n      mul\n      dup1\n      calldatasize\n      dup4\n      calldatacopy\n      dup1\n      dup3\n      add\n      swap2\n      pop\n      pop\n      swap1\n      pop\n    tag_97:\n      pop\n        /* \"contracts/Ticketsale.sol\":4307:4347  uint[] memory result = new uint[](count) */\n      swap1\n      pop\n        /* \"contracts/Ticketsale.sol\":4362:4368  uint i */\n      0x00\n        /* \"contracts/Ticketsale.sol\":4357:4442  for (uint i = 0; i < count; i++) {... */\n    tag_98:\n        /* \"contracts/Ticketsale.sol\":4378:4383  count */\n      dup3\n        /* \"contracts/Ticketsale.sol\":4374:4375  i */\n      dup2\n        /* \"contracts/Ticketsale.sol\":4374:4383  i < count */\n      lt\n        /* \"contracts/Ticketsale.sol\":4357:4442  for (uint i = 0; i < count; i++) {... */\n      iszero\n      tag_99\n      jumpi\n        /* \"contracts/Ticketsale.sol\":4416:4428  ownedTickets */\n      dup4\n        /* \"contracts/Ticketsale.sol\":4429:4430  i */\n      dup2\n        /* \"contracts/Ticketsale.sol\":4416:4431  ownedTickets[i] */\n      dup2\n      mload\n      dup2\n      lt\n      tag_101\n      jumpi\n      tag_102\n      tag_92\n      jump\t// in\n    tag_102:\n    tag_101:\n      0x20\n      mul\n      0x20\n      add\n      add\n      mload\n        /* \"contracts/Ticketsale.sol\":4404:4410  result */\n      dup3\n        /* \"contracts/Ticketsale.sol\":4411:4412  i */\n      dup3\n        /* \"contracts/Ticketsale.sol\":4404:4413  result[i] */\n      dup2\n      mload\n      dup2\n      lt\n      tag_103\n      jumpi\n      tag_104\n      tag_92\n      jump\t// in\n    tag_104:\n    tag_103:\n      0x20\n      mul\n      0x20\n      add\n      add\n        /* \"contracts/Ticketsale.sol\":4404:4431  result[i] = ownedTickets[i] */\n      dup2\n      dup2\n      mstore\n      pop\n      pop\n        /* \"contracts/Ticketsale.sol\":4385:4388  i++ */\n      dup1\n      dup1\n      0x01\n      add\n      swap2\n      pop\n      pop\n        /* \"contracts/Ticketsale.sol\":4357:4442  for (uint i = 0; i < count; i++) {... */\n      jump(tag_98)\n    tag_99:\n      pop\n        /* \"contracts/Ticketsale.sol\":4458:4464  result */\n      dup1\n        /* \"contracts/Ticketsale.sol\":4451:4464  return result */\n      swap4\n      pop\n      pop\n      pop\n      pop\n        /* \"contracts/Ticketsale.sol\":3783:4471  function getTicketByAddress(address user) public view returns (uint[] memory) {... */\n      swap2\n      swap1\n      pop\n      jump\t// out\n        /* \"contracts/Ticketsale.sol\":401:439  mapping(uint => Ticket) public tickets */\n    tag_33:\n      mstore(0x20, 0x02)\n      dup1\n      0x00\n      mstore\n      keccak256(0x00, 0x40)\n      0x00\n      swap2\n      pop\n      swap1\n      pop\n      dup1\n      0x00\n      add\n      0x00\n      swap1\n      sload\n      swap1\n      0x0100\n      exp\n      swap1\n      div\n      0xffffffffffffffffffffffffffffffffffffffff\n      and\n      swap1\n      dup1\n      0x00\n      add\n      0x14\n      swap1\n      sload\n      swap1\n      0x0100\n      exp\n      swap1\n      div\n      0xff\n      and\n      swap1\n      dup1\n      0x00\n      add\n      0x15\n      swap1\n      sload\n      swap1\n      0x0100\n      exp\n      swap1\n      div\n      0xff\n      and\n      swap1\n      pop\n      dup4\n      jump\t// out\n        /* \"contracts/Ticketsale.sol\":142:176  uint public serviceFee = 0.1 ether */\n    tag_38:\n      sload(0x01)\n      dup2\n      jump\t// out\n        /* \"contracts/Ticketsale.sol\":84:109  uint public ticketCounter */\n    tag_43:\n      sload(0x00)\n      dup2\n      jump\t// out\n        /* \"contracts/Ticketsale.sol\":2743:3429  function returnTicket(uint ticketID) public {... */\n    tag_48:\n        /* \"contracts/Ticketsale.sol\":2877:2887  msg.sender */\n      caller\n        /* \"contracts/Ticketsale.sol\":2850:2887  tickets[ticketID].owner == msg.sender */\n      0xffffffffffffffffffffffffffffffffffffffff\n      and\n        /* \"contracts/Ticketsale.sol\":2850:2857  tickets */\n      0x02\n        /* \"contracts/Ticketsale.sol\":2850:2867  tickets[ticketID] */\n      0x00\n        /* \"contracts/Ticketsale.sol\":2858:2866  ticketID */\n      dup4\n        /* \"contracts/Ticketsale.sol\":2850:2867  tickets[ticketID] */\n      dup2\n      mstore\n      0x20\n      add\n      swap1\n      dup2\n      mstore\n      0x20\n      add\n      0x00\n      keccak256\n        /* \"contracts/Ticketsale.sol\":2850:2873  tickets[ticketID].owner */\n      0x00\n      add\n      0x00\n      swap1\n      sload\n      swap1\n      0x0100\n      exp\n      swap1\n      div\n      0xffffffffffffffffffffffffffffffffffffffff\n      and\n        /* \"contracts/Ticketsale.sol\":2850:2887  tickets[ticketID].owner == msg.sender */\n      0xffffffffffffffffffffffffffffffffffffffff\n      and\n      eq\n        /* \"contracts/Ticketsale.sol\":2842:2918  require(tickets[ticketID].owner == msg.sender, \"You don't own this ticket.\") */\n      tag_106\n      jumpi\n      mload(0x40)\n      0x08c379a000000000000000000000000000000000000000000000000000000000\n      dup2\n      mstore\n      0x04\n      add\n      tag_107\n      swap1\n      tag_76\n      jump\t// in\n    tag_107:\n      mload(0x40)\n      dup1\n      swap2\n      sub\n      swap1\n      revert\n    tag_106:\n        /* \"contracts/Ticketsale.sol\":2936:2943  tickets */\n      0x02\n        /* \"contracts/Ticketsale.sol\":2936:2953  tickets[ticketID] */\n      0x00\n        /* \"contracts/Ticketsale.sol\":2944:2952  ticketID */\n      dup3\n        /* \"contracts/Ticketsale.sol\":2936:2953  tickets[ticketID] */\n      dup2\n      mstore\n      0x20\n      add\n      swap1\n      dup2\n      mstore\n      0x20\n      add\n      0x00\n      keccak256\n        /* \"contracts/Ticketsale.sol\":2936:2965  tickets[ticketID].isPurchased */\n      0x00\n      add\n      0x14\n      swap1\n      sload\n      swap1\n      0x0100\n      exp\n      swap1\n      div\n      0xff\n      and\n        /* \"contracts/Ticketsale.sol\":2928:2991  require(tickets[ticketID].isPurchased, \"Ticket not purchased.\") */\n      tag_108\n      jumpi\n      mload(0x40)\n      0x08c379a000000000000000000000000000000000000000000000000000000000\n      dup2\n      mstore\n      0x04\n      add\n      tag_109\n      swap1\n      tag_73\n      jump\t// in\n    tag_109:\n      mload(0x40)\n      dup1\n      swap2\n      sub\n      swap1\n      revert\n    tag_108:\n        /* \"contracts/Ticketsale.sol\":3078:3095  uint refundAmount */\n      0x00\n        /* \"contracts/Ticketsale.sol\":3108:3118  serviceFee */\n      sload(0x01)\n        /* \"contracts/Ticketsale.sol\":3098:3105  1 ether */\n      0x0de0b6b3a7640000\n        /* \"contracts/Ticketsale.sol\":3098:3118  1 ether - serviceFee */\n      tag_110\n      swap2\n      swap1\n      tag_111\n      jump\t// in\n    tag_110:\n        /* \"contracts/Ticketsale.sol\":3078:3118  uint refundAmount = 1 ether - serviceFee */\n      swap1\n      pop\n        /* \"contracts/Ticketsale.sol\":3200:3205  false */\n      0x00\n        /* \"contracts/Ticketsale.sol\":3168:3175  tickets */\n      0x02\n        /* \"contracts/Ticketsale.sol\":3168:3185  tickets[ticketID] */\n      0x00\n        /* \"contracts/Ticketsale.sol\":3176:3184  ticketID */\n      dup5\n        /* \"contracts/Ticketsale.sol\":3168:3185  tickets[ticketID] */\n      dup2\n      mstore\n      0x20\n      add\n      swap1\n      dup2\n      mstore\n      0x20\n      add\n      0x00\n      keccak256\n        /* \"contracts/Ticketsale.sol\":3168:3197  tickets[ticketID].isPurchased */\n      0x00\n      add\n      0x14\n        /* \"contracts/Ticketsale.sol\":3168:3205  tickets[ticketID].isPurchased = false */\n      0x0100\n      exp\n      dup2\n      sload\n      dup2\n      0xff\n      mul\n      not\n      and\n      swap1\n      dup4\n      iszero\n      iszero\n      mul\n      or\n      swap1\n      sstore\n      pop\n        /* \"contracts/Ticketsale.sol\":3275:3285  msg.sender */\n      caller\n        /* \"contracts/Ticketsale.sol\":3267:3295  payable(msg.sender).transfer */\n      0xffffffffffffffffffffffffffffffffffffffff\n      and\n        /* \"contracts/Ticketsale.sol\":3267:3309  payable(msg.sender).transfer(refundAmount) */\n      0x08fc\n        /* \"contracts/Ticketsale.sol\":3296:3308  refundAmount */\n      dup3\n        /* \"contracts/Ticketsale.sol\":3267:3309  payable(msg.sender).transfer(refundAmount) */\n      swap1\n      dup2\n      iszero\n      mul\n      swap1\n      mload(0x40)\n      0x00\n      mload(0x40)\n      dup1\n      dup4\n      sub\n      dup2\n      dup6\n      dup9\n      dup9\n      call\n      swap4\n      pop\n      pop\n      pop\n      pop\n      iszero\n      dup1\n      iszero\n      tag_113\n      jumpi\n      returndatasize\n      0x00\n      dup1\n      returndatacopy\n      revert(0x00, returndatasize)\n    tag_113:\n      pop\n        /* \"contracts/Ticketsale.sol\":3372:3422  TicketReturned(ticketID, msg.sender, refundAmount) */\n      0x40b7887f382a28c53f89b0e0eeef2b760e0ab00538c3fd30eccdbb41229c57e7\n        /* \"contracts/Ticketsale.sol\":3387:3395  ticketID */\n      dup3\n        /* \"contracts/Ticketsale.sol\":3397:3407  msg.sender */\n      caller\n        /* \"contracts/Ticketsale.sol\":3409:3421  refundAmount */\n      dup4\n        /* \"contracts/Ticketsale.sol\":3372:3422  TicketReturned(ticketID, msg.sender, refundAmount) */\n      mload(0x40)\n      tag_114\n      swap4\n      swap3\n      swap2\n      swap1\n      tag_115\n      jump\t// in\n    tag_114:\n      mload(0x40)\n      dup1\n      swap2\n      sub\n      swap1\n      log1\n        /* \"contracts/Ticketsale.sol\":2787:3429  {... */\n      pop\n        /* \"contracts/Ticketsale.sol\":2743:3429  function returnTicket(uint ticketID) public {... */\n      pop\n      jump\t// out\n        /* \"contracts/Ticketsale.sol\":3504:3714  function getTicketInfo(uint ticketID) public view returns (address, bool, bool) {... */\n    tag_52:\n        /* \"contracts/Ticketsale.sol\":3563:3570  address */\n      0x00\n        /* \"contracts/Ticketsale.sol\":3572:3576  bool */\n      dup1\n        /* \"contracts/Ticketsale.sol\":3578:3582  bool */\n      0x00\n        /* \"contracts/Ticketsale.sol\":3594:3614  Ticket memory ticket */\n      dup1\n        /* \"contracts/Ticketsale.sol\":3617:3624  tickets */\n      0x02\n        /* \"contracts/Ticketsale.sol\":3617:3634  tickets[ticketID] */\n      0x00\n        /* \"contracts/Ticketsale.sol\":3625:3633  ticketID */\n      dup7\n        /* \"contracts/Ticketsale.sol\":3617:3634  tickets[ticketID] */\n      dup2\n      mstore\n      0x20\n      add\n      swap1\n      dup2\n      mstore\n      0x20\n      add\n      0x00\n      keccak256\n        /* \"contracts/Ticketsale.sol\":3594:3634  Ticket memory ticket = tickets[ticketID] */\n      mload(0x40)\n      dup1\n      0x60\n      add\n      0x40\n      mstore\n      swap1\n      dup2\n      0x00\n      dup3\n      add\n      0x00\n      swap1\n      sload\n      swap1\n      0x0100\n      exp\n      swap1\n      div\n      0xffffffffffffffffffffffffffffffffffffffff\n      and\n      0xffffffffffffffffffffffffffffffffffffffff\n      and\n      0xffffffffffffffffffffffffffffffffffffffff\n      and\n      dup2\n      mstore\n      0x20\n      add\n      0x00\n      dup3\n      add\n      0x14\n      swap1\n      sload\n      swap1\n      0x0100\n      exp\n      swap1\n      div\n      0xff\n      and\n      iszero\n      iszero\n      iszero\n      iszero\n      dup2\n      mstore\n      0x20\n      add\n      0x00\n      dup3\n      add\n      0x15\n      swap1\n      sload\n      swap1\n      0x0100\n      exp\n      swap1\n      div\n      0xff\n      and\n      iszero\n      iszero\n      iszero\n      iszero\n      dup2\n      mstore\n      pop\n      pop\n      swap1\n      pop\n        /* \"contracts/Ticketsale.sol\":3652:3658  ticket */\n      dup1\n        /* \"contracts/Ticketsale.sol\":3652:3664  ticket.owner */\n      0x00\n      add\n      mload\n        /* \"contracts/Ticketsale.sol\":3666:3672  ticket */\n      dup2\n        /* \"contracts/Ticketsale.sol\":3666:3684  ticket.isPurchased */\n      0x20\n      add\n      mload\n        /* \"contracts/Ticketsale.sol\":3686:3692  ticket */\n      dup3\n        /* \"contracts/Ticketsale.sol\":3686:3706  ticket.isSwapPending */\n      0x40\n      add\n      mload\n        /* \"contracts/Ticketsale.sol\":3644:3707  return (ticket.owner, ticket.isPurchased, ticket.isSwapPending) */\n      swap4\n      pop\n      swap4\n      pop\n      swap4\n      pop\n      pop\n        /* \"contracts/Ticketsale.sol\":3504:3714  function getTicketInfo(uint ticketID) public view returns (address, bool, bool) {... */\n      swap2\n      swap4\n      swap1\n      swap3\n      pop\n      jump\t// out\n        /* \"#utility.yul\":88:205   */\n    tag_118:\n        /* \"#utility.yul\":197:198   */\n      0x00\n        /* \"#utility.yul\":194:195   */\n      dup1\n        /* \"#utility.yul\":187:199   */\n      revert\n        /* \"#utility.yul\":334:411   */\n    tag_120:\n        /* \"#utility.yul\":371:378   */\n      0x00\n        /* \"#utility.yul\":400:405   */\n      dup2\n        /* \"#utility.yul\":389:405   */\n      swap1\n      pop\n        /* \"#utility.yul\":334:411   */\n      swap2\n      swap1\n      pop\n      jump\t// out\n        /* \"#utility.yul\":417:539   */\n    tag_121:\n        /* \"#utility.yul\":490:514   */\n      tag_158\n        /* \"#utility.yul\":508:513   */\n      dup2\n        /* \"#utility.yul\":490:514   */\n      tag_120\n      jump\t// in\n    tag_158:\n        /* \"#utility.yul\":483:488   */\n      dup2\n        /* \"#utility.yul\":480:515   */\n      eq\n        /* \"#utility.yul\":470:533   */\n      tag_159\n      jumpi\n        /* \"#utility.yul\":529:530   */\n      0x00\n        /* \"#utility.yul\":526:527   */\n      dup1\n        /* \"#utility.yul\":519:531   */\n      revert\n        /* \"#utility.yul\":470:533   */\n    tag_159:\n        /* \"#utility.yul\":417:539   */\n      pop\n      jump\t// out\n        /* \"#utility.yul\":545:684   */\n    tag_122:\n        /* \"#utility.yul\":591:596   */\n      0x00\n        /* \"#utility.yul\":629:635   */\n      dup2\n        /* \"#utility.yul\":616:636   */\n      calldataload\n        /* \"#utility.yul\":607:636   */\n      swap1\n      pop\n        /* \"#utility.yul\":645:678   */\n      tag_161\n        /* \"#utility.yul\":672:677   */\n      dup2\n        /* \"#utility.yul\":645:678   */\n      tag_121\n      jump\t// in\n    tag_161:\n        /* \"#utility.yul\":545:684   */\n      swap3\n      swap2\n      pop\n      pop\n      jump\t// out\n        /* \"#utility.yul\":690:1019   */\n    tag_15:\n        /* \"#utility.yul\":749:755   */\n      0x00\n        /* \"#utility.yul\":798:800   */\n      0x20\n        /* \"#utility.yul\":786:795   */\n      dup3\n        /* \"#utility.yul\":777:784   */\n      dup5\n        /* \"#utility.yul\":773:796   */\n      sub\n        /* \"#utility.yul\":769:801   */\n      slt\n        /* \"#utility.yul\":766:885   */\n      iszero\n      tag_163\n      jumpi\n        /* \"#utility.yul\":804:883   */\n      tag_164\n      tag_118\n      jump\t// in\n    tag_164:\n        /* \"#utility.yul\":766:885   */\n    tag_163:\n        /* \"#utility.yul\":924:925   */\n      0x00\n        /* \"#utility.yul\":949:1002   */\n      tag_165\n        /* \"#utility.yul\":994:1001   */\n      dup5\n        /* \"#utility.yul\":985:991   */\n      dup3\n        /* \"#utility.yul\":974:983   */\n      dup6\n        /* \"#utility.yul\":970:992   */\n      add\n        /* \"#utility.yul\":949:1002   */\n      tag_122\n      jump\t// in\n    tag_165:\n        /* \"#utility.yul\":939:1002   */\n      swap2\n      pop\n        /* \"#utility.yul\":895:1012   */\n      pop\n        /* \"#utility.yul\":690:1019   */\n      swap3\n      swap2\n      pop\n      pop\n      jump\t// out\n        /* \"#utility.yul\":1025:1151   */\n    tag_123:\n        /* \"#utility.yul\":1062:1069   */\n      0x00\n        /* \"#utility.yul\":1102:1144   */\n      0xffffffffffffffffffffffffffffffffffffffff\n        /* \"#utility.yul\":1095:1100   */\n      dup3\n        /* \"#utility.yul\":1091:1145   */\n      and\n        /* \"#utility.yul\":1080:1145   */\n      swap1\n      pop\n        /* \"#utility.yul\":1025:1151   */\n      swap2\n      swap1\n      pop\n      jump\t// out\n        /* \"#utility.yul\":1157:1253   */\n    tag_124:\n        /* \"#utility.yul\":1194:1201   */\n      0x00\n        /* \"#utility.yul\":1223:1247   */\n      tag_168\n        /* \"#utility.yul\":1241:1246   */\n      dup3\n        /* \"#utility.yul\":1223:1247   */\n      tag_123\n      jump\t// in\n    tag_168:\n        /* \"#utility.yul\":1212:1247   */\n      swap1\n      pop\n        /* \"#utility.yul\":1157:1253   */\n      swap2\n      swap1\n      pop\n      jump\t// out\n        /* \"#utility.yul\":1259:1381   */\n    tag_125:\n        /* \"#utility.yul\":1332:1356   */\n      tag_170\n        /* \"#utility.yul\":1350:1355   */\n      dup2\n        /* \"#utility.yul\":1332:1356   */\n      tag_124\n      jump\t// in\n    tag_170:\n        /* \"#utility.yul\":1325:1330   */\n      dup2\n        /* \"#utility.yul\":1322:1357   */\n      eq\n        /* \"#utility.yul\":1312:1375   */\n      tag_171\n      jumpi\n        /* \"#utility.yul\":1371:1372   */\n      0x00\n        /* \"#utility.yul\":1368:1369   */\n      dup1\n        /* \"#utility.yul\":1361:1373   */\n      revert\n        /* \"#utility.yul\":1312:1375   */\n    tag_171:\n        /* \"#utility.yul\":1259:1381   */\n      pop\n      jump\t// out\n        /* \"#utility.yul\":1387:1526   */\n    tag_126:\n        /* \"#utility.yul\":1433:1438   */\n      0x00\n        /* \"#utility.yul\":1471:1477   */\n      dup2\n        /* \"#utility.yul\":1458:1478   */\n      calldataload\n        /* \"#utility.yul\":1449:1478   */\n      swap1\n      pop\n        /* \"#utility.yul\":1487:1520   */\n      tag_173\n        /* \"#utility.yul\":1514:1519   */\n      dup2\n        /* \"#utility.yul\":1487:1520   */\n      tag_125\n      jump\t// in\n    tag_173:\n        /* \"#utility.yul\":1387:1526   */\n      swap3\n      swap2\n      pop\n      pop\n      jump\t// out\n        /* \"#utility.yul\":1532:1861   */\n    tag_26:\n        /* \"#utility.yul\":1591:1597   */\n      0x00\n        /* \"#utility.yul\":1640:1642   */\n      0x20\n        /* \"#utility.yul\":1628:1637   */\n      dup3\n        /* \"#utility.yul\":1619:1626   */\n      dup5\n        /* \"#utility.yul\":1615:1638   */\n      sub\n        /* \"#utility.yul\":1611:1643   */\n      slt\n        /* \"#utility.yul\":1608:1727   */\n      iszero\n      tag_175\n      jumpi\n        /* \"#utility.yul\":1646:1725   */\n      tag_176\n      tag_118\n      jump\t// in\n    tag_176:\n        /* \"#utility.yul\":1608:1727   */\n    tag_175:\n        /* \"#utility.yul\":1766:1767   */\n      0x00\n        /* \"#utility.yul\":1791:1844   */\n      tag_177\n        /* \"#utility.yul\":1836:1843   */\n      dup5\n        /* \"#utility.yul\":1827:1833   */\n      dup3\n        /* \"#utility.yul\":1816:1825   */\n      dup6\n        /* \"#utility.yul\":1812:1834   */\n      add\n        /* \"#utility.yul\":1791:1844   */\n      tag_126\n      jump\t// in\n    tag_177:\n        /* \"#utility.yul\":1781:1844   */\n      swap2\n      pop\n        /* \"#utility.yul\":1737:1854   */\n      pop\n        /* \"#utility.yul\":1532:1861   */\n      swap3\n      swap2\n      pop\n      pop\n      jump\t// out\n        /* \"#utility.yul\":1867:1981   */\n    tag_127:\n        /* \"#utility.yul\":1934:1940   */\n      0x00\n        /* \"#utility.yul\":1968:1973   */\n      dup2\n        /* \"#utility.yul\":1962:1974   */\n      mload\n        /* \"#utility.yul\":1952:1974   */\n      swap1\n      pop\n        /* \"#utility.yul\":1867:1981   */\n      swap2\n      swap1\n      pop\n      jump\t// out\n        /* \"#utility.yul\":1987:2171   */\n    tag_128:\n        /* \"#utility.yul\":2086:2097   */\n      0x00\n        /* \"#utility.yul\":2120:2126   */\n      dup3\n        /* \"#utility.yul\":2115:2118   */\n      dup3\n        /* \"#utility.yul\":2108:2127   */\n      mstore\n        /* \"#utility.yul\":2160:2164   */\n      0x20\n        /* \"#utility.yul\":2155:2158   */\n      dup3\n        /* \"#utility.yul\":2151:2165   */\n      add\n        /* \"#utility.yul\":2136:2165   */\n      swap1\n      pop\n        /* \"#utility.yul\":1987:2171   */\n      swap3\n      swap2\n      pop\n      pop\n      jump\t// out\n        /* \"#utility.yul\":2177:2309   */\n    tag_129:\n        /* \"#utility.yul\":2244:2248   */\n      0x00\n        /* \"#utility.yul\":2267:2270   */\n      dup2\n        /* \"#utility.yul\":2259:2270   */\n      swap1\n      pop\n        /* \"#utility.yul\":2297:2301   */\n      0x20\n        /* \"#utility.yul\":2292:2295   */\n      dup3\n        /* \"#utility.yul\":2288:2302   */\n      add\n        /* \"#utility.yul\":2280:2302   */\n      swap1\n      pop\n        /* \"#utility.yul\":2177:2309   */\n      swap2\n      swap1\n      pop\n      jump\t// out\n        /* \"#utility.yul\":2315:2423   */\n    tag_130:\n        /* \"#utility.yul\":2392:2416   */\n      tag_182\n        /* \"#utility.yul\":2410:2415   */\n      dup2\n        /* \"#utility.yul\":2392:2416   */\n      tag_120\n      jump\t// in\n    tag_182:\n        /* \"#utility.yul\":2387:2390   */\n      dup3\n        /* \"#utility.yul\":2380:2417   */\n      mstore\n        /* \"#utility.yul\":2315:2423   */\n      pop\n      pop\n      jump\t// out\n        /* \"#utility.yul\":2429:2608   */\n    tag_131:\n        /* \"#utility.yul\":2498:2508   */\n      0x00\n        /* \"#utility.yul\":2519:2565   */\n      tag_184\n        /* \"#utility.yul\":2561:2564   */\n      dup4\n        /* \"#utility.yul\":2553:2559   */\n      dup4\n        /* \"#utility.yul\":2519:2565   */\n      tag_130\n      jump\t// in\n    tag_184:\n        /* \"#utility.yul\":2597:2601   */\n      0x20\n        /* \"#utility.yul\":2592:2595   */\n      dup4\n        /* \"#utility.yul\":2588:2602   */\n      add\n        /* \"#utility.yul\":2574:2602   */\n      swap1\n      pop\n        /* \"#utility.yul\":2429:2608   */\n      swap3\n      swap2\n      pop\n      pop\n      jump\t// out\n        /* \"#utility.yul\":2614:2727   */\n    tag_132:\n        /* \"#utility.yul\":2684:2688   */\n      0x00\n        /* \"#utility.yul\":2716:2720   */\n      0x20\n        /* \"#utility.yul\":2711:2714   */\n      dup3\n        /* \"#utility.yul\":2707:2721   */\n      add\n        /* \"#utility.yul\":2699:2721   */\n      swap1\n      pop\n        /* \"#utility.yul\":2614:2727   */\n      swap2\n      swap1\n      pop\n      jump\t// out\n        /* \"#utility.yul\":2763:3495   */\n    tag_133:\n        /* \"#utility.yul\":2882:2885   */\n      0x00\n        /* \"#utility.yul\":2911:2965   */\n      tag_187\n        /* \"#utility.yul\":2959:2964   */\n      dup3\n        /* \"#utility.yul\":2911:2965   */\n      tag_127\n      jump\t// in\n    tag_187:\n        /* \"#utility.yul\":2981:3067   */\n      tag_188\n        /* \"#utility.yul\":3060:3066   */\n      dup2\n        /* \"#utility.yul\":3055:3058   */\n      dup6\n        /* \"#utility.yul\":2981:3067   */\n      tag_128\n      jump\t// in\n    tag_188:\n        /* \"#utility.yul\":2974:3067   */\n      swap4\n      pop\n        /* \"#utility.yul\":3091:3147   */\n      tag_189\n        /* \"#utility.yul\":3141:3146   */\n      dup4\n        /* \"#utility.yul\":3091:3147   */\n      tag_129\n      jump\t// in\n    tag_189:\n        /* \"#utility.yul\":3170:3177   */\n      dup1\n        /* \"#utility.yul\":3201:3202   */\n      0x00\n        /* \"#utility.yul\":3186:3470   */\n    tag_190:\n        /* \"#utility.yul\":3211:3217   */\n      dup4\n        /* \"#utility.yul\":3208:3209   */\n      dup2\n        /* \"#utility.yul\":3205:3218   */\n      lt\n        /* \"#utility.yul\":3186:3470   */\n      iszero\n      tag_192\n      jumpi\n        /* \"#utility.yul\":3287:3293   */\n      dup2\n        /* \"#utility.yul\":3281:3294   */\n      mload\n        /* \"#utility.yul\":3314:3377   */\n      tag_193\n        /* \"#utility.yul\":3373:3376   */\n      dup9\n        /* \"#utility.yul\":3358:3371   */\n      dup3\n        /* \"#utility.yul\":3314:3377   */\n      tag_131\n      jump\t// in\n    tag_193:\n        /* \"#utility.yul\":3307:3377   */\n      swap8\n      pop\n        /* \"#utility.yul\":3400:3460   */\n      tag_194\n        /* \"#utility.yul\":3453:3459   */\n      dup4\n        /* \"#utility.yul\":3400:3460   */\n      tag_132\n      jump\t// in\n    tag_194:\n        /* \"#utility.yul\":3390:3460   */\n      swap3\n      pop\n        /* \"#utility.yul\":3246:3470   */\n      pop\n        /* \"#utility.yul\":3233:3234   */\n      0x01\n        /* \"#utility.yul\":3230:3231   */\n      dup2\n        /* \"#utility.yul\":3226:3235   */\n      add\n        /* \"#utility.yul\":3221:3235   */\n      swap1\n      pop\n        /* \"#utility.yul\":3186:3470   */\n      jump(tag_190)\n    tag_192:\n        /* \"#utility.yul\":3190:3204   */\n      pop\n        /* \"#utility.yul\":3486:3489   */\n      dup6\n        /* \"#utility.yul\":3479:3489   */\n      swap4\n      pop\n        /* \"#utility.yul\":2887:3495   */\n      pop\n      pop\n      pop\n        /* \"#utility.yul\":2763:3495   */\n      swap3\n      swap2\n      pop\n      pop\n      jump\t// out\n        /* \"#utility.yul\":3501:3874   */\n    tag_29:\n        /* \"#utility.yul\":3644:3648   */\n      0x00\n        /* \"#utility.yul\":3682:3684   */\n      0x20\n        /* \"#utility.yul\":3671:3680   */\n      dup3\n        /* \"#utility.yul\":3667:3685   */\n      add\n        /* \"#utility.yul\":3659:3685   */\n      swap1\n      pop\n        /* \"#utility.yul\":3731:3740   */\n      dup2\n        /* \"#utility.yul\":3725:3729   */\n      dup2\n        /* \"#utility.yul\":3721:3741   */\n      sub\n        /* \"#utility.yul\":3717:3718   */\n      0x00\n        /* \"#utility.yul\":3706:3715   */\n      dup4\n        /* \"#utility.yul\":3702:3719   */\n      add\n        /* \"#utility.yul\":3695:3742   */\n      mstore\n        /* \"#utility.yul\":3759:3867   */\n      tag_196\n        /* \"#utility.yul\":3862:3866   */\n      dup2\n        /* \"#utility.yul\":3853:3859   */\n      dup5\n        /* \"#utility.yul\":3759:3867   */\n      tag_133\n      jump\t// in\n    tag_196:\n        /* \"#utility.yul\":3751:3867   */\n      swap1\n      pop\n        /* \"#utility.yul\":3501:3874   */\n      swap3\n      swap2\n      pop\n      pop\n      jump\t// out\n        /* \"#utility.yul\":3880:3998   */\n    tag_134:\n        /* \"#utility.yul\":3967:3991   */\n      tag_198\n        /* \"#utility.yul\":3985:3990   */\n      dup2\n        /* \"#utility.yul\":3967:3991   */\n      tag_124\n      jump\t// in\n    tag_198:\n        /* \"#utility.yul\":3962:3965   */\n      dup3\n        /* \"#utility.yul\":3955:3992   */\n      mstore\n        /* \"#utility.yul\":3880:3998   */\n      pop\n      pop\n      jump\t// out\n        /* \"#utility.yul\":4004:4094   */\n    tag_135:\n        /* \"#utility.yul\":4038:4045   */\n      0x00\n        /* \"#utility.yul\":4081:4086   */\n      dup2\n        /* \"#utility.yul\":4074:4087   */\n      iszero\n        /* \"#utility.yul\":4067:4088   */\n      iszero\n        /* \"#utility.yul\":4056:4088   */\n      swap1\n      pop\n        /* \"#utility.yul\":4004:4094   */\n      swap2\n      swap1\n      pop\n      jump\t// out\n        /* \"#utility.yul\":4100:4209   */\n    tag_136:\n        /* \"#utility.yul\":4181:4202   */\n      tag_201\n        /* \"#utility.yul\":4196:4201   */\n      dup2\n        /* \"#utility.yul\":4181:4202   */\n      tag_135\n      jump\t// in\n    tag_201:\n        /* \"#utility.yul\":4176:4179   */\n      dup3\n        /* \"#utility.yul\":4169:4203   */\n      mstore\n        /* \"#utility.yul\":4100:4209   */\n      pop\n      pop\n      jump\t// out\n        /* \"#utility.yul\":4215:4633   */\n    tag_35:\n        /* \"#utility.yul\":4352:4356   */\n      0x00\n        /* \"#utility.yul\":4390:4392   */\n      0x60\n        /* \"#utility.yul\":4379:4388   */\n      dup3\n        /* \"#utility.yul\":4375:4393   */\n      add\n        /* \"#utility.yul\":4367:4393   */\n      swap1\n      pop\n        /* \"#utility.yul\":4403:4474   */\n      tag_203\n        /* \"#utility.yul\":4471:4472   */\n      0x00\n        /* \"#utility.yul\":4460:4469   */\n      dup4\n        /* \"#utility.yul\":4456:4473   */\n      add\n        /* \"#utility.yul\":4447:4453   */\n      dup7\n        /* \"#utility.yul\":4403:4474   */\n      tag_134\n      jump\t// in\n    tag_203:\n        /* \"#utility.yul\":4484:4550   */\n      tag_204\n        /* \"#utility.yul\":4546:4548   */\n      0x20\n        /* \"#utility.yul\":4535:4544   */\n      dup4\n        /* \"#utility.yul\":4531:4549   */\n      add\n        /* \"#utility.yul\":4522:4528   */\n      dup6\n        /* \"#utility.yul\":4484:4550   */\n      tag_136\n      jump\t// in\n    tag_204:\n        /* \"#utility.yul\":4560:4626   */\n      tag_205\n        /* \"#utility.yul\":4622:4624   */\n      0x40\n        /* \"#utility.yul\":4611:4620   */\n      dup4\n        /* \"#utility.yul\":4607:4625   */\n      add\n        /* \"#utility.yul\":4598:4604   */\n      dup5\n        /* \"#utility.yul\":4560:4626   */\n      tag_136\n      jump\t// in\n    tag_205:\n        /* \"#utility.yul\":4215:4633   */\n      swap5\n      swap4\n      pop\n      pop\n      pop\n      pop\n      jump\t// out\n        /* \"#utility.yul\":4639:4757   */\n    tag_137:\n        /* \"#utility.yul\":4726:4750   */\n      tag_207\n        /* \"#utility.yul\":4744:4749   */\n      dup2\n        /* \"#utility.yul\":4726:4750   */\n      tag_120\n      jump\t// in\n    tag_207:\n        /* \"#utility.yul\":4721:4724   */\n      dup3\n        /* \"#utility.yul\":4714:4751   */\n      mstore\n        /* \"#utility.yul\":4639:4757   */\n      pop\n      pop\n      jump\t// out\n        /* \"#utility.yul\":4763:4985   */\n    tag_40:\n        /* \"#utility.yul\":4856:4860   */\n      0x00\n        /* \"#utility.yul\":4894:4896   */\n      0x20\n        /* \"#utility.yul\":4883:4892   */\n      dup3\n        /* \"#utility.yul\":4879:4897   */\n      add\n        /* \"#utility.yul\":4871:4897   */\n      swap1\n      pop\n        /* \"#utility.yul\":4907:4978   */\n      tag_209\n        /* \"#utility.yul\":4975:4976   */\n      0x00\n        /* \"#utility.yul\":4964:4973   */\n      dup4\n        /* \"#utility.yul\":4960:4977   */\n      add\n        /* \"#utility.yul\":4951:4957   */\n      dup5\n        /* \"#utility.yul\":4907:4978   */\n      tag_137\n      jump\t// in\n    tag_209:\n        /* \"#utility.yul\":4763:4985   */\n      swap3\n      swap2\n      pop\n      pop\n      jump\t// out\n        /* \"#utility.yul\":4991:5160   */\n    tag_138:\n        /* \"#utility.yul\":5075:5086   */\n      0x00\n        /* \"#utility.yul\":5109:5115   */\n      dup3\n        /* \"#utility.yul\":5104:5107   */\n      dup3\n        /* \"#utility.yul\":5097:5116   */\n      mstore\n        /* \"#utility.yul\":5149:5153   */\n      0x20\n        /* \"#utility.yul\":5144:5147   */\n      dup3\n        /* \"#utility.yul\":5140:5154   */\n      add\n        /* \"#utility.yul\":5125:5154   */\n      swap1\n      pop\n        /* \"#utility.yul\":4991:5160   */\n      swap3\n      swap2\n      pop\n      pop\n      jump\t// out\n        /* \"#utility.yul\":5166:5346   */\n    tag_139:\n        /* \"#utility.yul\":5306:5338   */\n      0x4e6f2073776170206f6666657220666f722074686973207469636b65742e0000\n        /* \"#utility.yul\":5302:5303   */\n      0x00\n        /* \"#utility.yul\":5294:5300   */\n      dup3\n        /* \"#utility.yul\":5290:5304   */\n      add\n        /* \"#utility.yul\":5283:5339   */\n      mstore\n        /* \"#utility.yul\":5166:5346   */\n      pop\n      jump\t// out\n        /* \"#utility.yul\":5352:5718   */\n    tag_140:\n        /* \"#utility.yul\":5494:5497   */\n      0x00\n        /* \"#utility.yul\":5515:5582   */\n      tag_213\n        /* \"#utility.yul\":5579:5581   */\n      0x1e\n        /* \"#utility.yul\":5574:5577   */\n      dup4\n        /* \"#utility.yul\":5515:5582   */\n      tag_138\n      jump\t// in\n    tag_213:\n        /* \"#utility.yul\":5508:5582   */\n      swap2\n      pop\n        /* \"#utility.yul\":5591:5684   */\n      tag_214\n        /* \"#utility.yul\":5680:5683   */\n      dup3\n        /* \"#utility.yul\":5591:5684   */\n      tag_139\n      jump\t// in\n    tag_214:\n        /* \"#utility.yul\":5709:5711   */\n      0x20\n        /* \"#utility.yul\":5704:5707   */\n      dup3\n        /* \"#utility.yul\":5700:5712   */\n      add\n        /* \"#utility.yul\":5693:5712   */\n      swap1\n      pop\n        /* \"#utility.yul\":5352:5718   */\n      swap2\n      swap1\n      pop\n      jump\t// out\n        /* \"#utility.yul\":5724:6143   */\n    tag_57:\n        /* \"#utility.yul\":5890:5894   */\n      0x00\n        /* \"#utility.yul\":5928:5930   */\n      0x20\n        /* \"#utility.yul\":5917:5926   */\n      dup3\n        /* \"#utility.yul\":5913:5931   */\n      add\n        /* \"#utility.yul\":5905:5931   */\n      swap1\n      pop\n        /* \"#utility.yul\":5977:5986   */\n      dup2\n        /* \"#utility.yul\":5971:5975   */\n      dup2\n        /* \"#utility.yul\":5967:5987   */\n      sub\n        /* \"#utility.yul\":5963:5964   */\n      0x00\n        /* \"#utility.yul\":5952:5961   */\n      dup4\n        /* \"#utility.yul\":5948:5965   */\n      add\n        /* \"#utility.yul\":5941:5988   */\n      mstore\n        /* \"#utility.yul\":6005:6136   */\n      tag_216\n        /* \"#utility.yul\":6131:6135   */\n      dup2\n        /* \"#utility.yul\":6005:6136   */\n      tag_140\n      jump\t// in\n    tag_216:\n        /* \"#utility.yul\":5997:6136   */\n      swap1\n      pop\n        /* \"#utility.yul\":5724:6143   */\n      swap2\n      swap1\n      pop\n      jump\t// out\n        /* \"#utility.yul\":6149:6329   */\n    tag_141:\n        /* \"#utility.yul\":6289:6321   */\n      0x596f752063616e6e6f742073776170207769746820796f757273656c662e0000\n        /* \"#utility.yul\":6285:6286   */\n      0x00\n        /* \"#utility.yul\":6277:6283   */\n      dup3\n        /* \"#utility.yul\":6273:6287   */\n      add\n        /* \"#utility.yul\":6266:6322   */\n      mstore\n        /* \"#utility.yul\":6149:6329   */\n      pop\n      jump\t// out\n        /* \"#utility.yul\":6335:6701   */\n    tag_142:\n        /* \"#utility.yul\":6477:6480   */\n      0x00\n        /* \"#utility.yul\":6498:6565   */\n      tag_219\n        /* \"#utility.yul\":6562:6564   */\n      0x1e\n        /* \"#utility.yul\":6557:6560   */\n      dup4\n        /* \"#utility.yul\":6498:6565   */\n      tag_138\n      jump\t// in\n    tag_219:\n        /* \"#utility.yul\":6491:6565   */\n      swap2\n      pop\n        /* \"#utility.yul\":6574:6667   */\n      tag_220\n        /* \"#utility.yul\":6663:6666   */\n      dup3\n        /* \"#utility.yul\":6574:6667   */\n      tag_141\n      jump\t// in\n    tag_220:\n        /* \"#utility.yul\":6692:6694   */\n      0x20\n        /* \"#utility.yul\":6687:6690   */\n      dup3\n        /* \"#utility.yul\":6683:6695   */\n      add\n        /* \"#utility.yul\":6676:6695   */\n      swap1\n      pop\n        /* \"#utility.yul\":6335:6701   */\n      swap2\n      swap1\n      pop\n      jump\t// out\n        /* \"#utility.yul\":6707:7126   */\n    tag_60:\n        /* \"#utility.yul\":6873:6877   */\n      0x00\n        /* \"#utility.yul\":6911:6913   */\n      0x20\n        /* \"#utility.yul\":6900:6909   */\n      dup3\n        /* \"#utility.yul\":6896:6914   */\n      add\n        /* \"#utility.yul\":6888:6914   */\n      swap1\n      pop\n        /* \"#utility.yul\":6960:6969   */\n      dup2\n        /* \"#utility.yul\":6954:6958   */\n      dup2\n        /* \"#utility.yul\":6950:6970   */\n      sub\n        /* \"#utility.yul\":6946:6947   */\n      0x00\n        /* \"#utility.yul\":6935:6944   */\n      dup4\n        /* \"#utility.yul\":6931:6948   */\n      add\n        /* \"#utility.yul\":6924:6971   */\n      mstore\n        /* \"#utility.yul\":6988:7119   */\n      tag_222\n        /* \"#utility.yul\":7114:7118   */\n      dup2\n        /* \"#utility.yul\":6988:7119   */\n      tag_142\n      jump\t// in\n    tag_222:\n        /* \"#utility.yul\":6980:7119   */\n      swap1\n      pop\n        /* \"#utility.yul\":6707:7126   */\n      swap2\n      swap1\n      pop\n      jump\t// out\n        /* \"#utility.yul\":7132:7464   */\n    tag_62:\n        /* \"#utility.yul\":7253:7257   */\n      0x00\n        /* \"#utility.yul\":7291:7293   */\n      0x40\n        /* \"#utility.yul\":7280:7289   */\n      dup3\n        /* \"#utility.yul\":7276:7294   */\n      add\n        /* \"#utility.yul\":7268:7294   */\n      swap1\n      pop\n        /* \"#utility.yul\":7304:7375   */\n      tag_224\n        /* \"#utility.yul\":7372:7373   */\n      0x00\n        /* \"#utility.yul\":7361:7370   */\n      dup4\n        /* \"#utility.yul\":7357:7374   */\n      add\n        /* \"#utility.yul\":7348:7354   */\n      dup6\n        /* \"#utility.yul\":7304:7375   */\n      tag_137\n      jump\t// in\n    tag_224:\n        /* \"#utility.yul\":7385:7457   */\n      tag_225\n        /* \"#utility.yul\":7453:7455   */\n      0x20\n        /* \"#utility.yul\":7442:7451   */\n      dup4\n        /* \"#utility.yul\":7438:7456   */\n      add\n        /* \"#utility.yul\":7429:7435   */\n      dup5\n        /* \"#utility.yul\":7385:7457   */\n      tag_134\n      jump\t// in\n    tag_225:\n        /* \"#utility.yul\":7132:7464   */\n      swap4\n      swap3\n      pop\n      pop\n      pop\n      jump\t// out\n        /* \"#utility.yul\":7470:7644   */\n    tag_143:\n        /* \"#utility.yul\":7610:7636   */\n      0x5469636b657420707269636520697320312065746865722e0000000000000000\n        /* \"#utility.yul\":7606:7607   */\n      0x00\n        /* \"#utility.yul\":7598:7604   */\n      dup3\n        /* \"#utility.yul\":7594:7608   */\n      add\n        /* \"#utility.yul\":7587:7637   */\n      mstore\n        /* \"#utility.yul\":7470:7644   */\n      pop\n      jump\t// out\n        /* \"#utility.yul\":7650:8016   */\n    tag_144:\n        /* \"#utility.yul\":7792:7795   */\n      0x00\n        /* \"#utility.yul\":7813:7880   */\n      tag_228\n        /* \"#utility.yul\":7877:7879   */\n      0x18\n        /* \"#utility.yul\":7872:7875   */\n      dup4\n        /* \"#utility.yul\":7813:7880   */\n      tag_138\n      jump\t// in\n    tag_228:\n        /* \"#utility.yul\":7806:7880   */\n      swap2\n      pop\n        /* \"#utility.yul\":7889:7982   */\n      tag_229\n        /* \"#utility.yul\":7978:7981   */\n      dup3\n        /* \"#utility.yul\":7889:7982   */\n      tag_143\n      jump\t// in\n    tag_229:\n        /* \"#utility.yul\":8007:8009   */\n      0x20\n        /* \"#utility.yul\":8002:8005   */\n      dup3\n        /* \"#utility.yul\":7998:8010   */\n      add\n        /* \"#utility.yul\":7991:8010   */\n      swap1\n      pop\n        /* \"#utility.yul\":7650:8016   */\n      swap2\n      swap1\n      pop\n      jump\t// out\n        /* \"#utility.yul\":8022:8441   */\n    tag_66:\n        /* \"#utility.yul\":8188:8192   */\n      0x00\n        /* \"#utility.yul\":8226:8228   */\n      0x20\n        /* \"#utility.yul\":8215:8224   */\n      dup3\n        /* \"#utility.yul\":8211:8229   */\n      add\n        /* \"#utility.yul\":8203:8229   */\n      swap1\n      pop\n        /* \"#utility.yul\":8275:8284   */\n      dup2\n        /* \"#utility.yul\":8269:8273   */\n      dup2\n        /* \"#utility.yul\":8265:8285   */\n      sub\n        /* \"#utility.yul\":8261:8262   */\n      0x00\n        /* \"#utility.yul\":8250:8259   */\n      dup4\n        /* \"#utility.yul\":8246:8263   */\n      add\n        /* \"#utility.yul\":8239:8286   */\n      mstore\n        /* \"#utility.yul\":8303:8434   */\n      tag_231\n        /* \"#utility.yul\":8429:8433   */\n      dup2\n        /* \"#utility.yul\":8303:8434   */\n      tag_144\n      jump\t// in\n    tag_231:\n        /* \"#utility.yul\":8295:8434   */\n      swap1\n      pop\n        /* \"#utility.yul\":8022:8441   */\n      swap2\n      swap1\n      pop\n      jump\t// out\n        /* \"#utility.yul\":8447:8627   */\n    tag_145:\n        /* \"#utility.yul\":8495:8572   */\n      0x4e487b7100000000000000000000000000000000000000000000000000000000\n        /* \"#utility.yul\":8492:8493   */\n      0x00\n        /* \"#utility.yul\":8485:8573   */\n      mstore\n        /* \"#utility.yul\":8592:8596   */\n      0x11\n        /* \"#utility.yul\":8589:8590   */\n      0x04\n        /* \"#utility.yul\":8582:8597   */\n      mstore\n        /* \"#utility.yul\":8616:8620   */\n      0x24\n        /* \"#utility.yul\":8613:8614   */\n      0x00\n        /* \"#utility.yul\":8606:8621   */\n      revert\n        /* \"#utility.yul\":8633:8866   */\n    tag_68:\n        /* \"#utility.yul\":8672:8675   */\n      0x00\n        /* \"#utility.yul\":8695:8719   */\n      tag_234\n        /* \"#utility.yul\":8713:8718   */\n      dup3\n        /* \"#utility.yul\":8695:8719   */\n      tag_120\n      jump\t// in\n    tag_234:\n        /* \"#utility.yul\":8686:8719   */\n      swap2\n      pop\n        /* \"#utility.yul\":8741:8807   */\n      0xffffffffffffffffffffffffffffffffffffffffffffffffffffffffffffffff\n        /* \"#utility.yul\":8734:8739   */\n      dup3\n        /* \"#utility.yul\":8731:8808   */\n      sub\n        /* \"#utility.yul\":8728:8831   */\n      tag_235\n      jumpi\n        /* \"#utility.yul\":8811:8829   */\n      tag_236\n      tag_145\n      jump\t// in\n    tag_236:\n        /* \"#utility.yul\":8728:8831   */\n    tag_235:\n        /* \"#utility.yul\":8858:8859   */\n      0x01\n        /* \"#utility.yul\":8851:8856   */\n      dup3\n        /* \"#utility.yul\":8847:8860   */\n      add\n        /* \"#utility.yul\":8840:8860   */\n      swap1\n      pop\n        /* \"#utility.yul\":8633:8866   */\n      swap2\n      swap1\n      pop\n      jump\t// out\n        /* \"#utility.yul\":8872:9043   */\n    tag_146:\n        /* \"#utility.yul\":9012:9035   */\n      0x5469636b6574206e6f74207075726368617365642e0000000000000000000000\n        /* \"#utility.yul\":9008:9009   */\n      0x00\n        /* \"#utility.yul\":9000:9006   */\n      dup3\n        /* \"#utility.yul\":8996:9010   */\n      add\n        /* \"#utility.yul\":8989:9036   */\n      mstore\n        /* \"#utility.yul\":8872:9043   */\n      pop\n      jump\t// out\n        /* \"#utility.yul\":9049:9415   */\n    tag_147:\n        /* \"#utility.yul\":9191:9194   */\n      0x00\n        /* \"#utility.yul\":9212:9279   */\n      tag_239\n        /* \"#utility.yul\":9276:9278   */\n      0x15\n        /* \"#utility.yul\":9271:9274   */\n      dup4\n        /* \"#utility.yul\":9212:9279   */\n      tag_138\n      jump\t// in\n    tag_239:\n        /* \"#utility.yul\":9205:9279   */\n      swap2\n      pop\n        /* \"#utility.yul\":9288:9381   */\n      tag_240\n        /* \"#utility.yul\":9377:9380   */\n      dup3\n        /* \"#utility.yul\":9288:9381   */\n      tag_146\n      jump\t// in\n    tag_240:\n        /* \"#utility.yul\":9406:9408   */\n      0x20\n        /* \"#utility.yul\":9401:9404   */\n      dup3\n        /* \"#utility.yul\":9397:9409   */\n      add\n        /* \"#utility.yul\":9390:9409   */\n      swap1\n      pop\n        /* \"#utility.yul\":9049:9415   */\n      swap2\n      swap1\n      pop\n      jump\t// out\n        /* \"#utility.yul\":9421:9840   */\n    tag_73:\n        /* \"#utility.yul\":9587:9591   */\n      0x00\n        /* \"#utility.yul\":9625:9627   */\n      0x20\n        /* \"#utility.yul\":9614:9623   */\n      dup3\n        /* \"#utility.yul\":9610:9628   */\n      add\n        /* \"#utility.yul\":9602:9628   */\n      swap1\n      pop\n        /* \"#utility.yul\":9674:9683   */\n      dup2\n        /* \"#utility.yul\":9668:9672   */\n      dup2\n        /* \"#utility.yul\":9664:9684   */\n      sub\n        /* \"#utility.yul\":9660:9661   */\n      0x00\n        /* \"#utility.yul\":9649:9658   */\n      dup4\n        /* \"#utility.yul\":9645:9662   */\n      add\n        /* \"#utility.yul\":9638:9685   */\n      mstore\n        /* \"#utility.yul\":9702:9833   */\n      tag_242\n        /* \"#utility.yul\":9828:9832   */\n      dup2\n        /* \"#utility.yul\":9702:9833   */\n      tag_147\n      jump\t// in\n    tag_242:\n        /* \"#utility.yul\":9694:9833   */\n      swap1\n      pop\n        /* \"#utility.yul\":9421:9840   */\n      swap2\n      swap1\n      pop\n      jump\t// out\n        /* \"#utility.yul\":9846:10022   */\n    tag_148:\n        /* \"#utility.yul\":9986:10014   */\n      0x596f7520646f6e2774206f776e2074686973207469636b65742e000000000000\n        /* \"#utility.yul\":9982:9983   */\n      0x00\n        /* \"#utility.yul\":9974:9980   */\n      dup3\n        /* \"#utility.yul\":9970:9984   */\n      add\n        /* \"#utility.yul\":9963:10015   */\n      mstore\n        /* \"#utility.yul\":9846:10022   */\n      pop\n      jump\t// out\n        /* \"#utility.yul\":10028:10394   */\n    tag_149:\n        /* \"#utility.yul\":10170:10173   */\n      0x00\n        /* \"#utility.yul\":10191:10258   */\n      tag_245\n        /* \"#utility.yul\":10255:10257   */\n      0x1a\n        /* \"#utility.yul\":10250:10253   */\n      dup4\n        /* \"#utility.yul\":10191:10258   */\n      tag_138\n      jump\t// in\n    tag_245:\n        /* \"#utility.yul\":10184:10258   */\n      swap2\n      pop\n        /* \"#utility.yul\":10267:10360   */\n      tag_246\n        /* \"#utility.yul\":10356:10359   */\n      dup3\n        /* \"#utility.yul\":10267:10360   */\n      tag_148\n      jump\t// in\n    tag_246:\n        /* \"#utility.yul\":10385:10387   */\n      0x20\n        /* \"#utility.yul\":10380:10383   */\n      dup3\n        /* \"#utility.yul\":10376:10388   */\n      add\n        /* \"#utility.yul\":10369:10388   */\n      swap1\n      pop\n        /* \"#utility.yul\":10028:10394   */\n      swap2\n      swap1\n      pop\n      jump\t// out\n        /* \"#utility.yul\":10400:10819   */\n    tag_76:\n        /* \"#utility.yul\":10566:10570   */\n      0x00\n        /* \"#utility.yul\":10604:10606   */\n      0x20\n        /* \"#utility.yul\":10593:10602   */\n      dup3\n        /* \"#utility.yul\":10589:10607   */\n      add\n        /* \"#utility.yul\":10581:10607   */\n      swap1\n      pop\n        /* \"#utility.yul\":10653:10662   */\n      dup2\n        /* \"#utility.yul\":10647:10651   */\n      dup2\n        /* \"#utility.yul\":10643:10663   */\n      sub\n        /* \"#utility.yul\":10639:10640   */\n      0x00\n        /* \"#utility.yul\":10628:10637   */\n      dup4\n        /* \"#utility.yul\":10624:10641   */\n      add\n        /* \"#utility.yul\":10617:10664   */\n      mstore\n        /* \"#utility.yul\":10681:10812   */\n      tag_248\n        /* \"#utility.yul\":10807:10811   */\n      dup2\n        /* \"#utility.yul\":10681:10812   */\n      tag_149\n      jump\t// in\n    tag_248:\n        /* \"#utility.yul\":10673:10812   */\n      swap1\n      pop\n        /* \"#utility.yul\":10400:10819   */\n      swap2\n      swap1\n      pop\n      jump\t// out\n        /* \"#utility.yul\":10825:10996   */\n    tag_150:\n        /* \"#utility.yul\":10965:10988   */\n      0x5377617020616c72656164792070656e64696e672e0000000000000000000000\n        /* \"#utility.yul\":10961:10962   */\n      0x00\n        /* \"#utility.yul\":10953:10959   */\n      dup3\n        /* \"#utility.yul\":10949:10963   */\n      add\n        /* \"#utility.yul\":10942:10989   */\n      mstore\n        /* \"#utility.yul\":10825:10996   */\n      pop\n      jump\t// out\n        /* \"#utility.yul\":11002:11368   */\n    tag_151:\n        /* \"#utility.yul\":11144:11147   */\n      0x00\n        /* \"#utility.yul\":11165:11232   */\n      tag_251\n        /* \"#utility.yul\":11229:11231   */\n      0x15\n        /* \"#utility.yul\":11224:11227   */\n      dup4\n        /* \"#utility.yul\":11165:11232   */\n      tag_138\n      jump\t// in\n    tag_251:\n        /* \"#utility.yul\":11158:11232   */\n      swap2\n      pop\n        /* \"#utility.yul\":11241:11334   */\n      tag_252\n        /* \"#utility.yul\":11330:11333   */\n      dup3\n        /* \"#utility.yul\":11241:11334   */\n      tag_150\n      jump\t// in\n    tag_252:\n        /* \"#utility.yul\":11359:11361   */\n      0x20\n        /* \"#utility.yul\":11354:11357   */\n      dup3\n        /* \"#utility.yul\":11350:11362   */\n      add\n        /* \"#utility.yul\":11343:11362   */\n      swap1\n      pop\n        /* \"#utility.yul\":11002:11368   */\n      swap2\n      swap1\n      pop\n      jump\t// out\n        /* \"#utility.yul\":11374:11793   */\n    tag_79:\n        /* \"#utility.yul\":11540:11544   */\n      0x00\n        /* \"#utility.yul\":11578:11580   */\n      0x20\n        /* \"#utility.yul\":11567:11576   */\n      dup3\n        /* \"#utility.yul\":11563:11581   */\n      add\n        /* \"#utility.yul\":11555:11581   */\n      swap1\n      pop\n        /* \"#utility.yul\":11627:11636   */\n      dup2\n        /* \"#utility.yul\":11621:11625   */\n      dup2\n        /* \"#utility.yul\":11617:11637   */\n      sub\n        /* \"#utility.yul\":11613:11614   */\n      0x00\n        /* \"#utility.yul\":11602:11611   */\n      dup4\n        /* \"#utility.yul\":11598:11615   */\n      add\n        /* \"#utility.yul\":11591:11638   */\n      mstore\n        /* \"#utility.yul\":11655:11786   */\n      tag_254\n        /* \"#utility.yul\":11781:11785   */\n      dup2\n        /* \"#utility.yul\":11655:11786   */\n      tag_151\n      jump\t// in\n    tag_254:\n        /* \"#utility.yul\":11647:11786   */\n      swap1\n      pop\n        /* \"#utility.yul\":11374:11793   */\n      swap2\n      swap1\n      pop\n      jump\t// out\n        /* \"#utility.yul\":11799:11979   */\n    tag_84:\n        /* \"#utility.yul\":11847:11924   */\n      0x4e487b7100000000000000000000000000000000000000000000000000000000\n        /* \"#utility.yul\":11844:11845   */\n      0x00\n        /* \"#utility.yul\":11837:11925   */\n      mstore\n        /* \"#utility.yul\":11944:11948   */\n      0x41\n        /* \"#utility.yul\":11941:11942   */\n      0x04\n        /* \"#utility.yul\":11934:11949   */\n      mstore\n        /* \"#utility.yul\":11968:11972   */\n      0x24\n        /* \"#utility.yul\":11965:11966   */\n      0x00\n        /* \"#utility.yul\":11958:11973   */\n      revert\n        /* \"#utility.yul\":11985:12165   */\n    tag_92:\n        /* \"#utility.yul\":12033:12110   */\n      0x4e487b7100000000000000000000000000000000000000000000000000000000\n        /* \"#utility.yul\":12030:12031   */\n      0x00\n        /* \"#utility.yul\":12023:12111   */\n      mstore\n        /* \"#utility.yul\":12130:12134   */\n      0x32\n        /* \"#utility.yul\":12127:12128   */\n      0x04\n        /* \"#utility.yul\":12120:12135   */\n      mstore\n        /* \"#utility.yul\":12154:12158   */\n      0x24\n        /* \"#utility.yul\":12151:12152   */\n      0x00\n        /* \"#utility.yul\":12144:12159   */\n      revert\n        /* \"#utility.yul\":12171:12365   */\n    tag_111:\n        /* \"#utility.yul\":12211:12215   */\n      0x00\n        /* \"#utility.yul\":12231:12251   */\n      tag_258\n        /* \"#utility.yul\":12249:12250   */\n      dup3\n        /* \"#utility.yul\":12231:12251   */\n      tag_120\n      jump\t// in\n    tag_258:\n        /* \"#utility.yul\":12226:12251   */\n      swap2\n      pop\n        /* \"#utility.yul\":12265:12285   */\n      tag_259\n        /* \"#utility.yul\":12283:12284   */\n      dup4\n        /* \"#utility.yul\":12265:12285   */\n      tag_120\n      jump\t// in\n    tag_259:\n        /* \"#utility.yul\":12260:12285   */\n      swap3\n      pop\n        /* \"#utility.yul\":12309:12310   */\n      dup3\n        /* \"#utility.yul\":12306:12307   */\n      dup3\n        /* \"#utility.yul\":12302:12311   */\n      sub\n        /* \"#utility.yul\":12294:12311   */\n      swap1\n      pop\n        /* \"#utility.yul\":12333:12334   */\n      dup2\n        /* \"#utility.yul\":12327:12331   */\n      dup2\n        /* \"#utility.yul\":12324:12335   */\n      gt\n        /* \"#utility.yul\":12321:12358   */\n      iszero\n      tag_260\n      jumpi\n        /* \"#utility.yul\":12338:12356   */\n      tag_261\n      tag_145\n      jump\t// in\n    tag_261:\n        /* \"#utility.yul\":12321:12358   */\n    tag_260:\n        /* \"#utility.yul\":12171:12365   */\n      swap3\n      swap2\n      pop\n      pop\n      jump\t// out\n        /* \"#utility.yul\":12371:12813   */\n    tag_115:\n        /* \"#utility.yul\":12520:12524   */\n      0x00\n        /* \"#utility.yul\":12558:12560   */\n      0x60\n        /* \"#utility.yul\":12547:12556   */\n      dup3\n        /* \"#utility.yul\":12543:12561   */\n      add\n        /* \"#utility.yul\":12535:12561   */\n      swap1\n      pop\n        /* \"#utility.yul\":12571:12642   */\n      tag_263\n        /* \"#utility.yul\":12639:12640   */\n      0x00\n        /* \"#utility.yul\":12628:12637   */\n      dup4\n        /* \"#utility.yul\":12624:12641   */\n      add\n        /* \"#utility.yul\":12615:12621   */\n      dup7\n        /* \"#utility.yul\":12571:12642   */\n      tag_137\n      jump\t// in\n    tag_263:\n        /* \"#utility.yul\":12652:12724   */\n      tag_264\n        /* \"#utility.yul\":12720:12722   */\n      0x20\n        /* \"#utility.yul\":12709:12718   */\n      dup4\n        /* \"#utility.yul\":12705:12723   */\n      add\n        /* \"#utility.yul\":12696:12702   */\n      dup6\n        /* \"#utility.yul\":12652:12724   */\n      tag_134\n      jump\t// in\n    tag_264:\n        /* \"#utility.yul\":12734:12806   */\n      tag_265\n        /* \"#utility.yul\":12802:12804   */\n      0x40\n        /* \"#utility.yul\":12791:12800   */\n      dup4\n        /* \"#utility.yul\":12787:12805   */\n      add\n        /* \"#utility.yul\":12778:12784   */\n      dup5\n        /* \"#utility.yul\":12734:12806   */\n      tag_137\n      jump\t// in\n    tag_265:\n        /* \"#utility.yul\":12371:12813   */\n      swap5\n      swap4\n      pop\n      pop\n      pop\n      pop\n      jump\t// out\n\n    auxdata: 0xa2646970667358221220fea9e907012700211ff606b5d8ed17599d1db2bbc60d9d4245bfcc6817ff5d8364736f6c634300081a0033\n}\n",
				"bytecode": {
					"linkReferences": {},
					"object": "608060405267016345785d8a0000600155348015601a575f80fd5b50611201806100285f395ff3fe608060405260043610610085575f3560e01c806350b447121161005857806350b447121461011f5780638abdf5aa1461015d5780638c4d59d014610187578063da30bd1a146101b1578063ff99a063146101d957610085565b80631bf330041461008957806321846c76146100b1578063406b2c2c146100bb5780634ac15662146100e3575b5f80fd5b348015610094575f80fd5b506100af60048036038101906100aa9190610be1565b610217565b005b6100b96103d4565b005b3480156100c6575f80fd5b506100e160048036038101906100dc9190610be1565b61053d565b005b3480156100ee575f80fd5b5061010960048036038101906101049190610c66565b610706565b6040516101169190610d48565b60405180910390f35b34801561012a575f80fd5b5061014560048036038101906101409190610be1565b6108b5565b60405161015493929190610d91565b60405180910390f35b348015610168575f80fd5b50610171610912565b60405161017e9190610dd5565b60405180910390f35b348015610192575f80fd5b5061019b610918565b6040516101a89190610dd5565b60405180910390f35b3480156101bc575f80fd5b506101d760048036038101906101d29190610be1565b61091d565b005b3480156101e4575f80fd5b506101ff60048036038101906101fa9190610be1565b610ae4565b60405161020e93929190610d91565b60405180910390f35b60025f8281526020019081526020015f205f0160159054906101000a900460ff16610277576040517f08c379a000000000000000000000000000000000000000000000000000000000815260040161026e90610e48565b60405180910390fd5b5f60025f8381526020019081526020015f205f015f9054906101000a900473ffffffffffffffffffffffffffffffffffffffff1690503373ffffffffffffffffffffffffffffffffffffffff168173ffffffffffffffffffffffffffffffffffffffff160361031b576040517f08c379a000000000000000000000000000000000000000000000000000000000815260040161031290610eb0565b60405180910390fd5b3360025f8481526020019081526020015f205f015f6101000a81548173ffffffffffffffffffffffffffffffffffffffff021916908373ffffffffffffffffffffffffffffffffffffffff1602179055505f60025f8481526020019081526020015f205f0160156101000a81548160ff0219169083151502179055507fd400d0bf8b4ae602bee73fe6e31b8487352b615ff415c67d5c217b92b5fe38ba82336040516103c8929190610ece565b60405180910390a15050565b670de0b6b3a7640000341461041e576040517f08c379a000000000000000000000000000000000000000000000000000000000815260040161041590610f3f565b60405180910390fd5b5f8081548092919061042f90610f8a565b919050555060405180606001604052803373ffffffffffffffffffffffffffffffffffffffff1681526020016001151581526020015f151581525060025f805481526020019081526020015f205f820151815f015f6101000a81548173ffffffffffffffffffffffffffffffffffffffff021916908373ffffffffffffffffffffffffffffffffffffffff1602179055506020820151815f0160146101000a81548160ff0219169083151502179055506040820151815f0160156101000a81548160ff0219169083151502179055509050507f785f2865353ae960010300f584fc6c577b757a853af69a99c769df3c8232d3de5f5433604051610533929190610ece565b60405180910390a1565b60025f8281526020019081526020015f205f0160149054906101000a900460ff1661059d576040517f08c379a00000000000000000000000000000000000000000000000000000000081526004016105949061101b565b60405180910390fd5b3373ffffffffffffffffffffffffffffffffffffffff1660025f8381526020019081526020015f205f015f9054906101000a900473ffffffffffffffffffffffffffffffffffffffff1673ffffffffffffffffffffffffffffffffffffffff161461063d576040517f08c379a000000000000000000000000000000000000000000000000000000000815260040161063490611083565b60405180910390fd5b60025f8281526020019081526020015f205f0160159054906101000a900460ff161561069e576040517f08c379a0000000000000000000000000000000000000000000000000000000008152600401610695906110eb565b60405180910390fd5b600160025f8381526020019081526020015f205f0160156101000a81548160ff0219169083151502179055507f0c429c57e135043f6747763fe5b3b53a88a48f2f03c709eaeb8634d2bf3d3f7c81336040516106fb929190610ece565b60405180910390a150565b60605f805467ffffffffffffffff81111561072457610723611109565b5b6040519080825280602002602001820160405280156107525781602001602082028036833780820191505090505b5090505f80600190505b5f54811161080b578473ffffffffffffffffffffffffffffffffffffffff1660025f8381526020019081526020015f205f015f9054906101000a900473ffffffffffffffffffffffffffffffffffffffff1673ffffffffffffffffffffffffffffffffffffffff16036107f857808383815181106107dd576107dc611136565b5b60200260200101818152505081806107f490610f8a565b9250505b808061080390610f8a565b91505061075c565b505f8167ffffffffffffffff81111561082757610826611109565b5b6040519080825280602002602001820160405280156108555781602001602082028036833780820191505090505b5090505f5b828110156108a95783818151811061087557610874611136565b5b60200260200101518282815181106108905761088f611136565b5b602002602001018181525050808060010191505061085a565b50809350505050919050565b6002602052805f5260405f205f91509050805f015f9054906101000a900473ffffffffffffffffffffffffffffffffffffffff1690805f0160149054906101000a900460ff1690805f0160159054906101000a900460ff16905083565b60015481565b5f5481565b3373ffffffffffffffffffffffffffffffffffffffff1660025f8381526020019081526020015f205f015f9054906101000a900473ffffffffffffffffffffffffffffffffffffffff1673ffffffffffffffffffffffffffffffffffffffff16146109bd576040517f08c379a00000000000000000000000000000000000000000000000000000000081526004016109b490611083565b60405180910390fd5b60025f8281526020019081526020015f205f0160149054906101000a900460ff16610a1d576040517f08c379a0000000000000000000000000000000000000000000000000000000008152600401610a149061101b565b60405180910390fd5b5f600154670de0b6b3a7640000610a349190611163565b90505f60025f8481526020019081526020015f205f0160146101000a81548160ff0219169083151502179055503373ffffffffffffffffffffffffffffffffffffffff166108fc8290811502906040515f60405180830381858888f19350505050158015610aa4573d5f803e3d5ffd5b507f40b7887f382a28c53f89b0e0eeef2b760e0ab00538c3fd30eccdbb41229c57e7823383604051610ad893929190611196565b60405180910390a15050565b5f805f8060025f8681526020019081526020015f206040518060600160405290815f82015f9054906101000a900473ffffffffffffffffffffffffffffffffffffffff1673ffffffffffffffffffffffffffffffffffffffff1673ffffffffffffffffffffffffffffffffffffffff1681526020015f820160149054906101000a900460ff161515151581526020015f820160159054906101000a900460ff1615151515815250509050805f015181602001518260400151935093509350509193909250565b5f80fd5b5f819050919050565b610bc081610bae565b8114610bca575f80fd5b50565b5f81359050610bdb81610bb7565b92915050565b5f60208284031215610bf657610bf5610baa565b5b5f610c0384828501610bcd565b91505092915050565b5f73ffffffffffffffffffffffffffffffffffffffff82169050919050565b5f610c3582610c0c565b9050919050565b610c4581610c2b565b8114610c4f575f80fd5b50565b5f81359050610c6081610c3c565b92915050565b5f60208284031215610c7b57610c7a610baa565b5b5f610c8884828501610c52565b91505092915050565b5f81519050919050565b5f82825260208201905092915050565b5f819050602082019050919050565b610cc381610bae565b82525050565b5f610cd48383610cba565b60208301905092915050565b5f602082019050919050565b5f610cf682610c91565b610d008185610c9b565b9350610d0b83610cab565b805f5b83811015610d3b578151610d228882610cc9565b9750610d2d83610ce0565b925050600181019050610d0e565b5085935050505092915050565b5f6020820190508181035f830152610d608184610cec565b905092915050565b610d7181610c2b565b82525050565b5f8115159050919050565b610d8b81610d77565b82525050565b5f606082019050610da45f830186610d68565b610db16020830185610d82565b610dbe6040830184610d82565b949350505050565b610dcf81610bae565b82525050565b5f602082019050610de85f830184610dc6565b92915050565b5f82825260208201905092915050565b7f4e6f2073776170206f6666657220666f722074686973207469636b65742e00005f82015250565b5f610e32601e83610dee565b9150610e3d82610dfe565b602082019050919050565b5f6020820190508181035f830152610e5f81610e26565b9050919050565b7f596f752063616e6e6f742073776170207769746820796f757273656c662e00005f82015250565b5f610e9a601e83610dee565b9150610ea582610e66565b602082019050919050565b5f6020820190508181035f830152610ec781610e8e565b9050919050565b5f604082019050610ee15f830185610dc6565b610eee6020830184610d68565b9392505050565b7f5469636b657420707269636520697320312065746865722e00000000000000005f82015250565b5f610f29601883610dee565b9150610f3482610ef5565b602082019050919050565b5f6020820190508181035f830152610f5681610f1d565b9050919050565b7f4e487b71000000000000000000000000000000000000000000000000000000005f52601160045260245ffd5b5f610f9482610bae565b91507fffffffffffffffffffffffffffffffffffffffffffffffffffffffffffffffff8203610fc657610fc5610f5d565b5b600182019050919050565b7f5469636b6574206e6f74207075726368617365642e00000000000000000000005f82015250565b5f611005601583610dee565b915061101082610fd1565b602082019050919050565b5f6020820190508181035f83015261103281610ff9565b9050919050565b7f596f7520646f6e2774206f776e2074686973207469636b65742e0000000000005f82015250565b5f61106d601a83610dee565b915061107882611039565b602082019050919050565b5f6020820190508181035f83015261109a81611061565b9050919050565b7f5377617020616c72656164792070656e64696e672e00000000000000000000005f82015250565b5f6110d5601583610dee565b91506110e0826110a1565b602082019050919050565b5f6020820190508181035f830152611102816110c9565b9050919050565b7f4e487b71000000000000000000000000000000000000000000000000000000005f52604160045260245ffd5b7f4e487b71000000000000000000000000000000000000000000000000000000005f52603260045260245ffd5b5f61116d82610bae565b915061117883610bae565b92508282039050818111156111905761118f610f5d565b5b92915050565b5f6060820190506111a95f830186610dc6565b6111b66020830185610d68565b6111c36040830184610dc6565b94935050505056fea2646970667358221220fea9e907012700211ff606b5d8ed17599d1db2bbc60d9d4245bfcc6817ff5d8364736f6c634300081a0033",
					"opcodes": "PUSH1 0x80 PUSH1 0x40 MSTORE PUSH8 0x16345785D8A0000 PUSH1 0x1 SSTORE CALLVALUE DUP1 ISZERO PUSH1 0x1A JUMPI PUSH0 DUP1 REVERT JUMPDEST POP PUSH2 0x1201 DUP1 PUSH2 0x28 PUSH0 CODECOPY PUSH0 RETURN INVALID PUSH1 0x80 PUSH1 0x40 MSTORE PUSH1 0x4 CALLDATASIZE LT PUSH2 0x85 JUMPI PUSH0 CALLDATALOAD PUSH1 0xE0 SHR DUP1 PUSH4 0x50B44712 GT PUSH2 0x58 JUMPI DUP1 PUSH4 0x50B44712 EQ PUSH2 0x11F JUMPI DUP1 PUSH4 0x8ABDF5AA EQ PUSH2 0x15D JUMPI DUP1 PUSH4 0x8C4D59D0 EQ PUSH2 0x187 JUMPI DUP1 PUSH4 0xDA30BD1A EQ PUSH2 0x1B1 JUMPI DUP1 PUSH4 0xFF99A063 EQ PUSH2 0x1D9 JUMPI PUSH2 0x85 JUMP JUMPDEST DUP1 PUSH4 0x1BF33004 EQ PUSH2 0x89 JUMPI DUP1 PUSH4 0x21846C76 EQ PUSH2 0xB1 JUMPI DUP1 PUSH4 0x406B2C2C EQ PUSH2 0xBB JUMPI DUP1 PUSH4 0x4AC15662 EQ PUSH2 0xE3 JUMPI JUMPDEST PUSH0 DUP1 REVERT JUMPDEST CALLVALUE DUP1 ISZERO PUSH2 0x94 JUMPI PUSH0 DUP1 REVERT JUMPDEST POP PUSH2 0xAF PUSH1 0x4 DUP1 CALLDATASIZE SUB DUP2 ADD SWAP1 PUSH2 0xAA SWAP2 SWAP1 PUSH2 0xBE1 JUMP JUMPDEST PUSH2 0x217 JUMP JUMPDEST STOP JUMPDEST PUSH2 0xB9 PUSH2 0x3D4 JUMP JUMPDEST STOP JUMPDEST CALLVALUE DUP1 ISZERO PUSH2 0xC6 JUMPI PUSH0 DUP1 REVERT JUMPDEST POP PUSH2 0xE1 PUSH1 0x4 DUP1 CALLDATASIZE SUB DUP2 ADD SWAP1 PUSH2 0xDC SWAP2 SWAP1 PUSH2 0xBE1 JUMP JUMPDEST PUSH2 0x53D JUMP JUMPDEST STOP JUMPDEST CALLVALUE DUP1 ISZERO PUSH2 0xEE JUMPI PUSH0 DUP1 REVERT JUMPDEST POP PUSH2 0x109 PUSH1 0x4 DUP1 CALLDATASIZE SUB DUP2 ADD SWAP1 PUSH2 0x104 SWAP2 SWAP1 PUSH2 0xC66 JUMP JUMPDEST PUSH2 0x706 JUMP JUMPDEST PUSH1 0x40 MLOAD PUSH2 0x116 SWAP2 SWAP1 PUSH2 0xD48 JUMP JUMPDEST PUSH1 0x40 MLOAD DUP1 SWAP2 SUB SWAP1 RETURN JUMPDEST CALLVALUE DUP1 ISZERO PUSH2 0x12A JUMPI PUSH0 DUP1 REVERT JUMPDEST POP PUSH2 0x145 PUSH1 0x4 DUP1 CALLDATASIZE SUB DUP2 ADD SWAP1 PUSH2 0x140 SWAP2 SWAP1 PUSH2 0xBE1 JUMP JUMPDEST PUSH2 0x8B5 JUMP JUMPDEST PUSH1 0x40 MLOAD PUSH2 0x154 SWAP4 SWAP3 SWAP2 SWAP1 PUSH2 0xD91 JUMP JUMPDEST PUSH1 0x40 MLOAD DUP1 SWAP2 SUB SWAP1 RETURN JUMPDEST CALLVALUE DUP1 ISZERO PUSH2 0x168 JUMPI PUSH0 DUP1 REVERT JUMPDEST POP PUSH2 0x171 PUSH2 0x912 JUMP JUMPDEST PUSH1 0x40 MLOAD PUSH2 0x17E SWAP2 SWAP1 PUSH2 0xDD5 JUMP JUMPDEST PUSH1 0x40 MLOAD DUP1 SWAP2 SUB SWAP1 RETURN JUMPDEST CALLVALUE DUP1 ISZERO PUSH2 0x192 JUMPI PUSH0 DUP1 REVERT JUMPDEST POP PUSH2 0x19B PUSH2 0x918 JUMP JUMPDEST PUSH1 0x40 MLOAD PUSH2 0x1A8 SWAP2 SWAP1 PUSH2 0xDD5 JUMP JUMPDEST PUSH1 0x40 MLOAD DUP1 SWAP2 SUB SWAP1 RETURN JUMPDEST CALLVALUE DUP1 ISZERO PUSH2 0x1BC JUMPI PUSH0 DUP1 REVERT JUMPDEST POP PUSH2 0x1D7 PUSH1 0x4 DUP1 CALLDATASIZE SUB DUP2 ADD SWAP1 PUSH2 0x1D2 SWAP2 SWAP1 PUSH2 0xBE1 JUMP JUMPDEST PUSH2 0x91D JUMP JUMPDEST STOP JUMPDEST CALLVALUE DUP1 ISZERO PUSH2 0x1E4 JUMPI PUSH0 DUP1 REVERT JUMPDEST POP PUSH2 0x1FF PUSH1 0x4 DUP1 CALLDATASIZE SUB DUP2 ADD SWAP1 PUSH2 0x1FA SWAP2 SWAP1 PUSH2 0xBE1 JUMP JUMPDEST PUSH2 0xAE4 JUMP JUMPDEST PUSH1 0x40 MLOAD PUSH2 0x20E SWAP4 SWAP3 SWAP2 SWAP1 PUSH2 0xD91 JUMP JUMPDEST PUSH1 0x40 MLOAD DUP1 SWAP2 SUB SWAP1 RETURN JUMPDEST PUSH1 0x2 PUSH0 DUP3 DUP2 MSTORE PUSH1 0x20 ADD SWAP1 DUP2 MSTORE PUSH1 0x20 ADD PUSH0 KECCAK256 PUSH0 ADD PUSH1 0x15 SWAP1 SLOAD SWAP1 PUSH2 0x100 EXP SWAP1 DIV PUSH1 0xFF AND PUSH2 0x277 JUMPI PUSH1 0x40 MLOAD PUSH32 0x8C379A000000000000000000000000000000000000000000000000000000000 DUP2 MSTORE PUSH1 0x4 ADD PUSH2 0x26E SWAP1 PUSH2 0xE48 JUMP JUMPDEST PUSH1 0x40 MLOAD DUP1 SWAP2 SUB SWAP1 REVERT JUMPDEST PUSH0 PUSH1 0x2 PUSH0 DUP4 DUP2 MSTORE PUSH1 0x20 ADD SWAP1 DUP2 MSTORE PUSH1 0x20 ADD PUSH0 KECCAK256 PUSH0 ADD PUSH0 SWAP1 SLOAD SWAP1 PUSH2 0x100 EXP SWAP1 DIV PUSH20 0xFFFFFFFFFFFFFFFFFFFFFFFFFFFFFFFFFFFFFFFF AND SWAP1 POP CALLER PUSH20 0xFFFFFFFFFFFFFFFFFFFFFFFFFFFFFFFFFFFFFFFF AND DUP2 PUSH20 0xFFFFFFFFFFFFFFFFFFFFFFFFFFFFFFFFFFFFFFFF AND SUB PUSH2 0x31B JUMPI PUSH1 0x40 MLOAD PUSH32 0x8C379A000000000000000000000000000000000000000000000000000000000 DUP2 MSTORE PUSH1 0x4 ADD PUSH2 0x312 SWAP1 PUSH2 0xEB0 JUMP JUMPDEST PUSH1 0x40 MLOAD DUP1 SWAP2 SUB SWAP1 REVERT JUMPDEST CALLER PUSH1 0x2 PUSH0 DUP5 DUP2 MSTORE PUSH1 0x20 ADD SWAP1 DUP2 MSTORE PUSH1 0x20 ADD PUSH0 KECCAK256 PUSH0 ADD PUSH0 PUSH2 0x100 EXP DUP2 SLOAD DUP2 PUSH20 0xFFFFFFFFFFFFFFFFFFFFFFFFFFFFFFFFFFFFFFFF MUL NOT AND SWAP1 DUP4 PUSH20 0xFFFFFFFFFFFFFFFFFFFFFFFFFFFFFFFFFFFFFFFF AND MUL OR SWAP1 SSTORE POP PUSH0 PUSH1 0x2 PUSH0 DUP5 DUP2 MSTORE PUSH1 0x20 ADD SWAP1 DUP2 MSTORE PUSH1 0x20 ADD PUSH0 KECCAK256 PUSH0 ADD PUSH1 0x15 PUSH2 0x100 EXP DUP2 SLOAD DUP2 PUSH1 0xFF MUL NOT AND SWAP1 DUP4 ISZERO ISZERO MUL OR SWAP1 SSTORE POP PUSH32 0xD400D0BF8B4AE602BEE73FE6E31B8487352B615FF415C67D5C217B92B5FE38BA DUP3 CALLER PUSH1 0x40 MLOAD PUSH2 0x3C8 SWAP3 SWAP2 SWAP1 PUSH2 0xECE JUMP JUMPDEST PUSH1 0x40 MLOAD DUP1 SWAP2 SUB SWAP1 LOG1 POP POP JUMP JUMPDEST PUSH8 0xDE0B6B3A7640000 CALLVALUE EQ PUSH2 0x41E JUMPI PUSH1 0x40 MLOAD PUSH32 0x8C379A000000000000000000000000000000000000000000000000000000000 DUP2 MSTORE PUSH1 0x4 ADD PUSH2 0x415 SWAP1 PUSH2 0xF3F JUMP JUMPDEST PUSH1 0x40 MLOAD DUP1 SWAP2 SUB SWAP1 REVERT JUMPDEST PUSH0 DUP1 DUP2 SLOAD DUP1 SWAP3 SWAP2 SWAP1 PUSH2 0x42F SWAP1 PUSH2 0xF8A JUMP JUMPDEST SWAP2 SWAP1 POP SSTORE POP PUSH1 0x40 MLOAD DUP1 PUSH1 0x60 ADD PUSH1 0x40 MSTORE DUP1 CALLER PUSH20 0xFFFFFFFFFFFFFFFFFFFFFFFFFFFFFFFFFFFFFFFF AND DUP2 MSTORE PUSH1 0x20 ADD PUSH1 0x1 ISZERO ISZERO DUP2 MSTORE PUSH1 0x20 ADD PUSH0 ISZERO ISZERO DUP2 MSTORE POP PUSH1 0x2 PUSH0 DUP1 SLOAD DUP2 MSTORE PUSH1 0x20 ADD SWAP1 DUP2 MSTORE PUSH1 0x20 ADD PUSH0 KECCAK256 PUSH0 DUP3 ADD MLOAD DUP2 PUSH0 ADD PUSH0 PUSH2 0x100 EXP DUP2 SLOAD DUP2 PUSH20 0xFFFFFFFFFFFFFFFFFFFFFFFFFFFFFFFFFFFFFFFF MUL NOT AND SWAP1 DUP4 PUSH20 0xFFFFFFFFFFFFFFFFFFFFFFFFFFFFFFFFFFFFFFFF AND MUL OR SWAP1 SSTORE POP PUSH1 0x20 DUP3 ADD MLOAD DUP2 PUSH0 ADD PUSH1 0x14 PUSH2 0x100 EXP DUP2 SLOAD DUP2 PUSH1 0xFF MUL NOT AND SWAP1 DUP4 ISZERO ISZERO MUL OR SWAP1 SSTORE POP PUSH1 0x40 DUP3 ADD MLOAD DUP2 PUSH0 ADD PUSH1 0x15 PUSH2 0x100 EXP DUP2 SLOAD DUP2 PUSH1 0xFF MUL NOT AND SWAP1 DUP4 ISZERO ISZERO MUL OR SWAP1 SSTORE POP SWAP1 POP POP PUSH32 0x785F2865353AE960010300F584FC6C577B757A853AF69A99C769DF3C8232D3DE PUSH0 SLOAD CALLER PUSH1 0x40 MLOAD PUSH2 0x533 SWAP3 SWAP2 SWAP1 PUSH2 0xECE JUMP JUMPDEST PUSH1 0x40 MLOAD DUP1 SWAP2 SUB SWAP1 LOG1 JUMP JUMPDEST PUSH1 0x2 PUSH0 DUP3 DUP2 MSTORE PUSH1 0x20 ADD SWAP1 DUP2 MSTORE PUSH1 0x20 ADD PUSH0 KECCAK256 PUSH0 ADD PUSH1 0x14 SWAP1 SLOAD SWAP1 PUSH2 0x100 EXP SWAP1 DIV PUSH1 0xFF AND PUSH2 0x59D JUMPI PUSH1 0x40 MLOAD PUSH32 0x8C379A000000000000000000000000000000000000000000000000000000000 DUP2 MSTORE PUSH1 0x4 ADD PUSH2 0x594 SWAP1 PUSH2 0x101B JUMP JUMPDEST PUSH1 0x40 MLOAD DUP1 SWAP2 SUB SWAP1 REVERT JUMPDEST CALLER PUSH20 0xFFFFFFFFFFFFFFFFFFFFFFFFFFFFFFFFFFFFFFFF AND PUSH1 0x2 PUSH0 DUP4 DUP2 MSTORE PUSH1 0x20 ADD SWAP1 DUP2 MSTORE PUSH1 0x20 ADD PUSH0 KECCAK256 PUSH0 ADD PUSH0 SWAP1 SLOAD SWAP1 PUSH2 0x100 EXP SWAP1 DIV PUSH20 0xFFFFFFFFFFFFFFFFFFFFFFFFFFFFFFFFFFFFFFFF AND PUSH20 0xFFFFFFFFFFFFFFFFFFFFFFFFFFFFFFFFFFFFFFFF AND EQ PUSH2 0x63D JUMPI PUSH1 0x40 MLOAD PUSH32 0x8C379A000000000000000000000000000000000000000000000000000000000 DUP2 MSTORE PUSH1 0x4 ADD PUSH2 0x634 SWAP1 PUSH2 0x1083 JUMP JUMPDEST PUSH1 0x40 MLOAD DUP1 SWAP2 SUB SWAP1 REVERT JUMPDEST PUSH1 0x2 PUSH0 DUP3 DUP2 MSTORE PUSH1 0x20 ADD SWAP1 DUP2 MSTORE PUSH1 0x20 ADD PUSH0 KECCAK256 PUSH0 ADD PUSH1 0x15 SWAP1 SLOAD SWAP1 PUSH2 0x100 EXP SWAP1 DIV PUSH1 0xFF AND ISZERO PUSH2 0x69E JUMPI PUSH1 0x40 MLOAD PUSH32 0x8C379A000000000000000000000000000000000000000000000000000000000 DUP2 MSTORE PUSH1 0x4 ADD PUSH2 0x695 SWAP1 PUSH2 0x10EB JUMP JUMPDEST PUSH1 0x40 MLOAD DUP1 SWAP2 SUB SWAP1 REVERT JUMPDEST PUSH1 0x1 PUSH1 0x2 PUSH0 DUP4 DUP2 MSTORE PUSH1 0x20 ADD SWAP1 DUP2 MSTORE PUSH1 0x20 ADD PUSH0 KECCAK256 PUSH0 ADD PUSH1 0x15 PUSH2 0x100 EXP DUP2 SLOAD DUP2 PUSH1 0xFF MUL NOT AND SWAP1 DUP4 ISZERO ISZERO MUL OR SWAP1 SSTORE POP PUSH32 0xC429C57E135043F6747763FE5B3B53A88A48F2F03C709EAEB8634D2BF3D3F7C DUP2 CALLER PUSH1 0x40 MLOAD PUSH2 0x6FB SWAP3 SWAP2 SWAP1 PUSH2 0xECE JUMP JUMPDEST PUSH1 0x40 MLOAD DUP1 SWAP2 SUB SWAP1 LOG1 POP JUMP JUMPDEST PUSH1 0x60 PUSH0 DUP1 SLOAD PUSH8 0xFFFFFFFFFFFFFFFF DUP2 GT ISZERO PUSH2 0x724 JUMPI PUSH2 0x723 PUSH2 0x1109 JUMP JUMPDEST JUMPDEST PUSH1 0x40 MLOAD SWAP1 DUP1 DUP3 MSTORE DUP1 PUSH1 0x20 MUL PUSH1 0x20 ADD DUP3 ADD PUSH1 0x40 MSTORE DUP1 ISZERO PUSH2 0x752 JUMPI DUP2 PUSH1 0x20 ADD PUSH1 0x20 DUP3 MUL DUP1 CALLDATASIZE DUP4 CALLDATACOPY DUP1 DUP3 ADD SWAP2 POP POP SWAP1 POP JUMPDEST POP SWAP1 POP PUSH0 DUP1 PUSH1 0x1 SWAP1 POP JUMPDEST PUSH0 SLOAD DUP2 GT PUSH2 0x80B JUMPI DUP5 PUSH20 0xFFFFFFFFFFFFFFFFFFFFFFFFFFFFFFFFFFFFFFFF AND PUSH1 0x2 PUSH0 DUP4 DUP2 MSTORE PUSH1 0x20 ADD SWAP1 DUP2 MSTORE PUSH1 0x20 ADD PUSH0 KECCAK256 PUSH0 ADD PUSH0 SWAP1 SLOAD SWAP1 PUSH2 0x100 EXP SWAP1 DIV PUSH20 0xFFFFFFFFFFFFFFFFFFFFFFFFFFFFFFFFFFFFFFFF AND PUSH20 0xFFFFFFFFFFFFFFFFFFFFFFFFFFFFFFFFFFFFFFFF AND SUB PUSH2 0x7F8 JUMPI DUP1 DUP4 DUP4 DUP2 MLOAD DUP2 LT PUSH2 0x7DD JUMPI PUSH2 0x7DC PUSH2 0x1136 JUMP JUMPDEST JUMPDEST PUSH1 0x20 MUL PUSH1 0x20 ADD ADD DUP2 DUP2 MSTORE POP POP DUP2 DUP1 PUSH2 0x7F4 SWAP1 PUSH2 0xF8A JUMP JUMPDEST SWAP3 POP POP JUMPDEST DUP1 DUP1 PUSH2 0x803 SWAP1 PUSH2 0xF8A JUMP JUMPDEST SWAP2 POP POP PUSH2 0x75C JUMP JUMPDEST POP PUSH0 DUP2 PUSH8 0xFFFFFFFFFFFFFFFF DUP2 GT ISZERO PUSH2 0x827 JUMPI PUSH2 0x826 PUSH2 0x1109 JUMP JUMPDEST JUMPDEST PUSH1 0x40 MLOAD SWAP1 DUP1 DUP3 MSTORE DUP1 PUSH1 0x20 MUL PUSH1 0x20 ADD DUP3 ADD PUSH1 0x40 MSTORE DUP1 ISZERO PUSH2 0x855 JUMPI DUP2 PUSH1 0x20 ADD PUSH1 0x20 DUP3 MUL DUP1 CALLDATASIZE DUP4 CALLDATACOPY DUP1 DUP3 ADD SWAP2 POP POP SWAP1 POP JUMPDEST POP SWAP1 POP PUSH0 JUMPDEST DUP3 DUP2 LT ISZERO PUSH2 0x8A9 JUMPI DUP4 DUP2 DUP2 MLOAD DUP2 LT PUSH2 0x875 JUMPI PUSH2 0x874 PUSH2 0x1136 JUMP JUMPDEST JUMPDEST PUSH1 0x20 MUL PUSH1 0x20 ADD ADD MLOAD DUP3 DUP3 DUP2 MLOAD DUP2 LT PUSH2 0x890 JUMPI PUSH2 0x88F PUSH2 0x1136 JUMP JUMPDEST JUMPDEST PUSH1 0x20 MUL PUSH1 0x20 ADD ADD DUP2 DUP2 MSTORE POP POP DUP1 DUP1 PUSH1 0x1 ADD SWAP2 POP POP PUSH2 0x85A JUMP JUMPDEST POP DUP1 SWAP4 POP POP POP POP SWAP2 SWAP1 POP JUMP JUMPDEST PUSH1 0x2 PUSH1 0x20 MSTORE DUP1 PUSH0 MSTORE PUSH1 0x40 PUSH0 KECCAK256 PUSH0 SWAP2 POP SWAP1 POP DUP1 PUSH0 ADD PUSH0 SWAP1 SLOAD SWAP1 PUSH2 0x100 EXP SWAP1 DIV PUSH20 0xFFFFFFFFFFFFFFFFFFFFFFFFFFFFFFFFFFFFFFFF AND SWAP1 DUP1 PUSH0 ADD PUSH1 0x14 SWAP1 SLOAD SWAP1 PUSH2 0x100 EXP SWAP1 DIV PUSH1 0xFF AND SWAP1 DUP1 PUSH0 ADD PUSH1 0x15 SWAP1 SLOAD SWAP1 PUSH2 0x100 EXP SWAP1 DIV PUSH1 0xFF AND SWAP1 POP DUP4 JUMP JUMPDEST PUSH1 0x1 SLOAD DUP2 JUMP JUMPDEST PUSH0 SLOAD DUP2 JUMP JUMPDEST CALLER PUSH20 0xFFFFFFFFFFFFFFFFFFFFFFFFFFFFFFFFFFFFFFFF AND PUSH1 0x2 PUSH0 DUP4 DUP2 MSTORE PUSH1 0x20 ADD SWAP1 DUP2 MSTORE PUSH1 0x20 ADD PUSH0 KECCAK256 PUSH0 ADD PUSH0 SWAP1 SLOAD SWAP1 PUSH2 0x100 EXP SWAP1 DIV PUSH20 0xFFFFFFFFFFFFFFFFFFFFFFFFFFFFFFFFFFFFFFFF AND PUSH20 0xFFFFFFFFFFFFFFFFFFFFFFFFFFFFFFFFFFFFFFFF AND EQ PUSH2 0x9BD JUMPI PUSH1 0x40 MLOAD PUSH32 0x8C379A000000000000000000000000000000000000000000000000000000000 DUP2 MSTORE PUSH1 0x4 ADD PUSH2 0x9B4 SWAP1 PUSH2 0x1083 JUMP JUMPDEST PUSH1 0x40 MLOAD DUP1 SWAP2 SUB SWAP1 REVERT JUMPDEST PUSH1 0x2 PUSH0 DUP3 DUP2 MSTORE PUSH1 0x20 ADD SWAP1 DUP2 MSTORE PUSH1 0x20 ADD PUSH0 KECCAK256 PUSH0 ADD PUSH1 0x14 SWAP1 SLOAD SWAP1 PUSH2 0x100 EXP SWAP1 DIV PUSH1 0xFF AND PUSH2 0xA1D JUMPI PUSH1 0x40 MLOAD PUSH32 0x8C379A000000000000000000000000000000000000000000000000000000000 DUP2 MSTORE PUSH1 0x4 ADD PUSH2 0xA14 SWAP1 PUSH2 0x101B JUMP JUMPDEST PUSH1 0x40 MLOAD DUP1 SWAP2 SUB SWAP1 REVERT JUMPDEST PUSH0 PUSH1 0x1 SLOAD PUSH8 0xDE0B6B3A7640000 PUSH2 0xA34 SWAP2 SWAP1 PUSH2 0x1163 JUMP JUMPDEST SWAP1 POP PUSH0 PUSH1 0x2 PUSH0 DUP5 DUP2 MSTORE PUSH1 0x20 ADD SWAP1 DUP2 MSTORE PUSH1 0x20 ADD PUSH0 KECCAK256 PUSH0 ADD PUSH1 0x14 PUSH2 0x100 EXP DUP2 SLOAD DUP2 PUSH1 0xFF MUL NOT AND SWAP1 DUP4 ISZERO ISZERO MUL OR SWAP1 SSTORE POP CALLER PUSH20 0xFFFFFFFFFFFFFFFFFFFFFFFFFFFFFFFFFFFFFFFF AND PUSH2 0x8FC DUP3 SWAP1 DUP2 ISZERO MUL SWAP1 PUSH1 0x40 MLOAD PUSH0 PUSH1 0x40 MLOAD DUP1 DUP4 SUB DUP2 DUP6 DUP9 DUP9 CALL SWAP4 POP POP POP POP ISZERO DUP1 ISZERO PUSH2 0xAA4 JUMPI RETURNDATASIZE PUSH0 DUP1 RETURNDATACOPY RETURNDATASIZE PUSH0 REVERT JUMPDEST POP PUSH32 0x40B7887F382A28C53F89B0E0EEEF2B760E0AB00538C3FD30ECCDBB41229C57E7 DUP3 CALLER DUP4 PUSH1 0x40 MLOAD PUSH2 0xAD8 SWAP4 SWAP3 SWAP2 SWAP1 PUSH2 0x1196 JUMP JUMPDEST PUSH1 0x40 MLOAD DUP1 SWAP2 SUB SWAP1 LOG1 POP POP JUMP JUMPDEST PUSH0 DUP1 PUSH0 DUP1 PUSH1 0x2 PUSH0 DUP7 DUP2 MSTORE PUSH1 0x20 ADD SWAP1 DUP2 MSTORE PUSH1 0x20 ADD PUSH0 KECCAK256 PUSH1 0x40 MLOAD DUP1 PUSH1 0x60 ADD PUSH1 0x40 MSTORE SWAP1 DUP2 PUSH0 DUP3 ADD PUSH0 SWAP1 SLOAD SWAP1 PUSH2 0x100 EXP SWAP1 DIV PUSH20 0xFFFFFFFFFFFFFFFFFFFFFFFFFFFFFFFFFFFFFFFF AND PUSH20 0xFFFFFFFFFFFFFFFFFFFFFFFFFFFFFFFFFFFFFFFF AND PUSH20 0xFFFFFFFFFFFFFFFFFFFFFFFFFFFFFFFFFFFFFFFF AND DUP2 MSTORE PUSH1 0x20 ADD PUSH0 DUP3 ADD PUSH1 0x14 SWAP1 SLOAD SWAP1 PUSH2 0x100 EXP SWAP1 DIV PUSH1 0xFF AND ISZERO ISZERO ISZERO ISZERO DUP2 MSTORE PUSH1 0x20 ADD PUSH0 DUP3 ADD PUSH1 0x15 SWAP1 SLOAD SWAP1 PUSH2 0x100 EXP SWAP1 DIV PUSH1 0xFF AND ISZERO ISZERO ISZERO ISZERO DUP2 MSTORE POP POP SWAP1 POP DUP1 PUSH0 ADD MLOAD DUP2 PUSH1 0x20 ADD MLOAD DUP3 PUSH1 0x40 ADD MLOAD SWAP4 POP SWAP4 POP SWAP4 POP POP SWAP2 SWAP4 SWAP1 SWAP3 POP JUMP JUMPDEST PUSH0 DUP1 REVERT JUMPDEST PUSH0 DUP2 SWAP1 POP SWAP2 SWAP1 POP JUMP JUMPDEST PUSH2 0xBC0 DUP2 PUSH2 0xBAE JUMP JUMPDEST DUP2 EQ PUSH2 0xBCA JUMPI PUSH0 DUP1 REVERT JUMPDEST POP JUMP JUMPDEST PUSH0 DUP2 CALLDATALOAD SWAP1 POP PUSH2 0xBDB DUP2 PUSH2 0xBB7 JUMP JUMPDEST SWAP3 SWAP2 POP POP JUMP JUMPDEST PUSH0 PUSH1 0x20 DUP3 DUP5 SUB SLT ISZERO PUSH2 0xBF6 JUMPI PUSH2 0xBF5 PUSH2 0xBAA JUMP JUMPDEST JUMPDEST PUSH0 PUSH2 0xC03 DUP5 DUP3 DUP6 ADD PUSH2 0xBCD JUMP JUMPDEST SWAP2 POP POP SWAP3 SWAP2 POP POP JUMP JUMPDEST PUSH0 PUSH20 0xFFFFFFFFFFFFFFFFFFFFFFFFFFFFFFFFFFFFFFFF DUP3 AND SWAP1 POP SWAP2 SWAP1 POP JUMP JUMPDEST PUSH0 PUSH2 0xC35 DUP3 PUSH2 0xC0C JUMP JUMPDEST SWAP1 POP SWAP2 SWAP1 POP JUMP JUMPDEST PUSH2 0xC45 DUP2 PUSH2 0xC2B JUMP JUMPDEST DUP2 EQ PUSH2 0xC4F JUMPI PUSH0 DUP1 REVERT JUMPDEST POP JUMP JUMPDEST PUSH0 DUP2 CALLDATALOAD SWAP1 POP PUSH2 0xC60 DUP2 PUSH2 0xC3C JUMP JUMPDEST SWAP3 SWAP2 POP POP JUMP JUMPDEST PUSH0 PUSH1 0x20 DUP3 DUP5 SUB SLT ISZERO PUSH2 0xC7B JUMPI PUSH2 0xC7A PUSH2 0xBAA JUMP JUMPDEST JUMPDEST PUSH0 PUSH2 0xC88 DUP5 DUP3 DUP6 ADD PUSH2 0xC52 JUMP JUMPDEST SWAP2 POP POP SWAP3 SWAP2 POP POP JUMP JUMPDEST PUSH0 DUP2 MLOAD SWAP1 POP SWAP2 SWAP1 POP JUMP JUMPDEST PUSH0 DUP3 DUP3 MSTORE PUSH1 0x20 DUP3 ADD SWAP1 POP SWAP3 SWAP2 POP POP JUMP JUMPDEST PUSH0 DUP2 SWAP1 POP PUSH1 0x20 DUP3 ADD SWAP1 POP SWAP2 SWAP1 POP JUMP JUMPDEST PUSH2 0xCC3 DUP2 PUSH2 0xBAE JUMP JUMPDEST DUP3 MSTORE POP POP JUMP JUMPDEST PUSH0 PUSH2 0xCD4 DUP4 DUP4 PUSH2 0xCBA JUMP JUMPDEST PUSH1 0x20 DUP4 ADD SWAP1 POP SWAP3 SWAP2 POP POP JUMP JUMPDEST PUSH0 PUSH1 0x20 DUP3 ADD SWAP1 POP SWAP2 SWAP1 POP JUMP JUMPDEST PUSH0 PUSH2 0xCF6 DUP3 PUSH2 0xC91 JUMP JUMPDEST PUSH2 0xD00 DUP2 DUP6 PUSH2 0xC9B JUMP JUMPDEST SWAP4 POP PUSH2 0xD0B DUP4 PUSH2 0xCAB JUMP JUMPDEST DUP1 PUSH0 JUMPDEST DUP4 DUP2 LT ISZERO PUSH2 0xD3B JUMPI DUP2 MLOAD PUSH2 0xD22 DUP9 DUP3 PUSH2 0xCC9 JUMP JUMPDEST SWAP8 POP PUSH2 0xD2D DUP4 PUSH2 0xCE0 JUMP JUMPDEST SWAP3 POP POP PUSH1 0x1 DUP2 ADD SWAP1 POP PUSH2 0xD0E JUMP JUMPDEST POP DUP6 SWAP4 POP POP POP POP SWAP3 SWAP2 POP POP JUMP JUMPDEST PUSH0 PUSH1 0x20 DUP3 ADD SWAP1 POP DUP2 DUP2 SUB PUSH0 DUP4 ADD MSTORE PUSH2 0xD60 DUP2 DUP5 PUSH2 0xCEC JUMP JUMPDEST SWAP1 POP SWAP3 SWAP2 POP POP JUMP JUMPDEST PUSH2 0xD71 DUP2 PUSH2 0xC2B JUMP JUMPDEST DUP3 MSTORE POP POP JUMP JUMPDEST PUSH0 DUP2 ISZERO ISZERO SWAP1 POP SWAP2 SWAP1 POP JUMP JUMPDEST PUSH2 0xD8B DUP2 PUSH2 0xD77 JUMP JUMPDEST DUP3 MSTORE POP POP JUMP JUMPDEST PUSH0 PUSH1 0x60 DUP3 ADD SWAP1 POP PUSH2 0xDA4 PUSH0 DUP4 ADD DUP7 PUSH2 0xD68 JUMP JUMPDEST PUSH2 0xDB1 PUSH1 0x20 DUP4 ADD DUP6 PUSH2 0xD82 JUMP JUMPDEST PUSH2 0xDBE PUSH1 0x40 DUP4 ADD DUP5 PUSH2 0xD82 JUMP JUMPDEST SWAP5 SWAP4 POP POP POP POP JUMP JUMPDEST PUSH2 0xDCF DUP2 PUSH2 0xBAE JUMP JUMPDEST DUP3 MSTORE POP POP JUMP JUMPDEST PUSH0 PUSH1 0x20 DUP3 ADD SWAP1 POP PUSH2 0xDE8 PUSH0 DUP4 ADD DUP5 PUSH2 0xDC6 JUMP JUMPDEST SWAP3 SWAP2 POP POP JUMP JUMPDEST PUSH0 DUP3 DUP3 MSTORE PUSH1 0x20 DUP3 ADD SWAP1 POP SWAP3 SWAP2 POP POP JUMP JUMPDEST PUSH32 0x4E6F2073776170206F6666657220666F722074686973207469636B65742E0000 PUSH0 DUP3 ADD MSTORE POP JUMP JUMPDEST PUSH0 PUSH2 0xE32 PUSH1 0x1E DUP4 PUSH2 0xDEE JUMP JUMPDEST SWAP2 POP PUSH2 0xE3D DUP3 PUSH2 0xDFE JUMP JUMPDEST PUSH1 0x20 DUP3 ADD SWAP1 POP SWAP2 SWAP1 POP JUMP JUMPDEST PUSH0 PUSH1 0x20 DUP3 ADD SWAP1 POP DUP2 DUP2 SUB PUSH0 DUP4 ADD MSTORE PUSH2 0xE5F DUP2 PUSH2 0xE26 JUMP JUMPDEST SWAP1 POP SWAP2 SWAP1 POP JUMP JUMPDEST PUSH32 0x596F752063616E6E6F742073776170207769746820796F757273656C662E0000 PUSH0 DUP3 ADD MSTORE POP JUMP JUMPDEST PUSH0 PUSH2 0xE9A PUSH1 0x1E DUP4 PUSH2 0xDEE JUMP JUMPDEST SWAP2 POP PUSH2 0xEA5 DUP3 PUSH2 0xE66 JUMP JUMPDEST PUSH1 0x20 DUP3 ADD SWAP1 POP SWAP2 SWAP1 POP JUMP JUMPDEST PUSH0 PUSH1 0x20 DUP3 ADD SWAP1 POP DUP2 DUP2 SUB PUSH0 DUP4 ADD MSTORE PUSH2 0xEC7 DUP2 PUSH2 0xE8E JUMP JUMPDEST SWAP1 POP SWAP2 SWAP1 POP JUMP JUMPDEST PUSH0 PUSH1 0x40 DUP3 ADD SWAP1 POP PUSH2 0xEE1 PUSH0 DUP4 ADD DUP6 PUSH2 0xDC6 JUMP JUMPDEST PUSH2 0xEEE PUSH1 0x20 DUP4 ADD DUP5 PUSH2 0xD68 JUMP JUMPDEST SWAP4 SWAP3 POP POP POP JUMP JUMPDEST PUSH32 0x5469636B657420707269636520697320312065746865722E0000000000000000 PUSH0 DUP3 ADD MSTORE POP JUMP JUMPDEST PUSH0 PUSH2 0xF29 PUSH1 0x18 DUP4 PUSH2 0xDEE JUMP JUMPDEST SWAP2 POP PUSH2 0xF34 DUP3 PUSH2 0xEF5 JUMP JUMPDEST PUSH1 0x20 DUP3 ADD SWAP1 POP SWAP2 SWAP1 POP JUMP JUMPDEST PUSH0 PUSH1 0x20 DUP3 ADD SWAP1 POP DUP2 DUP2 SUB PUSH0 DUP4 ADD MSTORE PUSH2 0xF56 DUP2 PUSH2 0xF1D JUMP JUMPDEST SWAP1 POP SWAP2 SWAP1 POP JUMP JUMPDEST PUSH32 0x4E487B7100000000000000000000000000000000000000000000000000000000 PUSH0 MSTORE PUSH1 0x11 PUSH1 0x4 MSTORE PUSH1 0x24 PUSH0 REVERT JUMPDEST PUSH0 PUSH2 0xF94 DUP3 PUSH2 0xBAE JUMP JUMPDEST SWAP2 POP PUSH32 0xFFFFFFFFFFFFFFFFFFFFFFFFFFFFFFFFFFFFFFFFFFFFFFFFFFFFFFFFFFFFFFFF DUP3 SUB PUSH2 0xFC6 JUMPI PUSH2 0xFC5 PUSH2 0xF5D JUMP JUMPDEST JUMPDEST PUSH1 0x1 DUP3 ADD SWAP1 POP SWAP2 SWAP1 POP JUMP JUMPDEST PUSH32 0x5469636B6574206E6F74207075726368617365642E0000000000000000000000 PUSH0 DUP3 ADD MSTORE POP JUMP JUMPDEST PUSH0 PUSH2 0x1005 PUSH1 0x15 DUP4 PUSH2 0xDEE JUMP JUMPDEST SWAP2 POP PUSH2 0x1010 DUP3 PUSH2 0xFD1 JUMP JUMPDEST PUSH1 0x20 DUP3 ADD SWAP1 POP SWAP2 SWAP1 POP JUMP JUMPDEST PUSH0 PUSH1 0x20 DUP3 ADD SWAP1 POP DUP2 DUP2 SUB PUSH0 DUP4 ADD MSTORE PUSH2 0x1032 DUP2 PUSH2 0xFF9 JUMP JUMPDEST SWAP1 POP SWAP2 SWAP1 POP JUMP JUMPDEST PUSH32 0x596F7520646F6E2774206F776E2074686973207469636B65742E000000000000 PUSH0 DUP3 ADD MSTORE POP JUMP JUMPDEST PUSH0 PUSH2 0x106D PUSH1 0x1A DUP4 PUSH2 0xDEE JUMP JUMPDEST SWAP2 POP PUSH2 0x1078 DUP3 PUSH2 0x1039 JUMP JUMPDEST PUSH1 0x20 DUP3 ADD SWAP1 POP SWAP2 SWAP1 POP JUMP JUMPDEST PUSH0 PUSH1 0x20 DUP3 ADD SWAP1 POP DUP2 DUP2 SUB PUSH0 DUP4 ADD MSTORE PUSH2 0x109A DUP2 PUSH2 0x1061 JUMP JUMPDEST SWAP1 POP SWAP2 SWAP1 POP JUMP JUMPDEST PUSH32 0x5377617020616C72656164792070656E64696E672E0000000000000000000000 PUSH0 DUP3 ADD MSTORE POP JUMP JUMPDEST PUSH0 PUSH2 0x10D5 PUSH1 0x15 DUP4 PUSH2 0xDEE JUMP JUMPDEST SWAP2 POP PUSH2 0x10E0 DUP3 PUSH2 0x10A1 JUMP JUMPDEST PUSH1 0x20 DUP3 ADD SWAP1 POP SWAP2 SWAP1 POP JUMP JUMPDEST PUSH0 PUSH1 0x20 DUP3 ADD SWAP1 POP DUP2 DUP2 SUB PUSH0 DUP4 ADD MSTORE PUSH2 0x1102 DUP2 PUSH2 0x10C9 JUMP JUMPDEST SWAP1 POP SWAP2 SWAP1 POP JUMP JUMPDEST PUSH32 0x4E487B7100000000000000000000000000000000000000000000000000000000 PUSH0 MSTORE PUSH1 0x41 PUSH1 0x4 MSTORE PUSH1 0x24 PUSH0 REVERT JUMPDEST PUSH32 0x4E487B7100000000000000000000000000000000000000000000000000000000 PUSH0 MSTORE PUSH1 0x32 PUSH1 0x4 MSTORE PUSH1 0x24 PUSH0 REVERT JUMPDEST PUSH0 PUSH2 0x116D DUP3 PUSH2 0xBAE JUMP JUMPDEST SWAP2 POP PUSH2 0x1178 DUP4 PUSH2 0xBAE JUMP JUMPDEST SWAP3 POP DUP3 DUP3 SUB SWAP1 POP DUP2 DUP2 GT ISZERO PUSH2 0x1190 JUMPI PUSH2 0x118F PUSH2 0xF5D JUMP JUMPDEST JUMPDEST SWAP3 SWAP2 POP POP JUMP JUMPDEST PUSH0 PUSH1 0x60 DUP3 ADD SWAP1 POP PUSH2 0x11A9 PUSH0 DUP4 ADD DUP7 PUSH2 0xDC6 JUMP JUMPDEST PUSH2 0x11B6 PUSH1 0x20 DUP4 ADD DUP6 PUSH2 0xD68 JUMP JUMPDEST PUSH2 0x11C3 PUSH1 0x40 DUP4 ADD DUP5 PUSH2 0xDC6 JUMP JUMPDEST SWAP5 SWAP4 POP POP POP POP JUMP INVALID LOG2 PUSH5 0x6970667358 0x22 SLT KECCAK256 INVALID 0xA9 0xE9 SMOD ADD 0x27 STOP 0x21 0x1F 0xF6 MOD 0xB5 0xD8 0xED OR MSIZE SWAP14 SAR 0xB2 0xBB 0xC6 0xD SWAP14 TIMESTAMP GASLIMIT 0xBF 0xCC PUSH9 0x17FF5D8364736F6C63 NUMBER STOP ADDMOD BYTE STOP CALLER "
				},
				"gasEstimates": {
					"creation": {
						"codeDepositCost": "921800",
						"executionCost": "23066",
						"totalCost": "944866"
					},
					"external": {
						"acceptSwap(uint256)": "infinite",
						"getTicketByAddress(address)": "infinite",
						"getTicketInfo(uint256)": "infinite",
						"offerSwap(uint256)": "infinite",
						"purchaseTicket()": "infinite",
						"returnTicket(uint256)": "infinite",
						"serviceFee()": "2447",
						"ticketCounter()": "2468",
						"tickets(uint256)": "infinite"
					}
				},
				"methodIdentifiers": {
					"acceptSwap(uint256)": "1bf33004",
					"getTicketByAddress(address)": "4ac15662",
					"getTicketInfo(uint256)": "ff99a063",
					"offerSwap(uint256)": "406b2c2c",
					"purchaseTicket()": "21846c76",
					"returnTicket(uint256)": "da30bd1a",
					"serviceFee()": "8abdf5aa",
					"ticketCounter()": "8c4d59d0",
					"tickets(uint256)": "50b44712"
				}
			},
			"storageLayout": {
				"storage": [
					{
						"astId": 3,
						"contract": "contracts/Ticketsale.sol:TicketSale",
						"label": "ticketCounter",
						"offset": 0,
						"slot": "0",
						"type": "t_uint256"
					},
					{
						"astId": 6,
						"contract": "contracts/Ticketsale.sol:TicketSale",
						"label": "serviceFee",
						"offset": 0,
						"slot": "1",
						"type": "t_uint256"
					},
					{
						"astId": 18,
						"contract": "contracts/Ticketsale.sol:TicketSale",
						"label": "tickets",
						"offset": 0,
						"slot": "2",
						"type": "t_mapping(t_uint256,t_struct(Ticket)13_storage)"
					}
				],
				"types": {
					"t_address": {
						"encoding": "inplace",
						"label": "address",
						"numberOfBytes": "20"
					},
					"t_bool": {
						"encoding": "inplace",
						"label": "bool",
						"numberOfBytes": "1"
					},
					"t_mapping(t_uint256,t_struct(Ticket)13_storage)": {
						"encoding": "mapping",
						"key": "t_uint256",
						"label": "mapping(uint256 => struct TicketSale.Ticket)",
						"numberOfBytes": "32",
						"value": "t_struct(Ticket)13_storage"
					},
					"t_struct(Ticket)13_storage": {
						"encoding": "inplace",
						"label": "struct TicketSale.Ticket",
						"members": [
							{
								"astId": 8,
								"contract": "contracts/Ticketsale.sol:TicketSale",
								"label": "owner",
								"offset": 0,
								"slot": "0",
								"type": "t_address"
							},
							{
								"astId": 10,
								"contract": "contracts/Ticketsale.sol:TicketSale",
								"label": "isPurchased",
								"offset": 20,
								"slot": "0",
								"type": "t_bool"
							},
							{
								"astId": 12,
								"contract": "contracts/Ticketsale.sol:TicketSale",
								"label": "isSwapPending",
								"offset": 21,
								"slot": "0",
								"type": "t_bool"
							}
						],
						"numberOfBytes": "32"
					},
					"t_uint256": {
						"encoding": "inplace",
						"label": "uint256",
						"numberOfBytes": "32"
					}
				}
			},
			"userdoc": {
				"kind": "user",
				"methods": {},
				"version": 1
			}
		}
	}
}