{
	"contracts/Ecommerce.sol": {
		"Ecommerce": {
			"abi": [
				{
					"inputs": [],
					"stateMutability": "nonpayable",
					"type": "constructor"
				},
				{
					"inputs": [
						{
							"internalType": "uint256",
							"name": "refundIndex",
							"type": "uint256"
						}
					],
					"name": "acceptReturn",
					"outputs": [],
					"stateMutability": "payable",
					"type": "function"
				},
				{
					"inputs": [
						{
							"internalType": "uint256",
							"name": "id",
							"type": "uint256"
						},
						{
							"internalType": "int256",
							"name": "quant",
							"type": "int256"
						}
					],
					"name": "addItem",
					"outputs": [],
					"stateMutability": "nonpayable",
					"type": "function"
				},
				{
					"inputs": [
						{
							"internalType": "string",
							"name": "name",
							"type": "string"
						},
						{
							"internalType": "int256",
							"name": "num",
							"type": "int256"
						},
						{
							"internalType": "int256",
							"name": "cost",
							"type": "int256"
						}
					],
					"name": "addProduct",
					"outputs": [],
					"stateMutability": "nonpayable",
					"type": "function"
				},
				{
					"inputs": [
						{
							"internalType": "uint256",
							"name": "id",
							"type": "uint256"
						},
						{
							"internalType": "int256",
							"name": "price",
							"type": "int256"
						}
					],
					"name": "changePrice",
					"outputs": [],
					"stateMutability": "nonpayable",
					"type": "function"
				},
				{
					"inputs": [
						{
							"internalType": "address",
							"name": "addr",
							"type": "address"
						}
					],
					"name": "getAccountHistory",
					"outputs": [
						{
							"internalType": "int256",
							"name": "",
							"type": "int256"
						}
					],
					"stateMutability": "view",
					"type": "function"
				},
				{
					"inputs": [
						{
							"internalType": "uint256",
							"name": "id",
							"type": "uint256"
						}
					],
					"name": "getProductHistory",
					"outputs": [
						{
							"internalType": "int256",
							"name": "",
							"type": "int256"
						}
					],
					"stateMutability": "view",
					"type": "function"
				},
				{
					"inputs": [],
					"name": "getProducts",
					"outputs": [
						{
							"components": [
								{
									"internalType": "uint256",
									"name": "productNo",
									"type": "uint256"
								},
								{
									"internalType": "string",
									"name": "prodName",
									"type": "string"
								},
								{
									"internalType": "int256",
									"name": "noItem",
									"type": "int256"
								},
								{
									"internalType": "int256",
									"name": "unitCost",
									"type": "int256"
								},
								{
									"internalType": "uint256",
									"name": "totalPurchase",
									"type": "uint256"
								}
							],
							"internalType": "struct Ecommerce.product[]",
							"name": "",
							"type": "tuple[]"
						}
					],
					"stateMutability": "view",
					"type": "function"
				},
				{
					"inputs": [],
					"name": "getTotalProducts",
					"outputs": [
						{
							"internalType": "uint256",
							"name": "",
							"type": "uint256"
						}
					],
					"stateMutability": "view",
					"type": "function"
				},
				{
					"inputs": [],
					"name": "ownerName",
					"outputs": [
						{
							"internalType": "string",
							"name": "",
							"type": "string"
						}
					],
					"stateMutability": "view",
					"type": "function"
				},
				{
					"inputs": [
						{
							"internalType": "uint256",
							"name": "id",
							"type": "uint256"
						},
						{
							"internalType": "int256",
							"name": "quant",
							"type": "int256"
						}
					],
					"name": "purchaseItem",
					"outputs": [],
					"stateMutability": "payable",
					"type": "function"
				},
				{
					"inputs": [
						{
							"internalType": "uint256",
							"name": "id",
							"type": "uint256"
						},
						{
							"internalType": "int256",
							"name": "quant",
							"type": "int256"
						}
					],
					"name": "requestReturn",
					"outputs": [],
					"stateMutability": "nonpayable",
					"type": "function"
				},
				{
					"inputs": [],
					"name": "revenue",
					"outputs": [
						{
							"internalType": "int256",
							"name": "",
							"type": "int256"
						}
					],
					"stateMutability": "view",
					"type": "function"
				},
				{
					"inputs": [],
					"name": "totalProducts",
					"outputs": [
						{
							"internalType": "uint256",
							"name": "",
							"type": "uint256"
						}
					],
					"stateMutability": "view",
					"type": "function"
				}
			],
			"devdoc": {
				"kind": "dev",
				"methods": {},
				"version": 1
			},
			"evm": {
				"assembly": "    /* \"contracts/Ecommerce.sol\":63:3668  contract Ecommerce {... */\n  mstore(0x40, 0x80)\n    /* \"contracts/Ecommerce.sol\":681:808  constructor() {... */\n  callvalue\n  dup1\n  iszero\n  tag_1\n  jumpi\n  0x00\n  dup1\n  revert\ntag_1:\n  pop\n    /* \"contracts/Ecommerce.sol\":705:725  ownerName = \"Shahid\" */\n  mload(0x40)\n  dup1\n  0x40\n  add\n  0x40\n  mstore\n  dup1\n  0x06\n  dup2\n  mstore\n  0x20\n  add\n  0x5368616869640000000000000000000000000000000000000000000000000000\n  dup2\n  mstore\n  pop\n    /* \"contracts/Ecommerce.sol\":705:714  ownerName */\n  0x01\n    /* \"contracts/Ecommerce.sol\":705:725  ownerName = \"Shahid\" */\n  swap1\n  dup2\n  tag_4\n  swap2\n  swap1\n  tag_5\n  jump\t// in\ntag_4:\n  pop\n    /* \"contracts/Ecommerce.sol\":743:753  msg.sender */\n  caller\n    /* \"contracts/Ecommerce.sol\":735:740  owner */\n  0x02\n  0x00\n    /* \"contracts/Ecommerce.sol\":735:753  owner = msg.sender */\n  0x0100\n  exp\n  dup2\n  sload\n  dup2\n  0xffffffffffffffffffffffffffffffffffffffff\n  mul\n  not\n  and\n  swap1\n  dup4\n  0xffffffffffffffffffffffffffffffffffffffff\n  and\n  mul\n  or\n  swap1\n  sstore\n  pop\n    /* \"contracts/Ecommerce.sol\":773:774  0 */\n  0x00\n    /* \"contracts/Ecommerce.sol\":763:770  revenue */\n  dup1\n    /* \"contracts/Ecommerce.sol\":763:774  revenue = 0 */\n  dup2\n  swap1\n  sstore\n  pop\n    /* \"contracts/Ecommerce.sol\":800:801  0 */\n  0x00\n    /* \"contracts/Ecommerce.sol\":784:797  totalProducts */\n  0x07\n    /* \"contracts/Ecommerce.sol\":784:801  totalProducts = 0 */\n  dup2\n  swap1\n  sstore\n  pop\n    /* \"contracts/Ecommerce.sol\":63:3668  contract Ecommerce {... */\n  jump(tag_6)\n    /* \"#utility.yul\":7:106   */\ntag_7:\n    /* \"#utility.yul\":59:65   */\n  0x00\n    /* \"#utility.yul\":93:98   */\n  dup2\n    /* \"#utility.yul\":87:99   */\n  mload\n    /* \"#utility.yul\":77:99   */\n  swap1\n  pop\n    /* \"#utility.yul\":7:106   */\n  swap2\n  swap1\n  pop\n  jump\t// out\n    /* \"#utility.yul\":112:292   */\ntag_8:\n    /* \"#utility.yul\":160:237   */\n  0x4e487b7100000000000000000000000000000000000000000000000000000000\n    /* \"#utility.yul\":157:158   */\n  0x00\n    /* \"#utility.yul\":150:238   */\n  mstore\n    /* \"#utility.yul\":257:261   */\n  0x41\n    /* \"#utility.yul\":254:255   */\n  0x04\n    /* \"#utility.yul\":247:262   */\n  mstore\n    /* \"#utility.yul\":281:285   */\n  0x24\n    /* \"#utility.yul\":278:279   */\n  0x00\n    /* \"#utility.yul\":271:286   */\n  revert\n    /* \"#utility.yul\":298:478   */\ntag_9:\n    /* \"#utility.yul\":346:423   */\n  0x4e487b7100000000000000000000000000000000000000000000000000000000\n    /* \"#utility.yul\":343:344   */\n  0x00\n    /* \"#utility.yul\":336:424   */\n  mstore\n    /* \"#utility.yul\":443:447   */\n  0x22\n    /* \"#utility.yul\":440:441   */\n  0x04\n    /* \"#utility.yul\":433:448   */\n  mstore\n    /* \"#utility.yul\":467:471   */\n  0x24\n    /* \"#utility.yul\":464:465   */\n  0x00\n    /* \"#utility.yul\":457:472   */\n  revert\n    /* \"#utility.yul\":484:804   */\ntag_10:\n    /* \"#utility.yul\":528:534   */\n  0x00\n    /* \"#utility.yul\":565:566   */\n  0x02\n    /* \"#utility.yul\":559:563   */\n  dup3\n    /* \"#utility.yul\":555:567   */\n  div\n    /* \"#utility.yul\":545:567   */\n  swap1\n  pop\n    /* \"#utility.yul\":612:613   */\n  0x01\n    /* \"#utility.yul\":606:610   */\n  dup3\n    /* \"#utility.yul\":602:614   */\n  and\n    /* \"#utility.yul\":633:651   */\n  dup1\n    /* \"#utility.yul\":623:704   */\n  tag_32\n  jumpi\n    /* \"#utility.yul\":689:693   */\n  0x7f\n    /* \"#utility.yul\":681:687   */\n  dup3\n    /* \"#utility.yul\":677:694   */\n  and\n    /* \"#utility.yul\":667:694   */\n  swap2\n  pop\n    /* \"#utility.yul\":623:704   */\ntag_32:\n    /* \"#utility.yul\":751:753   */\n  0x20\n    /* \"#utility.yul\":743:749   */\n  dup3\n    /* \"#utility.yul\":740:754   */\n  lt\n    /* \"#utility.yul\":720:738   */\n  dup2\n    /* \"#utility.yul\":717:755   */\n  sub\n    /* \"#utility.yul\":714:798   */\n  tag_33\n  jumpi\n    /* \"#utility.yul\":770:788   */\n  tag_34\n  tag_9\n  jump\t// in\ntag_34:\n    /* \"#utility.yul\":714:798   */\ntag_33:\n    /* \"#utility.yul\":535:804   */\n  pop\n    /* \"#utility.yul\":484:804   */\n  swap2\n  swap1\n  pop\n  jump\t// out\n    /* \"#utility.yul\":810:951   */\ntag_11:\n    /* \"#utility.yul\":859:863   */\n  0x00\n    /* \"#utility.yul\":882:885   */\n  dup2\n    /* \"#utility.yul\":874:885   */\n  swap1\n  pop\n    /* \"#utility.yul\":905:908   */\n  dup2\n    /* \"#utility.yul\":902:903   */\n  0x00\n    /* \"#utility.yul\":895:909   */\n  mstore\n    /* \"#utility.yul\":939:943   */\n  0x20\n    /* \"#utility.yul\":936:937   */\n  0x00\n    /* \"#utility.yul\":926:944   */\n  keccak256\n    /* \"#utility.yul\":918:944   */\n  swap1\n  pop\n    /* \"#utility.yul\":810:951   */\n  swap2\n  swap1\n  pop\n  jump\t// out\n    /* \"#utility.yul\":957:1050   */\ntag_12:\n    /* \"#utility.yul\":994:1000   */\n  0x00\n    /* \"#utility.yul\":1041:1043   */\n  0x20\n    /* \"#utility.yul\":1036:1038   */\n  0x1f\n    /* \"#utility.yul\":1029:1034   */\n  dup4\n    /* \"#utility.yul\":1025:1039   */\n  add\n    /* \"#utility.yul\":1021:1044   */\n  div\n    /* \"#utility.yul\":1011:1044   */\n  swap1\n  pop\n    /* \"#utility.yul\":957:1050   */\n  swap2\n  swap1\n  pop\n  jump\t// out\n    /* \"#utility.yul\":1056:1163   */\ntag_13:\n    /* \"#utility.yul\":1100:1108   */\n  0x00\n    /* \"#utility.yul\":1150:1155   */\n  dup3\n    /* \"#utility.yul\":1144:1148   */\n  dup3\n    /* \"#utility.yul\":1140:1156   */\n  shl\n    /* \"#utility.yul\":1119:1156   */\n  swap1\n  pop\n    /* \"#utility.yul\":1056:1163   */\n  swap3\n  swap2\n  pop\n  pop\n  jump\t// out\n    /* \"#utility.yul\":1169:1562   */\ntag_14:\n    /* \"#utility.yul\":1238:1244   */\n  0x00\n    /* \"#utility.yul\":1288:1289   */\n  0x08\n    /* \"#utility.yul\":1276:1286   */\n  dup4\n    /* \"#utility.yul\":1272:1290   */\n  mul\n    /* \"#utility.yul\":1311:1408   */\n  tag_39\n    /* \"#utility.yul\":1341:1407   */\n  0xffffffffffffffffffffffffffffffffffffffffffffffffffffffffffffffff\n    /* \"#utility.yul\":1330:1339   */\n  dup3\n    /* \"#utility.yul\":1311:1408   */\n  tag_13\n  jump\t// in\ntag_39:\n    /* \"#utility.yul\":1429:1468   */\n  tag_40\n    /* \"#utility.yul\":1459:1467   */\n  dup7\n    /* \"#utility.yul\":1448:1457   */\n  dup4\n    /* \"#utility.yul\":1429:1468   */\n  tag_13\n  jump\t// in\ntag_40:\n    /* \"#utility.yul\":1417:1468   */\n  swap6\n  pop\n    /* \"#utility.yul\":1501:1505   */\n  dup1\n    /* \"#utility.yul\":1497:1506   */\n  not\n    /* \"#utility.yul\":1490:1495   */\n  dup5\n    /* \"#utility.yul\":1486:1507   */\n  and\n    /* \"#utility.yul\":1477:1507   */\n  swap4\n  pop\n    /* \"#utility.yul\":1550:1554   */\n  dup1\n    /* \"#utility.yul\":1540:1548   */\n  dup7\n    /* \"#utility.yul\":1536:1555   */\n  and\n    /* \"#utility.yul\":1529:1534   */\n  dup5\n    /* \"#utility.yul\":1526:1556   */\n  or\n    /* \"#utility.yul\":1516:1556   */\n  swap3\n  pop\n    /* \"#utility.yul\":1245:1562   */\n  pop\n  pop\n    /* \"#utility.yul\":1169:1562   */\n  swap4\n  swap3\n  pop\n  pop\n  pop\n  jump\t// out\n    /* \"#utility.yul\":1568:1645   */\ntag_15:\n    /* \"#utility.yul\":1605:1612   */\n  0x00\n    /* \"#utility.yul\":1634:1639   */\n  dup2\n    /* \"#utility.yul\":1623:1639   */\n  swap1\n  pop\n    /* \"#utility.yul\":1568:1645   */\n  swap2\n  swap1\n  pop\n  jump\t// out\n    /* \"#utility.yul\":1651:1711   */\ntag_16:\n    /* \"#utility.yul\":1679:1682   */\n  0x00\n    /* \"#utility.yul\":1700:1705   */\n  dup2\n    /* \"#utility.yul\":1693:1705   */\n  swap1\n  pop\n    /* \"#utility.yul\":1651:1711   */\n  swap2\n  swap1\n  pop\n  jump\t// out\n    /* \"#utility.yul\":1717:1859   */\ntag_17:\n    /* \"#utility.yul\":1767:1776   */\n  0x00\n    /* \"#utility.yul\":1800:1853   */\n  tag_44\n    /* \"#utility.yul\":1818:1852   */\n  tag_45\n    /* \"#utility.yul\":1827:1851   */\n  tag_46\n    /* \"#utility.yul\":1845:1850   */\n  dup5\n    /* \"#utility.yul\":1827:1851   */\n  tag_15\n  jump\t// in\ntag_46:\n    /* \"#utility.yul\":1818:1852   */\n  tag_16\n  jump\t// in\ntag_45:\n    /* \"#utility.yul\":1800:1853   */\n  tag_15\n  jump\t// in\ntag_44:\n    /* \"#utility.yul\":1787:1853   */\n  swap1\n  pop\n    /* \"#utility.yul\":1717:1859   */\n  swap2\n  swap1\n  pop\n  jump\t// out\n    /* \"#utility.yul\":1865:1940   */\ntag_18:\n    /* \"#utility.yul\":1908:1911   */\n  0x00\n    /* \"#utility.yul\":1929:1934   */\n  dup2\n    /* \"#utility.yul\":1922:1934   */\n  swap1\n  pop\n    /* \"#utility.yul\":1865:1940   */\n  swap2\n  swap1\n  pop\n  jump\t// out\n    /* \"#utility.yul\":1946:2215   */\ntag_19:\n    /* \"#utility.yul\":2056:2095   */\n  tag_49\n    /* \"#utility.yul\":2087:2094   */\n  dup4\n    /* \"#utility.yul\":2056:2095   */\n  tag_17\n  jump\t// in\ntag_49:\n    /* \"#utility.yul\":2117:2208   */\n  tag_50\n    /* \"#utility.yul\":2166:2207   */\n  tag_51\n    /* \"#utility.yul\":2190:2206   */\n  dup3\n    /* \"#utility.yul\":2166:2207   */\n  tag_18\n  jump\t// in\ntag_51:\n    /* \"#utility.yul\":2158:2164   */\n  dup5\n    /* \"#utility.yul\":2151:2155   */\n  dup5\n    /* \"#utility.yul\":2145:2156   */\n  sload\n    /* \"#utility.yul\":2117:2208   */\n  tag_14\n  jump\t// in\ntag_50:\n    /* \"#utility.yul\":2111:2115   */\n  dup3\n    /* \"#utility.yul\":2104:2209   */\n  sstore\n    /* \"#utility.yul\":2022:2215   */\n  pop\n    /* \"#utility.yul\":1946:2215   */\n  pop\n  pop\n  pop\n  jump\t// out\n    /* \"#utility.yul\":2221:2294   */\ntag_20:\n    /* \"#utility.yul\":2266:2269   */\n  0x00\n    /* \"#utility.yul\":2221:2294   */\n  swap1\n  jump\t// out\n    /* \"#utility.yul\":2300:2489   */\ntag_21:\n    /* \"#utility.yul\":2377:2409   */\n  tag_54\n  tag_20\n  jump\t// in\ntag_54:\n    /* \"#utility.yul\":2418:2483   */\n  tag_55\n    /* \"#utility.yul\":2476:2482   */\n  dup2\n    /* \"#utility.yul\":2468:2474   */\n  dup5\n    /* \"#utility.yul\":2462:2466   */\n  dup5\n    /* \"#utility.yul\":2418:2483   */\n  tag_19\n  jump\t// in\ntag_55:\n    /* \"#utility.yul\":2353:2489   */\n  pop\n    /* \"#utility.yul\":2300:2489   */\n  pop\n  pop\n  jump\t// out\n    /* \"#utility.yul\":2495:2681   */\ntag_22:\n    /* \"#utility.yul\":2555:2675   */\ntag_57:\n    /* \"#utility.yul\":2572:2575   */\n  dup2\n    /* \"#utility.yul\":2565:2570   */\n  dup2\n    /* \"#utility.yul\":2562:2576   */\n  lt\n    /* \"#utility.yul\":2555:2675   */\n  iszero\n  tag_59\n  jumpi\n    /* \"#utility.yul\":2626:2665   */\n  tag_60\n    /* \"#utility.yul\":2663:2664   */\n  0x00\n    /* \"#utility.yul\":2656:2661   */\n  dup3\n    /* \"#utility.yul\":2626:2665   */\n  tag_21\n  jump\t// in\ntag_60:\n    /* \"#utility.yul\":2599:2600   */\n  0x01\n    /* \"#utility.yul\":2592:2597   */\n  dup2\n    /* \"#utility.yul\":2588:2601   */\n  add\n    /* \"#utility.yul\":2579:2601   */\n  swap1\n  pop\n    /* \"#utility.yul\":2555:2675   */\n  jump(tag_57)\ntag_59:\n    /* \"#utility.yul\":2495:2681   */\n  pop\n  pop\n  jump\t// out\n    /* \"#utility.yul\":2687:3230   */\ntag_23:\n    /* \"#utility.yul\":2788:2790   */\n  0x1f\n    /* \"#utility.yul\":2783:2786   */\n  dup3\n    /* \"#utility.yul\":2780:2791   */\n  gt\n    /* \"#utility.yul\":2777:3223   */\n  iszero\n  tag_62\n  jumpi\n    /* \"#utility.yul\":2822:2860   */\n  tag_63\n    /* \"#utility.yul\":2854:2859   */\n  dup2\n    /* \"#utility.yul\":2822:2860   */\n  tag_11\n  jump\t// in\ntag_63:\n    /* \"#utility.yul\":2906:2935   */\n  tag_64\n    /* \"#utility.yul\":2924:2934   */\n  dup5\n    /* \"#utility.yul\":2906:2935   */\n  tag_12\n  jump\t// in\ntag_64:\n    /* \"#utility.yul\":2896:2904   */\n  dup2\n    /* \"#utility.yul\":2892:2936   */\n  add\n    /* \"#utility.yul\":3089:3091   */\n  0x20\n    /* \"#utility.yul\":3077:3087   */\n  dup6\n    /* \"#utility.yul\":3074:3092   */\n  lt\n    /* \"#utility.yul\":3071:3120   */\n  iszero\n  tag_65\n  jumpi\n    /* \"#utility.yul\":3110:3118   */\n  dup2\n    /* \"#utility.yul\":3095:3118   */\n  swap1\n  pop\n    /* \"#utility.yul\":3071:3120   */\ntag_65:\n    /* \"#utility.yul\":3133:3213   */\n  tag_66\n    /* \"#utility.yul\":3189:3211   */\n  tag_67\n    /* \"#utility.yul\":3207:3210   */\n  dup6\n    /* \"#utility.yul\":3189:3211   */\n  tag_12\n  jump\t// in\ntag_67:\n    /* \"#utility.yul\":3179:3187   */\n  dup4\n    /* \"#utility.yul\":3175:3212   */\n  add\n    /* \"#utility.yul\":3162:3173   */\n  dup3\n    /* \"#utility.yul\":3133:3213   */\n  tag_22\n  jump\t// in\ntag_66:\n    /* \"#utility.yul\":2792:3223   */\n  pop\n  pop\n    /* \"#utility.yul\":2777:3223   */\ntag_62:\n    /* \"#utility.yul\":2687:3230   */\n  pop\n  pop\n  pop\n  jump\t// out\n    /* \"#utility.yul\":3236:3353   */\ntag_24:\n    /* \"#utility.yul\":3290:3298   */\n  0x00\n    /* \"#utility.yul\":3340:3345   */\n  dup3\n    /* \"#utility.yul\":3334:3338   */\n  dup3\n    /* \"#utility.yul\":3330:3346   */\n  shr\n    /* \"#utility.yul\":3309:3346   */\n  swap1\n  pop\n    /* \"#utility.yul\":3236:3353   */\n  swap3\n  swap2\n  pop\n  pop\n  jump\t// out\n    /* \"#utility.yul\":3359:3528   */\ntag_25:\n    /* \"#utility.yul\":3403:3409   */\n  0x00\n    /* \"#utility.yul\":3436:3487   */\n  tag_70\n    /* \"#utility.yul\":3484:3485   */\n  0x00\n    /* \"#utility.yul\":3480:3486   */\n  not\n    /* \"#utility.yul\":3472:3477   */\n  dup5\n    /* \"#utility.yul\":3469:3470   */\n  0x08\n    /* \"#utility.yul\":3465:3478   */\n  mul\n    /* \"#utility.yul\":3436:3487   */\n  tag_24\n  jump\t// in\ntag_70:\n    /* \"#utility.yul\":3432:3488   */\n  not\n    /* \"#utility.yul\":3517:3521   */\n  dup1\n    /* \"#utility.yul\":3511:3515   */\n  dup4\n    /* \"#utility.yul\":3507:3522   */\n  and\n    /* \"#utility.yul\":3497:3522   */\n  swap2\n  pop\n    /* \"#utility.yul\":3410:3528   */\n  pop\n    /* \"#utility.yul\":3359:3528   */\n  swap3\n  swap2\n  pop\n  pop\n  jump\t// out\n    /* \"#utility.yul\":3533:3828   */\ntag_26:\n    /* \"#utility.yul\":3609:3613   */\n  0x00\n    /* \"#utility.yul\":3755:3784   */\n  tag_72\n    /* \"#utility.yul\":3780:3783   */\n  dup4\n    /* \"#utility.yul\":3774:3778   */\n  dup4\n    /* \"#utility.yul\":3755:3784   */\n  tag_25\n  jump\t// in\ntag_72:\n    /* \"#utility.yul\":3747:3784   */\n  swap2\n  pop\n    /* \"#utility.yul\":3817:3820   */\n  dup3\n    /* \"#utility.yul\":3814:3815   */\n  0x02\n    /* \"#utility.yul\":3810:3821   */\n  mul\n    /* \"#utility.yul\":3804:3808   */\n  dup3\n    /* \"#utility.yul\":3801:3822   */\n  or\n    /* \"#utility.yul\":3793:3822   */\n  swap1\n  pop\n    /* \"#utility.yul\":3533:3828   */\n  swap3\n  swap2\n  pop\n  pop\n  jump\t// out\n    /* \"#utility.yul\":3833:5228   */\ntag_5:\n    /* \"#utility.yul\":3950:3987   */\n  tag_74\n    /* \"#utility.yul\":3983:3986   */\n  dup3\n    /* \"#utility.yul\":3950:3987   */\n  tag_7\n  jump\t// in\ntag_74:\n    /* \"#utility.yul\":4052:4070   */\n  0xffffffffffffffff\n    /* \"#utility.yul\":4044:4050   */\n  dup2\n    /* \"#utility.yul\":4041:4071   */\n  gt\n    /* \"#utility.yul\":4038:4094   */\n  iszero\n  tag_75\n  jumpi\n    /* \"#utility.yul\":4074:4092   */\n  tag_76\n  tag_8\n  jump\t// in\ntag_76:\n    /* \"#utility.yul\":4038:4094   */\ntag_75:\n    /* \"#utility.yul\":4118:4156   */\n  tag_77\n    /* \"#utility.yul\":4150:4154   */\n  dup3\n    /* \"#utility.yul\":4144:4155   */\n  sload\n    /* \"#utility.yul\":4118:4156   */\n  tag_10\n  jump\t// in\ntag_77:\n    /* \"#utility.yul\":4203:4270   */\n  tag_78\n    /* \"#utility.yul\":4263:4269   */\n  dup3\n    /* \"#utility.yul\":4255:4261   */\n  dup3\n    /* \"#utility.yul\":4249:4253   */\n  dup6\n    /* \"#utility.yul\":4203:4270   */\n  tag_23\n  jump\t// in\ntag_78:\n    /* \"#utility.yul\":4297:4298   */\n  0x00\n    /* \"#utility.yul\":4321:4325   */\n  0x20\n    /* \"#utility.yul\":4308:4325   */\n  swap1\n  pop\n    /* \"#utility.yul\":4353:4355   */\n  0x1f\n    /* \"#utility.yul\":4345:4351   */\n  dup4\n    /* \"#utility.yul\":4342:4356   */\n  gt\n    /* \"#utility.yul\":4370:4371   */\n  0x01\n    /* \"#utility.yul\":4365:4983   */\n  dup2\n  eq\n  tag_80\n  jumpi\n    /* \"#utility.yul\":5027:5028   */\n  0x00\n    /* \"#utility.yul\":5044:5050   */\n  dup5\n    /* \"#utility.yul\":5041:5118   */\n  iszero\n  tag_81\n  jumpi\n    /* \"#utility.yul\":5093:5102   */\n  dup3\n    /* \"#utility.yul\":5088:5091   */\n  dup8\n    /* \"#utility.yul\":5084:5103   */\n  add\n    /* \"#utility.yul\":5078:5104   */\n  mload\n    /* \"#utility.yul\":5069:5104   */\n  swap1\n  pop\n    /* \"#utility.yul\":5041:5118   */\ntag_81:\n    /* \"#utility.yul\":5144:5211   */\n  tag_82\n    /* \"#utility.yul\":5204:5210   */\n  dup6\n    /* \"#utility.yul\":5197:5202   */\n  dup3\n    /* \"#utility.yul\":5144:5211   */\n  tag_26\n  jump\t// in\ntag_82:\n    /* \"#utility.yul\":5138:5142   */\n  dup7\n    /* \"#utility.yul\":5131:5212   */\n  sstore\n    /* \"#utility.yul\":5000:5222   */\n  pop\n    /* \"#utility.yul\":4335:5222   */\n  jump(tag_79)\n    /* \"#utility.yul\":4365:4983   */\ntag_80:\n    /* \"#utility.yul\":4417:4421   */\n  0x1f\n    /* \"#utility.yul\":4413:4422   */\n  not\n    /* \"#utility.yul\":4405:4411   */\n  dup5\n    /* \"#utility.yul\":4401:4423   */\n  and\n    /* \"#utility.yul\":4451:4488   */\n  tag_83\n    /* \"#utility.yul\":4483:4487   */\n  dup7\n    /* \"#utility.yul\":4451:4488   */\n  tag_11\n  jump\t// in\ntag_83:\n    /* \"#utility.yul\":4510:4511   */\n  0x00\n    /* \"#utility.yul\":4524:4732   */\ntag_84:\n    /* \"#utility.yul\":4538:4545   */\n  dup3\n    /* \"#utility.yul\":4535:4536   */\n  dup2\n    /* \"#utility.yul\":4532:4546   */\n  lt\n    /* \"#utility.yul\":4524:4732   */\n  iszero\n  tag_86\n  jumpi\n    /* \"#utility.yul\":4617:4626   */\n  dup5\n    /* \"#utility.yul\":4612:4615   */\n  dup10\n    /* \"#utility.yul\":4608:4627   */\n  add\n    /* \"#utility.yul\":4602:4628   */\n  mload\n    /* \"#utility.yul\":4594:4600   */\n  dup3\n    /* \"#utility.yul\":4587:4629   */\n  sstore\n    /* \"#utility.yul\":4668:4669   */\n  0x01\n    /* \"#utility.yul\":4660:4666   */\n  dup3\n    /* \"#utility.yul\":4656:4670   */\n  add\n    /* \"#utility.yul\":4646:4670   */\n  swap2\n  pop\n    /* \"#utility.yul\":4715:4717   */\n  0x20\n    /* \"#utility.yul\":4704:4713   */\n  dup6\n    /* \"#utility.yul\":4700:4718   */\n  add\n    /* \"#utility.yul\":4687:4718   */\n  swap5\n  pop\n    /* \"#utility.yul\":4561:4565   */\n  0x20\n    /* \"#utility.yul\":4558:4559   */\n  dup2\n    /* \"#utility.yul\":4554:4566   */\n  add\n    /* \"#utility.yul\":4549:4566   */\n  swap1\n  pop\n    /* \"#utility.yul\":4524:4732   */\n  jump(tag_84)\ntag_86:\n    /* \"#utility.yul\":4760:4766   */\n  dup7\n    /* \"#utility.yul\":4751:4758   */\n  dup4\n    /* \"#utility.yul\":4748:4767   */\n  lt\n    /* \"#utility.yul\":4745:4924   */\n  iszero\n  tag_87\n  jumpi\n    /* \"#utility.yul\":4818:4827   */\n  dup5\n    /* \"#utility.yul\":4813:4816   */\n  dup10\n    /* \"#utility.yul\":4809:4828   */\n  add\n    /* \"#utility.yul\":4803:4829   */\n  mload\n    /* \"#utility.yul\":4861:4909   */\n  tag_88\n    /* \"#utility.yul\":4903:4907   */\n  0x1f\n    /* \"#utility.yul\":4895:4901   */\n  dup10\n    /* \"#utility.yul\":4891:4908   */\n  and\n    /* \"#utility.yul\":4880:4889   */\n  dup3\n    /* \"#utility.yul\":4861:4909   */\n  tag_25\n  jump\t// in\ntag_88:\n    /* \"#utility.yul\":4853:4859   */\n  dup4\n    /* \"#utility.yul\":4846:4910   */\n  sstore\n    /* \"#utility.yul\":4768:4924   */\n  pop\n    /* \"#utility.yul\":4745:4924   */\ntag_87:\n    /* \"#utility.yul\":4970:4971   */\n  0x01\n    /* \"#utility.yul\":4966:4967   */\n  0x02\n    /* \"#utility.yul\":4958:4964   */\n  dup9\n    /* \"#utility.yul\":4954:4968   */\n  mul\n    /* \"#utility.yul\":4950:4972   */\n  add\n    /* \"#utility.yul\":4944:4948   */\n  dup9\n    /* \"#utility.yul\":4937:4973   */\n  sstore\n    /* \"#utility.yul\":4372:4983   */\n  pop\n  pop\n  pop\n    /* \"#utility.yul\":4335:5222   */\ntag_79:\n  pop\n    /* \"#utility.yul\":3925:5228   */\n  pop\n  pop\n  pop\n    /* \"#utility.yul\":3833:5228   */\n  pop\n  pop\n  jump\t// out\n    /* \"contracts/Ecommerce.sol\":63:3668  contract Ecommerce {... */\ntag_6:\n  dataSize(sub_0)\n  dup1\n  dataOffset(sub_0)\n  0x00\n  codecopy\n  0x00\n  return\nstop\n\nsub_0: assembly {\n        /* \"contracts/Ecommerce.sol\":63:3668  contract Ecommerce {... */\n      mstore(0x40, 0x80)\n      jumpi(tag_1, lt(calldatasize, 0x04))\n      shr(0xe0, calldataload(0x00))\n      dup1\n      0x811c18c7\n      gt\n      tag_15\n      jumpi\n      dup1\n      0x9b9d326d\n      gt\n      tag_16\n      jumpi\n      dup1\n      0x9b9d326d\n      eq\n      tag_11\n      jumpi\n      dup1\n      0x9c46b3a5\n      eq\n      tag_12\n      jumpi\n      dup1\n      0xc198bdb9\n      eq\n      tag_13\n      jumpi\n      dup1\n      0xc29b2f20\n      eq\n      tag_14\n      jumpi\n      jump(tag_1)\n    tag_16:\n      dup1\n      0x811c18c7\n      eq\n      tag_8\n      jumpi\n      dup1\n      0x9023f273\n      eq\n      tag_9\n      jumpi\n      dup1\n      0x96a9ddf9\n      eq\n      tag_10\n      jumpi\n      jump(tag_1)\n    tag_15:\n      dup1\n      0x3e9491a2\n      eq\n      tag_2\n      jumpi\n      dup1\n      0x570aea8a\n      eq\n      tag_3\n      jumpi\n      dup1\n      0x57a096a1\n      eq\n      tag_4\n      jumpi\n      dup1\n      0x65ac2320\n      eq\n      tag_5\n      jumpi\n      dup1\n      0x76987ce6\n      eq\n      tag_6\n      jumpi\n      dup1\n      0x7a05c6cf\n      eq\n      tag_7\n      jumpi\n    tag_1:\n      0x00\n      dup1\n      revert\n        /* \"contracts/Ecommerce.sol\":89:107  int public revenue */\n    tag_2:\n      callvalue\n      dup1\n      iszero\n      tag_17\n      jumpi\n      0x00\n      dup1\n      revert\n    tag_17:\n      pop\n      tag_18\n      tag_19\n      jump\t// in\n    tag_18:\n      mload(0x40)\n      tag_20\n      swap2\n      swap1\n      tag_21\n      jump\t// in\n    tag_20:\n      mload(0x40)\n      dup1\n      swap2\n      sub\n      swap1\n      return\n        /* \"contracts/Ecommerce.sol\":3565:3666  function getTotalProducts() public view returns (uint) {... */\n    tag_3:\n      callvalue\n      dup1\n      iszero\n      tag_22\n      jumpi\n      0x00\n      dup1\n      revert\n    tag_22:\n      pop\n      tag_23\n      tag_24\n      jump\t// in\n    tag_23:\n      mload(0x40)\n      tag_25\n      swap2\n      swap1\n      tag_26\n      jump\t// in\n    tag_25:\n      mload(0x40)\n      dup1\n      swap2\n      sub\n      swap1\n      return\n        /* \"contracts/Ecommerce.sol\":2395:2502  function getProductHistory(uint id) public view returns (int) {... */\n    tag_4:\n      callvalue\n      dup1\n      iszero\n      tag_27\n      jumpi\n      0x00\n      dup1\n      revert\n    tag_27:\n      pop\n      tag_28\n      0x04\n      dup1\n      calldatasize\n      sub\n      dup2\n      add\n      swap1\n      tag_29\n      swap2\n      swap1\n      tag_30\n      jump\t// in\n    tag_29:\n      tag_31\n      jump\t// in\n    tag_28:\n      mload(0x40)\n      tag_32\n      swap2\n      swap1\n      tag_21\n      jump\t// in\n    tag_32:\n      mload(0x40)\n      dup1\n      swap2\n      sub\n      swap1\n      return\n        /* \"contracts/Ecommerce.sol\":113:136  string public ownerName */\n    tag_5:\n      callvalue\n      dup1\n      iszero\n      tag_33\n      jumpi\n      0x00\n      dup1\n      revert\n    tag_33:\n      pop\n      tag_34\n      tag_35\n      jump\t// in\n    tag_34:\n      mload(0x40)\n      tag_36\n      swap2\n      swap1\n      tag_37\n      jump\t// in\n    tag_36:\n      mload(0x40)\n      dup1\n      swap2\n      sub\n      swap1\n      return\n        /* \"contracts/Ecommerce.sol\":2028:2184  function addItem(uint id, int quant) public {... */\n    tag_6:\n      callvalue\n      dup1\n      iszero\n      tag_38\n      jumpi\n      0x00\n      dup1\n      revert\n    tag_38:\n      pop\n      tag_39\n      0x04\n      dup1\n      calldatasize\n      sub\n      dup2\n      add\n      swap1\n      tag_40\n      swap2\n      swap1\n      tag_41\n      jump\t// in\n    tag_40:\n      tag_42\n      jump\t// in\n    tag_39:\n      stop\n        /* \"contracts/Ecommerce.sol\":2235:2347  function getAccountHistory(address addr) public view returns (int) {... */\n    tag_7:\n      callvalue\n      dup1\n      iszero\n      tag_43\n      jumpi\n      0x00\n      dup1\n      revert\n    tag_43:\n      pop\n      tag_44\n      0x04\n      dup1\n      calldatasize\n      sub\n      dup2\n      add\n      swap1\n      tag_45\n      swap2\n      swap1\n      tag_46\n      jump\t// in\n    tag_45:\n      tag_47\n      jump\t// in\n    tag_44:\n      mload(0x40)\n      tag_48\n      swap2\n      swap1\n      tag_21\n      jump\t// in\n    tag_48:\n      mload(0x40)\n      dup1\n      swap2\n      sub\n      swap1\n      return\n        /* \"contracts/Ecommerce.sol\":2777:3355  function acceptReturn(uint refundIndex) public payable {... */\n    tag_8:\n      tag_49\n      0x04\n      dup1\n      calldatasize\n      sub\n      dup2\n      add\n      swap1\n      tag_50\n      swap2\n      swap1\n      tag_30\n      jump\t// in\n    tag_50:\n      tag_51\n      jump\t// in\n    tag_49:\n      stop\n        /* \"contracts/Ecommerce.sol\":862:1205  function addProduct(string memory name, int num, int cost) public {... */\n    tag_9:\n      callvalue\n      dup1\n      iszero\n      tag_52\n      jumpi\n      0x00\n      dup1\n      revert\n    tag_52:\n      pop\n      tag_53\n      0x04\n      dup1\n      calldatasize\n      sub\n      dup2\n      add\n      swap1\n      tag_54\n      swap2\n      swap1\n      tag_55\n      jump\t// in\n    tag_54:\n      tag_56\n      jump\t// in\n    tag_53:\n      stop\n        /* \"contracts/Ecommerce.sol\":1825:1987  function changePrice(uint id, int price) public {... */\n    tag_10:\n      callvalue\n      dup1\n      iszero\n      tag_57\n      jumpi\n      0x00\n      dup1\n      revert\n    tag_57:\n      pop\n      tag_58\n      0x04\n      dup1\n      calldatasize\n      sub\n      dup2\n      add\n      swap1\n      tag_59\n      swap2\n      swap1\n      tag_41\n      jump\t// in\n    tag_59:\n      tag_60\n      jump\t// in\n    tag_58:\n      stop\n        /* \"contracts/Ecommerce.sol\":649:674  uint public totalProducts */\n    tag_11:\n      callvalue\n      dup1\n      iszero\n      tag_61\n      jumpi\n      0x00\n      dup1\n      revert\n    tag_61:\n      pop\n      tag_62\n      tag_63\n      jump\t// in\n    tag_62:\n      mload(0x40)\n      tag_64\n      swap2\n      swap1\n      tag_26\n      jump\t// in\n    tag_64:\n      mload(0x40)\n      dup1\n      swap2\n      sub\n      swap1\n      return\n        /* \"contracts/Ecommerce.sol\":2540:2704  function requestReturn(uint id, int quant) public {... */\n    tag_12:\n      callvalue\n      dup1\n      iszero\n      tag_65\n      jumpi\n      0x00\n      dup1\n      revert\n    tag_65:\n      pop\n      tag_66\n      0x04\n      dup1\n      calldatasize\n      sub\n      dup2\n      add\n      swap1\n      tag_67\n      swap2\n      swap1\n      tag_41\n      jump\t// in\n    tag_67:\n      tag_68\n      jump\t// in\n    tag_66:\n      stop\n        /* \"contracts/Ecommerce.sol\":1237:1786  function purchaseItem(uint id, int quant) public payable {... */\n    tag_13:\n      tag_69\n      0x04\n      dup1\n      calldatasize\n      sub\n      dup2\n      add\n      swap1\n      tag_70\n      swap2\n      swap1\n      tag_41\n      jump\t// in\n    tag_70:\n      tag_71\n      jump\t// in\n    tag_69:\n      stop\n        /* \"contracts/Ecommerce.sol\":3394:3488  function getProducts() public view returns (product[] memory) {... */\n    tag_14:\n      callvalue\n      dup1\n      iszero\n      tag_72\n      jumpi\n      0x00\n      dup1\n      revert\n    tag_72:\n      pop\n      tag_73\n      tag_74\n      jump\t// in\n    tag_73:\n      mload(0x40)\n      tag_75\n      swap2\n      swap1\n      tag_76\n      jump\t// in\n    tag_75:\n      mload(0x40)\n      dup1\n      swap2\n      sub\n      swap1\n      return\n        /* \"contracts/Ecommerce.sol\":89:107  int public revenue */\n    tag_19:\n      sload(0x00)\n      dup2\n      jump\t// out\n        /* \"contracts/Ecommerce.sol\":3565:3666  function getTotalProducts() public view returns (uint) {... */\n    tag_24:\n        /* \"contracts/Ecommerce.sol\":3614:3618  uint */\n      0x00\n        /* \"contracts/Ecommerce.sol\":3646:3659  totalProducts */\n      sload(0x07)\n        /* \"contracts/Ecommerce.sol\":3639:3659  return totalProducts */\n      swap1\n      pop\n        /* \"contracts/Ecommerce.sol\":3565:3666  function getTotalProducts() public view returns (uint) {... */\n      swap1\n      jump\t// out\n        /* \"contracts/Ecommerce.sol\":2395:2502  function getProductHistory(uint id) public view returns (int) {... */\n    tag_31:\n        /* \"contracts/Ecommerce.sol\":2452:2455  int */\n      0x00\n        /* \"contracts/Ecommerce.sol\":2474:2491  individualProduct */\n      0x04\n        /* \"contracts/Ecommerce.sol\":2474:2495  individualProduct[id] */\n      0x00\n        /* \"contracts/Ecommerce.sol\":2492:2494  id */\n      dup4\n        /* \"contracts/Ecommerce.sol\":2474:2495  individualProduct[id] */\n      dup2\n      mstore\n      0x20\n      add\n      swap1\n      dup2\n      mstore\n      0x20\n      add\n      0x00\n      keccak256\n      sload\n        /* \"contracts/Ecommerce.sol\":2467:2495  return individualProduct[id] */\n      swap1\n      pop\n        /* \"contracts/Ecommerce.sol\":2395:2502  function getProductHistory(uint id) public view returns (int) {... */\n      swap2\n      swap1\n      pop\n      jump\t// out\n        /* \"contracts/Ecommerce.sol\":113:136  string public ownerName */\n    tag_35:\n      0x01\n      dup1\n      sload\n      tag_79\n      swap1\n      tag_80\n      jump\t// in\n    tag_79:\n      dup1\n      0x1f\n      add\n      0x20\n      dup1\n      swap2\n      div\n      mul\n      0x20\n      add\n      mload(0x40)\n      swap1\n      dup2\n      add\n      0x40\n      mstore\n      dup1\n      swap3\n      swap2\n      swap1\n      dup2\n      dup2\n      mstore\n      0x20\n      add\n      dup3\n      dup1\n      sload\n      tag_81\n      swap1\n      tag_80\n      jump\t// in\n    tag_81:\n      dup1\n      iszero\n      tag_82\n      jumpi\n      dup1\n      0x1f\n      lt\n      tag_83\n      jumpi\n      0x0100\n      dup1\n      dup4\n      sload\n      div\n      mul\n      dup4\n      mstore\n      swap2\n      0x20\n      add\n      swap2\n      jump(tag_82)\n    tag_83:\n      dup3\n      add\n      swap2\n      swap1\n      0x00\n      mstore\n      keccak256(0x00, 0x20)\n      swap1\n    tag_84:\n      dup2\n      sload\n      dup2\n      mstore\n      swap1\n      0x01\n      add\n      swap1\n      0x20\n      add\n      dup1\n      dup4\n      gt\n      tag_84\n      jumpi\n      dup3\n      swap1\n      sub\n      0x1f\n      and\n      dup3\n      add\n      swap2\n    tag_82:\n      pop\n      pop\n      pop\n      pop\n      pop\n      dup2\n      jump\t// out\n        /* \"contracts/Ecommerce.sol\":2028:2184  function addItem(uint id, int quant) public {... */\n    tag_42:\n        /* \"contracts/Ecommerce.sol\":2104:2109  owner */\n      0x02\n      0x00\n      swap1\n      sload\n      swap1\n      0x0100\n      exp\n      swap1\n      div\n      0xffffffffffffffffffffffffffffffffffffffff\n      and\n        /* \"contracts/Ecommerce.sol\":2090:2109  msg.sender == owner */\n      0xffffffffffffffffffffffffffffffffffffffff\n      and\n        /* \"contracts/Ecommerce.sol\":2090:2100  msg.sender */\n      caller\n        /* \"contracts/Ecommerce.sol\":2090:2109  msg.sender == owner */\n      0xffffffffffffffffffffffffffffffffffffffff\n      and\n      eq\n        /* \"contracts/Ecommerce.sol\":2082:2136  require(msg.sender == owner, \"You are not authorized\") */\n      tag_86\n      jumpi\n      mload(0x40)\n      0x08c379a000000000000000000000000000000000000000000000000000000000\n      dup2\n      mstore\n      0x04\n      add\n      tag_87\n      swap1\n      tag_88\n      jump\t// in\n    tag_87:\n      mload(0x40)\n      dup1\n      swap2\n      sub\n      swap1\n      revert\n    tag_86:\n        /* \"contracts/Ecommerce.sol\":2172:2177  quant */\n      dup1\n        /* \"contracts/Ecommerce.sol\":2146:2157  productList */\n      0x06\n        /* \"contracts/Ecommerce.sol\":2158:2160  id */\n      dup4\n        /* \"contracts/Ecommerce.sol\":2146:2161  productList[id] */\n      dup2\n      sload\n      dup2\n      lt\n      tag_89\n      jumpi\n      tag_90\n      tag_91\n      jump\t// in\n    tag_90:\n    tag_89:\n      swap1\n      0x00\n      mstore\n      keccak256(0x00, 0x20)\n      swap1\n      0x05\n      mul\n      add\n        /* \"contracts/Ecommerce.sol\":2146:2168  productList[id].noItem */\n      0x02\n      add\n      0x00\n        /* \"contracts/Ecommerce.sol\":2146:2177  productList[id].noItem += quant */\n      dup3\n      dup3\n      sload\n      tag_93\n      swap2\n      swap1\n      tag_94\n      jump\t// in\n    tag_93:\n      swap3\n      pop\n      pop\n      dup2\n      swap1\n      sstore\n      pop\n        /* \"contracts/Ecommerce.sol\":2028:2184  function addItem(uint id, int quant) public {... */\n      pop\n      pop\n      jump\t// out\n        /* \"contracts/Ecommerce.sol\":2235:2347  function getAccountHistory(address addr) public view returns (int) {... */\n    tag_47:\n        /* \"contracts/Ecommerce.sol\":2297:2300  int */\n      0x00\n        /* \"contracts/Ecommerce.sol\":2319:2334  individualSpend */\n      0x03\n        /* \"contracts/Ecommerce.sol\":2319:2340  individualSpend[addr] */\n      0x00\n        /* \"contracts/Ecommerce.sol\":2335:2339  addr */\n      dup4\n        /* \"contracts/Ecommerce.sol\":2319:2340  individualSpend[addr] */\n      0xffffffffffffffffffffffffffffffffffffffff\n      and\n      0xffffffffffffffffffffffffffffffffffffffff\n      and\n      dup2\n      mstore\n      0x20\n      add\n      swap1\n      dup2\n      mstore\n      0x20\n      add\n      0x00\n      keccak256\n      sload\n        /* \"contracts/Ecommerce.sol\":2312:2340  return individualSpend[addr] */\n      swap1\n      pop\n        /* \"contracts/Ecommerce.sol\":2235:2347  function getAccountHistory(address addr) public view returns (int) {... */\n      swap2\n      swap1\n      pop\n      jump\t// out\n        /* \"contracts/Ecommerce.sol\":2777:3355  function acceptReturn(uint refundIndex) public payable {... */\n    tag_51:\n        /* \"contracts/Ecommerce.sol\":2864:2869  owner */\n      0x02\n      0x00\n      swap1\n      sload\n      swap1\n      0x0100\n      exp\n      swap1\n      div\n      0xffffffffffffffffffffffffffffffffffffffff\n      and\n        /* \"contracts/Ecommerce.sol\":2850:2869  msg.sender == owner */\n      0xffffffffffffffffffffffffffffffffffffffff\n      and\n        /* \"contracts/Ecommerce.sol\":2850:2860  msg.sender */\n      caller\n        /* \"contracts/Ecommerce.sol\":2850:2869  msg.sender == owner */\n      0xffffffffffffffffffffffffffffffffffffffff\n      and\n      eq\n        /* \"contracts/Ecommerce.sol\":2842:2896  require(msg.sender == owner, \"You are not authorized\") */\n      tag_97\n      jumpi\n      mload(0x40)\n      0x08c379a000000000000000000000000000000000000000000000000000000000\n      dup2\n      mstore\n      0x04\n      add\n      tag_98\n      swap1\n      tag_88\n      jump\t// in\n    tag_98:\n      mload(0x40)\n      dup1\n      swap2\n      sub\n      swap1\n      revert\n    tag_97:\n        /* \"contracts/Ecommerce.sol\":2906:2924  address refAddress */\n      0x00\n        /* \"contracts/Ecommerce.sol\":2927:2937  refundlist */\n      0x05\n        /* \"contracts/Ecommerce.sol\":2938:2949  refundIndex */\n      dup3\n        /* \"contracts/Ecommerce.sol\":2927:2950  refundlist[refundIndex] */\n      dup2\n      sload\n      dup2\n      lt\n      tag_99\n      jumpi\n      tag_100\n      tag_91\n      jump\t// in\n    tag_100:\n    tag_99:\n      swap1\n      0x00\n      mstore\n      keccak256(0x00, 0x20)\n      swap1\n      0x03\n      mul\n      add\n        /* \"contracts/Ecommerce.sol\":2927:2959  refundlist[refundIndex].customer */\n      0x00\n      add\n      0x00\n      swap1\n      sload\n      swap1\n      0x0100\n      exp\n      swap1\n      div\n      0xffffffffffffffffffffffffffffffffffffffff\n      and\n        /* \"contracts/Ecommerce.sol\":2906:2959  address refAddress = refundlist[refundIndex].customer */\n      swap1\n      pop\n        /* \"contracts/Ecommerce.sol\":2969:2980  uint prodId */\n      0x00\n        /* \"contracts/Ecommerce.sol\":2983:2993  refundlist */\n      0x05\n        /* \"contracts/Ecommerce.sol\":2994:3005  refundIndex */\n      dup4\n        /* \"contracts/Ecommerce.sol\":2983:3006  refundlist[refundIndex] */\n      dup2\n      sload\n      dup2\n      lt\n      tag_102\n      jumpi\n      tag_103\n      tag_91\n      jump\t// in\n    tag_103:\n    tag_102:\n      swap1\n      0x00\n      mstore\n      keccak256(0x00, 0x20)\n      swap1\n      0x03\n      mul\n      add\n        /* \"contracts/Ecommerce.sol\":2983:3009  refundlist[refundIndex].id */\n      0x01\n      add\n      sload\n        /* \"contracts/Ecommerce.sol\":2969:3009  uint prodId = refundlist[refundIndex].id */\n      swap1\n      pop\n        /* \"contracts/Ecommerce.sol\":3019:3028  int quant */\n      0x00\n        /* \"contracts/Ecommerce.sol\":3031:3041  refundlist */\n      0x05\n        /* \"contracts/Ecommerce.sol\":3042:3053  refundIndex */\n      dup5\n        /* \"contracts/Ecommerce.sol\":3031:3054  refundlist[refundIndex] */\n      dup2\n      sload\n      dup2\n      lt\n      tag_105\n      jumpi\n      tag_106\n      tag_91\n      jump\t// in\n    tag_106:\n    tag_105:\n      swap1\n      0x00\n      mstore\n      keccak256(0x00, 0x20)\n      swap1\n      0x03\n      mul\n      add\n        /* \"contracts/Ecommerce.sol\":3031:3061  refundlist[refundIndex].noItem */\n      0x02\n      add\n      sload\n        /* \"contracts/Ecommerce.sol\":3019:3061  int quant = refundlist[refundIndex].noItem */\n      swap1\n      pop\n        /* \"contracts/Ecommerce.sol\":3071:3081  int amount */\n      0x00\n        /* \"contracts/Ecommerce.sol\":3115:3120  quant */\n      dup2\n        /* \"contracts/Ecommerce.sol\":3084:3095  productList */\n      0x06\n        /* \"contracts/Ecommerce.sol\":3096:3102  prodId */\n      dup5\n        /* \"contracts/Ecommerce.sol\":3084:3103  productList[prodId] */\n      dup2\n      sload\n      dup2\n      lt\n      tag_108\n      jumpi\n      tag_109\n      tag_91\n      jump\t// in\n    tag_109:\n    tag_108:\n      swap1\n      0x00\n      mstore\n      keccak256(0x00, 0x20)\n      swap1\n      0x05\n      mul\n      add\n        /* \"contracts/Ecommerce.sol\":3084:3112  productList[prodId].unitCost */\n      0x03\n      add\n      sload\n        /* \"contracts/Ecommerce.sol\":3084:3120  productList[prodId].unitCost * quant */\n      tag_111\n      swap2\n      swap1\n      tag_112\n      jump\t// in\n    tag_111:\n        /* \"contracts/Ecommerce.sol\":3071:3120  int amount = productList[prodId].unitCost * quant */\n      swap1\n      pop\n        /* \"contracts/Ecommerce.sol\":3156:3162  amount */\n      dup1\n        /* \"contracts/Ecommerce.sol\":3142:3151  msg.value */\n      callvalue\n        /* \"contracts/Ecommerce.sol\":3138:3162  int(msg.value) >= amount */\n      slt\n      iszero\n        /* \"contracts/Ecommerce.sol\":3130:3190  require(int(msg.value) >= amount, \"Insufficient Ether sent\") */\n      tag_113\n      jumpi\n      mload(0x40)\n      0x08c379a000000000000000000000000000000000000000000000000000000000\n      dup2\n      mstore\n      0x04\n      add\n      tag_114\n      swap1\n      tag_115\n      jump\t// in\n    tag_114:\n      mload(0x40)\n      dup1\n      swap2\n      sub\n      swap1\n      revert\n    tag_113:\n        /* \"contracts/Ecommerce.sol\":3201:3210  bool sent */\n      0x00\n        /* \"contracts/Ecommerce.sol\":3216:3226  refAddress */\n      dup5\n        /* \"contracts/Ecommerce.sol\":3216:3231  refAddress.call */\n      0xffffffffffffffffffffffffffffffffffffffff\n      and\n        /* \"contracts/Ecommerce.sol\":3244:3250  amount */\n      dup3\n        /* \"contracts/Ecommerce.sol\":3216:3256  refAddress.call{value: uint(amount)}(\"\") */\n      mload(0x40)\n      tag_116\n      swap1\n      tag_117\n      jump\t// in\n    tag_116:\n      0x00\n      mload(0x40)\n      dup1\n      dup4\n      sub\n      dup2\n      dup6\n      dup8\n      gas\n      call\n      swap3\n      pop\n      pop\n      pop\n      returndatasize\n      dup1\n      0x00\n      dup2\n      eq\n      tag_120\n      jumpi\n      mload(0x40)\n      swap2\n      pop\n      and(add(returndatasize, 0x3f), not(0x1f))\n      dup3\n      add\n      0x40\n      mstore\n      returndatasize\n      dup3\n      mstore\n      returndatasize\n      0x00\n      0x20\n      dup5\n      add\n      returndatacopy\n      jump(tag_119)\n    tag_120:\n      0x60\n      swap2\n      pop\n    tag_119:\n      pop\n        /* \"contracts/Ecommerce.sol\":3200:3256  (bool sent, ) = refAddress.call{value: uint(amount)}(\"\") */\n      pop\n      swap1\n      pop\n        /* \"contracts/Ecommerce.sol\":3274:3278  sent */\n      dup1\n        /* \"contracts/Ecommerce.sol\":3266:3303  require(sent, \"Failed to send Ether\") */\n      tag_121\n      jumpi\n      mload(0x40)\n      0x08c379a000000000000000000000000000000000000000000000000000000000\n      dup2\n      mstore\n      0x04\n      add\n      tag_122\n      swap1\n      tag_123\n      jump\t// in\n    tag_122:\n      mload(0x40)\n      dup1\n      swap2\n      sub\n      swap1\n      revert\n    tag_121:\n        /* \"contracts/Ecommerce.sol\":3343:3348  quant */\n      dup3\n        /* \"contracts/Ecommerce.sol\":3313:3324  productList */\n      0x06\n        /* \"contracts/Ecommerce.sol\":3325:3331  prodId */\n      dup6\n        /* \"contracts/Ecommerce.sol\":3313:3332  productList[prodId] */\n      dup2\n      sload\n      dup2\n      lt\n      tag_124\n      jumpi\n      tag_125\n      tag_91\n      jump\t// in\n    tag_125:\n    tag_124:\n      swap1\n      0x00\n      mstore\n      keccak256(0x00, 0x20)\n      swap1\n      0x05\n      mul\n      add\n        /* \"contracts/Ecommerce.sol\":3313:3339  productList[prodId].noItem */\n      0x02\n      add\n      0x00\n        /* \"contracts/Ecommerce.sol\":3313:3348  productList[prodId].noItem += quant */\n      dup3\n      dup3\n      sload\n      tag_127\n      swap2\n      swap1\n      tag_94\n      jump\t// in\n    tag_127:\n      swap3\n      pop\n      pop\n      dup2\n      swap1\n      sstore\n      pop\n        /* \"contracts/Ecommerce.sol\":2832:3355  {... */\n      pop\n      pop\n      pop\n      pop\n      pop\n        /* \"contracts/Ecommerce.sol\":2777:3355  function acceptReturn(uint refundIndex) public payable {... */\n      pop\n      jump\t// out\n        /* \"contracts/Ecommerce.sol\":862:1205  function addProduct(string memory name, int num, int cost) public {... */\n    tag_56:\n        /* \"contracts/Ecommerce.sol\":960:965  owner */\n      0x02\n      0x00\n      swap1\n      sload\n      swap1\n      0x0100\n      exp\n      swap1\n      div\n      0xffffffffffffffffffffffffffffffffffffffff\n      and\n        /* \"contracts/Ecommerce.sol\":946:965  msg.sender == owner */\n      0xffffffffffffffffffffffffffffffffffffffff\n      and\n        /* \"contracts/Ecommerce.sol\":946:956  msg.sender */\n      caller\n        /* \"contracts/Ecommerce.sol\":946:965  msg.sender == owner */\n      0xffffffffffffffffffffffffffffffffffffffff\n      and\n      eq\n        /* \"contracts/Ecommerce.sol\":938:992  require(msg.sender == owner, \"You are not authorized\") */\n      tag_129\n      jumpi\n      mload(0x40)\n      0x08c379a000000000000000000000000000000000000000000000000000000000\n      dup2\n      mstore\n      0x04\n      add\n      tag_130\n      swap1\n      tag_88\n      jump\t// in\n    tag_130:\n      mload(0x40)\n      dup1\n      swap2\n      sub\n      swap1\n      revert\n    tag_129:\n        /* \"contracts/Ecommerce.sol\":1002:1009  uint id */\n      0x00\n        /* \"contracts/Ecommerce.sol\":1012:1023  productList */\n      0x06\n        /* \"contracts/Ecommerce.sol\":1012:1030  productList.length */\n      dup1\n      sload\n      swap1\n      pop\n        /* \"contracts/Ecommerce.sol\":1002:1030  uint id = productList.length */\n      swap1\n      pop\n        /* \"contracts/Ecommerce.sol\":1073:1098  product memory newProduct */\n      0x00\n        /* \"contracts/Ecommerce.sol\":1101:1132  product(id, name, num, cost, 0) */\n      mload(0x40)\n      dup1\n      0xa0\n      add\n      0x40\n      mstore\n      dup1\n        /* \"contracts/Ecommerce.sol\":1109:1111  id */\n      dup4\n        /* \"contracts/Ecommerce.sol\":1101:1132  product(id, name, num, cost, 0) */\n      dup2\n      mstore\n      0x20\n      add\n        /* \"contracts/Ecommerce.sol\":1113:1117  name */\n      dup7\n        /* \"contracts/Ecommerce.sol\":1101:1132  product(id, name, num, cost, 0) */\n      dup2\n      mstore\n      0x20\n      add\n        /* \"contracts/Ecommerce.sol\":1119:1122  num */\n      dup6\n        /* \"contracts/Ecommerce.sol\":1101:1132  product(id, name, num, cost, 0) */\n      dup2\n      mstore\n      0x20\n      add\n        /* \"contracts/Ecommerce.sol\":1124:1128  cost */\n      dup5\n        /* \"contracts/Ecommerce.sol\":1101:1132  product(id, name, num, cost, 0) */\n      dup2\n      mstore\n      0x20\n      add\n        /* \"contracts/Ecommerce.sol\":1130:1131  0 */\n      0x00\n        /* \"contracts/Ecommerce.sol\":1101:1132  product(id, name, num, cost, 0) */\n      dup2\n      mstore\n      pop\n        /* \"contracts/Ecommerce.sol\":1073:1132  product memory newProduct = product(id, name, num, cost, 0) */\n      swap1\n      pop\n        /* \"contracts/Ecommerce.sol\":1142:1153  productList */\n      0x06\n        /* \"contracts/Ecommerce.sol\":1159:1169  newProduct */\n      dup2\n        /* \"contracts/Ecommerce.sol\":1142:1170  productList.push(newProduct) */\n      swap1\n      dup1\n      0x01\n      dup2\n      sload\n      add\n      dup1\n      dup3\n      sstore\n      dup1\n      swap2\n      pop\n      pop\n      0x01\n      swap1\n      sub\n      swap1\n      0x00\n      mstore\n      keccak256(0x00, 0x20)\n      swap1\n      0x05\n      mul\n      add\n      0x00\n      swap1\n      swap2\n      swap1\n      swap2\n      swap1\n      swap2\n      pop\n      0x00\n      dup3\n      add\n      mload\n      dup2\n      0x00\n      add\n      sstore\n      0x20\n      dup3\n      add\n      mload\n      dup2\n      0x01\n      add\n      swap1\n      dup2\n      tag_132\n      swap2\n      swap1\n      tag_133\n      jump\t// in\n    tag_132:\n      pop\n      0x40\n      dup3\n      add\n      mload\n      dup2\n      0x02\n      add\n      sstore\n      0x60\n      dup3\n      add\n      mload\n      dup2\n      0x03\n      add\n      sstore\n      0x80\n      dup3\n      add\n      mload\n      dup2\n      0x04\n      add\n      sstore\n      pop\n      pop\n        /* \"contracts/Ecommerce.sol\":1197:1198  1 */\n      0x01\n        /* \"contracts/Ecommerce.sol\":1180:1193  totalProducts */\n      0x07\n      0x00\n        /* \"contracts/Ecommerce.sol\":1180:1198  totalProducts += 1 */\n      dup3\n      dup3\n      sload\n      tag_134\n      swap2\n      swap1\n      tag_135\n      jump\t// in\n    tag_134:\n      swap3\n      pop\n      pop\n      dup2\n      swap1\n      sstore\n      pop\n        /* \"contracts/Ecommerce.sol\":928:1205  {... */\n      pop\n      pop\n        /* \"contracts/Ecommerce.sol\":862:1205  function addProduct(string memory name, int num, int cost) public {... */\n      pop\n      pop\n      pop\n      jump\t// out\n        /* \"contracts/Ecommerce.sol\":1825:1987  function changePrice(uint id, int price) public {... */\n    tag_60:\n        /* \"contracts/Ecommerce.sol\":1905:1910  owner */\n      0x02\n      0x00\n      swap1\n      sload\n      swap1\n      0x0100\n      exp\n      swap1\n      div\n      0xffffffffffffffffffffffffffffffffffffffff\n      and\n        /* \"contracts/Ecommerce.sol\":1891:1910  msg.sender == owner */\n      0xffffffffffffffffffffffffffffffffffffffff\n      and\n        /* \"contracts/Ecommerce.sol\":1891:1901  msg.sender */\n      caller\n        /* \"contracts/Ecommerce.sol\":1891:1910  msg.sender == owner */\n      0xffffffffffffffffffffffffffffffffffffffff\n      and\n      eq\n        /* \"contracts/Ecommerce.sol\":1883:1937  require(msg.sender == owner, \"You are not authorized\") */\n      tag_137\n      jumpi\n      mload(0x40)\n      0x08c379a000000000000000000000000000000000000000000000000000000000\n      dup2\n      mstore\n      0x04\n      add\n      tag_138\n      swap1\n      tag_88\n      jump\t// in\n    tag_138:\n      mload(0x40)\n      dup1\n      swap2\n      sub\n      swap1\n      revert\n    tag_137:\n        /* \"contracts/Ecommerce.sol\":1975:1980  price */\n      dup1\n        /* \"contracts/Ecommerce.sol\":1947:1958  productList */\n      0x06\n        /* \"contracts/Ecommerce.sol\":1959:1961  id */\n      dup4\n        /* \"contracts/Ecommerce.sol\":1947:1962  productList[id] */\n      dup2\n      sload\n      dup2\n      lt\n      tag_139\n      jumpi\n      tag_140\n      tag_91\n      jump\t// in\n    tag_140:\n    tag_139:\n      swap1\n      0x00\n      mstore\n      keccak256(0x00, 0x20)\n      swap1\n      0x05\n      mul\n      add\n        /* \"contracts/Ecommerce.sol\":1947:1971  productList[id].unitCost */\n      0x03\n      add\n      0x00\n        /* \"contracts/Ecommerce.sol\":1947:1980  productList[id].unitCost += price */\n      dup3\n      dup3\n      sload\n      tag_142\n      swap2\n      swap1\n      tag_94\n      jump\t// in\n    tag_142:\n      swap3\n      pop\n      pop\n      dup2\n      swap1\n      sstore\n      pop\n        /* \"contracts/Ecommerce.sol\":1825:1987  function changePrice(uint id, int price) public {... */\n      pop\n      pop\n      jump\t// out\n        /* \"contracts/Ecommerce.sol\":649:674  uint public totalProducts */\n    tag_63:\n      sload(0x07)\n      dup2\n      jump\t// out\n        /* \"contracts/Ecommerce.sol\":2540:2704  function requestReturn(uint id, int quant) public {... */\n    tag_68:\n        /* \"contracts/Ecommerce.sol\":2600:2626  refundInfo memory myRefund */\n      0x00\n        /* \"contracts/Ecommerce.sol\":2629:2662  refundInfo(msg.sender, id, quant) */\n      mload(0x40)\n      dup1\n      0x60\n      add\n      0x40\n      mstore\n      dup1\n        /* \"contracts/Ecommerce.sol\":2640:2650  msg.sender */\n      caller\n        /* \"contracts/Ecommerce.sol\":2629:2662  refundInfo(msg.sender, id, quant) */\n      0xffffffffffffffffffffffffffffffffffffffff\n      and\n      dup2\n      mstore\n      0x20\n      add\n        /* \"contracts/Ecommerce.sol\":2652:2654  id */\n      dup5\n        /* \"contracts/Ecommerce.sol\":2629:2662  refundInfo(msg.sender, id, quant) */\n      dup2\n      mstore\n      0x20\n      add\n        /* \"contracts/Ecommerce.sol\":2656:2661  quant */\n      dup4\n        /* \"contracts/Ecommerce.sol\":2629:2662  refundInfo(msg.sender, id, quant) */\n      dup2\n      mstore\n      pop\n        /* \"contracts/Ecommerce.sol\":2600:2662  refundInfo memory myRefund = refundInfo(msg.sender, id, quant) */\n      swap1\n      pop\n        /* \"contracts/Ecommerce.sol\":2672:2682  refundlist */\n      0x05\n        /* \"contracts/Ecommerce.sol\":2688:2696  myRefund */\n      dup2\n        /* \"contracts/Ecommerce.sol\":2672:2697  refundlist.push(myRefund) */\n      swap1\n      dup1\n      0x01\n      dup2\n      sload\n      add\n      dup1\n      dup3\n      sstore\n      dup1\n      swap2\n      pop\n      pop\n      0x01\n      swap1\n      sub\n      swap1\n      0x00\n      mstore\n      keccak256(0x00, 0x20)\n      swap1\n      0x03\n      mul\n      add\n      0x00\n      swap1\n      swap2\n      swap1\n      swap2\n      swap1\n      swap2\n      pop\n      0x00\n      dup3\n      add\n      mload\n      dup2\n      0x00\n      add\n      exp(0x0100, 0x00)\n      dup2\n      sload\n      dup2\n      0xffffffffffffffffffffffffffffffffffffffff\n      mul\n      not\n      and\n      swap1\n      dup4\n      0xffffffffffffffffffffffffffffffffffffffff\n      and\n      mul\n      or\n      swap1\n      sstore\n      pop\n      0x20\n      dup3\n      add\n      mload\n      dup2\n      0x01\n      add\n      sstore\n      0x40\n      dup3\n      add\n      mload\n      dup2\n      0x02\n      add\n      sstore\n      pop\n      pop\n        /* \"contracts/Ecommerce.sol\":2590:2704  {... */\n      pop\n        /* \"contracts/Ecommerce.sol\":2540:2704  function requestReturn(uint id, int quant) public {... */\n      pop\n      pop\n      jump\t// out\n        /* \"contracts/Ecommerce.sol\":1237:1786  function purchaseItem(uint id, int quant) public payable {... */\n    tag_71:\n        /* \"contracts/Ecommerce.sol\":1338:1343  quant */\n      dup1\n        /* \"contracts/Ecommerce.sol\":1312:1323  productList */\n      0x06\n        /* \"contracts/Ecommerce.sol\":1324:1326  id */\n      dup4\n        /* \"contracts/Ecommerce.sol\":1312:1327  productList[id] */\n      dup2\n      sload\n      dup2\n      lt\n      tag_146\n      jumpi\n      tag_147\n      tag_91\n      jump\t// in\n    tag_147:\n    tag_146:\n      swap1\n      0x00\n      mstore\n      keccak256(0x00, 0x20)\n      swap1\n      0x05\n      mul\n      add\n        /* \"contracts/Ecommerce.sol\":1312:1334  productList[id].noItem */\n      0x02\n      add\n      sload\n        /* \"contracts/Ecommerce.sol\":1312:1343  productList[id].noItem >= quant */\n      slt\n      iszero\n        /* \"contracts/Ecommerce.sol\":1304:1360  require(productList[id].noItem >= quant, \"Out of stock\") */\n      tag_149\n      jumpi\n      mload(0x40)\n      0x08c379a000000000000000000000000000000000000000000000000000000000\n      dup2\n      mstore\n      0x04\n      add\n      tag_150\n      swap1\n      tag_151\n      jump\t// in\n    tag_150:\n      mload(0x40)\n      dup1\n      swap2\n      sub\n      swap1\n      revert\n    tag_149:\n        /* \"contracts/Ecommerce.sol\":1396:1401  quant */\n      dup1\n        /* \"contracts/Ecommerce.sol\":1370:1381  productList */\n      0x06\n        /* \"contracts/Ecommerce.sol\":1382:1384  id */\n      dup4\n        /* \"contracts/Ecommerce.sol\":1370:1385  productList[id] */\n      dup2\n      sload\n      dup2\n      lt\n      tag_152\n      jumpi\n      tag_153\n      tag_91\n      jump\t// in\n    tag_153:\n    tag_152:\n      swap1\n      0x00\n      mstore\n      keccak256(0x00, 0x20)\n      swap1\n      0x05\n      mul\n      add\n        /* \"contracts/Ecommerce.sol\":1370:1392  productList[id].noItem */\n      0x02\n      add\n      0x00\n        /* \"contracts/Ecommerce.sol\":1370:1401  productList[id].noItem -= quant */\n      dup3\n      dup3\n      sload\n      tag_155\n      swap2\n      swap1\n      tag_156\n      jump\t// in\n    tag_155:\n      swap3\n      pop\n      pop\n      dup2\n      swap1\n      sstore\n      pop\n        /* \"contracts/Ecommerce.sol\":1411:1419  int cost */\n      0x00\n        /* \"contracts/Ecommerce.sol\":1449:1454  quant */\n      dup2\n        /* \"contracts/Ecommerce.sol\":1422:1433  productList */\n      0x06\n        /* \"contracts/Ecommerce.sol\":1434:1436  id */\n      dup5\n        /* \"contracts/Ecommerce.sol\":1422:1437  productList[id] */\n      dup2\n      sload\n      dup2\n      lt\n      tag_157\n      jumpi\n      tag_158\n      tag_91\n      jump\t// in\n    tag_158:\n    tag_157:\n      swap1\n      0x00\n      mstore\n      keccak256(0x00, 0x20)\n      swap1\n      0x05\n      mul\n      add\n        /* \"contracts/Ecommerce.sol\":1422:1446  productList[id].unitCost */\n      0x03\n      add\n      sload\n        /* \"contracts/Ecommerce.sol\":1422:1454  productList[id].unitCost * quant */\n      tag_160\n      swap2\n      swap1\n      tag_112\n      jump\t// in\n    tag_160:\n        /* \"contracts/Ecommerce.sol\":1411:1454  int cost = productList[id].unitCost * quant */\n      swap1\n      pop\n        /* \"contracts/Ecommerce.sol\":1490:1494  cost */\n      dup1\n        /* \"contracts/Ecommerce.sol\":1476:1485  msg.value */\n      callvalue\n        /* \"contracts/Ecommerce.sol\":1472:1494  int(msg.value) >= cost */\n      slt\n      iszero\n        /* \"contracts/Ecommerce.sol\":1464:1519  require(int(msg.value) >= cost, \"Insufficient balance\") */\n      tag_161\n      jumpi\n      mload(0x40)\n      0x08c379a000000000000000000000000000000000000000000000000000000000\n      dup2\n      mstore\n      0x04\n      add\n      tag_162\n      swap1\n      tag_163\n      jump\t// in\n    tag_162:\n      mload(0x40)\n      dup1\n      swap2\n      sub\n      swap1\n      revert\n    tag_161:\n        /* \"contracts/Ecommerce.sol\":1530:1539  bool sent */\n      0x00\n        /* \"contracts/Ecommerce.sol\":1545:1550  owner */\n      0x02\n      0x00\n      swap1\n      sload\n      swap1\n      0x0100\n      exp\n      swap1\n      div\n      0xffffffffffffffffffffffffffffffffffffffff\n      and\n        /* \"contracts/Ecommerce.sol\":1545:1555  owner.call */\n      0xffffffffffffffffffffffffffffffffffffffff\n      and\n        /* \"contracts/Ecommerce.sol\":1568:1572  cost */\n      dup3\n        /* \"contracts/Ecommerce.sol\":1545:1578  owner.call{value: uint(cost)}(\"\") */\n      mload(0x40)\n      tag_164\n      swap1\n      tag_117\n      jump\t// in\n    tag_164:\n      0x00\n      mload(0x40)\n      dup1\n      dup4\n      sub\n      dup2\n      dup6\n      dup8\n      gas\n      call\n      swap3\n      pop\n      pop\n      pop\n      returndatasize\n      dup1\n      0x00\n      dup2\n      eq\n      tag_167\n      jumpi\n      mload(0x40)\n      swap2\n      pop\n      and(add(returndatasize, 0x3f), not(0x1f))\n      dup3\n      add\n      0x40\n      mstore\n      returndatasize\n      dup3\n      mstore\n      returndatasize\n      0x00\n      0x20\n      dup5\n      add\n      returndatacopy\n      jump(tag_166)\n    tag_167:\n      0x60\n      swap2\n      pop\n    tag_166:\n      pop\n        /* \"contracts/Ecommerce.sol\":1529:1578  (bool sent, ) = owner.call{value: uint(cost)}(\"\") */\n      pop\n      swap1\n      pop\n        /* \"contracts/Ecommerce.sol\":1596:1600  sent */\n      dup1\n        /* \"contracts/Ecommerce.sol\":1588:1625  require(sent, \"Failed to send Ether\") */\n      tag_168\n      jumpi\n      mload(0x40)\n      0x08c379a000000000000000000000000000000000000000000000000000000000\n      dup2\n      mstore\n      0x04\n      add\n      tag_169\n      swap1\n      tag_123\n      jump\t// in\n    tag_169:\n      mload(0x40)\n      dup1\n      swap2\n      sub\n      swap1\n      revert\n    tag_168:\n        /* \"contracts/Ecommerce.sol\":1646:1650  cost */\n      dup2\n        /* \"contracts/Ecommerce.sol\":1635:1642  revenue */\n      0x00\n      dup1\n        /* \"contracts/Ecommerce.sol\":1635:1650  revenue += cost */\n      dup3\n      dup3\n      sload\n      tag_170\n      swap2\n      swap1\n      tag_94\n      jump\t// in\n    tag_170:\n      swap3\n      pop\n      pop\n      dup2\n      swap1\n      sstore\n      pop\n        /* \"contracts/Ecommerce.sol\":1693:1694  1 */\n      0x01\n        /* \"contracts/Ecommerce.sol\":1660:1671  productList */\n      0x06\n        /* \"contracts/Ecommerce.sol\":1672:1674  id */\n      dup6\n        /* \"contracts/Ecommerce.sol\":1660:1675  productList[id] */\n      dup2\n      sload\n      dup2\n      lt\n      tag_171\n      jumpi\n      tag_172\n      tag_91\n      jump\t// in\n    tag_172:\n    tag_171:\n      swap1\n      0x00\n      mstore\n      keccak256(0x00, 0x20)\n      swap1\n      0x05\n      mul\n      add\n        /* \"contracts/Ecommerce.sol\":1660:1689  productList[id].totalPurchase */\n      0x04\n      add\n      0x00\n        /* \"contracts/Ecommerce.sol\":1660:1694  productList[id].totalPurchase += 1 */\n      dup3\n      dup3\n      sload\n      tag_174\n      swap2\n      swap1\n      tag_135\n      jump\t// in\n    tag_174:\n      swap3\n      pop\n      pop\n      dup2\n      swap1\n      sstore\n      pop\n        /* \"contracts/Ecommerce.sol\":1735:1739  cost */\n      dup2\n        /* \"contracts/Ecommerce.sol\":1704:1719  individualSpend */\n      0x03\n        /* \"contracts/Ecommerce.sol\":1704:1731  individualSpend[msg.sender] */\n      0x00\n        /* \"contracts/Ecommerce.sol\":1720:1730  msg.sender */\n      caller\n        /* \"contracts/Ecommerce.sol\":1704:1731  individualSpend[msg.sender] */\n      0xffffffffffffffffffffffffffffffffffffffff\n      and\n      0xffffffffffffffffffffffffffffffffffffffff\n      and\n      dup2\n      mstore\n      0x20\n      add\n      swap1\n      dup2\n      mstore\n      0x20\n      add\n      0x00\n      keccak256\n      0x00\n        /* \"contracts/Ecommerce.sol\":1704:1739  individualSpend[msg.sender] += cost */\n      dup3\n      dup3\n      sload\n      tag_175\n      swap2\n      swap1\n      tag_94\n      jump\t// in\n    tag_175:\n      swap3\n      pop\n      pop\n      dup2\n      swap1\n      sstore\n      pop\n        /* \"contracts/Ecommerce.sol\":1774:1779  quant */\n      dup3\n        /* \"contracts/Ecommerce.sol\":1749:1766  individualProduct */\n      0x04\n        /* \"contracts/Ecommerce.sol\":1749:1770  individualProduct[id] */\n      0x00\n        /* \"contracts/Ecommerce.sol\":1767:1769  id */\n      dup7\n        /* \"contracts/Ecommerce.sol\":1749:1770  individualProduct[id] */\n      dup2\n      mstore\n      0x20\n      add\n      swap1\n      dup2\n      mstore\n      0x20\n      add\n      0x00\n      keccak256\n      0x00\n        /* \"contracts/Ecommerce.sol\":1749:1779  individualProduct[id] += quant */\n      dup3\n      dup3\n      sload\n      tag_176\n      swap2\n      swap1\n      tag_94\n      jump\t// in\n    tag_176:\n      swap3\n      pop\n      pop\n      dup2\n      swap1\n      sstore\n      pop\n        /* \"contracts/Ecommerce.sol\":1294:1786  {... */\n      pop\n      pop\n        /* \"contracts/Ecommerce.sol\":1237:1786  function purchaseItem(uint id, int quant) public payable {... */\n      pop\n      pop\n      jump\t// out\n        /* \"contracts/Ecommerce.sol\":3394:3488  function getProducts() public view returns (product[] memory) {... */\n    tag_74:\n        /* \"contracts/Ecommerce.sol\":3438:3454  product[] memory */\n      0x60\n        /* \"contracts/Ecommerce.sol\":3474:3485  productList */\n      0x06\n        /* \"contracts/Ecommerce.sol\":3467:3485  return productList */\n      dup1\n      sload\n      dup1\n      0x20\n      mul\n      0x20\n      add\n      mload(0x40)\n      swap1\n      dup2\n      add\n      0x40\n      mstore\n      dup1\n      swap3\n      swap2\n      swap1\n      dup2\n      dup2\n      mstore\n      0x20\n      add\n      0x00\n      swap1\n    tag_178:\n      dup3\n      dup3\n      lt\n      iszero\n      tag_179\n      jumpi\n      dup4\n      dup3\n      swap1\n      0x00\n      mstore\n      keccak256(0x00, 0x20)\n      swap1\n      0x05\n      mul\n      add\n      mload(0x40)\n      dup1\n      0xa0\n      add\n      0x40\n      mstore\n      swap1\n      dup2\n      0x00\n      dup3\n      add\n      sload\n      dup2\n      mstore\n      0x20\n      add\n      0x01\n      dup3\n      add\n      dup1\n      sload\n      tag_181\n      swap1\n      tag_80\n      jump\t// in\n    tag_181:\n      dup1\n      0x1f\n      add\n      0x20\n      dup1\n      swap2\n      div\n      mul\n      0x20\n      add\n      mload(0x40)\n      swap1\n      dup2\n      add\n      0x40\n      mstore\n      dup1\n      swap3\n      swap2\n      swap1\n      dup2\n      dup2\n      mstore\n      0x20\n      add\n      dup3\n      dup1\n      sload\n      tag_182\n      swap1\n      tag_80\n      jump\t// in\n    tag_182:\n      dup1\n      iszero\n      tag_183\n      jumpi\n      dup1\n      0x1f\n      lt\n      tag_184\n      jumpi\n      0x0100\n      dup1\n      dup4\n      sload\n      div\n      mul\n      dup4\n      mstore\n      swap2\n      0x20\n      add\n      swap2\n      jump(tag_183)\n    tag_184:\n      dup3\n      add\n      swap2\n      swap1\n      0x00\n      mstore\n      keccak256(0x00, 0x20)\n      swap1\n    tag_185:\n      dup2\n      sload\n      dup2\n      mstore\n      swap1\n      0x01\n      add\n      swap1\n      0x20\n      add\n      dup1\n      dup4\n      gt\n      tag_185\n      jumpi\n      dup3\n      swap1\n      sub\n      0x1f\n      and\n      dup3\n      add\n      swap2\n    tag_183:\n      pop\n      pop\n      pop\n      pop\n      pop\n      dup2\n      mstore\n      0x20\n      add\n      0x02\n      dup3\n      add\n      sload\n      dup2\n      mstore\n      0x20\n      add\n      0x03\n      dup3\n      add\n      sload\n      dup2\n      mstore\n      0x20\n      add\n      0x04\n      dup3\n      add\n      sload\n      dup2\n      mstore\n      pop\n      pop\n      dup2\n      mstore\n      0x20\n      add\n      swap1\n      0x01\n      add\n      swap1\n      jump(tag_178)\n    tag_179:\n      pop\n      pop\n      pop\n      pop\n      swap1\n      pop\n        /* \"contracts/Ecommerce.sol\":3394:3488  function getProducts() public view returns (product[] memory) {... */\n      swap1\n      jump\t// out\n        /* \"#utility.yul\":7:83   */\n    tag_186:\n        /* \"#utility.yul\":43:50   */\n      0x00\n        /* \"#utility.yul\":72:77   */\n      dup2\n        /* \"#utility.yul\":61:77   */\n      swap1\n      pop\n        /* \"#utility.yul\":7:83   */\n      swap2\n      swap1\n      pop\n      jump\t// out\n        /* \"#utility.yul\":89:204   */\n    tag_187:\n        /* \"#utility.yul\":174:197   */\n      tag_259\n        /* \"#utility.yul\":191:196   */\n      dup2\n        /* \"#utility.yul\":174:197   */\n      tag_186\n      jump\t// in\n    tag_259:\n        /* \"#utility.yul\":169:172   */\n      dup3\n        /* \"#utility.yul\":162:198   */\n      mstore\n        /* \"#utility.yul\":89:204   */\n      pop\n      pop\n      jump\t// out\n        /* \"#utility.yul\":210:428   */\n    tag_21:\n        /* \"#utility.yul\":301:305   */\n      0x00\n        /* \"#utility.yul\":339:341   */\n      0x20\n        /* \"#utility.yul\":328:337   */\n      dup3\n        /* \"#utility.yul\":324:342   */\n      add\n        /* \"#utility.yul\":316:342   */\n      swap1\n      pop\n        /* \"#utility.yul\":352:421   */\n      tag_261\n        /* \"#utility.yul\":418:419   */\n      0x00\n        /* \"#utility.yul\":407:416   */\n      dup4\n        /* \"#utility.yul\":403:420   */\n      add\n        /* \"#utility.yul\":394:400   */\n      dup5\n        /* \"#utility.yul\":352:421   */\n      tag_187\n      jump\t// in\n    tag_261:\n        /* \"#utility.yul\":210:428   */\n      swap3\n      swap2\n      pop\n      pop\n      jump\t// out\n        /* \"#utility.yul\":434:511   */\n    tag_188:\n        /* \"#utility.yul\":471:478   */\n      0x00\n        /* \"#utility.yul\":500:505   */\n      dup2\n        /* \"#utility.yul\":489:505   */\n      swap1\n      pop\n        /* \"#utility.yul\":434:511   */\n      swap2\n      swap1\n      pop\n      jump\t// out\n        /* \"#utility.yul\":517:635   */\n    tag_189:\n        /* \"#utility.yul\":604:628   */\n      tag_264\n        /* \"#utility.yul\":622:627   */\n      dup2\n        /* \"#utility.yul\":604:628   */\n      tag_188\n      jump\t// in\n    tag_264:\n        /* \"#utility.yul\":599:602   */\n      dup3\n        /* \"#utility.yul\":592:629   */\n      mstore\n        /* \"#utility.yul\":517:635   */\n      pop\n      pop\n      jump\t// out\n        /* \"#utility.yul\":641:863   */\n    tag_26:\n        /* \"#utility.yul\":734:738   */\n      0x00\n        /* \"#utility.yul\":772:774   */\n      0x20\n        /* \"#utility.yul\":761:770   */\n      dup3\n        /* \"#utility.yul\":757:775   */\n      add\n        /* \"#utility.yul\":749:775   */\n      swap1\n      pop\n        /* \"#utility.yul\":785:856   */\n      tag_266\n        /* \"#utility.yul\":853:854   */\n      0x00\n        /* \"#utility.yul\":842:851   */\n      dup4\n        /* \"#utility.yul\":838:855   */\n      add\n        /* \"#utility.yul\":829:835   */\n      dup5\n        /* \"#utility.yul\":785:856   */\n      tag_189\n      jump\t// in\n    tag_266:\n        /* \"#utility.yul\":641:863   */\n      swap3\n      swap2\n      pop\n      pop\n      jump\t// out\n        /* \"#utility.yul\":869:944   */\n    tag_190:\n        /* \"#utility.yul\":902:908   */\n      0x00\n        /* \"#utility.yul\":935:937   */\n      0x40\n        /* \"#utility.yul\":929:938   */\n      mload\n        /* \"#utility.yul\":919:938   */\n      swap1\n      pop\n        /* \"#utility.yul\":869:944   */\n      swap1\n      jump\t// out\n        /* \"#utility.yul\":950:1067   */\n    tag_191:\n        /* \"#utility.yul\":1059:1060   */\n      0x00\n        /* \"#utility.yul\":1056:1057   */\n      dup1\n        /* \"#utility.yul\":1049:1061   */\n      revert\n        /* \"#utility.yul\":1073:1190   */\n    tag_192:\n        /* \"#utility.yul\":1182:1183   */\n      0x00\n        /* \"#utility.yul\":1179:1180   */\n      dup1\n        /* \"#utility.yul\":1172:1184   */\n      revert\n        /* \"#utility.yul\":1196:1318   */\n    tag_193:\n        /* \"#utility.yul\":1269:1293   */\n      tag_271\n        /* \"#utility.yul\":1287:1292   */\n      dup2\n        /* \"#utility.yul\":1269:1293   */\n      tag_188\n      jump\t// in\n    tag_271:\n        /* \"#utility.yul\":1262:1267   */\n      dup2\n        /* \"#utility.yul\":1259:1294   */\n      eq\n        /* \"#utility.yul\":1249:1312   */\n      tag_272\n      jumpi\n        /* \"#utility.yul\":1308:1309   */\n      0x00\n        /* \"#utility.yul\":1305:1306   */\n      dup1\n        /* \"#utility.yul\":1298:1310   */\n      revert\n        /* \"#utility.yul\":1249:1312   */\n    tag_272:\n        /* \"#utility.yul\":1196:1318   */\n      pop\n      jump\t// out\n        /* \"#utility.yul\":1324:1463   */\n    tag_194:\n        /* \"#utility.yul\":1370:1375   */\n      0x00\n        /* \"#utility.yul\":1408:1414   */\n      dup2\n        /* \"#utility.yul\":1395:1415   */\n      calldataload\n        /* \"#utility.yul\":1386:1415   */\n      swap1\n      pop\n        /* \"#utility.yul\":1424:1457   */\n      tag_274\n        /* \"#utility.yul\":1451:1456   */\n      dup2\n        /* \"#utility.yul\":1424:1457   */\n      tag_193\n      jump\t// in\n    tag_274:\n        /* \"#utility.yul\":1324:1463   */\n      swap3\n      swap2\n      pop\n      pop\n      jump\t// out\n        /* \"#utility.yul\":1469:1798   */\n    tag_30:\n        /* \"#utility.yul\":1528:1534   */\n      0x00\n        /* \"#utility.yul\":1577:1579   */\n      0x20\n        /* \"#utility.yul\":1565:1574   */\n      dup3\n        /* \"#utility.yul\":1556:1563   */\n      dup5\n        /* \"#utility.yul\":1552:1575   */\n      sub\n        /* \"#utility.yul\":1548:1580   */\n      slt\n        /* \"#utility.yul\":1545:1664   */\n      iszero\n      tag_276\n      jumpi\n        /* \"#utility.yul\":1583:1662   */\n      tag_277\n      tag_191\n      jump\t// in\n    tag_277:\n        /* \"#utility.yul\":1545:1664   */\n    tag_276:\n        /* \"#utility.yul\":1703:1704   */\n      0x00\n        /* \"#utility.yul\":1728:1781   */\n      tag_278\n        /* \"#utility.yul\":1773:1780   */\n      dup5\n        /* \"#utility.yul\":1764:1770   */\n      dup3\n        /* \"#utility.yul\":1753:1762   */\n      dup6\n        /* \"#utility.yul\":1749:1771   */\n      add\n        /* \"#utility.yul\":1728:1781   */\n      tag_194\n      jump\t// in\n    tag_278:\n        /* \"#utility.yul\":1718:1781   */\n      swap2\n      pop\n        /* \"#utility.yul\":1674:1791   */\n      pop\n        /* \"#utility.yul\":1469:1798   */\n      swap3\n      swap2\n      pop\n      pop\n      jump\t// out\n        /* \"#utility.yul\":1804:1903   */\n    tag_195:\n        /* \"#utility.yul\":1856:1862   */\n      0x00\n        /* \"#utility.yul\":1890:1895   */\n      dup2\n        /* \"#utility.yul\":1884:1896   */\n      mload\n        /* \"#utility.yul\":1874:1896   */\n      swap1\n      pop\n        /* \"#utility.yul\":1804:1903   */\n      swap2\n      swap1\n      pop\n      jump\t// out\n        /* \"#utility.yul\":1909:2078   */\n    tag_196:\n        /* \"#utility.yul\":1993:2004   */\n      0x00\n        /* \"#utility.yul\":2027:2033   */\n      dup3\n        /* \"#utility.yul\":2022:2025   */\n      dup3\n        /* \"#utility.yul\":2015:2034   */\n      mstore\n        /* \"#utility.yul\":2067:2071   */\n      0x20\n        /* \"#utility.yul\":2062:2065   */\n      dup3\n        /* \"#utility.yul\":2058:2072   */\n      add\n        /* \"#utility.yul\":2043:2072   */\n      swap1\n      pop\n        /* \"#utility.yul\":1909:2078   */\n      swap3\n      swap2\n      pop\n      pop\n      jump\t// out\n        /* \"#utility.yul\":2084:2223   */\n    tag_197:\n        /* \"#utility.yul\":2173:2179   */\n      dup3\n        /* \"#utility.yul\":2168:2171   */\n      dup2\n        /* \"#utility.yul\":2163:2166   */\n      dup4\n        /* \"#utility.yul\":2157:2180   */\n      mcopy\n        /* \"#utility.yul\":2214:2215   */\n      0x00\n        /* \"#utility.yul\":2205:2211   */\n      dup4\n        /* \"#utility.yul\":2200:2203   */\n      dup4\n        /* \"#utility.yul\":2196:2212   */\n      add\n        /* \"#utility.yul\":2189:2216   */\n      mstore\n        /* \"#utility.yul\":2084:2223   */\n      pop\n      pop\n      pop\n      jump\t// out\n        /* \"#utility.yul\":2229:2331   */\n    tag_198:\n        /* \"#utility.yul\":2270:2276   */\n      0x00\n        /* \"#utility.yul\":2321:2323   */\n      0x1f\n        /* \"#utility.yul\":2317:2324   */\n      not\n        /* \"#utility.yul\":2312:2314   */\n      0x1f\n        /* \"#utility.yul\":2305:2310   */\n      dup4\n        /* \"#utility.yul\":2301:2315   */\n      add\n        /* \"#utility.yul\":2297:2325   */\n      and\n        /* \"#utility.yul\":2287:2325   */\n      swap1\n      pop\n        /* \"#utility.yul\":2229:2331   */\n      swap2\n      swap1\n      pop\n      jump\t// out\n        /* \"#utility.yul\":2337:2714   */\n    tag_199:\n        /* \"#utility.yul\":2425:2428   */\n      0x00\n        /* \"#utility.yul\":2453:2492   */\n      tag_284\n        /* \"#utility.yul\":2486:2491   */\n      dup3\n        /* \"#utility.yul\":2453:2492   */\n      tag_195\n      jump\t// in\n    tag_284:\n        /* \"#utility.yul\":2508:2579   */\n      tag_285\n        /* \"#utility.yul\":2572:2578   */\n      dup2\n        /* \"#utility.yul\":2567:2570   */\n      dup6\n        /* \"#utility.yul\":2508:2579   */\n      tag_196\n      jump\t// in\n    tag_285:\n        /* \"#utility.yul\":2501:2579   */\n      swap4\n      pop\n        /* \"#utility.yul\":2588:2653   */\n      tag_286\n        /* \"#utility.yul\":2646:2652   */\n      dup2\n        /* \"#utility.yul\":2641:2644   */\n      dup6\n        /* \"#utility.yul\":2634:2638   */\n      0x20\n        /* \"#utility.yul\":2627:2632   */\n      dup7\n        /* \"#utility.yul\":2623:2639   */\n      add\n        /* \"#utility.yul\":2588:2653   */\n      tag_197\n      jump\t// in\n    tag_286:\n        /* \"#utility.yul\":2678:2707   */\n      tag_287\n        /* \"#utility.yul\":2700:2706   */\n      dup2\n        /* \"#utility.yul\":2678:2707   */\n      tag_198\n      jump\t// in\n    tag_287:\n        /* \"#utility.yul\":2673:2676   */\n      dup5\n        /* \"#utility.yul\":2669:2708   */\n      add\n        /* \"#utility.yul\":2662:2708   */\n      swap2\n      pop\n        /* \"#utility.yul\":2429:2714   */\n      pop\n        /* \"#utility.yul\":2337:2714   */\n      swap3\n      swap2\n      pop\n      pop\n      jump\t// out\n        /* \"#utility.yul\":2720:3033   */\n    tag_37:\n        /* \"#utility.yul\":2833:2837   */\n      0x00\n        /* \"#utility.yul\":2871:2873   */\n      0x20\n        /* \"#utility.yul\":2860:2869   */\n      dup3\n        /* \"#utility.yul\":2856:2874   */\n      add\n        /* \"#utility.yul\":2848:2874   */\n      swap1\n      pop\n        /* \"#utility.yul\":2920:2929   */\n      dup2\n        /* \"#utility.yul\":2914:2918   */\n      dup2\n        /* \"#utility.yul\":2910:2930   */\n      sub\n        /* \"#utility.yul\":2906:2907   */\n      0x00\n        /* \"#utility.yul\":2895:2904   */\n      dup4\n        /* \"#utility.yul\":2891:2908   */\n      add\n        /* \"#utility.yul\":2884:2931   */\n      mstore\n        /* \"#utility.yul\":2948:3026   */\n      tag_289\n        /* \"#utility.yul\":3021:3025   */\n      dup2\n        /* \"#utility.yul\":3012:3018   */\n      dup5\n        /* \"#utility.yul\":2948:3026   */\n      tag_199\n      jump\t// in\n    tag_289:\n        /* \"#utility.yul\":2940:3026   */\n      swap1\n      pop\n        /* \"#utility.yul\":2720:3033   */\n      swap3\n      swap2\n      pop\n      pop\n      jump\t// out\n        /* \"#utility.yul\":3039:3159   */\n    tag_200:\n        /* \"#utility.yul\":3111:3134   */\n      tag_291\n        /* \"#utility.yul\":3128:3133   */\n      dup2\n        /* \"#utility.yul\":3111:3134   */\n      tag_186\n      jump\t// in\n    tag_291:\n        /* \"#utility.yul\":3104:3109   */\n      dup2\n        /* \"#utility.yul\":3101:3135   */\n      eq\n        /* \"#utility.yul\":3091:3153   */\n      tag_292\n      jumpi\n        /* \"#utility.yul\":3149:3150   */\n      0x00\n        /* \"#utility.yul\":3146:3147   */\n      dup1\n        /* \"#utility.yul\":3139:3151   */\n      revert\n        /* \"#utility.yul\":3091:3153   */\n    tag_292:\n        /* \"#utility.yul\":3039:3159   */\n      pop\n      jump\t// out\n        /* \"#utility.yul\":3165:3302   */\n    tag_201:\n        /* \"#utility.yul\":3210:3215   */\n      0x00\n        /* \"#utility.yul\":3248:3254   */\n      dup2\n        /* \"#utility.yul\":3235:3255   */\n      calldataload\n        /* \"#utility.yul\":3226:3255   */\n      swap1\n      pop\n        /* \"#utility.yul\":3264:3296   */\n      tag_294\n        /* \"#utility.yul\":3290:3295   */\n      dup2\n        /* \"#utility.yul\":3264:3296   */\n      tag_200\n      jump\t// in\n    tag_294:\n        /* \"#utility.yul\":3165:3302   */\n      swap3\n      swap2\n      pop\n      pop\n      jump\t// out\n        /* \"#utility.yul\":3308:3780   */\n    tag_41:\n        /* \"#utility.yul\":3375:3381   */\n      0x00\n        /* \"#utility.yul\":3383:3389   */\n      dup1\n        /* \"#utility.yul\":3432:3434   */\n      0x40\n        /* \"#utility.yul\":3420:3429   */\n      dup4\n        /* \"#utility.yul\":3411:3418   */\n      dup6\n        /* \"#utility.yul\":3407:3430   */\n      sub\n        /* \"#utility.yul\":3403:3435   */\n      slt\n        /* \"#utility.yul\":3400:3519   */\n      iszero\n      tag_296\n      jumpi\n        /* \"#utility.yul\":3438:3517   */\n      tag_297\n      tag_191\n      jump\t// in\n    tag_297:\n        /* \"#utility.yul\":3400:3519   */\n    tag_296:\n        /* \"#utility.yul\":3558:3559   */\n      0x00\n        /* \"#utility.yul\":3583:3636   */\n      tag_298\n        /* \"#utility.yul\":3628:3635   */\n      dup6\n        /* \"#utility.yul\":3619:3625   */\n      dup3\n        /* \"#utility.yul\":3608:3617   */\n      dup7\n        /* \"#utility.yul\":3604:3626   */\n      add\n        /* \"#utility.yul\":3583:3636   */\n      tag_194\n      jump\t// in\n    tag_298:\n        /* \"#utility.yul\":3573:3636   */\n      swap3\n      pop\n        /* \"#utility.yul\":3529:3646   */\n      pop\n        /* \"#utility.yul\":3685:3687   */\n      0x20\n        /* \"#utility.yul\":3711:3763   */\n      tag_299\n        /* \"#utility.yul\":3755:3762   */\n      dup6\n        /* \"#utility.yul\":3746:3752   */\n      dup3\n        /* \"#utility.yul\":3735:3744   */\n      dup7\n        /* \"#utility.yul\":3731:3753   */\n      add\n        /* \"#utility.yul\":3711:3763   */\n      tag_201\n      jump\t// in\n    tag_299:\n        /* \"#utility.yul\":3701:3763   */\n      swap2\n      pop\n        /* \"#utility.yul\":3656:3773   */\n      pop\n        /* \"#utility.yul\":3308:3780   */\n      swap3\n      pop\n      swap3\n      swap1\n      pop\n      jump\t// out\n        /* \"#utility.yul\":3786:3912   */\n    tag_202:\n        /* \"#utility.yul\":3823:3830   */\n      0x00\n        /* \"#utility.yul\":3863:3905   */\n      0xffffffffffffffffffffffffffffffffffffffff\n        /* \"#utility.yul\":3856:3861   */\n      dup3\n        /* \"#utility.yul\":3852:3906   */\n      and\n        /* \"#utility.yul\":3841:3906   */\n      swap1\n      pop\n        /* \"#utility.yul\":3786:3912   */\n      swap2\n      swap1\n      pop\n      jump\t// out\n        /* \"#utility.yul\":3918:4014   */\n    tag_203:\n        /* \"#utility.yul\":3955:3962   */\n      0x00\n        /* \"#utility.yul\":3984:4008   */\n      tag_302\n        /* \"#utility.yul\":4002:4007   */\n      dup3\n        /* \"#utility.yul\":3984:4008   */\n      tag_202\n      jump\t// in\n    tag_302:\n        /* \"#utility.yul\":3973:4008   */\n      swap1\n      pop\n        /* \"#utility.yul\":3918:4014   */\n      swap2\n      swap1\n      pop\n      jump\t// out\n        /* \"#utility.yul\":4020:4142   */\n    tag_204:\n        /* \"#utility.yul\":4093:4117   */\n      tag_304\n        /* \"#utility.yul\":4111:4116   */\n      dup2\n        /* \"#utility.yul\":4093:4117   */\n      tag_203\n      jump\t// in\n    tag_304:\n        /* \"#utility.yul\":4086:4091   */\n      dup2\n        /* \"#utility.yul\":4083:4118   */\n      eq\n        /* \"#utility.yul\":4073:4136   */\n      tag_305\n      jumpi\n        /* \"#utility.yul\":4132:4133   */\n      0x00\n        /* \"#utility.yul\":4129:4130   */\n      dup1\n        /* \"#utility.yul\":4122:4134   */\n      revert\n        /* \"#utility.yul\":4073:4136   */\n    tag_305:\n        /* \"#utility.yul\":4020:4142   */\n      pop\n      jump\t// out\n        /* \"#utility.yul\":4148:4287   */\n    tag_205:\n        /* \"#utility.yul\":4194:4199   */\n      0x00\n        /* \"#utility.yul\":4232:4238   */\n      dup2\n        /* \"#utility.yul\":4219:4239   */\n      calldataload\n        /* \"#utility.yul\":4210:4239   */\n      swap1\n      pop\n        /* \"#utility.yul\":4248:4281   */\n      tag_307\n        /* \"#utility.yul\":4275:4280   */\n      dup2\n        /* \"#utility.yul\":4248:4281   */\n      tag_204\n      jump\t// in\n    tag_307:\n        /* \"#utility.yul\":4148:4287   */\n      swap3\n      swap2\n      pop\n      pop\n      jump\t// out\n        /* \"#utility.yul\":4293:4622   */\n    tag_46:\n        /* \"#utility.yul\":4352:4358   */\n      0x00\n        /* \"#utility.yul\":4401:4403   */\n      0x20\n        /* \"#utility.yul\":4389:4398   */\n      dup3\n        /* \"#utility.yul\":4380:4387   */\n      dup5\n        /* \"#utility.yul\":4376:4399   */\n      sub\n        /* \"#utility.yul\":4372:4404   */\n      slt\n        /* \"#utility.yul\":4369:4488   */\n      iszero\n      tag_309\n      jumpi\n        /* \"#utility.yul\":4407:4486   */\n      tag_310\n      tag_191\n      jump\t// in\n    tag_310:\n        /* \"#utility.yul\":4369:4488   */\n    tag_309:\n        /* \"#utility.yul\":4527:4528   */\n      0x00\n        /* \"#utility.yul\":4552:4605   */\n      tag_311\n        /* \"#utility.yul\":4597:4604   */\n      dup5\n        /* \"#utility.yul\":4588:4594   */\n      dup3\n        /* \"#utility.yul\":4577:4586   */\n      dup6\n        /* \"#utility.yul\":4573:4595   */\n      add\n        /* \"#utility.yul\":4552:4605   */\n      tag_205\n      jump\t// in\n    tag_311:\n        /* \"#utility.yul\":4542:4605   */\n      swap2\n      pop\n        /* \"#utility.yul\":4498:4615   */\n      pop\n        /* \"#utility.yul\":4293:4622   */\n      swap3\n      swap2\n      pop\n      pop\n      jump\t// out\n        /* \"#utility.yul\":4628:4745   */\n    tag_206:\n        /* \"#utility.yul\":4737:4738   */\n      0x00\n        /* \"#utility.yul\":4734:4735   */\n      dup1\n        /* \"#utility.yul\":4727:4739   */\n      revert\n        /* \"#utility.yul\":4751:4868   */\n    tag_207:\n        /* \"#utility.yul\":4860:4861   */\n      0x00\n        /* \"#utility.yul\":4857:4858   */\n      dup1\n        /* \"#utility.yul\":4850:4862   */\n      revert\n        /* \"#utility.yul\":4874:5054   */\n    tag_208:\n        /* \"#utility.yul\":4922:4999   */\n      0x4e487b7100000000000000000000000000000000000000000000000000000000\n        /* \"#utility.yul\":4919:4920   */\n      0x00\n        /* \"#utility.yul\":4912:5000   */\n      mstore\n        /* \"#utility.yul\":5019:5023   */\n      0x41\n        /* \"#utility.yul\":5016:5017   */\n      0x04\n        /* \"#utility.yul\":5009:5024   */\n      mstore\n        /* \"#utility.yul\":5043:5047   */\n      0x24\n        /* \"#utility.yul\":5040:5041   */\n      0x00\n        /* \"#utility.yul\":5033:5048   */\n      revert\n        /* \"#utility.yul\":5060:5341   */\n    tag_209:\n        /* \"#utility.yul\":5143:5170   */\n      tag_316\n        /* \"#utility.yul\":5165:5169   */\n      dup3\n        /* \"#utility.yul\":5143:5170   */\n      tag_198\n      jump\t// in\n    tag_316:\n        /* \"#utility.yul\":5135:5141   */\n      dup2\n        /* \"#utility.yul\":5131:5171   */\n      add\n        /* \"#utility.yul\":5273:5279   */\n      dup2\n        /* \"#utility.yul\":5261:5271   */\n      dup2\n        /* \"#utility.yul\":5258:5280   */\n      lt\n        /* \"#utility.yul\":5237:5255   */\n      0xffffffffffffffff\n        /* \"#utility.yul\":5225:5235   */\n      dup3\n        /* \"#utility.yul\":5222:5256   */\n      gt\n        /* \"#utility.yul\":5219:5281   */\n      or\n        /* \"#utility.yul\":5216:5304   */\n      iszero\n      tag_317\n      jumpi\n        /* \"#utility.yul\":5284:5302   */\n      tag_318\n      tag_208\n      jump\t// in\n    tag_318:\n        /* \"#utility.yul\":5216:5304   */\n    tag_317:\n        /* \"#utility.yul\":5324:5334   */\n      dup1\n        /* \"#utility.yul\":5320:5322   */\n      0x40\n        /* \"#utility.yul\":5313:5335   */\n      mstore\n        /* \"#utility.yul\":5103:5341   */\n      pop\n        /* \"#utility.yul\":5060:5341   */\n      pop\n      pop\n      jump\t// out\n        /* \"#utility.yul\":5347:5476   */\n    tag_210:\n        /* \"#utility.yul\":5381:5387   */\n      0x00\n        /* \"#utility.yul\":5408:5428   */\n      tag_320\n      tag_190\n      jump\t// in\n    tag_320:\n        /* \"#utility.yul\":5398:5428   */\n      swap1\n      pop\n        /* \"#utility.yul\":5437:5470   */\n      tag_321\n        /* \"#utility.yul\":5465:5469   */\n      dup3\n        /* \"#utility.yul\":5457:5463   */\n      dup3\n        /* \"#utility.yul\":5437:5470   */\n      tag_209\n      jump\t// in\n    tag_321:\n        /* \"#utility.yul\":5347:5476   */\n      swap2\n      swap1\n      pop\n      jump\t// out\n        /* \"#utility.yul\":5482:5790   */\n    tag_211:\n        /* \"#utility.yul\":5544:5548   */\n      0x00\n        /* \"#utility.yul\":5634:5652   */\n      0xffffffffffffffff\n        /* \"#utility.yul\":5626:5632   */\n      dup3\n        /* \"#utility.yul\":5623:5653   */\n      gt\n        /* \"#utility.yul\":5620:5676   */\n      iszero\n      tag_323\n      jumpi\n        /* \"#utility.yul\":5656:5674   */\n      tag_324\n      tag_208\n      jump\t// in\n    tag_324:\n        /* \"#utility.yul\":5620:5676   */\n    tag_323:\n        /* \"#utility.yul\":5694:5723   */\n      tag_325\n        /* \"#utility.yul\":5716:5722   */\n      dup3\n        /* \"#utility.yul\":5694:5723   */\n      tag_198\n      jump\t// in\n    tag_325:\n        /* \"#utility.yul\":5686:5723   */\n      swap1\n      pop\n        /* \"#utility.yul\":5778:5782   */\n      0x20\n        /* \"#utility.yul\":5772:5776   */\n      dup2\n        /* \"#utility.yul\":5768:5783   */\n      add\n        /* \"#utility.yul\":5760:5783   */\n      swap1\n      pop\n        /* \"#utility.yul\":5482:5790   */\n      swap2\n      swap1\n      pop\n      jump\t// out\n        /* \"#utility.yul\":5796:5944   */\n    tag_212:\n        /* \"#utility.yul\":5894:5900   */\n      dup3\n        /* \"#utility.yul\":5889:5892   */\n      dup2\n        /* \"#utility.yul\":5884:5887   */\n      dup4\n        /* \"#utility.yul\":5871:5901   */\n      calldatacopy\n        /* \"#utility.yul\":5935:5936   */\n      0x00\n        /* \"#utility.yul\":5926:5932   */\n      dup4\n        /* \"#utility.yul\":5921:5924   */\n      dup4\n        /* \"#utility.yul\":5917:5933   */\n      add\n        /* \"#utility.yul\":5910:5937   */\n      mstore\n        /* \"#utility.yul\":5796:5944   */\n      pop\n      pop\n      pop\n      jump\t// out\n        /* \"#utility.yul\":5950:6375   */\n    tag_213:\n        /* \"#utility.yul\":6028:6033   */\n      0x00\n        /* \"#utility.yul\":6053:6119   */\n      tag_328\n        /* \"#utility.yul\":6069:6118   */\n      tag_329\n        /* \"#utility.yul\":6111:6117   */\n      dup5\n        /* \"#utility.yul\":6069:6118   */\n      tag_211\n      jump\t// in\n    tag_329:\n        /* \"#utility.yul\":6053:6119   */\n      tag_210\n      jump\t// in\n    tag_328:\n        /* \"#utility.yul\":6044:6119   */\n      swap1\n      pop\n        /* \"#utility.yul\":6142:6148   */\n      dup3\n        /* \"#utility.yul\":6135:6140   */\n      dup2\n        /* \"#utility.yul\":6128:6149   */\n      mstore\n        /* \"#utility.yul\":6180:6184   */\n      0x20\n        /* \"#utility.yul\":6173:6178   */\n      dup2\n        /* \"#utility.yul\":6169:6185   */\n      add\n        /* \"#utility.yul\":6218:6221   */\n      dup5\n        /* \"#utility.yul\":6209:6215   */\n      dup5\n        /* \"#utility.yul\":6204:6207   */\n      dup5\n        /* \"#utility.yul\":6200:6216   */\n      add\n        /* \"#utility.yul\":6197:6222   */\n      gt\n        /* \"#utility.yul\":6194:6306   */\n      iszero\n      tag_330\n      jumpi\n        /* \"#utility.yul\":6225:6304   */\n      tag_331\n      tag_207\n      jump\t// in\n    tag_331:\n        /* \"#utility.yul\":6194:6306   */\n    tag_330:\n        /* \"#utility.yul\":6315:6369   */\n      tag_332\n        /* \"#utility.yul\":6362:6368   */\n      dup5\n        /* \"#utility.yul\":6357:6360   */\n      dup3\n        /* \"#utility.yul\":6352:6355   */\n      dup6\n        /* \"#utility.yul\":6315:6369   */\n      tag_212\n      jump\t// in\n    tag_332:\n        /* \"#utility.yul\":6034:6375   */\n      pop\n        /* \"#utility.yul\":5950:6375   */\n      swap4\n      swap3\n      pop\n      pop\n      pop\n      jump\t// out\n        /* \"#utility.yul\":6395:6735   */\n    tag_214:\n        /* \"#utility.yul\":6451:6456   */\n      0x00\n        /* \"#utility.yul\":6500:6503   */\n      dup3\n        /* \"#utility.yul\":6493:6497   */\n      0x1f\n        /* \"#utility.yul\":6485:6491   */\n      dup4\n        /* \"#utility.yul\":6481:6498   */\n      add\n        /* \"#utility.yul\":6477:6504   */\n      slt\n        /* \"#utility.yul\":6467:6589   */\n      tag_334\n      jumpi\n        /* \"#utility.yul\":6508:6587   */\n      tag_335\n      tag_206\n      jump\t// in\n    tag_335:\n        /* \"#utility.yul\":6467:6589   */\n    tag_334:\n        /* \"#utility.yul\":6625:6631   */\n      dup2\n        /* \"#utility.yul\":6612:6632   */\n      calldataload\n        /* \"#utility.yul\":6650:6729   */\n      tag_336\n        /* \"#utility.yul\":6725:6728   */\n      dup5\n        /* \"#utility.yul\":6717:6723   */\n      dup3\n        /* \"#utility.yul\":6710:6714   */\n      0x20\n        /* \"#utility.yul\":6702:6708   */\n      dup7\n        /* \"#utility.yul\":6698:6715   */\n      add\n        /* \"#utility.yul\":6650:6729   */\n      tag_213\n      jump\t// in\n    tag_336:\n        /* \"#utility.yul\":6641:6729   */\n      swap2\n      pop\n        /* \"#utility.yul\":6457:6735   */\n      pop\n        /* \"#utility.yul\":6395:6735   */\n      swap3\n      swap2\n      pop\n      pop\n      jump\t// out\n        /* \"#utility.yul\":6741:7536   */\n    tag_55:\n        /* \"#utility.yul\":6826:6832   */\n      0x00\n        /* \"#utility.yul\":6834:6840   */\n      dup1\n        /* \"#utility.yul\":6842:6848   */\n      0x00\n        /* \"#utility.yul\":6891:6893   */\n      0x60\n        /* \"#utility.yul\":6879:6888   */\n      dup5\n        /* \"#utility.yul\":6870:6877   */\n      dup7\n        /* \"#utility.yul\":6866:6889   */\n      sub\n        /* \"#utility.yul\":6862:6894   */\n      slt\n        /* \"#utility.yul\":6859:6978   */\n      iszero\n      tag_338\n      jumpi\n        /* \"#utility.yul\":6897:6976   */\n      tag_339\n      tag_191\n      jump\t// in\n    tag_339:\n        /* \"#utility.yul\":6859:6978   */\n    tag_338:\n        /* \"#utility.yul\":7045:7046   */\n      0x00\n        /* \"#utility.yul\":7034:7043   */\n      dup5\n        /* \"#utility.yul\":7030:7047   */\n      add\n        /* \"#utility.yul\":7017:7048   */\n      calldataload\n        /* \"#utility.yul\":7075:7093   */\n      0xffffffffffffffff\n        /* \"#utility.yul\":7067:7073   */\n      dup2\n        /* \"#utility.yul\":7064:7094   */\n      gt\n        /* \"#utility.yul\":7061:7178   */\n      iszero\n      tag_340\n      jumpi\n        /* \"#utility.yul\":7097:7176   */\n      tag_341\n      tag_192\n      jump\t// in\n    tag_341:\n        /* \"#utility.yul\":7061:7178   */\n    tag_340:\n        /* \"#utility.yul\":7202:7265   */\n      tag_342\n        /* \"#utility.yul\":7257:7264   */\n      dup7\n        /* \"#utility.yul\":7248:7254   */\n      dup3\n        /* \"#utility.yul\":7237:7246   */\n      dup8\n        /* \"#utility.yul\":7233:7255   */\n      add\n        /* \"#utility.yul\":7202:7265   */\n      tag_214\n      jump\t// in\n    tag_342:\n        /* \"#utility.yul\":7192:7265   */\n      swap4\n      pop\n        /* \"#utility.yul\":6988:7275   */\n      pop\n        /* \"#utility.yul\":7314:7316   */\n      0x20\n        /* \"#utility.yul\":7340:7392   */\n      tag_343\n        /* \"#utility.yul\":7384:7391   */\n      dup7\n        /* \"#utility.yul\":7375:7381   */\n      dup3\n        /* \"#utility.yul\":7364:7373   */\n      dup8\n        /* \"#utility.yul\":7360:7382   */\n      add\n        /* \"#utility.yul\":7340:7392   */\n      tag_201\n      jump\t// in\n    tag_343:\n        /* \"#utility.yul\":7330:7392   */\n      swap3\n      pop\n        /* \"#utility.yul\":7285:7402   */\n      pop\n        /* \"#utility.yul\":7441:7443   */\n      0x40\n        /* \"#utility.yul\":7467:7519   */\n      tag_344\n        /* \"#utility.yul\":7511:7518   */\n      dup7\n        /* \"#utility.yul\":7502:7508   */\n      dup3\n        /* \"#utility.yul\":7491:7500   */\n      dup8\n        /* \"#utility.yul\":7487:7509   */\n      add\n        /* \"#utility.yul\":7467:7519   */\n      tag_201\n      jump\t// in\n    tag_344:\n        /* \"#utility.yul\":7457:7519   */\n      swap2\n      pop\n        /* \"#utility.yul\":7412:7529   */\n      pop\n        /* \"#utility.yul\":6741:7536   */\n      swap3\n      pop\n      swap3\n      pop\n      swap3\n      jump\t// out\n        /* \"#utility.yul\":7542:7679   */\n    tag_215:\n        /* \"#utility.yul\":7632:7638   */\n      0x00\n        /* \"#utility.yul\":7666:7671   */\n      dup2\n        /* \"#utility.yul\":7660:7672   */\n      mload\n        /* \"#utility.yul\":7650:7672   */\n      swap1\n      pop\n        /* \"#utility.yul\":7542:7679   */\n      swap2\n      swap1\n      pop\n      jump\t// out\n        /* \"#utility.yul\":7685:7892   */\n    tag_216:\n        /* \"#utility.yul\":7807:7818   */\n      0x00\n        /* \"#utility.yul\":7841:7847   */\n      dup3\n        /* \"#utility.yul\":7836:7839   */\n      dup3\n        /* \"#utility.yul\":7829:7848   */\n      mstore\n        /* \"#utility.yul\":7881:7885   */\n      0x20\n        /* \"#utility.yul\":7876:7879   */\n      dup3\n        /* \"#utility.yul\":7872:7886   */\n      add\n        /* \"#utility.yul\":7857:7886   */\n      swap1\n      pop\n        /* \"#utility.yul\":7685:7892   */\n      swap3\n      swap2\n      pop\n      pop\n      jump\t// out\n        /* \"#utility.yul\":7898:8053   */\n    tag_217:\n        /* \"#utility.yul\":7988:7992   */\n      0x00\n        /* \"#utility.yul\":8011:8014   */\n      dup2\n        /* \"#utility.yul\":8003:8014   */\n      swap1\n      pop\n        /* \"#utility.yul\":8041:8045   */\n      0x20\n        /* \"#utility.yul\":8036:8039   */\n      dup3\n        /* \"#utility.yul\":8032:8046   */\n      add\n        /* \"#utility.yul\":8024:8046   */\n      swap1\n      pop\n        /* \"#utility.yul\":7898:8053   */\n      swap2\n      swap1\n      pop\n      jump\t// out\n        /* \"#utility.yul\":8059:8167   */\n    tag_218:\n        /* \"#utility.yul\":8136:8160   */\n      tag_349\n        /* \"#utility.yul\":8154:8159   */\n      dup2\n        /* \"#utility.yul\":8136:8160   */\n      tag_188\n      jump\t// in\n    tag_349:\n        /* \"#utility.yul\":8131:8134   */\n      dup3\n        /* \"#utility.yul\":8124:8161   */\n      mstore\n        /* \"#utility.yul\":8059:8167   */\n      pop\n      pop\n      jump\t// out\n        /* \"#utility.yul\":8173:8332   */\n    tag_219:\n        /* \"#utility.yul\":8247:8258   */\n      0x00\n        /* \"#utility.yul\":8281:8287   */\n      dup3\n        /* \"#utility.yul\":8276:8279   */\n      dup3\n        /* \"#utility.yul\":8269:8288   */\n      mstore\n        /* \"#utility.yul\":8321:8325   */\n      0x20\n        /* \"#utility.yul\":8316:8319   */\n      dup3\n        /* \"#utility.yul\":8312:8326   */\n      add\n        /* \"#utility.yul\":8297:8326   */\n      swap1\n      pop\n        /* \"#utility.yul\":8173:8332   */\n      swap3\n      swap2\n      pop\n      pop\n      jump\t// out\n        /* \"#utility.yul\":8338:8695   */\n    tag_220:\n        /* \"#utility.yul\":8416:8419   */\n      0x00\n        /* \"#utility.yul\":8444:8483   */\n      tag_352\n        /* \"#utility.yul\":8477:8482   */\n      dup3\n        /* \"#utility.yul\":8444:8483   */\n      tag_195\n      jump\t// in\n    tag_352:\n        /* \"#utility.yul\":8499:8560   */\n      tag_353\n        /* \"#utility.yul\":8553:8559   */\n      dup2\n        /* \"#utility.yul\":8548:8551   */\n      dup6\n        /* \"#utility.yul\":8499:8560   */\n      tag_219\n      jump\t// in\n    tag_353:\n        /* \"#utility.yul\":8492:8560   */\n      swap4\n      pop\n        /* \"#utility.yul\":8569:8634   */\n      tag_354\n        /* \"#utility.yul\":8627:8633   */\n      dup2\n        /* \"#utility.yul\":8622:8625   */\n      dup6\n        /* \"#utility.yul\":8615:8619   */\n      0x20\n        /* \"#utility.yul\":8608:8613   */\n      dup7\n        /* \"#utility.yul\":8604:8620   */\n      add\n        /* \"#utility.yul\":8569:8634   */\n      tag_197\n      jump\t// in\n    tag_354:\n        /* \"#utility.yul\":8659:8688   */\n      tag_355\n        /* \"#utility.yul\":8681:8687   */\n      dup2\n        /* \"#utility.yul\":8659:8688   */\n      tag_198\n      jump\t// in\n    tag_355:\n        /* \"#utility.yul\":8654:8657   */\n      dup5\n        /* \"#utility.yul\":8650:8689   */\n      add\n        /* \"#utility.yul\":8643:8689   */\n      swap2\n      pop\n        /* \"#utility.yul\":8420:8695   */\n      pop\n        /* \"#utility.yul\":8338:8695   */\n      swap3\n      swap2\n      pop\n      pop\n      jump\t// out\n        /* \"#utility.yul\":8701:8806   */\n    tag_221:\n        /* \"#utility.yul\":8776:8799   */\n      tag_357\n        /* \"#utility.yul\":8793:8798   */\n      dup2\n        /* \"#utility.yul\":8776:8799   */\n      tag_186\n      jump\t// in\n    tag_357:\n        /* \"#utility.yul\":8771:8774   */\n      dup3\n        /* \"#utility.yul\":8764:8800   */\n      mstore\n        /* \"#utility.yul\":8701:8806   */\n      pop\n      pop\n      jump\t// out\n        /* \"#utility.yul\":8872:10006   */\n    tag_222:\n        /* \"#utility.yul\":8977:8980   */\n      0x00\n        /* \"#utility.yul\":9013:9017   */\n      0xa0\n        /* \"#utility.yul\":9008:9011   */\n      dup4\n        /* \"#utility.yul\":9004:9018   */\n      add\n        /* \"#utility.yul\":9105:9109   */\n      0x00\n        /* \"#utility.yul\":9098:9103   */\n      dup4\n        /* \"#utility.yul\":9094:9110   */\n      add\n        /* \"#utility.yul\":9088:9111   */\n      mload\n        /* \"#utility.yul\":9124:9187   */\n      tag_359\n        /* \"#utility.yul\":9181:9185   */\n      0x00\n        /* \"#utility.yul\":9176:9179   */\n      dup7\n        /* \"#utility.yul\":9172:9186   */\n      add\n        /* \"#utility.yul\":9158:9170   */\n      dup3\n        /* \"#utility.yul\":9124:9187   */\n      tag_218\n      jump\t// in\n    tag_359:\n        /* \"#utility.yul\":9028:9197   */\n      pop\n        /* \"#utility.yul\":9283:9287   */\n      0x20\n        /* \"#utility.yul\":9276:9281   */\n      dup4\n        /* \"#utility.yul\":9272:9288   */\n      add\n        /* \"#utility.yul\":9266:9289   */\n      mload\n        /* \"#utility.yul\":9336:9339   */\n      dup5\n        /* \"#utility.yul\":9330:9334   */\n      dup3\n        /* \"#utility.yul\":9326:9340   */\n      sub\n        /* \"#utility.yul\":9319:9323   */\n      0x20\n        /* \"#utility.yul\":9314:9317   */\n      dup7\n        /* \"#utility.yul\":9310:9324   */\n      add\n        /* \"#utility.yul\":9303:9341   */\n      mstore\n        /* \"#utility.yul\":9362:9435   */\n      tag_360\n        /* \"#utility.yul\":9430:9434   */\n      dup3\n        /* \"#utility.yul\":9416:9428   */\n      dup3\n        /* \"#utility.yul\":9362:9435   */\n      tag_220\n      jump\t// in\n    tag_360:\n        /* \"#utility.yul\":9354:9435   */\n      swap2\n      pop\n        /* \"#utility.yul\":9207:9446   */\n      pop\n        /* \"#utility.yul\":9530:9534   */\n      0x40\n        /* \"#utility.yul\":9523:9528   */\n      dup4\n        /* \"#utility.yul\":9519:9535   */\n      add\n        /* \"#utility.yul\":9513:9536   */\n      mload\n        /* \"#utility.yul\":9549:9610   */\n      tag_361\n        /* \"#utility.yul\":9604:9608   */\n      0x40\n        /* \"#utility.yul\":9599:9602   */\n      dup7\n        /* \"#utility.yul\":9595:9609   */\n      add\n        /* \"#utility.yul\":9581:9593   */\n      dup3\n        /* \"#utility.yul\":9549:9610   */\n      tag_221\n      jump\t// in\n    tag_361:\n        /* \"#utility.yul\":9456:9620   */\n      pop\n        /* \"#utility.yul\":9706:9710   */\n      0x60\n        /* \"#utility.yul\":9699:9704   */\n      dup4\n        /* \"#utility.yul\":9695:9711   */\n      add\n        /* \"#utility.yul\":9689:9712   */\n      mload\n        /* \"#utility.yul\":9725:9786   */\n      tag_362\n        /* \"#utility.yul\":9780:9784   */\n      0x60\n        /* \"#utility.yul\":9775:9778   */\n      dup7\n        /* \"#utility.yul\":9771:9785   */\n      add\n        /* \"#utility.yul\":9757:9769   */\n      dup3\n        /* \"#utility.yul\":9725:9786   */\n      tag_221\n      jump\t// in\n    tag_362:\n        /* \"#utility.yul\":9630:9796   */\n      pop\n        /* \"#utility.yul\":9887:9891   */\n      0x80\n        /* \"#utility.yul\":9880:9885   */\n      dup4\n        /* \"#utility.yul\":9876:9892   */\n      add\n        /* \"#utility.yul\":9870:9893   */\n      mload\n        /* \"#utility.yul\":9906:9969   */\n      tag_363\n        /* \"#utility.yul\":9963:9967   */\n      0x80\n        /* \"#utility.yul\":9958:9961   */\n      dup7\n        /* \"#utility.yul\":9954:9968   */\n      add\n        /* \"#utility.yul\":9940:9952   */\n      dup3\n        /* \"#utility.yul\":9906:9969   */\n      tag_218\n      jump\t// in\n    tag_363:\n        /* \"#utility.yul\":9806:9979   */\n      pop\n        /* \"#utility.yul\":9996:10000   */\n      dup1\n        /* \"#utility.yul\":9989:10000   */\n      swap2\n      pop\n        /* \"#utility.yul\":8982:10006   */\n      pop\n        /* \"#utility.yul\":8872:10006   */\n      swap3\n      swap2\n      pop\n      pop\n      jump\t// out\n        /* \"#utility.yul\":10012:10260   */\n    tag_223:\n        /* \"#utility.yul\":10127:10137   */\n      0x00\n        /* \"#utility.yul\":10162:10254   */\n      tag_365\n        /* \"#utility.yul\":10250:10253   */\n      dup4\n        /* \"#utility.yul\":10242:10248   */\n      dup4\n        /* \"#utility.yul\":10162:10254   */\n      tag_222\n      jump\t// in\n    tag_365:\n        /* \"#utility.yul\":10148:10254   */\n      swap1\n      pop\n        /* \"#utility.yul\":10012:10260   */\n      swap3\n      swap2\n      pop\n      pop\n      jump\t// out\n        /* \"#utility.yul\":10266:10402   */\n    tag_224:\n        /* \"#utility.yul\":10359:10363   */\n      0x00\n        /* \"#utility.yul\":10391:10395   */\n      0x20\n        /* \"#utility.yul\":10386:10389   */\n      dup3\n        /* \"#utility.yul\":10382:10396   */\n      add\n        /* \"#utility.yul\":10374:10396   */\n      swap1\n      pop\n        /* \"#utility.yul\":10266:10402   */\n      swap2\n      swap1\n      pop\n      jump\t// out\n        /* \"#utility.yul\":10472:11567   */\n    tag_225:\n        /* \"#utility.yul\":10637:10640   */\n      0x00\n        /* \"#utility.yul\":10666:10743   */\n      tag_368\n        /* \"#utility.yul\":10737:10742   */\n      dup3\n        /* \"#utility.yul\":10666:10743   */\n      tag_215\n      jump\t// in\n    tag_368:\n        /* \"#utility.yul\":10759:10868   */\n      tag_369\n        /* \"#utility.yul\":10861:10867   */\n      dup2\n        /* \"#utility.yul\":10856:10859   */\n      dup6\n        /* \"#utility.yul\":10759:10868   */\n      tag_216\n      jump\t// in\n    tag_369:\n        /* \"#utility.yul\":10752:10868   */\n      swap4\n      pop\n        /* \"#utility.yul\":10894:10897   */\n      dup4\n        /* \"#utility.yul\":10939:10943   */\n      0x20\n        /* \"#utility.yul\":10931:10937   */\n      dup3\n        /* \"#utility.yul\":10927:10944   */\n      mul\n        /* \"#utility.yul\":10922:10925   */\n      dup6\n        /* \"#utility.yul\":10918:10945   */\n      add\n        /* \"#utility.yul\":10969:11048   */\n      tag_370\n        /* \"#utility.yul\":11042:11047   */\n      dup6\n        /* \"#utility.yul\":10969:11048   */\n      tag_217\n      jump\t// in\n    tag_370:\n        /* \"#utility.yul\":11071:11078   */\n      dup1\n        /* \"#utility.yul\":11102:11103   */\n      0x00\n        /* \"#utility.yul\":11087:11522   */\n    tag_371:\n        /* \"#utility.yul\":11112:11118   */\n      dup6\n        /* \"#utility.yul\":11109:11110   */\n      dup2\n        /* \"#utility.yul\":11106:11119   */\n      lt\n        /* \"#utility.yul\":11087:11522   */\n      iszero\n      tag_373\n      jumpi\n        /* \"#utility.yul\":11183:11192   */\n      dup5\n        /* \"#utility.yul\":11177:11181   */\n      dup5\n        /* \"#utility.yul\":11173:11193   */\n      sub\n        /* \"#utility.yul\":11168:11171   */\n      dup10\n        /* \"#utility.yul\":11161:11194   */\n      mstore\n        /* \"#utility.yul\":11234:11240   */\n      dup2\n        /* \"#utility.yul\":11228:11241   */\n      mload\n        /* \"#utility.yul\":11262:11372   */\n      tag_374\n        /* \"#utility.yul\":11367:11371   */\n      dup6\n        /* \"#utility.yul\":11352:11365   */\n      dup3\n        /* \"#utility.yul\":11262:11372   */\n      tag_223\n      jump\t// in\n    tag_374:\n        /* \"#utility.yul\":11254:11372   */\n      swap5\n      pop\n        /* \"#utility.yul\":11395:11478   */\n      tag_375\n        /* \"#utility.yul\":11471:11477   */\n      dup4\n        /* \"#utility.yul\":11395:11478   */\n      tag_224\n      jump\t// in\n    tag_375:\n        /* \"#utility.yul\":11385:11478   */\n      swap3\n      pop\n        /* \"#utility.yul\":11507:11511   */\n      0x20\n        /* \"#utility.yul\":11502:11505   */\n      dup11\n        /* \"#utility.yul\":11498:11512   */\n      add\n        /* \"#utility.yul\":11491:11512   */\n      swap10\n      pop\n        /* \"#utility.yul\":11147:11522   */\n      pop\n        /* \"#utility.yul\":11134:11135   */\n      0x01\n        /* \"#utility.yul\":11131:11132   */\n      dup2\n        /* \"#utility.yul\":11127:11136   */\n      add\n        /* \"#utility.yul\":11122:11136   */\n      swap1\n      pop\n        /* \"#utility.yul\":11087:11522   */\n      jump(tag_371)\n    tag_373:\n        /* \"#utility.yul\":11091:11105   */\n      pop\n        /* \"#utility.yul\":11538:11542   */\n      dup3\n        /* \"#utility.yul\":11531:11542   */\n      swap8\n      pop\n        /* \"#utility.yul\":11558:11561   */\n      dup8\n        /* \"#utility.yul\":11551:11561   */\n      swap6\n      pop\n        /* \"#utility.yul\":10642:11567   */\n      pop\n      pop\n      pop\n      pop\n      pop\n        /* \"#utility.yul\":10472:11567   */\n      swap3\n      swap2\n      pop\n      pop\n      jump\t// out\n        /* \"#utility.yul\":11573:12038   */\n    tag_76:\n        /* \"#utility.yul\":11762:11766   */\n      0x00\n        /* \"#utility.yul\":11800:11802   */\n      0x20\n        /* \"#utility.yul\":11789:11798   */\n      dup3\n        /* \"#utility.yul\":11785:11803   */\n      add\n        /* \"#utility.yul\":11777:11803   */\n      swap1\n      pop\n        /* \"#utility.yul\":11849:11858   */\n      dup2\n        /* \"#utility.yul\":11843:11847   */\n      dup2\n        /* \"#utility.yul\":11839:11859   */\n      sub\n        /* \"#utility.yul\":11835:11836   */\n      0x00\n        /* \"#utility.yul\":11824:11833   */\n      dup4\n        /* \"#utility.yul\":11820:11837   */\n      add\n        /* \"#utility.yul\":11813:11860   */\n      mstore\n        /* \"#utility.yul\":11877:12031   */\n      tag_377\n        /* \"#utility.yul\":12026:12030   */\n      dup2\n        /* \"#utility.yul\":12017:12023   */\n      dup5\n        /* \"#utility.yul\":11877:12031   */\n      tag_225\n      jump\t// in\n    tag_377:\n        /* \"#utility.yul\":11869:12031   */\n      swap1\n      pop\n        /* \"#utility.yul\":11573:12038   */\n      swap3\n      swap2\n      pop\n      pop\n      jump\t// out\n        /* \"#utility.yul\":12044:12224   */\n    tag_226:\n        /* \"#utility.yul\":12092:12169   */\n      0x4e487b7100000000000000000000000000000000000000000000000000000000\n        /* \"#utility.yul\":12089:12090   */\n      0x00\n        /* \"#utility.yul\":12082:12170   */\n      mstore\n        /* \"#utility.yul\":12189:12193   */\n      0x22\n        /* \"#utility.yul\":12186:12187   */\n      0x04\n        /* \"#utility.yul\":12179:12194   */\n      mstore\n        /* \"#utility.yul\":12213:12217   */\n      0x24\n        /* \"#utility.yul\":12210:12211   */\n      0x00\n        /* \"#utility.yul\":12203:12218   */\n      revert\n        /* \"#utility.yul\":12230:12550   */\n    tag_80:\n        /* \"#utility.yul\":12274:12280   */\n      0x00\n        /* \"#utility.yul\":12311:12312   */\n      0x02\n        /* \"#utility.yul\":12305:12309   */\n      dup3\n        /* \"#utility.yul\":12301:12313   */\n      div\n        /* \"#utility.yul\":12291:12313   */\n      swap1\n      pop\n        /* \"#utility.yul\":12358:12359   */\n      0x01\n        /* \"#utility.yul\":12352:12356   */\n      dup3\n        /* \"#utility.yul\":12348:12360   */\n      and\n        /* \"#utility.yul\":12379:12397   */\n      dup1\n        /* \"#utility.yul\":12369:12450   */\n      tag_380\n      jumpi\n        /* \"#utility.yul\":12435:12439   */\n      0x7f\n        /* \"#utility.yul\":12427:12433   */\n      dup3\n        /* \"#utility.yul\":12423:12440   */\n      and\n        /* \"#utility.yul\":12413:12440   */\n      swap2\n      pop\n        /* \"#utility.yul\":12369:12450   */\n    tag_380:\n        /* \"#utility.yul\":12497:12499   */\n      0x20\n        /* \"#utility.yul\":12489:12495   */\n      dup3\n        /* \"#utility.yul\":12486:12500   */\n      lt\n        /* \"#utility.yul\":12466:12484   */\n      dup2\n        /* \"#utility.yul\":12463:12501   */\n      sub\n        /* \"#utility.yul\":12460:12544   */\n      tag_381\n      jumpi\n        /* \"#utility.yul\":12516:12534   */\n      tag_382\n      tag_226\n      jump\t// in\n    tag_382:\n        /* \"#utility.yul\":12460:12544   */\n    tag_381:\n        /* \"#utility.yul\":12281:12550   */\n      pop\n        /* \"#utility.yul\":12230:12550   */\n      swap2\n      swap1\n      pop\n      jump\t// out\n        /* \"#utility.yul\":12556:12728   */\n    tag_227:\n        /* \"#utility.yul\":12696:12720   */\n      0x596f7520617265206e6f7420617574686f72697a656400000000000000000000\n        /* \"#utility.yul\":12692:12693   */\n      0x00\n        /* \"#utility.yul\":12684:12690   */\n      dup3\n        /* \"#utility.yul\":12680:12694   */\n      add\n        /* \"#utility.yul\":12673:12721   */\n      mstore\n        /* \"#utility.yul\":12556:12728   */\n      pop\n      jump\t// out\n        /* \"#utility.yul\":12734:13100   */\n    tag_228:\n        /* \"#utility.yul\":12876:12879   */\n      0x00\n        /* \"#utility.yul\":12897:12964   */\n      tag_385\n        /* \"#utility.yul\":12961:12963   */\n      0x16\n        /* \"#utility.yul\":12956:12959   */\n      dup4\n        /* \"#utility.yul\":12897:12964   */\n      tag_196\n      jump\t// in\n    tag_385:\n        /* \"#utility.yul\":12890:12964   */\n      swap2\n      pop\n        /* \"#utility.yul\":12973:13066   */\n      tag_386\n        /* \"#utility.yul\":13062:13065   */\n      dup3\n        /* \"#utility.yul\":12973:13066   */\n      tag_227\n      jump\t// in\n    tag_386:\n        /* \"#utility.yul\":13091:13093   */\n      0x20\n        /* \"#utility.yul\":13086:13089   */\n      dup3\n        /* \"#utility.yul\":13082:13094   */\n      add\n        /* \"#utility.yul\":13075:13094   */\n      swap1\n      pop\n        /* \"#utility.yul\":12734:13100   */\n      swap2\n      swap1\n      pop\n      jump\t// out\n        /* \"#utility.yul\":13106:13525   */\n    tag_88:\n        /* \"#utility.yul\":13272:13276   */\n      0x00\n        /* \"#utility.yul\":13310:13312   */\n      0x20\n        /* \"#utility.yul\":13299:13308   */\n      dup3\n        /* \"#utility.yul\":13295:13313   */\n      add\n        /* \"#utility.yul\":13287:13313   */\n      swap1\n      pop\n        /* \"#utility.yul\":13359:13368   */\n      dup2\n        /* \"#utility.yul\":13353:13357   */\n      dup2\n        /* \"#utility.yul\":13349:13369   */\n      sub\n        /* \"#utility.yul\":13345:13346   */\n      0x00\n        /* \"#utility.yul\":13334:13343   */\n      dup4\n        /* \"#utility.yul\":13330:13347   */\n      add\n        /* \"#utility.yul\":13323:13370   */\n      mstore\n        /* \"#utility.yul\":13387:13518   */\n      tag_388\n        /* \"#utility.yul\":13513:13517   */\n      dup2\n        /* \"#utility.yul\":13387:13518   */\n      tag_228\n      jump\t// in\n    tag_388:\n        /* \"#utility.yul\":13379:13518   */\n      swap1\n      pop\n        /* \"#utility.yul\":13106:13525   */\n      swap2\n      swap1\n      pop\n      jump\t// out\n        /* \"#utility.yul\":13531:13711   */\n    tag_91:\n        /* \"#utility.yul\":13579:13656   */\n      0x4e487b7100000000000000000000000000000000000000000000000000000000\n        /* \"#utility.yul\":13576:13577   */\n      0x00\n        /* \"#utility.yul\":13569:13657   */\n      mstore\n        /* \"#utility.yul\":13676:13680   */\n      0x32\n        /* \"#utility.yul\":13673:13674   */\n      0x04\n        /* \"#utility.yul\":13666:13681   */\n      mstore\n        /* \"#utility.yul\":13700:13704   */\n      0x24\n        /* \"#utility.yul\":13697:13698   */\n      0x00\n        /* \"#utility.yul\":13690:13705   */\n      revert\n        /* \"#utility.yul\":13717:13897   */\n    tag_229:\n        /* \"#utility.yul\":13765:13842   */\n      0x4e487b7100000000000000000000000000000000000000000000000000000000\n        /* \"#utility.yul\":13762:13763   */\n      0x00\n        /* \"#utility.yul\":13755:13843   */\n      mstore\n        /* \"#utility.yul\":13862:13866   */\n      0x11\n        /* \"#utility.yul\":13859:13860   */\n      0x04\n        /* \"#utility.yul\":13852:13867   */\n      mstore\n        /* \"#utility.yul\":13886:13890   */\n      0x24\n        /* \"#utility.yul\":13883:13884   */\n      0x00\n        /* \"#utility.yul\":13876:13891   */\n      revert\n        /* \"#utility.yul\":13903:14278   */\n    tag_94:\n        /* \"#utility.yul\":13942:13945   */\n      0x00\n        /* \"#utility.yul\":13961:13980   */\n      tag_392\n        /* \"#utility.yul\":13978:13979   */\n      dup3\n        /* \"#utility.yul\":13961:13980   */\n      tag_186\n      jump\t// in\n    tag_392:\n        /* \"#utility.yul\":13956:13980   */\n      swap2\n      pop\n        /* \"#utility.yul\":13994:14013   */\n      tag_393\n        /* \"#utility.yul\":14011:14012   */\n      dup4\n        /* \"#utility.yul\":13994:14013   */\n      tag_186\n      jump\t// in\n    tag_393:\n        /* \"#utility.yul\":13989:14013   */\n      swap3\n      pop\n        /* \"#utility.yul\":14036:14037   */\n      dup3\n        /* \"#utility.yul\":14033:14034   */\n      dup3\n        /* \"#utility.yul\":14029:14038   */\n      add\n        /* \"#utility.yul\":14022:14038   */\n      swap1\n      pop\n        /* \"#utility.yul\":14234:14235   */\n      dup3\n        /* \"#utility.yul\":14229:14232   */\n      dup2\n        /* \"#utility.yul\":14225:14236   */\n      slt\n        /* \"#utility.yul\":14218:14237   */\n      iszero\n        /* \"#utility.yul\":14214:14215   */\n      0x00\n        /* \"#utility.yul\":14211:14212   */\n      dup4\n        /* \"#utility.yul\":14207:14216   */\n      slt\n        /* \"#utility.yul\":14203:14238   */\n      and\n        /* \"#utility.yul\":14186:14187   */\n      dup4\n        /* \"#utility.yul\":14181:14184   */\n      dup3\n        /* \"#utility.yul\":14177:14188   */\n      slt\n        /* \"#utility.yul\":14172:14173   */\n      0x00\n        /* \"#utility.yul\":14169:14170   */\n      dup5\n        /* \"#utility.yul\":14165:14174   */\n      slt\n        /* \"#utility.yul\":14158:14175   */\n      iszero\n        /* \"#utility.yul\":14154:14189   */\n      and\n        /* \"#utility.yul\":14138:14248   */\n      or\n        /* \"#utility.yul\":14135:14271   */\n      iszero\n      tag_394\n      jumpi\n        /* \"#utility.yul\":14251:14269   */\n      tag_395\n      tag_229\n      jump\t// in\n    tag_395:\n        /* \"#utility.yul\":14135:14271   */\n    tag_394:\n        /* \"#utility.yul\":13903:14278   */\n      swap3\n      swap2\n      pop\n      pop\n      jump\t// out\n        /* \"#utility.yul\":14284:14840   */\n    tag_112:\n        /* \"#utility.yul\":14323:14330   */\n      0x00\n        /* \"#utility.yul\":14346:14365   */\n      tag_397\n        /* \"#utility.yul\":14363:14364   */\n      dup3\n        /* \"#utility.yul\":14346:14365   */\n      tag_186\n      jump\t// in\n    tag_397:\n        /* \"#utility.yul\":14341:14365   */\n      swap2\n      pop\n        /* \"#utility.yul\":14379:14398   */\n      tag_398\n        /* \"#utility.yul\":14396:14397   */\n      dup4\n        /* \"#utility.yul\":14379:14398   */\n      tag_186\n      jump\t// in\n    tag_398:\n        /* \"#utility.yul\":14374:14398   */\n      swap3\n      pop\n        /* \"#utility.yul\":14433:14434   */\n      dup3\n        /* \"#utility.yul\":14430:14431   */\n      dup3\n        /* \"#utility.yul\":14426:14435   */\n      mul\n        /* \"#utility.yul\":14455:14484   */\n      tag_399\n        /* \"#utility.yul\":14472:14483   */\n      dup2\n        /* \"#utility.yul\":14455:14484   */\n      tag_186\n      jump\t// in\n    tag_399:\n        /* \"#utility.yul\":14444:14484   */\n      swap2\n      pop\n        /* \"#utility.yul\":14542:14608   */\n      0x8000000000000000000000000000000000000000000000000000000000000000\n        /* \"#utility.yul\":14539:14540   */\n      dup5\n        /* \"#utility.yul\":14536:14609   */\n      eq\n        /* \"#utility.yul\":14532:14533   */\n      0x00\n        /* \"#utility.yul\":14529:14530   */\n      dup5\n        /* \"#utility.yul\":14525:14534   */\n      slt\n        /* \"#utility.yul\":14521:14610   */\n      and\n        /* \"#utility.yul\":14518:14633   */\n      iszero\n      tag_400\n      jumpi\n        /* \"#utility.yul\":14613:14631   */\n      tag_401\n      tag_229\n      jump\t// in\n    tag_401:\n        /* \"#utility.yul\":14518:14633   */\n    tag_400:\n        /* \"#utility.yul\":14783:14784   */\n      dup3\n        /* \"#utility.yul\":14774:14781   */\n      dup3\n        /* \"#utility.yul\":14769:14785   */\n      sdiv\n        /* \"#utility.yul\":14766:14767   */\n      dup5\n        /* \"#utility.yul\":14763:14786   */\n      eq\n        /* \"#utility.yul\":14743:14744   */\n      dup4\n        /* \"#utility.yul\":14736:14745   */\n      iszero\n        /* \"#utility.yul\":14716:14800   */\n      or\n        /* \"#utility.yul\":14693:14833   */\n      tag_402\n      jumpi\n        /* \"#utility.yul\":14813:14831   */\n      tag_403\n      tag_229\n      jump\t// in\n    tag_403:\n        /* \"#utility.yul\":14693:14833   */\n    tag_402:\n        /* \"#utility.yul\":14331:14840   */\n      pop\n        /* \"#utility.yul\":14284:14840   */\n      swap3\n      swap2\n      pop\n      pop\n      jump\t// out\n        /* \"#utility.yul\":14846:15019   */\n    tag_230:\n        /* \"#utility.yul\":14986:15011   */\n      0x496e73756666696369656e742045746865722073656e74000000000000000000\n        /* \"#utility.yul\":14982:14983   */\n      0x00\n        /* \"#utility.yul\":14974:14980   */\n      dup3\n        /* \"#utility.yul\":14970:14984   */\n      add\n        /* \"#utility.yul\":14963:15012   */\n      mstore\n        /* \"#utility.yul\":14846:15019   */\n      pop\n      jump\t// out\n        /* \"#utility.yul\":15025:15391   */\n    tag_231:\n        /* \"#utility.yul\":15167:15170   */\n      0x00\n        /* \"#utility.yul\":15188:15255   */\n      tag_406\n        /* \"#utility.yul\":15252:15254   */\n      0x17\n        /* \"#utility.yul\":15247:15250   */\n      dup4\n        /* \"#utility.yul\":15188:15255   */\n      tag_196\n      jump\t// in\n    tag_406:\n        /* \"#utility.yul\":15181:15255   */\n      swap2\n      pop\n        /* \"#utility.yul\":15264:15357   */\n      tag_407\n        /* \"#utility.yul\":15353:15356   */\n      dup3\n        /* \"#utility.yul\":15264:15357   */\n      tag_230\n      jump\t// in\n    tag_407:\n        /* \"#utility.yul\":15382:15384   */\n      0x20\n        /* \"#utility.yul\":15377:15380   */\n      dup3\n        /* \"#utility.yul\":15373:15385   */\n      add\n        /* \"#utility.yul\":15366:15385   */\n      swap1\n      pop\n        /* \"#utility.yul\":15025:15391   */\n      swap2\n      swap1\n      pop\n      jump\t// out\n        /* \"#utility.yul\":15397:15816   */\n    tag_115:\n        /* \"#utility.yul\":15563:15567   */\n      0x00\n        /* \"#utility.yul\":15601:15603   */\n      0x20\n        /* \"#utility.yul\":15590:15599   */\n      dup3\n        /* \"#utility.yul\":15586:15604   */\n      add\n        /* \"#utility.yul\":15578:15604   */\n      swap1\n      pop\n        /* \"#utility.yul\":15650:15659   */\n      dup2\n        /* \"#utility.yul\":15644:15648   */\n      dup2\n        /* \"#utility.yul\":15640:15660   */\n      sub\n        /* \"#utility.yul\":15636:15637   */\n      0x00\n        /* \"#utility.yul\":15625:15634   */\n      dup4\n        /* \"#utility.yul\":15621:15638   */\n      add\n        /* \"#utility.yul\":15614:15661   */\n      mstore\n        /* \"#utility.yul\":15678:15809   */\n      tag_409\n        /* \"#utility.yul\":15804:15808   */\n      dup2\n        /* \"#utility.yul\":15678:15809   */\n      tag_231\n      jump\t// in\n    tag_409:\n        /* \"#utility.yul\":15670:15809   */\n      swap1\n      pop\n        /* \"#utility.yul\":15397:15816   */\n      swap2\n      swap1\n      pop\n      jump\t// out\n        /* \"#utility.yul\":15822:15969   */\n    tag_232:\n        /* \"#utility.yul\":15923:15934   */\n      0x00\n        /* \"#utility.yul\":15960:15963   */\n      dup2\n        /* \"#utility.yul\":15945:15963   */\n      swap1\n      pop\n        /* \"#utility.yul\":15822:15969   */\n      swap3\n      swap2\n      pop\n      pop\n      jump\t// out\n        /* \"#utility.yul\":15975:16089   */\n    tag_233:\n      pop\n      jump\t// out\n        /* \"#utility.yul\":16095:16493   */\n    tag_234:\n        /* \"#utility.yul\":16254:16257   */\n      0x00\n        /* \"#utility.yul\":16275:16358   */\n      tag_413\n        /* \"#utility.yul\":16356:16357   */\n      0x00\n        /* \"#utility.yul\":16351:16354   */\n      dup4\n        /* \"#utility.yul\":16275:16358   */\n      tag_232\n      jump\t// in\n    tag_413:\n        /* \"#utility.yul\":16268:16358   */\n      swap2\n      pop\n        /* \"#utility.yul\":16367:16460   */\n      tag_414\n        /* \"#utility.yul\":16456:16459   */\n      dup3\n        /* \"#utility.yul\":16367:16460   */\n      tag_233\n      jump\t// in\n    tag_414:\n        /* \"#utility.yul\":16485:16486   */\n      0x00\n        /* \"#utility.yul\":16480:16483   */\n      dup3\n        /* \"#utility.yul\":16476:16487   */\n      add\n        /* \"#utility.yul\":16469:16487   */\n      swap1\n      pop\n        /* \"#utility.yul\":16095:16493   */\n      swap2\n      swap1\n      pop\n      jump\t// out\n        /* \"#utility.yul\":16499:16878   */\n    tag_117:\n        /* \"#utility.yul\":16683:16686   */\n      0x00\n        /* \"#utility.yul\":16705:16852   */\n      tag_416\n        /* \"#utility.yul\":16848:16851   */\n      dup3\n        /* \"#utility.yul\":16705:16852   */\n      tag_234\n      jump\t// in\n    tag_416:\n        /* \"#utility.yul\":16698:16852   */\n      swap2\n      pop\n        /* \"#utility.yul\":16869:16872   */\n      dup2\n        /* \"#utility.yul\":16862:16872   */\n      swap1\n      pop\n        /* \"#utility.yul\":16499:16878   */\n      swap2\n      swap1\n      pop\n      jump\t// out\n        /* \"#utility.yul\":16884:17054   */\n    tag_235:\n        /* \"#utility.yul\":17024:17046   */\n      0x4661696c656420746f2073656e64204574686572000000000000000000000000\n        /* \"#utility.yul\":17020:17021   */\n      0x00\n        /* \"#utility.yul\":17012:17018   */\n      dup3\n        /* \"#utility.yul\":17008:17022   */\n      add\n        /* \"#utility.yul\":17001:17047   */\n      mstore\n        /* \"#utility.yul\":16884:17054   */\n      pop\n      jump\t// out\n        /* \"#utility.yul\":17060:17426   */\n    tag_236:\n        /* \"#utility.yul\":17202:17205   */\n      0x00\n        /* \"#utility.yul\":17223:17290   */\n      tag_419\n        /* \"#utility.yul\":17287:17289   */\n      0x14\n        /* \"#utility.yul\":17282:17285   */\n      dup4\n        /* \"#utility.yul\":17223:17290   */\n      tag_196\n      jump\t// in\n    tag_419:\n        /* \"#utility.yul\":17216:17290   */\n      swap2\n      pop\n        /* \"#utility.yul\":17299:17392   */\n      tag_420\n        /* \"#utility.yul\":17388:17391   */\n      dup3\n        /* \"#utility.yul\":17299:17392   */\n      tag_235\n      jump\t// in\n    tag_420:\n        /* \"#utility.yul\":17417:17419   */\n      0x20\n        /* \"#utility.yul\":17412:17415   */\n      dup3\n        /* \"#utility.yul\":17408:17420   */\n      add\n        /* \"#utility.yul\":17401:17420   */\n      swap1\n      pop\n        /* \"#utility.yul\":17060:17426   */\n      swap2\n      swap1\n      pop\n      jump\t// out\n        /* \"#utility.yul\":17432:17851   */\n    tag_123:\n        /* \"#utility.yul\":17598:17602   */\n      0x00\n        /* \"#utility.yul\":17636:17638   */\n      0x20\n        /* \"#utility.yul\":17625:17634   */\n      dup3\n        /* \"#utility.yul\":17621:17639   */\n      add\n        /* \"#utility.yul\":17613:17639   */\n      swap1\n      pop\n        /* \"#utility.yul\":17685:17694   */\n      dup2\n        /* \"#utility.yul\":17679:17683   */\n      dup2\n        /* \"#utility.yul\":17675:17695   */\n      sub\n        /* \"#utility.yul\":17671:17672   */\n      0x00\n        /* \"#utility.yul\":17660:17669   */\n      dup4\n        /* \"#utility.yul\":17656:17673   */\n      add\n        /* \"#utility.yul\":17649:17696   */\n      mstore\n        /* \"#utility.yul\":17713:17844   */\n      tag_422\n        /* \"#utility.yul\":17839:17843   */\n      dup2\n        /* \"#utility.yul\":17713:17844   */\n      tag_236\n      jump\t// in\n    tag_422:\n        /* \"#utility.yul\":17705:17844   */\n      swap1\n      pop\n        /* \"#utility.yul\":17432:17851   */\n      swap2\n      swap1\n      pop\n      jump\t// out\n        /* \"#utility.yul\":17857:17998   */\n    tag_237:\n        /* \"#utility.yul\":17906:17910   */\n      0x00\n        /* \"#utility.yul\":17929:17932   */\n      dup2\n        /* \"#utility.yul\":17921:17932   */\n      swap1\n      pop\n        /* \"#utility.yul\":17952:17955   */\n      dup2\n        /* \"#utility.yul\":17949:17950   */\n      0x00\n        /* \"#utility.yul\":17942:17956   */\n      mstore\n        /* \"#utility.yul\":17986:17990   */\n      0x20\n        /* \"#utility.yul\":17983:17984   */\n      0x00\n        /* \"#utility.yul\":17973:17991   */\n      keccak256\n        /* \"#utility.yul\":17965:17991   */\n      swap1\n      pop\n        /* \"#utility.yul\":17857:17998   */\n      swap2\n      swap1\n      pop\n      jump\t// out\n        /* \"#utility.yul\":18004:18097   */\n    tag_238:\n        /* \"#utility.yul\":18041:18047   */\n      0x00\n        /* \"#utility.yul\":18088:18090   */\n      0x20\n        /* \"#utility.yul\":18083:18085   */\n      0x1f\n        /* \"#utility.yul\":18076:18081   */\n      dup4\n        /* \"#utility.yul\":18072:18086   */\n      add\n        /* \"#utility.yul\":18068:18091   */\n      div\n        /* \"#utility.yul\":18058:18091   */\n      swap1\n      pop\n        /* \"#utility.yul\":18004:18097   */\n      swap2\n      swap1\n      pop\n      jump\t// out\n        /* \"#utility.yul\":18103:18210   */\n    tag_239:\n        /* \"#utility.yul\":18147:18155   */\n      0x00\n        /* \"#utility.yul\":18197:18202   */\n      dup3\n        /* \"#utility.yul\":18191:18195   */\n      dup3\n        /* \"#utility.yul\":18187:18203   */\n      shl\n        /* \"#utility.yul\":18166:18203   */\n      swap1\n      pop\n        /* \"#utility.yul\":18103:18210   */\n      swap3\n      swap2\n      pop\n      pop\n      jump\t// out\n        /* \"#utility.yul\":18216:18609   */\n    tag_240:\n        /* \"#utility.yul\":18285:18291   */\n      0x00\n        /* \"#utility.yul\":18335:18336   */\n      0x08\n        /* \"#utility.yul\":18323:18333   */\n      dup4\n        /* \"#utility.yul\":18319:18337   */\n      mul\n        /* \"#utility.yul\":18358:18455   */\n      tag_427\n        /* \"#utility.yul\":18388:18454   */\n      0xffffffffffffffffffffffffffffffffffffffffffffffffffffffffffffffff\n        /* \"#utility.yul\":18377:18386   */\n      dup3\n        /* \"#utility.yul\":18358:18455   */\n      tag_239\n      jump\t// in\n    tag_427:\n        /* \"#utility.yul\":18476:18515   */\n      tag_428\n        /* \"#utility.yul\":18506:18514   */\n      dup7\n        /* \"#utility.yul\":18495:18504   */\n      dup4\n        /* \"#utility.yul\":18476:18515   */\n      tag_239\n      jump\t// in\n    tag_428:\n        /* \"#utility.yul\":18464:18515   */\n      swap6\n      pop\n        /* \"#utility.yul\":18548:18552   */\n      dup1\n        /* \"#utility.yul\":18544:18553   */\n      not\n        /* \"#utility.yul\":18537:18542   */\n      dup5\n        /* \"#utility.yul\":18533:18554   */\n      and\n        /* \"#utility.yul\":18524:18554   */\n      swap4\n      pop\n        /* \"#utility.yul\":18597:18601   */\n      dup1\n        /* \"#utility.yul\":18587:18595   */\n      dup7\n        /* \"#utility.yul\":18583:18602   */\n      and\n        /* \"#utility.yul\":18576:18581   */\n      dup5\n        /* \"#utility.yul\":18573:18603   */\n      or\n        /* \"#utility.yul\":18563:18603   */\n      swap3\n      pop\n        /* \"#utility.yul\":18292:18609   */\n      pop\n      pop\n        /* \"#utility.yul\":18216:18609   */\n      swap4\n      swap3\n      pop\n      pop\n      pop\n      jump\t// out\n        /* \"#utility.yul\":18615:18675   */\n    tag_241:\n        /* \"#utility.yul\":18643:18646   */\n      0x00\n        /* \"#utility.yul\":18664:18669   */\n      dup2\n        /* \"#utility.yul\":18657:18669   */\n      swap1\n      pop\n        /* \"#utility.yul\":18615:18675   */\n      swap2\n      swap1\n      pop\n      jump\t// out\n        /* \"#utility.yul\":18681:18823   */\n    tag_242:\n        /* \"#utility.yul\":18731:18740   */\n      0x00\n        /* \"#utility.yul\":18764:18817   */\n      tag_431\n        /* \"#utility.yul\":18782:18816   */\n      tag_432\n        /* \"#utility.yul\":18791:18815   */\n      tag_433\n        /* \"#utility.yul\":18809:18814   */\n      dup5\n        /* \"#utility.yul\":18791:18815   */\n      tag_188\n      jump\t// in\n    tag_433:\n        /* \"#utility.yul\":18782:18816   */\n      tag_241\n      jump\t// in\n    tag_432:\n        /* \"#utility.yul\":18764:18817   */\n      tag_188\n      jump\t// in\n    tag_431:\n        /* \"#utility.yul\":18751:18817   */\n      swap1\n      pop\n        /* \"#utility.yul\":18681:18823   */\n      swap2\n      swap1\n      pop\n      jump\t// out\n        /* \"#utility.yul\":18829:18904   */\n    tag_243:\n        /* \"#utility.yul\":18872:18875   */\n      0x00\n        /* \"#utility.yul\":18893:18898   */\n      dup2\n        /* \"#utility.yul\":18886:18898   */\n      swap1\n      pop\n        /* \"#utility.yul\":18829:18904   */\n      swap2\n      swap1\n      pop\n      jump\t// out\n        /* \"#utility.yul\":18910:19179   */\n    tag_244:\n        /* \"#utility.yul\":19020:19059   */\n      tag_436\n        /* \"#utility.yul\":19051:19058   */\n      dup4\n        /* \"#utility.yul\":19020:19059   */\n      tag_242\n      jump\t// in\n    tag_436:\n        /* \"#utility.yul\":19081:19172   */\n      tag_437\n        /* \"#utility.yul\":19130:19171   */\n      tag_438\n        /* \"#utility.yul\":19154:19170   */\n      dup3\n        /* \"#utility.yul\":19130:19171   */\n      tag_243\n      jump\t// in\n    tag_438:\n        /* \"#utility.yul\":19122:19128   */\n      dup5\n        /* \"#utility.yul\":19115:19119   */\n      dup5\n        /* \"#utility.yul\":19109:19120   */\n      sload\n        /* \"#utility.yul\":19081:19172   */\n      tag_240\n      jump\t// in\n    tag_437:\n        /* \"#utility.yul\":19075:19079   */\n      dup3\n        /* \"#utility.yul\":19068:19173   */\n      sstore\n        /* \"#utility.yul\":18986:19179   */\n      pop\n        /* \"#utility.yul\":18910:19179   */\n      pop\n      pop\n      pop\n      jump\t// out\n        /* \"#utility.yul\":19185:19258   */\n    tag_245:\n        /* \"#utility.yul\":19230:19233   */\n      0x00\n        /* \"#utility.yul\":19185:19258   */\n      swap1\n      jump\t// out\n        /* \"#utility.yul\":19264:19453   */\n    tag_246:\n        /* \"#utility.yul\":19341:19373   */\n      tag_441\n      tag_245\n      jump\t// in\n    tag_441:\n        /* \"#utility.yul\":19382:19447   */\n      tag_442\n        /* \"#utility.yul\":19440:19446   */\n      dup2\n        /* \"#utility.yul\":19432:19438   */\n      dup5\n        /* \"#utility.yul\":19426:19430   */\n      dup5\n        /* \"#utility.yul\":19382:19447   */\n      tag_244\n      jump\t// in\n    tag_442:\n        /* \"#utility.yul\":19317:19453   */\n      pop\n        /* \"#utility.yul\":19264:19453   */\n      pop\n      pop\n      jump\t// out\n        /* \"#utility.yul\":19459:19645   */\n    tag_247:\n        /* \"#utility.yul\":19519:19639   */\n    tag_444:\n        /* \"#utility.yul\":19536:19539   */\n      dup2\n        /* \"#utility.yul\":19529:19534   */\n      dup2\n        /* \"#utility.yul\":19526:19540   */\n      lt\n        /* \"#utility.yul\":19519:19639   */\n      iszero\n      tag_446\n      jumpi\n        /* \"#utility.yul\":19590:19629   */\n      tag_447\n        /* \"#utility.yul\":19627:19628   */\n      0x00\n        /* \"#utility.yul\":19620:19625   */\n      dup3\n        /* \"#utility.yul\":19590:19629   */\n      tag_246\n      jump\t// in\n    tag_447:\n        /* \"#utility.yul\":19563:19564   */\n      0x01\n        /* \"#utility.yul\":19556:19561   */\n      dup2\n        /* \"#utility.yul\":19552:19565   */\n      add\n        /* \"#utility.yul\":19543:19565   */\n      swap1\n      pop\n        /* \"#utility.yul\":19519:19639   */\n      jump(tag_444)\n    tag_446:\n        /* \"#utility.yul\":19459:19645   */\n      pop\n      pop\n      jump\t// out\n        /* \"#utility.yul\":19651:20194   */\n    tag_248:\n        /* \"#utility.yul\":19752:19754   */\n      0x1f\n        /* \"#utility.yul\":19747:19750   */\n      dup3\n        /* \"#utility.yul\":19744:19755   */\n      gt\n        /* \"#utility.yul\":19741:20187   */\n      iszero\n      tag_449\n      jumpi\n        /* \"#utility.yul\":19786:19824   */\n      tag_450\n        /* \"#utility.yul\":19818:19823   */\n      dup2\n        /* \"#utility.yul\":19786:19824   */\n      tag_237\n      jump\t// in\n    tag_450:\n        /* \"#utility.yul\":19870:19899   */\n      tag_451\n        /* \"#utility.yul\":19888:19898   */\n      dup5\n        /* \"#utility.yul\":19870:19899   */\n      tag_238\n      jump\t// in\n    tag_451:\n        /* \"#utility.yul\":19860:19868   */\n      dup2\n        /* \"#utility.yul\":19856:19900   */\n      add\n        /* \"#utility.yul\":20053:20055   */\n      0x20\n        /* \"#utility.yul\":20041:20051   */\n      dup6\n        /* \"#utility.yul\":20038:20056   */\n      lt\n        /* \"#utility.yul\":20035:20084   */\n      iszero\n      tag_452\n      jumpi\n        /* \"#utility.yul\":20074:20082   */\n      dup2\n        /* \"#utility.yul\":20059:20082   */\n      swap1\n      pop\n        /* \"#utility.yul\":20035:20084   */\n    tag_452:\n        /* \"#utility.yul\":20097:20177   */\n      tag_453\n        /* \"#utility.yul\":20153:20175   */\n      tag_454\n        /* \"#utility.yul\":20171:20174   */\n      dup6\n        /* \"#utility.yul\":20153:20175   */\n      tag_238\n      jump\t// in\n    tag_454:\n        /* \"#utility.yul\":20143:20151   */\n      dup4\n        /* \"#utility.yul\":20139:20176   */\n      add\n        /* \"#utility.yul\":20126:20137   */\n      dup3\n        /* \"#utility.yul\":20097:20177   */\n      tag_247\n      jump\t// in\n    tag_453:\n        /* \"#utility.yul\":19756:20187   */\n      pop\n      pop\n        /* \"#utility.yul\":19741:20187   */\n    tag_449:\n        /* \"#utility.yul\":19651:20194   */\n      pop\n      pop\n      pop\n      jump\t// out\n        /* \"#utility.yul\":20200:20317   */\n    tag_249:\n        /* \"#utility.yul\":20254:20262   */\n      0x00\n        /* \"#utility.yul\":20304:20309   */\n      dup3\n        /* \"#utility.yul\":20298:20302   */\n      dup3\n        /* \"#utility.yul\":20294:20310   */\n      shr\n        /* \"#utility.yul\":20273:20310   */\n      swap1\n      pop\n        /* \"#utility.yul\":20200:20317   */\n      swap3\n      swap2\n      pop\n      pop\n      jump\t// out\n        /* \"#utility.yul\":20323:20492   */\n    tag_250:\n        /* \"#utility.yul\":20367:20373   */\n      0x00\n        /* \"#utility.yul\":20400:20451   */\n      tag_457\n        /* \"#utility.yul\":20448:20449   */\n      0x00\n        /* \"#utility.yul\":20444:20450   */\n      not\n        /* \"#utility.yul\":20436:20441   */\n      dup5\n        /* \"#utility.yul\":20433:20434   */\n      0x08\n        /* \"#utility.yul\":20429:20442   */\n      mul\n        /* \"#utility.yul\":20400:20451   */\n      tag_249\n      jump\t// in\n    tag_457:\n        /* \"#utility.yul\":20396:20452   */\n      not\n        /* \"#utility.yul\":20481:20485   */\n      dup1\n        /* \"#utility.yul\":20475:20479   */\n      dup4\n        /* \"#utility.yul\":20471:20486   */\n      and\n        /* \"#utility.yul\":20461:20486   */\n      swap2\n      pop\n        /* \"#utility.yul\":20374:20492   */\n      pop\n        /* \"#utility.yul\":20323:20492   */\n      swap3\n      swap2\n      pop\n      pop\n      jump\t// out\n        /* \"#utility.yul\":20497:20792   */\n    tag_251:\n        /* \"#utility.yul\":20573:20577   */\n      0x00\n        /* \"#utility.yul\":20719:20748   */\n      tag_459\n        /* \"#utility.yul\":20744:20747   */\n      dup4\n        /* \"#utility.yul\":20738:20742   */\n      dup4\n        /* \"#utility.yul\":20719:20748   */\n      tag_250\n      jump\t// in\n    tag_459:\n        /* \"#utility.yul\":20711:20748   */\n      swap2\n      pop\n        /* \"#utility.yul\":20781:20784   */\n      dup3\n        /* \"#utility.yul\":20778:20779   */\n      0x02\n        /* \"#utility.yul\":20774:20785   */\n      mul\n        /* \"#utility.yul\":20768:20772   */\n      dup3\n        /* \"#utility.yul\":20765:20786   */\n      or\n        /* \"#utility.yul\":20757:20786   */\n      swap1\n      pop\n        /* \"#utility.yul\":20497:20792   */\n      swap3\n      swap2\n      pop\n      pop\n      jump\t// out\n        /* \"#utility.yul\":20797:22192   */\n    tag_133:\n        /* \"#utility.yul\":20914:20951   */\n      tag_461\n        /* \"#utility.yul\":20947:20950   */\n      dup3\n        /* \"#utility.yul\":20914:20951   */\n      tag_195\n      jump\t// in\n    tag_461:\n        /* \"#utility.yul\":21016:21034   */\n      0xffffffffffffffff\n        /* \"#utility.yul\":21008:21014   */\n      dup2\n        /* \"#utility.yul\":21005:21035   */\n      gt\n        /* \"#utility.yul\":21002:21058   */\n      iszero\n      tag_462\n      jumpi\n        /* \"#utility.yul\":21038:21056   */\n      tag_463\n      tag_208\n      jump\t// in\n    tag_463:\n        /* \"#utility.yul\":21002:21058   */\n    tag_462:\n        /* \"#utility.yul\":21082:21120   */\n      tag_464\n        /* \"#utility.yul\":21114:21118   */\n      dup3\n        /* \"#utility.yul\":21108:21119   */\n      sload\n        /* \"#utility.yul\":21082:21120   */\n      tag_80\n      jump\t// in\n    tag_464:\n        /* \"#utility.yul\":21167:21234   */\n      tag_465\n        /* \"#utility.yul\":21227:21233   */\n      dup3\n        /* \"#utility.yul\":21219:21225   */\n      dup3\n        /* \"#utility.yul\":21213:21217   */\n      dup6\n        /* \"#utility.yul\":21167:21234   */\n      tag_248\n      jump\t// in\n    tag_465:\n        /* \"#utility.yul\":21261:21262   */\n      0x00\n        /* \"#utility.yul\":21285:21289   */\n      0x20\n        /* \"#utility.yul\":21272:21289   */\n      swap1\n      pop\n        /* \"#utility.yul\":21317:21319   */\n      0x1f\n        /* \"#utility.yul\":21309:21315   */\n      dup4\n        /* \"#utility.yul\":21306:21320   */\n      gt\n        /* \"#utility.yul\":21334:21335   */\n      0x01\n        /* \"#utility.yul\":21329:21947   */\n      dup2\n      eq\n      tag_467\n      jumpi\n        /* \"#utility.yul\":21991:21992   */\n      0x00\n        /* \"#utility.yul\":22008:22014   */\n      dup5\n        /* \"#utility.yul\":22005:22082   */\n      iszero\n      tag_468\n      jumpi\n        /* \"#utility.yul\":22057:22066   */\n      dup3\n        /* \"#utility.yul\":22052:22055   */\n      dup8\n        /* \"#utility.yul\":22048:22067   */\n      add\n        /* \"#utility.yul\":22042:22068   */\n      mload\n        /* \"#utility.yul\":22033:22068   */\n      swap1\n      pop\n        /* \"#utility.yul\":22005:22082   */\n    tag_468:\n        /* \"#utility.yul\":22108:22175   */\n      tag_469\n        /* \"#utility.yul\":22168:22174   */\n      dup6\n        /* \"#utility.yul\":22161:22166   */\n      dup3\n        /* \"#utility.yul\":22108:22175   */\n      tag_251\n      jump\t// in\n    tag_469:\n        /* \"#utility.yul\":22102:22106   */\n      dup7\n        /* \"#utility.yul\":22095:22176   */\n      sstore\n        /* \"#utility.yul\":21964:22186   */\n      pop\n        /* \"#utility.yul\":21299:22186   */\n      jump(tag_466)\n        /* \"#utility.yul\":21329:21947   */\n    tag_467:\n        /* \"#utility.yul\":21381:21385   */\n      0x1f\n        /* \"#utility.yul\":21377:21386   */\n      not\n        /* \"#utility.yul\":21369:21375   */\n      dup5\n        /* \"#utility.yul\":21365:21387   */\n      and\n        /* \"#utility.yul\":21415:21452   */\n      tag_470\n        /* \"#utility.yul\":21447:21451   */\n      dup7\n        /* \"#utility.yul\":21415:21452   */\n      tag_237\n      jump\t// in\n    tag_470:\n        /* \"#utility.yul\":21474:21475   */\n      0x00\n        /* \"#utility.yul\":21488:21696   */\n    tag_471:\n        /* \"#utility.yul\":21502:21509   */\n      dup3\n        /* \"#utility.yul\":21499:21500   */\n      dup2\n        /* \"#utility.yul\":21496:21510   */\n      lt\n        /* \"#utility.yul\":21488:21696   */\n      iszero\n      tag_473\n      jumpi\n        /* \"#utility.yul\":21581:21590   */\n      dup5\n        /* \"#utility.yul\":21576:21579   */\n      dup10\n        /* \"#utility.yul\":21572:21591   */\n      add\n        /* \"#utility.yul\":21566:21592   */\n      mload\n        /* \"#utility.yul\":21558:21564   */\n      dup3\n        /* \"#utility.yul\":21551:21593   */\n      sstore\n        /* \"#utility.yul\":21632:21633   */\n      0x01\n        /* \"#utility.yul\":21624:21630   */\n      dup3\n        /* \"#utility.yul\":21620:21634   */\n      add\n        /* \"#utility.yul\":21610:21634   */\n      swap2\n      pop\n        /* \"#utility.yul\":21679:21681   */\n      0x20\n        /* \"#utility.yul\":21668:21677   */\n      dup6\n        /* \"#utility.yul\":21664:21682   */\n      add\n        /* \"#utility.yul\":21651:21682   */\n      swap5\n      pop\n        /* \"#utility.yul\":21525:21529   */\n      0x20\n        /* \"#utility.yul\":21522:21523   */\n      dup2\n        /* \"#utility.yul\":21518:21530   */\n      add\n        /* \"#utility.yul\":21513:21530   */\n      swap1\n      pop\n        /* \"#utility.yul\":21488:21696   */\n      jump(tag_471)\n    tag_473:\n        /* \"#utility.yul\":21724:21730   */\n      dup7\n        /* \"#utility.yul\":21715:21722   */\n      dup4\n        /* \"#utility.yul\":21712:21731   */\n      lt\n        /* \"#utility.yul\":21709:21888   */\n      iszero\n      tag_474\n      jumpi\n        /* \"#utility.yul\":21782:21791   */\n      dup5\n        /* \"#utility.yul\":21777:21780   */\n      dup10\n        /* \"#utility.yul\":21773:21792   */\n      add\n        /* \"#utility.yul\":21767:21793   */\n      mload\n        /* \"#utility.yul\":21825:21873   */\n      tag_475\n        /* \"#utility.yul\":21867:21871   */\n      0x1f\n        /* \"#utility.yul\":21859:21865   */\n      dup10\n        /* \"#utility.yul\":21855:21872   */\n      and\n        /* \"#utility.yul\":21844:21853   */\n      dup3\n        /* \"#utility.yul\":21825:21873   */\n      tag_250\n      jump\t// in\n    tag_475:\n        /* \"#utility.yul\":21817:21823   */\n      dup4\n        /* \"#utility.yul\":21810:21874   */\n      sstore\n        /* \"#utility.yul\":21732:21888   */\n      pop\n        /* \"#utility.yul\":21709:21888   */\n    tag_474:\n        /* \"#utility.yul\":21934:21935   */\n      0x01\n        /* \"#utility.yul\":21930:21931   */\n      0x02\n        /* \"#utility.yul\":21922:21928   */\n      dup9\n        /* \"#utility.yul\":21918:21932   */\n      mul\n        /* \"#utility.yul\":21914:21936   */\n      add\n        /* \"#utility.yul\":21908:21912   */\n      dup9\n        /* \"#utility.yul\":21901:21937   */\n      sstore\n        /* \"#utility.yul\":21336:21947   */\n      pop\n      pop\n      pop\n        /* \"#utility.yul\":21299:22186   */\n    tag_466:\n      pop\n        /* \"#utility.yul\":20889:22192   */\n      pop\n      pop\n      pop\n        /* \"#utility.yul\":20797:22192   */\n      pop\n      pop\n      jump\t// out\n        /* \"#utility.yul\":22198:22389   */\n    tag_135:\n        /* \"#utility.yul\":22238:22241   */\n      0x00\n        /* \"#utility.yul\":22257:22277   */\n      tag_477\n        /* \"#utility.yul\":22275:22276   */\n      dup3\n        /* \"#utility.yul\":22257:22277   */\n      tag_188\n      jump\t// in\n    tag_477:\n        /* \"#utility.yul\":22252:22277   */\n      swap2\n      pop\n        /* \"#utility.yul\":22291:22311   */\n      tag_478\n        /* \"#utility.yul\":22309:22310   */\n      dup4\n        /* \"#utility.yul\":22291:22311   */\n      tag_188\n      jump\t// in\n    tag_478:\n        /* \"#utility.yul\":22286:22311   */\n      swap3\n      pop\n        /* \"#utility.yul\":22334:22335   */\n      dup3\n        /* \"#utility.yul\":22331:22332   */\n      dup3\n        /* \"#utility.yul\":22327:22336   */\n      add\n        /* \"#utility.yul\":22320:22336   */\n      swap1\n      pop\n        /* \"#utility.yul\":22355:22358   */\n      dup1\n        /* \"#utility.yul\":22352:22353   */\n      dup3\n        /* \"#utility.yul\":22349:22359   */\n      gt\n        /* \"#utility.yul\":22346:22382   */\n      iszero\n      tag_479\n      jumpi\n        /* \"#utility.yul\":22362:22380   */\n      tag_480\n      tag_229\n      jump\t// in\n    tag_480:\n        /* \"#utility.yul\":22346:22382   */\n    tag_479:\n        /* \"#utility.yul\":22198:22389   */\n      swap3\n      swap2\n      pop\n      pop\n      jump\t// out\n        /* \"#utility.yul\":22395:22557   */\n    tag_252:\n        /* \"#utility.yul\":22535:22549   */\n      0x4f7574206f662073746f636b0000000000000000000000000000000000000000\n        /* \"#utility.yul\":22531:22532   */\n      0x00\n        /* \"#utility.yul\":22523:22529   */\n      dup3\n        /* \"#utility.yul\":22519:22533   */\n      add\n        /* \"#utility.yul\":22512:22550   */\n      mstore\n        /* \"#utility.yul\":22395:22557   */\n      pop\n      jump\t// out\n        /* \"#utility.yul\":22563:22929   */\n    tag_253:\n        /* \"#utility.yul\":22705:22708   */\n      0x00\n        /* \"#utility.yul\":22726:22793   */\n      tag_483\n        /* \"#utility.yul\":22790:22792   */\n      0x0c\n        /* \"#utility.yul\":22785:22788   */\n      dup4\n        /* \"#utility.yul\":22726:22793   */\n      tag_196\n      jump\t// in\n    tag_483:\n        /* \"#utility.yul\":22719:22793   */\n      swap2\n      pop\n        /* \"#utility.yul\":22802:22895   */\n      tag_484\n        /* \"#utility.yul\":22891:22894   */\n      dup3\n        /* \"#utility.yul\":22802:22895   */\n      tag_252\n      jump\t// in\n    tag_484:\n        /* \"#utility.yul\":22920:22922   */\n      0x20\n        /* \"#utility.yul\":22915:22918   */\n      dup3\n        /* \"#utility.yul\":22911:22923   */\n      add\n        /* \"#utility.yul\":22904:22923   */\n      swap1\n      pop\n        /* \"#utility.yul\":22563:22929   */\n      swap2\n      swap1\n      pop\n      jump\t// out\n        /* \"#utility.yul\":22935:23354   */\n    tag_151:\n        /* \"#utility.yul\":23101:23105   */\n      0x00\n        /* \"#utility.yul\":23139:23141   */\n      0x20\n        /* \"#utility.yul\":23128:23137   */\n      dup3\n        /* \"#utility.yul\":23124:23142   */\n      add\n        /* \"#utility.yul\":23116:23142   */\n      swap1\n      pop\n        /* \"#utility.yul\":23188:23197   */\n      dup2\n        /* \"#utility.yul\":23182:23186   */\n      dup2\n        /* \"#utility.yul\":23178:23198   */\n      sub\n        /* \"#utility.yul\":23174:23175   */\n      0x00\n        /* \"#utility.yul\":23163:23172   */\n      dup4\n        /* \"#utility.yul\":23159:23176   */\n      add\n        /* \"#utility.yul\":23152:23199   */\n      mstore\n        /* \"#utility.yul\":23216:23347   */\n      tag_486\n        /* \"#utility.yul\":23342:23346   */\n      dup2\n        /* \"#utility.yul\":23216:23347   */\n      tag_253\n      jump\t// in\n    tag_486:\n        /* \"#utility.yul\":23208:23347   */\n      swap1\n      pop\n        /* \"#utility.yul\":22935:23354   */\n      swap2\n      swap1\n      pop\n      jump\t// out\n        /* \"#utility.yul\":23360:23732   */\n    tag_156:\n        /* \"#utility.yul\":23399:23403   */\n      0x00\n        /* \"#utility.yul\":23419:23438   */\n      tag_488\n        /* \"#utility.yul\":23436:23437   */\n      dup3\n        /* \"#utility.yul\":23419:23438   */\n      tag_186\n      jump\t// in\n    tag_488:\n        /* \"#utility.yul\":23414:23438   */\n      swap2\n      pop\n        /* \"#utility.yul\":23452:23471   */\n      tag_489\n        /* \"#utility.yul\":23469:23470   */\n      dup4\n        /* \"#utility.yul\":23452:23471   */\n      tag_186\n      jump\t// in\n    tag_489:\n        /* \"#utility.yul\":23447:23471   */\n      swap3\n      pop\n        /* \"#utility.yul\":23495:23496   */\n      dup3\n        /* \"#utility.yul\":23492:23493   */\n      dup3\n        /* \"#utility.yul\":23488:23497   */\n      sub\n        /* \"#utility.yul\":23480:23497   */\n      swap1\n      pop\n        /* \"#utility.yul\":23689:23690   */\n      dup2\n        /* \"#utility.yul\":23683:23687   */\n      dup2\n        /* \"#utility.yul\":23679:23691   */\n      slt\n        /* \"#utility.yul\":23675:23676   */\n      0x00\n        /* \"#utility.yul\":23672:23673   */\n      dup5\n        /* \"#utility.yul\":23668:23677   */\n      slt\n        /* \"#utility.yul\":23664:23692   */\n      and\n        /* \"#utility.yul\":23647:23648   */\n      dup3\n        /* \"#utility.yul\":23641:23645   */\n      dup3\n        /* \"#utility.yul\":23637:23649   */\n      sgt\n        /* \"#utility.yul\":23632:23633   */\n      0x00\n        /* \"#utility.yul\":23629:23630   */\n      dup6\n        /* \"#utility.yul\":23625:23634   */\n      slt\n        /* \"#utility.yul\":23618:23635   */\n      iszero\n        /* \"#utility.yul\":23614:23650   */\n      and\n        /* \"#utility.yul\":23598:23702   */\n      or\n        /* \"#utility.yul\":23595:23725   */\n      iszero\n      tag_490\n      jumpi\n        /* \"#utility.yul\":23705:23723   */\n      tag_491\n      tag_229\n      jump\t// in\n    tag_491:\n        /* \"#utility.yul\":23595:23725   */\n    tag_490:\n        /* \"#utility.yul\":23360:23732   */\n      swap3\n      swap2\n      pop\n      pop\n      jump\t// out\n        /* \"#utility.yul\":23738:23908   */\n    tag_254:\n        /* \"#utility.yul\":23878:23900   */\n      0x496e73756666696369656e742062616c616e6365000000000000000000000000\n        /* \"#utility.yul\":23874:23875   */\n      0x00\n        /* \"#utility.yul\":23866:23872   */\n      dup3\n        /* \"#utility.yul\":23862:23876   */\n      add\n        /* \"#utility.yul\":23855:23901   */\n      mstore\n        /* \"#utility.yul\":23738:23908   */\n      pop\n      jump\t// out\n        /* \"#utility.yul\":23914:24280   */\n    tag_255:\n        /* \"#utility.yul\":24056:24059   */\n      0x00\n        /* \"#utility.yul\":24077:24144   */\n      tag_494\n        /* \"#utility.yul\":24141:24143   */\n      0x14\n        /* \"#utility.yul\":24136:24139   */\n      dup4\n        /* \"#utility.yul\":24077:24144   */\n      tag_196\n      jump\t// in\n    tag_494:\n        /* \"#utility.yul\":24070:24144   */\n      swap2\n      pop\n        /* \"#utility.yul\":24153:24246   */\n      tag_495\n        /* \"#utility.yul\":24242:24245   */\n      dup3\n        /* \"#utility.yul\":24153:24246   */\n      tag_254\n      jump\t// in\n    tag_495:\n        /* \"#utility.yul\":24271:24273   */\n      0x20\n        /* \"#utility.yul\":24266:24269   */\n      dup3\n        /* \"#utility.yul\":24262:24274   */\n      add\n        /* \"#utility.yul\":24255:24274   */\n      swap1\n      pop\n        /* \"#utility.yul\":23914:24280   */\n      swap2\n      swap1\n      pop\n      jump\t// out\n        /* \"#utility.yul\":24286:24705   */\n    tag_163:\n        /* \"#utility.yul\":24452:24456   */\n      0x00\n        /* \"#utility.yul\":24490:24492   */\n      0x20\n        /* \"#utility.yul\":24479:24488   */\n      dup3\n        /* \"#utility.yul\":24475:24493   */\n      add\n        /* \"#utility.yul\":24467:24493   */\n      swap1\n      pop\n        /* \"#utility.yul\":24539:24548   */\n      dup2\n        /* \"#utility.yul\":24533:24537   */\n      dup2\n        /* \"#utility.yul\":24529:24549   */\n      sub\n        /* \"#utility.yul\":24525:24526   */\n      0x00\n        /* \"#utility.yul\":24514:24523   */\n      dup4\n        /* \"#utility.yul\":24510:24527   */\n      add\n        /* \"#utility.yul\":24503:24550   */\n      mstore\n        /* \"#utility.yul\":24567:24698   */\n      tag_497\n        /* \"#utility.yul\":24693:24697   */\n      dup2\n        /* \"#utility.yul\":24567:24698   */\n      tag_255\n      jump\t// in\n    tag_497:\n        /* \"#utility.yul\":24559:24698   */\n      swap1\n      pop\n        /* \"#utility.yul\":24286:24705   */\n      swap2\n      swap1\n      pop\n      jump\t// out\n\n    auxdata: 0xa26469706673582212204d4040d6cae2453778dca557fda862cbcf2d4558943f21ea9533f2514ed59fc064736f6c634300081a0033\n}\n",
				"bytecode": {
					"linkReferences": {},
					"object": "608060405234801561000f575f80fd5b506040518060400160405280600681526020017f53686168696400000000000000000000000000000000000000000000000000008152506001908161005491906102e1565b503360025f6101000a81548173ffffffffffffffffffffffffffffffffffffffff021916908373ffffffffffffffffffffffffffffffffffffffff1602179055505f80819055505f6007819055506103b0565b5f81519050919050565b7f4e487b71000000000000000000000000000000000000000000000000000000005f52604160045260245ffd5b7f4e487b71000000000000000000000000000000000000000000000000000000005f52602260045260245ffd5b5f600282049050600182168061012257607f821691505b602082108103610135576101346100de565b5b50919050565b5f819050815f5260205f209050919050565b5f6020601f8301049050919050565b5f82821b905092915050565b5f600883026101977fffffffffffffffffffffffffffffffffffffffffffffffffffffffffffffffff8261015c565b6101a1868361015c565b95508019841693508086168417925050509392505050565b5f819050919050565b5f819050919050565b5f6101e56101e06101db846101b9565b6101c2565b6101b9565b9050919050565b5f819050919050565b6101fe836101cb565b61021261020a826101ec565b848454610168565b825550505050565b5f90565b61022661021a565b6102318184846101f5565b505050565b5b81811015610254576102495f8261021e565b600181019050610237565b5050565b601f8211156102995761026a8161013b565b6102738461014d565b81016020851015610282578190505b61029661028e8561014d565b830182610236565b50505b505050565b5f82821c905092915050565b5f6102b95f198460080261029e565b1980831691505092915050565b5f6102d183836102aa565b9150826002028217905092915050565b6102ea826100a7565b67ffffffffffffffff811115610303576103026100b1565b5b61030d825461010b565b610318828285610258565b5f60209050601f831160018114610349575f8415610337578287015190505b61034185826102c6565b8655506103a8565b601f1984166103578661013b565b5f5b8281101561037e57848901518255600182019150602085019450602081019050610359565b8683101561039b5784890151610397601f8916826102aa565b8355505b6001600288020188555050505b505050505050565b611a22806103bd5f395ff3fe6080604052600436106100c1575f3560e01c8063811c18c71161007e5780639b9d326d116100585780639b9d326d1461024f5780639c46b3a514610279578063c198bdb9146102a1578063c29b2f20146102bd576100c1565b8063811c18c7146101e35780639023f273146101ff57806396a9ddf914610227576100c1565b80633e9491a2146100c5578063570aea8a146100ef57806357a096a11461011957806365ac23201461015557806376987ce61461017f5780637a05c6cf146101a7575b5f80fd5b3480156100d0575f80fd5b506100d96102e7565b6040516100e69190610ddd565b60405180910390f35b3480156100fa575f80fd5b506101036102ec565b6040516101109190610e0e565b60405180910390f35b348015610124575f80fd5b5061013f600480360381019061013a9190610e62565b6102f5565b60405161014c9190610ddd565b60405180910390f35b348015610160575f80fd5b5061016961030f565b6040516101769190610efd565b60405180910390f35b34801561018a575f80fd5b506101a560048036038101906101a09190610f47565b61039b565b005b3480156101b2575f80fd5b506101cd60048036038101906101c89190610fdf565b610467565b6040516101da9190610ddd565b60405180910390f35b6101fd60048036038101906101f89190610e62565b6104ad565b005b34801561020a575f80fd5b5061022560048036038101906102209190611136565b61072d565b005b348015610232575f80fd5b5061024d60048036038101906102489190610f47565b610876565b005b34801561025a575f80fd5b50610263610942565b6040516102709190610e0e565b60405180910390f35b348015610284575f80fd5b5061029f600480360381019061029a9190610f47565b610948565b005b6102bb60048036038101906102b69190610f47565b610a04565b005b3480156102c8575f80fd5b506102d1610cb2565b6040516102de9190611336565b60405180910390f35b5f5481565b5f600754905090565b5f60045f8381526020019081526020015f20549050919050565b6001805461031c90611383565b80601f016020809104026020016040519081016040528092919081815260200182805461034890611383565b80156103935780601f1061036a57610100808354040283529160200191610393565b820191905f5260205f20905b81548152906001019060200180831161037657829003601f168201915b505050505081565b60025f9054906101000a900473ffffffffffffffffffffffffffffffffffffffff1673ffffffffffffffffffffffffffffffffffffffff163373ffffffffffffffffffffffffffffffffffffffff161461042a576040517f08c379a0000000000000000000000000000000000000000000000000000000008152600401610421906113fd565b60405180910390fd5b806006838154811061043f5761043e61141b565b5b905f5260205f2090600502016002015f82825461045c9190611475565b925050819055505050565b5f60035f8373ffffffffffffffffffffffffffffffffffffffff1673ffffffffffffffffffffffffffffffffffffffff1681526020019081526020015f20549050919050565b60025f9054906101000a900473ffffffffffffffffffffffffffffffffffffffff1673ffffffffffffffffffffffffffffffffffffffff163373ffffffffffffffffffffffffffffffffffffffff161461053c576040517f08c379a0000000000000000000000000000000000000000000000000000000008152600401610533906113fd565b60405180910390fd5b5f600582815481106105515761055061141b565b5b905f5260205f2090600302015f015f9054906101000a900473ffffffffffffffffffffffffffffffffffffffff1690505f600583815481106105965761059561141b565b5b905f5260205f2090600302016001015490505f600584815481106105bd576105bc61141b565b5b905f5260205f2090600302016002015490505f81600684815481106105e5576105e461141b565b5b905f5260205f209060050201600301546105ff91906114b6565b905080341215610644576040517f08c379a000000000000000000000000000000000000000000000000000000000815260040161063b90611576565b60405180910390fd5b5f8473ffffffffffffffffffffffffffffffffffffffff1682604051610669906115c1565b5f6040518083038185875af1925050503d805f81146106a3576040519150601f19603f3d011682016040523d82523d5f602084013e6106a8565b606091505b50509050806106ec576040517f08c379a00000000000000000000000000000000000000000000000000000000081526004016106e39061161f565b60405180910390fd5b82600685815481106107015761070061141b565b5b905f5260205f2090600502016002015f82825461071e9190611475565b92505081905550505050505050565b60025f9054906101000a900473ffffffffffffffffffffffffffffffffffffffff1673ffffffffffffffffffffffffffffffffffffffff163373ffffffffffffffffffffffffffffffffffffffff16146107bc576040517f08c379a00000000000000000000000000000000000000000000000000000000081526004016107b3906113fd565b60405180910390fd5b5f60068054905090505f6040518060a001604052808381526020018681526020018581526020018481526020015f8152509050600681908060018154018082558091505060019003905f5260205f2090600502015f909190919091505f820151815f0155602082015181600101908161083591906117da565b506040820151816002015560608201518160030155608082015181600401555050600160075f82825461086891906118a9565b925050819055505050505050565b60025f9054906101000a900473ffffffffffffffffffffffffffffffffffffffff1673ffffffffffffffffffffffffffffffffffffffff163373ffffffffffffffffffffffffffffffffffffffff1614610905576040517f08c379a00000000000000000000000000000000000000000000000000000000081526004016108fc906113fd565b60405180910390fd5b806006838154811061091a5761091961141b565b5b905f5260205f2090600502016003015f8282546109379190611475565b925050819055505050565b60075481565b5f60405180606001604052803373ffffffffffffffffffffffffffffffffffffffff168152602001848152602001838152509050600581908060018154018082558091505060019003905f5260205f2090600302015f909190919091505f820151815f015f6101000a81548173ffffffffffffffffffffffffffffffffffffffff021916908373ffffffffffffffffffffffffffffffffffffffff16021790555060208201518160010155604082015181600201555050505050565b8060068381548110610a1957610a1861141b565b5b905f5260205f209060050201600201541215610a6a576040517f08c379a0000000000000000000000000000000000000000000000000000000008152600401610a6190611926565b60405180910390fd5b8060068381548110610a7f57610a7e61141b565b5b905f5260205f2090600502016002015f828254610a9c9190611944565b925050819055505f8160068481548110610ab957610ab861141b565b5b905f5260205f20906005020160030154610ad391906114b6565b905080341215610b18576040517f08c379a0000000000000000000000000000000000000000000000000000000008152600401610b0f906119ce565b60405180910390fd5b5f60025f9054906101000a900473ffffffffffffffffffffffffffffffffffffffff1673ffffffffffffffffffffffffffffffffffffffff1682604051610b5e906115c1565b5f6040518083038185875af1925050503d805f8114610b98576040519150601f19603f3d011682016040523d82523d5f602084013e610b9d565b606091505b5050905080610be1576040517f08c379a0000000000000000000000000000000000000000000000000000000008152600401610bd89061161f565b60405180910390fd5b815f80828254610bf19190611475565b92505081905550600160068581548110610c0e57610c0d61141b565b5b905f5260205f2090600502016004015f828254610c2b91906118a9565b925050819055508160035f3373ffffffffffffffffffffffffffffffffffffffff1673ffffffffffffffffffffffffffffffffffffffff1681526020019081526020015f205f828254610c7e9190611475565b925050819055508260045f8681526020019081526020015f205f828254610ca59190611475565b9250508190555050505050565b60606006805480602002602001604051908101604052809291908181526020015f905b82821015610dbc578382905f5260205f2090600502016040518060a00160405290815f8201548152602001600182018054610d0f90611383565b80601f0160208091040260200160405190810160405280929190818152602001828054610d3b90611383565b8015610d865780601f10610d5d57610100808354040283529160200191610d86565b820191905f5260205f20905b815481529060010190602001808311610d6957829003601f168201915b50505050508152602001600282015481526020016003820154815260200160048201548152505081526020019060010190610cd5565b50505050905090565b5f819050919050565b610dd781610dc5565b82525050565b5f602082019050610df05f830184610dce565b92915050565b5f819050919050565b610e0881610df6565b82525050565b5f602082019050610e215f830184610dff565b92915050565b5f604051905090565b5f80fd5b5f80fd5b610e4181610df6565b8114610e4b575f80fd5b50565b5f81359050610e5c81610e38565b92915050565b5f60208284031215610e7757610e76610e30565b5b5f610e8484828501610e4e565b91505092915050565b5f81519050919050565b5f82825260208201905092915050565b8281835e5f83830152505050565b5f601f19601f8301169050919050565b5f610ecf82610e8d565b610ed98185610e97565b9350610ee9818560208601610ea7565b610ef281610eb5565b840191505092915050565b5f6020820190508181035f830152610f158184610ec5565b905092915050565b610f2681610dc5565b8114610f30575f80fd5b50565b5f81359050610f4181610f1d565b92915050565b5f8060408385031215610f5d57610f5c610e30565b5b5f610f6a85828601610e4e565b9250506020610f7b85828601610f33565b9150509250929050565b5f73ffffffffffffffffffffffffffffffffffffffff82169050919050565b5f610fae82610f85565b9050919050565b610fbe81610fa4565b8114610fc8575f80fd5b50565b5f81359050610fd981610fb5565b92915050565b5f60208284031215610ff457610ff3610e30565b5b5f61100184828501610fcb565b91505092915050565b5f80fd5b5f80fd5b7f4e487b71000000000000000000000000000000000000000000000000000000005f52604160045260245ffd5b61104882610eb5565b810181811067ffffffffffffffff8211171561106757611066611012565b5b80604052505050565b5f611079610e27565b9050611085828261103f565b919050565b5f67ffffffffffffffff8211156110a4576110a3611012565b5b6110ad82610eb5565b9050602081019050919050565b828183375f83830152505050565b5f6110da6110d58461108a565b611070565b9050828152602081018484840111156110f6576110f561100e565b5b6111018482856110ba565b509392505050565b5f82601f83011261111d5761111c61100a565b5b813561112d8482602086016110c8565b91505092915050565b5f805f6060848603121561114d5761114c610e30565b5b5f84013567ffffffffffffffff81111561116a57611169610e34565b5b61117686828701611109565b935050602061118786828701610f33565b925050604061119886828701610f33565b9150509250925092565b5f81519050919050565b5f82825260208201905092915050565b5f819050602082019050919050565b6111d481610df6565b82525050565b5f82825260208201905092915050565b5f6111f482610e8d565b6111fe81856111da565b935061120e818560208601610ea7565b61121781610eb5565b840191505092915050565b61122b81610dc5565b82525050565b5f60a083015f8301516112465f8601826111cb565b506020830151848203602086015261125e82826111ea565b91505060408301516112736040860182611222565b5060608301516112866060860182611222565b50608083015161129960808601826111cb565b508091505092915050565b5f6112af8383611231565b905092915050565b5f602082019050919050565b5f6112cd826111a2565b6112d781856111ac565b9350836020820285016112e9856111bc565b805f5b85811015611324578484038952815161130585826112a4565b9450611310836112b7565b925060208a019950506001810190506112ec565b50829750879550505050505092915050565b5f6020820190508181035f83015261134e81846112c3565b905092915050565b7f4e487b71000000000000000000000000000000000000000000000000000000005f52602260045260245ffd5b5f600282049050600182168061139a57607f821691505b6020821081036113ad576113ac611356565b5b50919050565b7f596f7520617265206e6f7420617574686f72697a6564000000000000000000005f82015250565b5f6113e7601683610e97565b91506113f2826113b3565b602082019050919050565b5f6020820190508181035f830152611414816113db565b9050919050565b7f4e487b71000000000000000000000000000000000000000000000000000000005f52603260045260245ffd5b7f4e487b71000000000000000000000000000000000000000000000000000000005f52601160045260245ffd5b5f61147f82610dc5565b915061148a83610dc5565b92508282019050828112155f8312168382125f8412151617156114b0576114af611448565b5b92915050565b5f6114c082610dc5565b91506114cb83610dc5565b92508282026114d981610dc5565b91507f800000000000000000000000000000000000000000000000000000000000000084145f841216156115105761150f611448565b5b828205841483151761152557611524611448565b5b5092915050565b7f496e73756666696369656e742045746865722073656e740000000000000000005f82015250565b5f611560601783610e97565b915061156b8261152c565b602082019050919050565b5f6020820190508181035f83015261158d81611554565b9050919050565b5f81905092915050565b50565b5f6115ac5f83611594565b91506115b78261159e565b5f82019050919050565b5f6115cb826115a1565b9150819050919050565b7f4661696c656420746f2073656e642045746865720000000000000000000000005f82015250565b5f611609601483610e97565b9150611614826115d5565b602082019050919050565b5f6020820190508181035f830152611636816115fd565b9050919050565b5f819050815f5260205f209050919050565b5f6020601f8301049050919050565b5f82821b905092915050565b5f600883026116997fffffffffffffffffffffffffffffffffffffffffffffffffffffffffffffffff8261165e565b6116a3868361165e565b95508019841693508086168417925050509392505050565b5f819050919050565b5f6116de6116d96116d484610df6565b6116bb565b610df6565b9050919050565b5f819050919050565b6116f7836116c4565b61170b611703826116e5565b84845461166a565b825550505050565b5f90565b61171f611713565b61172a8184846116ee565b505050565b5b8181101561174d576117425f82611717565b600181019050611730565b5050565b601f821115611792576117638161163d565b61176c8461164f565b8101602085101561177b578190505b61178f6117878561164f565b83018261172f565b50505b505050565b5f82821c905092915050565b5f6117b25f1984600802611797565b1980831691505092915050565b5f6117ca83836117a3565b9150826002028217905092915050565b6117e382610e8d565b67ffffffffffffffff8111156117fc576117fb611012565b5b6118068254611383565b611811828285611751565b5f60209050601f831160018114611842575f8415611830578287015190505b61183a85826117bf565b8655506118a1565b601f1984166118508661163d565b5f5b8281101561187757848901518255600182019150602085019450602081019050611852565b868310156118945784890151611890601f8916826117a3565b8355505b6001600288020188555050505b505050505050565b5f6118b382610df6565b91506118be83610df6565b92508282019050808211156118d6576118d5611448565b5b92915050565b7f4f7574206f662073746f636b00000000000000000000000000000000000000005f82015250565b5f611910600c83610e97565b915061191b826118dc565b602082019050919050565b5f6020820190508181035f83015261193d81611904565b9050919050565b5f61194e82610dc5565b915061195983610dc5565b925082820390508181125f8412168282135f85121516171561197e5761197d611448565b5b92915050565b7f496e73756666696369656e742062616c616e63650000000000000000000000005f82015250565b5f6119b8601483610e97565b91506119c382611984565b602082019050919050565b5f6020820190508181035f8301526119e5816119ac565b905091905056fea26469706673582212204d4040d6cae2453778dca557fda862cbcf2d4558943f21ea9533f2514ed59fc064736f6c634300081a0033",
					"opcodes": "PUSH1 0x80 PUSH1 0x40 MSTORE CALLVALUE DUP1 ISZERO PUSH2 0xF JUMPI PUSH0 DUP1 REVERT JUMPDEST POP PUSH1 0x40 MLOAD DUP1 PUSH1 0x40 ADD PUSH1 0x40 MSTORE DUP1 PUSH1 0x6 DUP2 MSTORE PUSH1 0x20 ADD PUSH32 0x5368616869640000000000000000000000000000000000000000000000000000 DUP2 MSTORE POP PUSH1 0x1 SWAP1 DUP2 PUSH2 0x54 SWAP2 SWAP1 PUSH2 0x2E1 JUMP JUMPDEST POP CALLER PUSH1 0x2 PUSH0 PUSH2 0x100 EXP DUP2 SLOAD DUP2 PUSH20 0xFFFFFFFFFFFFFFFFFFFFFFFFFFFFFFFFFFFFFFFF MUL NOT AND SWAP1 DUP4 PUSH20 0xFFFFFFFFFFFFFFFFFFFFFFFFFFFFFFFFFFFFFFFF AND MUL OR SWAP1 SSTORE POP PUSH0 DUP1 DUP2 SWAP1 SSTORE POP PUSH0 PUSH1 0x7 DUP2 SWAP1 SSTORE POP PUSH2 0x3B0 JUMP JUMPDEST PUSH0 DUP2 MLOAD SWAP1 POP SWAP2 SWAP1 POP JUMP JUMPDEST PUSH32 0x4E487B7100000000000000000000000000000000000000000000000000000000 PUSH0 MSTORE PUSH1 0x41 PUSH1 0x4 MSTORE PUSH1 0x24 PUSH0 REVERT JUMPDEST PUSH32 0x4E487B7100000000000000000000000000000000000000000000000000000000 PUSH0 MSTORE PUSH1 0x22 PUSH1 0x4 MSTORE PUSH1 0x24 PUSH0 REVERT JUMPDEST PUSH0 PUSH1 0x2 DUP3 DIV SWAP1 POP PUSH1 0x1 DUP3 AND DUP1 PUSH2 0x122 JUMPI PUSH1 0x7F DUP3 AND SWAP2 POP JUMPDEST PUSH1 0x20 DUP3 LT DUP2 SUB PUSH2 0x135 JUMPI PUSH2 0x134 PUSH2 0xDE JUMP JUMPDEST JUMPDEST POP SWAP2 SWAP1 POP JUMP JUMPDEST PUSH0 DUP2 SWAP1 POP DUP2 PUSH0 MSTORE PUSH1 0x20 PUSH0 KECCAK256 SWAP1 POP SWAP2 SWAP1 POP JUMP JUMPDEST PUSH0 PUSH1 0x20 PUSH1 0x1F DUP4 ADD DIV SWAP1 POP SWAP2 SWAP1 POP JUMP JUMPDEST PUSH0 DUP3 DUP3 SHL SWAP1 POP SWAP3 SWAP2 POP POP JUMP JUMPDEST PUSH0 PUSH1 0x8 DUP4 MUL PUSH2 0x197 PUSH32 0xFFFFFFFFFFFFFFFFFFFFFFFFFFFFFFFFFFFFFFFFFFFFFFFFFFFFFFFFFFFFFFFF DUP3 PUSH2 0x15C JUMP JUMPDEST PUSH2 0x1A1 DUP7 DUP4 PUSH2 0x15C JUMP JUMPDEST SWAP6 POP DUP1 NOT DUP5 AND SWAP4 POP DUP1 DUP7 AND DUP5 OR SWAP3 POP POP POP SWAP4 SWAP3 POP POP POP JUMP JUMPDEST PUSH0 DUP2 SWAP1 POP SWAP2 SWAP1 POP JUMP JUMPDEST PUSH0 DUP2 SWAP1 POP SWAP2 SWAP1 POP JUMP JUMPDEST PUSH0 PUSH2 0x1E5 PUSH2 0x1E0 PUSH2 0x1DB DUP5 PUSH2 0x1B9 JUMP JUMPDEST PUSH2 0x1C2 JUMP JUMPDEST PUSH2 0x1B9 JUMP JUMPDEST SWAP1 POP SWAP2 SWAP1 POP JUMP JUMPDEST PUSH0 DUP2 SWAP1 POP SWAP2 SWAP1 POP JUMP JUMPDEST PUSH2 0x1FE DUP4 PUSH2 0x1CB JUMP JUMPDEST PUSH2 0x212 PUSH2 0x20A DUP3 PUSH2 0x1EC JUMP JUMPDEST DUP5 DUP5 SLOAD PUSH2 0x168 JUMP JUMPDEST DUP3 SSTORE POP POP POP POP JUMP JUMPDEST PUSH0 SWAP1 JUMP JUMPDEST PUSH2 0x226 PUSH2 0x21A JUMP JUMPDEST PUSH2 0x231 DUP2 DUP5 DUP5 PUSH2 0x1F5 JUMP JUMPDEST POP POP POP JUMP JUMPDEST JUMPDEST DUP2 DUP2 LT ISZERO PUSH2 0x254 JUMPI PUSH2 0x249 PUSH0 DUP3 PUSH2 0x21E JUMP JUMPDEST PUSH1 0x1 DUP2 ADD SWAP1 POP PUSH2 0x237 JUMP JUMPDEST POP POP JUMP JUMPDEST PUSH1 0x1F DUP3 GT ISZERO PUSH2 0x299 JUMPI PUSH2 0x26A DUP2 PUSH2 0x13B JUMP JUMPDEST PUSH2 0x273 DUP5 PUSH2 0x14D JUMP JUMPDEST DUP2 ADD PUSH1 0x20 DUP6 LT ISZERO PUSH2 0x282 JUMPI DUP2 SWAP1 POP JUMPDEST PUSH2 0x296 PUSH2 0x28E DUP6 PUSH2 0x14D JUMP JUMPDEST DUP4 ADD DUP3 PUSH2 0x236 JUMP JUMPDEST POP POP JUMPDEST POP POP POP JUMP JUMPDEST PUSH0 DUP3 DUP3 SHR SWAP1 POP SWAP3 SWAP2 POP POP JUMP JUMPDEST PUSH0 PUSH2 0x2B9 PUSH0 NOT DUP5 PUSH1 0x8 MUL PUSH2 0x29E JUMP JUMPDEST NOT DUP1 DUP4 AND SWAP2 POP POP SWAP3 SWAP2 POP POP JUMP JUMPDEST PUSH0 PUSH2 0x2D1 DUP4 DUP4 PUSH2 0x2AA JUMP JUMPDEST SWAP2 POP DUP3 PUSH1 0x2 MUL DUP3 OR SWAP1 POP SWAP3 SWAP2 POP POP JUMP JUMPDEST PUSH2 0x2EA DUP3 PUSH2 0xA7 JUMP JUMPDEST PUSH8 0xFFFFFFFFFFFFFFFF DUP2 GT ISZERO PUSH2 0x303 JUMPI PUSH2 0x302 PUSH2 0xB1 JUMP JUMPDEST JUMPDEST PUSH2 0x30D DUP3 SLOAD PUSH2 0x10B JUMP JUMPDEST PUSH2 0x318 DUP3 DUP3 DUP6 PUSH2 0x258 JUMP JUMPDEST PUSH0 PUSH1 0x20 SWAP1 POP PUSH1 0x1F DUP4 GT PUSH1 0x1 DUP2 EQ PUSH2 0x349 JUMPI PUSH0 DUP5 ISZERO PUSH2 0x337 JUMPI DUP3 DUP8 ADD MLOAD SWAP1 POP JUMPDEST PUSH2 0x341 DUP6 DUP3 PUSH2 0x2C6 JUMP JUMPDEST DUP7 SSTORE POP PUSH2 0x3A8 JUMP JUMPDEST PUSH1 0x1F NOT DUP5 AND PUSH2 0x357 DUP7 PUSH2 0x13B JUMP JUMPDEST PUSH0 JUMPDEST DUP3 DUP2 LT ISZERO PUSH2 0x37E JUMPI DUP5 DUP10 ADD MLOAD DUP3 SSTORE PUSH1 0x1 DUP3 ADD SWAP2 POP PUSH1 0x20 DUP6 ADD SWAP5 POP PUSH1 0x20 DUP2 ADD SWAP1 POP PUSH2 0x359 JUMP JUMPDEST DUP7 DUP4 LT ISZERO PUSH2 0x39B JUMPI DUP5 DUP10 ADD MLOAD PUSH2 0x397 PUSH1 0x1F DUP10 AND DUP3 PUSH2 0x2AA JUMP JUMPDEST DUP4 SSTORE POP JUMPDEST PUSH1 0x1 PUSH1 0x2 DUP9 MUL ADD DUP9 SSTORE POP POP POP JUMPDEST POP POP POP POP POP POP JUMP JUMPDEST PUSH2 0x1A22 DUP1 PUSH2 0x3BD PUSH0 CODECOPY PUSH0 RETURN INVALID PUSH1 0x80 PUSH1 0x40 MSTORE PUSH1 0x4 CALLDATASIZE LT PUSH2 0xC1 JUMPI PUSH0 CALLDATALOAD PUSH1 0xE0 SHR DUP1 PUSH4 0x811C18C7 GT PUSH2 0x7E JUMPI DUP1 PUSH4 0x9B9D326D GT PUSH2 0x58 JUMPI DUP1 PUSH4 0x9B9D326D EQ PUSH2 0x24F JUMPI DUP1 PUSH4 0x9C46B3A5 EQ PUSH2 0x279 JUMPI DUP1 PUSH4 0xC198BDB9 EQ PUSH2 0x2A1 JUMPI DUP1 PUSH4 0xC29B2F20 EQ PUSH2 0x2BD JUMPI PUSH2 0xC1 JUMP JUMPDEST DUP1 PUSH4 0x811C18C7 EQ PUSH2 0x1E3 JUMPI DUP1 PUSH4 0x9023F273 EQ PUSH2 0x1FF JUMPI DUP1 PUSH4 0x96A9DDF9 EQ PUSH2 0x227 JUMPI PUSH2 0xC1 JUMP JUMPDEST DUP1 PUSH4 0x3E9491A2 EQ PUSH2 0xC5 JUMPI DUP1 PUSH4 0x570AEA8A EQ PUSH2 0xEF JUMPI DUP1 PUSH4 0x57A096A1 EQ PUSH2 0x119 JUMPI DUP1 PUSH4 0x65AC2320 EQ PUSH2 0x155 JUMPI DUP1 PUSH4 0x76987CE6 EQ PUSH2 0x17F JUMPI DUP1 PUSH4 0x7A05C6CF EQ PUSH2 0x1A7 JUMPI JUMPDEST PUSH0 DUP1 REVERT JUMPDEST CALLVALUE DUP1 ISZERO PUSH2 0xD0 JUMPI PUSH0 DUP1 REVERT JUMPDEST POP PUSH2 0xD9 PUSH2 0x2E7 JUMP JUMPDEST PUSH1 0x40 MLOAD PUSH2 0xE6 SWAP2 SWAP1 PUSH2 0xDDD JUMP JUMPDEST PUSH1 0x40 MLOAD DUP1 SWAP2 SUB SWAP1 RETURN JUMPDEST CALLVALUE DUP1 ISZERO PUSH2 0xFA JUMPI PUSH0 DUP1 REVERT JUMPDEST POP PUSH2 0x103 PUSH2 0x2EC JUMP JUMPDEST PUSH1 0x40 MLOAD PUSH2 0x110 SWAP2 SWAP1 PUSH2 0xE0E JUMP JUMPDEST PUSH1 0x40 MLOAD DUP1 SWAP2 SUB SWAP1 RETURN JUMPDEST CALLVALUE DUP1 ISZERO PUSH2 0x124 JUMPI PUSH0 DUP1 REVERT JUMPDEST POP PUSH2 0x13F PUSH1 0x4 DUP1 CALLDATASIZE SUB DUP2 ADD SWAP1 PUSH2 0x13A SWAP2 SWAP1 PUSH2 0xE62 JUMP JUMPDEST PUSH2 0x2F5 JUMP JUMPDEST PUSH1 0x40 MLOAD PUSH2 0x14C SWAP2 SWAP1 PUSH2 0xDDD JUMP JUMPDEST PUSH1 0x40 MLOAD DUP1 SWAP2 SUB SWAP1 RETURN JUMPDEST CALLVALUE DUP1 ISZERO PUSH2 0x160 JUMPI PUSH0 DUP1 REVERT JUMPDEST POP PUSH2 0x169 PUSH2 0x30F JUMP JUMPDEST PUSH1 0x40 MLOAD PUSH2 0x176 SWAP2 SWAP1 PUSH2 0xEFD JUMP JUMPDEST PUSH1 0x40 MLOAD DUP1 SWAP2 SUB SWAP1 RETURN JUMPDEST CALLVALUE DUP1 ISZERO PUSH2 0x18A JUMPI PUSH0 DUP1 REVERT JUMPDEST POP PUSH2 0x1A5 PUSH1 0x4 DUP1 CALLDATASIZE SUB DUP2 ADD SWAP1 PUSH2 0x1A0 SWAP2 SWAP1 PUSH2 0xF47 JUMP JUMPDEST PUSH2 0x39B JUMP JUMPDEST STOP JUMPDEST CALLVALUE DUP1 ISZERO PUSH2 0x1B2 JUMPI PUSH0 DUP1 REVERT JUMPDEST POP PUSH2 0x1CD PUSH1 0x4 DUP1 CALLDATASIZE SUB DUP2 ADD SWAP1 PUSH2 0x1C8 SWAP2 SWAP1 PUSH2 0xFDF JUMP JUMPDEST PUSH2 0x467 JUMP JUMPDEST PUSH1 0x40 MLOAD PUSH2 0x1DA SWAP2 SWAP1 PUSH2 0xDDD JUMP JUMPDEST PUSH1 0x40 MLOAD DUP1 SWAP2 SUB SWAP1 RETURN JUMPDEST PUSH2 0x1FD PUSH1 0x4 DUP1 CALLDATASIZE SUB DUP2 ADD SWAP1 PUSH2 0x1F8 SWAP2 SWAP1 PUSH2 0xE62 JUMP JUMPDEST PUSH2 0x4AD JUMP JUMPDEST STOP JUMPDEST CALLVALUE DUP1 ISZERO PUSH2 0x20A JUMPI PUSH0 DUP1 REVERT JUMPDEST POP PUSH2 0x225 PUSH1 0x4 DUP1 CALLDATASIZE SUB DUP2 ADD SWAP1 PUSH2 0x220 SWAP2 SWAP1 PUSH2 0x1136 JUMP JUMPDEST PUSH2 0x72D JUMP JUMPDEST STOP JUMPDEST CALLVALUE DUP1 ISZERO PUSH2 0x232 JUMPI PUSH0 DUP1 REVERT JUMPDEST POP PUSH2 0x24D PUSH1 0x4 DUP1 CALLDATASIZE SUB DUP2 ADD SWAP1 PUSH2 0x248 SWAP2 SWAP1 PUSH2 0xF47 JUMP JUMPDEST PUSH2 0x876 JUMP JUMPDEST STOP JUMPDEST CALLVALUE DUP1 ISZERO PUSH2 0x25A JUMPI PUSH0 DUP1 REVERT JUMPDEST POP PUSH2 0x263 PUSH2 0x942 JUMP JUMPDEST PUSH1 0x40 MLOAD PUSH2 0x270 SWAP2 SWAP1 PUSH2 0xE0E JUMP JUMPDEST PUSH1 0x40 MLOAD DUP1 SWAP2 SUB SWAP1 RETURN JUMPDEST CALLVALUE DUP1 ISZERO PUSH2 0x284 JUMPI PUSH0 DUP1 REVERT JUMPDEST POP PUSH2 0x29F PUSH1 0x4 DUP1 CALLDATASIZE SUB DUP2 ADD SWAP1 PUSH2 0x29A SWAP2 SWAP1 PUSH2 0xF47 JUMP JUMPDEST PUSH2 0x948 JUMP JUMPDEST STOP JUMPDEST PUSH2 0x2BB PUSH1 0x4 DUP1 CALLDATASIZE SUB DUP2 ADD SWAP1 PUSH2 0x2B6 SWAP2 SWAP1 PUSH2 0xF47 JUMP JUMPDEST PUSH2 0xA04 JUMP JUMPDEST STOP JUMPDEST CALLVALUE DUP1 ISZERO PUSH2 0x2C8 JUMPI PUSH0 DUP1 REVERT JUMPDEST POP PUSH2 0x2D1 PUSH2 0xCB2 JUMP JUMPDEST PUSH1 0x40 MLOAD PUSH2 0x2DE SWAP2 SWAP1 PUSH2 0x1336 JUMP JUMPDEST PUSH1 0x40 MLOAD DUP1 SWAP2 SUB SWAP1 RETURN JUMPDEST PUSH0 SLOAD DUP2 JUMP JUMPDEST PUSH0 PUSH1 0x7 SLOAD SWAP1 POP SWAP1 JUMP JUMPDEST PUSH0 PUSH1 0x4 PUSH0 DUP4 DUP2 MSTORE PUSH1 0x20 ADD SWAP1 DUP2 MSTORE PUSH1 0x20 ADD PUSH0 KECCAK256 SLOAD SWAP1 POP SWAP2 SWAP1 POP JUMP JUMPDEST PUSH1 0x1 DUP1 SLOAD PUSH2 0x31C SWAP1 PUSH2 0x1383 JUMP JUMPDEST DUP1 PUSH1 0x1F ADD PUSH1 0x20 DUP1 SWAP2 DIV MUL PUSH1 0x20 ADD PUSH1 0x40 MLOAD SWAP1 DUP2 ADD PUSH1 0x40 MSTORE DUP1 SWAP3 SWAP2 SWAP1 DUP2 DUP2 MSTORE PUSH1 0x20 ADD DUP3 DUP1 SLOAD PUSH2 0x348 SWAP1 PUSH2 0x1383 JUMP JUMPDEST DUP1 ISZERO PUSH2 0x393 JUMPI DUP1 PUSH1 0x1F LT PUSH2 0x36A JUMPI PUSH2 0x100 DUP1 DUP4 SLOAD DIV MUL DUP4 MSTORE SWAP2 PUSH1 0x20 ADD SWAP2 PUSH2 0x393 JUMP JUMPDEST DUP3 ADD SWAP2 SWAP1 PUSH0 MSTORE PUSH1 0x20 PUSH0 KECCAK256 SWAP1 JUMPDEST DUP2 SLOAD DUP2 MSTORE SWAP1 PUSH1 0x1 ADD SWAP1 PUSH1 0x20 ADD DUP1 DUP4 GT PUSH2 0x376 JUMPI DUP3 SWAP1 SUB PUSH1 0x1F AND DUP3 ADD SWAP2 JUMPDEST POP POP POP POP POP DUP2 JUMP JUMPDEST PUSH1 0x2 PUSH0 SWAP1 SLOAD SWAP1 PUSH2 0x100 EXP SWAP1 DIV PUSH20 0xFFFFFFFFFFFFFFFFFFFFFFFFFFFFFFFFFFFFFFFF AND PUSH20 0xFFFFFFFFFFFFFFFFFFFFFFFFFFFFFFFFFFFFFFFF AND CALLER PUSH20 0xFFFFFFFFFFFFFFFFFFFFFFFFFFFFFFFFFFFFFFFF AND EQ PUSH2 0x42A JUMPI PUSH1 0x40 MLOAD PUSH32 0x8C379A000000000000000000000000000000000000000000000000000000000 DUP2 MSTORE PUSH1 0x4 ADD PUSH2 0x421 SWAP1 PUSH2 0x13FD JUMP JUMPDEST PUSH1 0x40 MLOAD DUP1 SWAP2 SUB SWAP1 REVERT JUMPDEST DUP1 PUSH1 0x6 DUP4 DUP2 SLOAD DUP2 LT PUSH2 0x43F JUMPI PUSH2 0x43E PUSH2 0x141B JUMP JUMPDEST JUMPDEST SWAP1 PUSH0 MSTORE PUSH1 0x20 PUSH0 KECCAK256 SWAP1 PUSH1 0x5 MUL ADD PUSH1 0x2 ADD PUSH0 DUP3 DUP3 SLOAD PUSH2 0x45C SWAP2 SWAP1 PUSH2 0x1475 JUMP JUMPDEST SWAP3 POP POP DUP2 SWAP1 SSTORE POP POP POP JUMP JUMPDEST PUSH0 PUSH1 0x3 PUSH0 DUP4 PUSH20 0xFFFFFFFFFFFFFFFFFFFFFFFFFFFFFFFFFFFFFFFF AND PUSH20 0xFFFFFFFFFFFFFFFFFFFFFFFFFFFFFFFFFFFFFFFF AND DUP2 MSTORE PUSH1 0x20 ADD SWAP1 DUP2 MSTORE PUSH1 0x20 ADD PUSH0 KECCAK256 SLOAD SWAP1 POP SWAP2 SWAP1 POP JUMP JUMPDEST PUSH1 0x2 PUSH0 SWAP1 SLOAD SWAP1 PUSH2 0x100 EXP SWAP1 DIV PUSH20 0xFFFFFFFFFFFFFFFFFFFFFFFFFFFFFFFFFFFFFFFF AND PUSH20 0xFFFFFFFFFFFFFFFFFFFFFFFFFFFFFFFFFFFFFFFF AND CALLER PUSH20 0xFFFFFFFFFFFFFFFFFFFFFFFFFFFFFFFFFFFFFFFF AND EQ PUSH2 0x53C JUMPI PUSH1 0x40 MLOAD PUSH32 0x8C379A000000000000000000000000000000000000000000000000000000000 DUP2 MSTORE PUSH1 0x4 ADD PUSH2 0x533 SWAP1 PUSH2 0x13FD JUMP JUMPDEST PUSH1 0x40 MLOAD DUP1 SWAP2 SUB SWAP1 REVERT JUMPDEST PUSH0 PUSH1 0x5 DUP3 DUP2 SLOAD DUP2 LT PUSH2 0x551 JUMPI PUSH2 0x550 PUSH2 0x141B JUMP JUMPDEST JUMPDEST SWAP1 PUSH0 MSTORE PUSH1 0x20 PUSH0 KECCAK256 SWAP1 PUSH1 0x3 MUL ADD PUSH0 ADD PUSH0 SWAP1 SLOAD SWAP1 PUSH2 0x100 EXP SWAP1 DIV PUSH20 0xFFFFFFFFFFFFFFFFFFFFFFFFFFFFFFFFFFFFFFFF AND SWAP1 POP PUSH0 PUSH1 0x5 DUP4 DUP2 SLOAD DUP2 LT PUSH2 0x596 JUMPI PUSH2 0x595 PUSH2 0x141B JUMP JUMPDEST JUMPDEST SWAP1 PUSH0 MSTORE PUSH1 0x20 PUSH0 KECCAK256 SWAP1 PUSH1 0x3 MUL ADD PUSH1 0x1 ADD SLOAD SWAP1 POP PUSH0 PUSH1 0x5 DUP5 DUP2 SLOAD DUP2 LT PUSH2 0x5BD JUMPI PUSH2 0x5BC PUSH2 0x141B JUMP JUMPDEST JUMPDEST SWAP1 PUSH0 MSTORE PUSH1 0x20 PUSH0 KECCAK256 SWAP1 PUSH1 0x3 MUL ADD PUSH1 0x2 ADD SLOAD SWAP1 POP PUSH0 DUP2 PUSH1 0x6 DUP5 DUP2 SLOAD DUP2 LT PUSH2 0x5E5 JUMPI PUSH2 0x5E4 PUSH2 0x141B JUMP JUMPDEST JUMPDEST SWAP1 PUSH0 MSTORE PUSH1 0x20 PUSH0 KECCAK256 SWAP1 PUSH1 0x5 MUL ADD PUSH1 0x3 ADD SLOAD PUSH2 0x5FF SWAP2 SWAP1 PUSH2 0x14B6 JUMP JUMPDEST SWAP1 POP DUP1 CALLVALUE SLT ISZERO PUSH2 0x644 JUMPI PUSH1 0x40 MLOAD PUSH32 0x8C379A000000000000000000000000000000000000000000000000000000000 DUP2 MSTORE PUSH1 0x4 ADD PUSH2 0x63B SWAP1 PUSH2 0x1576 JUMP JUMPDEST PUSH1 0x40 MLOAD DUP1 SWAP2 SUB SWAP1 REVERT JUMPDEST PUSH0 DUP5 PUSH20 0xFFFFFFFFFFFFFFFFFFFFFFFFFFFFFFFFFFFFFFFF AND DUP3 PUSH1 0x40 MLOAD PUSH2 0x669 SWAP1 PUSH2 0x15C1 JUMP JUMPDEST PUSH0 PUSH1 0x40 MLOAD DUP1 DUP4 SUB DUP2 DUP6 DUP8 GAS CALL SWAP3 POP POP POP RETURNDATASIZE DUP1 PUSH0 DUP2 EQ PUSH2 0x6A3 JUMPI PUSH1 0x40 MLOAD SWAP2 POP PUSH1 0x1F NOT PUSH1 0x3F RETURNDATASIZE ADD AND DUP3 ADD PUSH1 0x40 MSTORE RETURNDATASIZE DUP3 MSTORE RETURNDATASIZE PUSH0 PUSH1 0x20 DUP5 ADD RETURNDATACOPY PUSH2 0x6A8 JUMP JUMPDEST PUSH1 0x60 SWAP2 POP JUMPDEST POP POP SWAP1 POP DUP1 PUSH2 0x6EC JUMPI PUSH1 0x40 MLOAD PUSH32 0x8C379A000000000000000000000000000000000000000000000000000000000 DUP2 MSTORE PUSH1 0x4 ADD PUSH2 0x6E3 SWAP1 PUSH2 0x161F JUMP JUMPDEST PUSH1 0x40 MLOAD DUP1 SWAP2 SUB SWAP1 REVERT JUMPDEST DUP3 PUSH1 0x6 DUP6 DUP2 SLOAD DUP2 LT PUSH2 0x701 JUMPI PUSH2 0x700 PUSH2 0x141B JUMP JUMPDEST JUMPDEST SWAP1 PUSH0 MSTORE PUSH1 0x20 PUSH0 KECCAK256 SWAP1 PUSH1 0x5 MUL ADD PUSH1 0x2 ADD PUSH0 DUP3 DUP3 SLOAD PUSH2 0x71E SWAP2 SWAP1 PUSH2 0x1475 JUMP JUMPDEST SWAP3 POP POP DUP2 SWAP1 SSTORE POP POP POP POP POP POP POP JUMP JUMPDEST PUSH1 0x2 PUSH0 SWAP1 SLOAD SWAP1 PUSH2 0x100 EXP SWAP1 DIV PUSH20 0xFFFFFFFFFFFFFFFFFFFFFFFFFFFFFFFFFFFFFFFF AND PUSH20 0xFFFFFFFFFFFFFFFFFFFFFFFFFFFFFFFFFFFFFFFF AND CALLER PUSH20 0xFFFFFFFFFFFFFFFFFFFFFFFFFFFFFFFFFFFFFFFF AND EQ PUSH2 0x7BC JUMPI PUSH1 0x40 MLOAD PUSH32 0x8C379A000000000000000000000000000000000000000000000000000000000 DUP2 MSTORE PUSH1 0x4 ADD PUSH2 0x7B3 SWAP1 PUSH2 0x13FD JUMP JUMPDEST PUSH1 0x40 MLOAD DUP1 SWAP2 SUB SWAP1 REVERT JUMPDEST PUSH0 PUSH1 0x6 DUP1 SLOAD SWAP1 POP SWAP1 POP PUSH0 PUSH1 0x40 MLOAD DUP1 PUSH1 0xA0 ADD PUSH1 0x40 MSTORE DUP1 DUP4 DUP2 MSTORE PUSH1 0x20 ADD DUP7 DUP2 MSTORE PUSH1 0x20 ADD DUP6 DUP2 MSTORE PUSH1 0x20 ADD DUP5 DUP2 MSTORE PUSH1 0x20 ADD PUSH0 DUP2 MSTORE POP SWAP1 POP PUSH1 0x6 DUP2 SWAP1 DUP1 PUSH1 0x1 DUP2 SLOAD ADD DUP1 DUP3 SSTORE DUP1 SWAP2 POP POP PUSH1 0x1 SWAP1 SUB SWAP1 PUSH0 MSTORE PUSH1 0x20 PUSH0 KECCAK256 SWAP1 PUSH1 0x5 MUL ADD PUSH0 SWAP1 SWAP2 SWAP1 SWAP2 SWAP1 SWAP2 POP PUSH0 DUP3 ADD MLOAD DUP2 PUSH0 ADD SSTORE PUSH1 0x20 DUP3 ADD MLOAD DUP2 PUSH1 0x1 ADD SWAP1 DUP2 PUSH2 0x835 SWAP2 SWAP1 PUSH2 0x17DA JUMP JUMPDEST POP PUSH1 0x40 DUP3 ADD MLOAD DUP2 PUSH1 0x2 ADD SSTORE PUSH1 0x60 DUP3 ADD MLOAD DUP2 PUSH1 0x3 ADD SSTORE PUSH1 0x80 DUP3 ADD MLOAD DUP2 PUSH1 0x4 ADD SSTORE POP POP PUSH1 0x1 PUSH1 0x7 PUSH0 DUP3 DUP3 SLOAD PUSH2 0x868 SWAP2 SWAP1 PUSH2 0x18A9 JUMP JUMPDEST SWAP3 POP POP DUP2 SWAP1 SSTORE POP POP POP POP POP POP JUMP JUMPDEST PUSH1 0x2 PUSH0 SWAP1 SLOAD SWAP1 PUSH2 0x100 EXP SWAP1 DIV PUSH20 0xFFFFFFFFFFFFFFFFFFFFFFFFFFFFFFFFFFFFFFFF AND PUSH20 0xFFFFFFFFFFFFFFFFFFFFFFFFFFFFFFFFFFFFFFFF AND CALLER PUSH20 0xFFFFFFFFFFFFFFFFFFFFFFFFFFFFFFFFFFFFFFFF AND EQ PUSH2 0x905 JUMPI PUSH1 0x40 MLOAD PUSH32 0x8C379A000000000000000000000000000000000000000000000000000000000 DUP2 MSTORE PUSH1 0x4 ADD PUSH2 0x8FC SWAP1 PUSH2 0x13FD JUMP JUMPDEST PUSH1 0x40 MLOAD DUP1 SWAP2 SUB SWAP1 REVERT JUMPDEST DUP1 PUSH1 0x6 DUP4 DUP2 SLOAD DUP2 LT PUSH2 0x91A JUMPI PUSH2 0x919 PUSH2 0x141B JUMP JUMPDEST JUMPDEST SWAP1 PUSH0 MSTORE PUSH1 0x20 PUSH0 KECCAK256 SWAP1 PUSH1 0x5 MUL ADD PUSH1 0x3 ADD PUSH0 DUP3 DUP3 SLOAD PUSH2 0x937 SWAP2 SWAP1 PUSH2 0x1475 JUMP JUMPDEST SWAP3 POP POP DUP2 SWAP1 SSTORE POP POP POP JUMP JUMPDEST PUSH1 0x7 SLOAD DUP2 JUMP JUMPDEST PUSH0 PUSH1 0x40 MLOAD DUP1 PUSH1 0x60 ADD PUSH1 0x40 MSTORE DUP1 CALLER PUSH20 0xFFFFFFFFFFFFFFFFFFFFFFFFFFFFFFFFFFFFFFFF AND DUP2 MSTORE PUSH1 0x20 ADD DUP5 DUP2 MSTORE PUSH1 0x20 ADD DUP4 DUP2 MSTORE POP SWAP1 POP PUSH1 0x5 DUP2 SWAP1 DUP1 PUSH1 0x1 DUP2 SLOAD ADD DUP1 DUP3 SSTORE DUP1 SWAP2 POP POP PUSH1 0x1 SWAP1 SUB SWAP1 PUSH0 MSTORE PUSH1 0x20 PUSH0 KECCAK256 SWAP1 PUSH1 0x3 MUL ADD PUSH0 SWAP1 SWAP2 SWAP1 SWAP2 SWAP1 SWAP2 POP PUSH0 DUP3 ADD MLOAD DUP2 PUSH0 ADD PUSH0 PUSH2 0x100 EXP DUP2 SLOAD DUP2 PUSH20 0xFFFFFFFFFFFFFFFFFFFFFFFFFFFFFFFFFFFFFFFF MUL NOT AND SWAP1 DUP4 PUSH20 0xFFFFFFFFFFFFFFFFFFFFFFFFFFFFFFFFFFFFFFFF AND MUL OR SWAP1 SSTORE POP PUSH1 0x20 DUP3 ADD MLOAD DUP2 PUSH1 0x1 ADD SSTORE PUSH1 0x40 DUP3 ADD MLOAD DUP2 PUSH1 0x2 ADD SSTORE POP POP POP POP POP JUMP JUMPDEST DUP1 PUSH1 0x6 DUP4 DUP2 SLOAD DUP2 LT PUSH2 0xA19 JUMPI PUSH2 0xA18 PUSH2 0x141B JUMP JUMPDEST JUMPDEST SWAP1 PUSH0 MSTORE PUSH1 0x20 PUSH0 KECCAK256 SWAP1 PUSH1 0x5 MUL ADD PUSH1 0x2 ADD SLOAD SLT ISZERO PUSH2 0xA6A JUMPI PUSH1 0x40 MLOAD PUSH32 0x8C379A000000000000000000000000000000000000000000000000000000000 DUP2 MSTORE PUSH1 0x4 ADD PUSH2 0xA61 SWAP1 PUSH2 0x1926 JUMP JUMPDEST PUSH1 0x40 MLOAD DUP1 SWAP2 SUB SWAP1 REVERT JUMPDEST DUP1 PUSH1 0x6 DUP4 DUP2 SLOAD DUP2 LT PUSH2 0xA7F JUMPI PUSH2 0xA7E PUSH2 0x141B JUMP JUMPDEST JUMPDEST SWAP1 PUSH0 MSTORE PUSH1 0x20 PUSH0 KECCAK256 SWAP1 PUSH1 0x5 MUL ADD PUSH1 0x2 ADD PUSH0 DUP3 DUP3 SLOAD PUSH2 0xA9C SWAP2 SWAP1 PUSH2 0x1944 JUMP JUMPDEST SWAP3 POP POP DUP2 SWAP1 SSTORE POP PUSH0 DUP2 PUSH1 0x6 DUP5 DUP2 SLOAD DUP2 LT PUSH2 0xAB9 JUMPI PUSH2 0xAB8 PUSH2 0x141B JUMP JUMPDEST JUMPDEST SWAP1 PUSH0 MSTORE PUSH1 0x20 PUSH0 KECCAK256 SWAP1 PUSH1 0x5 MUL ADD PUSH1 0x3 ADD SLOAD PUSH2 0xAD3 SWAP2 SWAP1 PUSH2 0x14B6 JUMP JUMPDEST SWAP1 POP DUP1 CALLVALUE SLT ISZERO PUSH2 0xB18 JUMPI PUSH1 0x40 MLOAD PUSH32 0x8C379A000000000000000000000000000000000000000000000000000000000 DUP2 MSTORE PUSH1 0x4 ADD PUSH2 0xB0F SWAP1 PUSH2 0x19CE JUMP JUMPDEST PUSH1 0x40 MLOAD DUP1 SWAP2 SUB SWAP1 REVERT JUMPDEST PUSH0 PUSH1 0x2 PUSH0 SWAP1 SLOAD SWAP1 PUSH2 0x100 EXP SWAP1 DIV PUSH20 0xFFFFFFFFFFFFFFFFFFFFFFFFFFFFFFFFFFFFFFFF AND PUSH20 0xFFFFFFFFFFFFFFFFFFFFFFFFFFFFFFFFFFFFFFFF AND DUP3 PUSH1 0x40 MLOAD PUSH2 0xB5E SWAP1 PUSH2 0x15C1 JUMP JUMPDEST PUSH0 PUSH1 0x40 MLOAD DUP1 DUP4 SUB DUP2 DUP6 DUP8 GAS CALL SWAP3 POP POP POP RETURNDATASIZE DUP1 PUSH0 DUP2 EQ PUSH2 0xB98 JUMPI PUSH1 0x40 MLOAD SWAP2 POP PUSH1 0x1F NOT PUSH1 0x3F RETURNDATASIZE ADD AND DUP3 ADD PUSH1 0x40 MSTORE RETURNDATASIZE DUP3 MSTORE RETURNDATASIZE PUSH0 PUSH1 0x20 DUP5 ADD RETURNDATACOPY PUSH2 0xB9D JUMP JUMPDEST PUSH1 0x60 SWAP2 POP JUMPDEST POP POP SWAP1 POP DUP1 PUSH2 0xBE1 JUMPI PUSH1 0x40 MLOAD PUSH32 0x8C379A000000000000000000000000000000000000000000000000000000000 DUP2 MSTORE PUSH1 0x4 ADD PUSH2 0xBD8 SWAP1 PUSH2 0x161F JUMP JUMPDEST PUSH1 0x40 MLOAD DUP1 SWAP2 SUB SWAP1 REVERT JUMPDEST DUP2 PUSH0 DUP1 DUP3 DUP3 SLOAD PUSH2 0xBF1 SWAP2 SWAP1 PUSH2 0x1475 JUMP JUMPDEST SWAP3 POP POP DUP2 SWAP1 SSTORE POP PUSH1 0x1 PUSH1 0x6 DUP6 DUP2 SLOAD DUP2 LT PUSH2 0xC0E JUMPI PUSH2 0xC0D PUSH2 0x141B JUMP JUMPDEST JUMPDEST SWAP1 PUSH0 MSTORE PUSH1 0x20 PUSH0 KECCAK256 SWAP1 PUSH1 0x5 MUL ADD PUSH1 0x4 ADD PUSH0 DUP3 DUP3 SLOAD PUSH2 0xC2B SWAP2 SWAP1 PUSH2 0x18A9 JUMP JUMPDEST SWAP3 POP POP DUP2 SWAP1 SSTORE POP DUP2 PUSH1 0x3 PUSH0 CALLER PUSH20 0xFFFFFFFFFFFFFFFFFFFFFFFFFFFFFFFFFFFFFFFF AND PUSH20 0xFFFFFFFFFFFFFFFFFFFFFFFFFFFFFFFFFFFFFFFF AND DUP2 MSTORE PUSH1 0x20 ADD SWAP1 DUP2 MSTORE PUSH1 0x20 ADD PUSH0 KECCAK256 PUSH0 DUP3 DUP3 SLOAD PUSH2 0xC7E SWAP2 SWAP1 PUSH2 0x1475 JUMP JUMPDEST SWAP3 POP POP DUP2 SWAP1 SSTORE POP DUP3 PUSH1 0x4 PUSH0 DUP7 DUP2 MSTORE PUSH1 0x20 ADD SWAP1 DUP2 MSTORE PUSH1 0x20 ADD PUSH0 KECCAK256 PUSH0 DUP3 DUP3 SLOAD PUSH2 0xCA5 SWAP2 SWAP1 PUSH2 0x1475 JUMP JUMPDEST SWAP3 POP POP DUP2 SWAP1 SSTORE POP POP POP POP POP JUMP JUMPDEST PUSH1 0x60 PUSH1 0x6 DUP1 SLOAD DUP1 PUSH1 0x20 MUL PUSH1 0x20 ADD PUSH1 0x40 MLOAD SWAP1 DUP2 ADD PUSH1 0x40 MSTORE DUP1 SWAP3 SWAP2 SWAP1 DUP2 DUP2 MSTORE PUSH1 0x20 ADD PUSH0 SWAP1 JUMPDEST DUP3 DUP3 LT ISZERO PUSH2 0xDBC JUMPI DUP4 DUP3 SWAP1 PUSH0 MSTORE PUSH1 0x20 PUSH0 KECCAK256 SWAP1 PUSH1 0x5 MUL ADD PUSH1 0x40 MLOAD DUP1 PUSH1 0xA0 ADD PUSH1 0x40 MSTORE SWAP1 DUP2 PUSH0 DUP3 ADD SLOAD DUP2 MSTORE PUSH1 0x20 ADD PUSH1 0x1 DUP3 ADD DUP1 SLOAD PUSH2 0xD0F SWAP1 PUSH2 0x1383 JUMP JUMPDEST DUP1 PUSH1 0x1F ADD PUSH1 0x20 DUP1 SWAP2 DIV MUL PUSH1 0x20 ADD PUSH1 0x40 MLOAD SWAP1 DUP2 ADD PUSH1 0x40 MSTORE DUP1 SWAP3 SWAP2 SWAP1 DUP2 DUP2 MSTORE PUSH1 0x20 ADD DUP3 DUP1 SLOAD PUSH2 0xD3B SWAP1 PUSH2 0x1383 JUMP JUMPDEST DUP1 ISZERO PUSH2 0xD86 JUMPI DUP1 PUSH1 0x1F LT PUSH2 0xD5D JUMPI PUSH2 0x100 DUP1 DUP4 SLOAD DIV MUL DUP4 MSTORE SWAP2 PUSH1 0x20 ADD SWAP2 PUSH2 0xD86 JUMP JUMPDEST DUP3 ADD SWAP2 SWAP1 PUSH0 MSTORE PUSH1 0x20 PUSH0 KECCAK256 SWAP1 JUMPDEST DUP2 SLOAD DUP2 MSTORE SWAP1 PUSH1 0x1 ADD SWAP1 PUSH1 0x20 ADD DUP1 DUP4 GT PUSH2 0xD69 JUMPI DUP3 SWAP1 SUB PUSH1 0x1F AND DUP3 ADD SWAP2 JUMPDEST POP POP POP POP POP DUP2 MSTORE PUSH1 0x20 ADD PUSH1 0x2 DUP3 ADD SLOAD DUP2 MSTORE PUSH1 0x20 ADD PUSH1 0x3 DUP3 ADD SLOAD DUP2 MSTORE PUSH1 0x20 ADD PUSH1 0x4 DUP3 ADD SLOAD DUP2 MSTORE POP POP DUP2 MSTORE PUSH1 0x20 ADD SWAP1 PUSH1 0x1 ADD SWAP1 PUSH2 0xCD5 JUMP JUMPDEST POP POP POP POP SWAP1 POP SWAP1 JUMP JUMPDEST PUSH0 DUP2 SWAP1 POP SWAP2 SWAP1 POP JUMP JUMPDEST PUSH2 0xDD7 DUP2 PUSH2 0xDC5 JUMP JUMPDEST DUP3 MSTORE POP POP JUMP JUMPDEST PUSH0 PUSH1 0x20 DUP3 ADD SWAP1 POP PUSH2 0xDF0 PUSH0 DUP4 ADD DUP5 PUSH2 0xDCE JUMP JUMPDEST SWAP3 SWAP2 POP POP JUMP JUMPDEST PUSH0 DUP2 SWAP1 POP SWAP2 SWAP1 POP JUMP JUMPDEST PUSH2 0xE08 DUP2 PUSH2 0xDF6 JUMP JUMPDEST DUP3 MSTORE POP POP JUMP JUMPDEST PUSH0 PUSH1 0x20 DUP3 ADD SWAP1 POP PUSH2 0xE21 PUSH0 DUP4 ADD DUP5 PUSH2 0xDFF JUMP JUMPDEST SWAP3 SWAP2 POP POP JUMP JUMPDEST PUSH0 PUSH1 0x40 MLOAD SWAP1 POP SWAP1 JUMP JUMPDEST PUSH0 DUP1 REVERT JUMPDEST PUSH0 DUP1 REVERT JUMPDEST PUSH2 0xE41 DUP2 PUSH2 0xDF6 JUMP JUMPDEST DUP2 EQ PUSH2 0xE4B JUMPI PUSH0 DUP1 REVERT JUMPDEST POP JUMP JUMPDEST PUSH0 DUP2 CALLDATALOAD SWAP1 POP PUSH2 0xE5C DUP2 PUSH2 0xE38 JUMP JUMPDEST SWAP3 SWAP2 POP POP JUMP JUMPDEST PUSH0 PUSH1 0x20 DUP3 DUP5 SUB SLT ISZERO PUSH2 0xE77 JUMPI PUSH2 0xE76 PUSH2 0xE30 JUMP JUMPDEST JUMPDEST PUSH0 PUSH2 0xE84 DUP5 DUP3 DUP6 ADD PUSH2 0xE4E JUMP JUMPDEST SWAP2 POP POP SWAP3 SWAP2 POP POP JUMP JUMPDEST PUSH0 DUP2 MLOAD SWAP1 POP SWAP2 SWAP1 POP JUMP JUMPDEST PUSH0 DUP3 DUP3 MSTORE PUSH1 0x20 DUP3 ADD SWAP1 POP SWAP3 SWAP2 POP POP JUMP JUMPDEST DUP3 DUP2 DUP4 MCOPY PUSH0 DUP4 DUP4 ADD MSTORE POP POP POP JUMP JUMPDEST PUSH0 PUSH1 0x1F NOT PUSH1 0x1F DUP4 ADD AND SWAP1 POP SWAP2 SWAP1 POP JUMP JUMPDEST PUSH0 PUSH2 0xECF DUP3 PUSH2 0xE8D JUMP JUMPDEST PUSH2 0xED9 DUP2 DUP6 PUSH2 0xE97 JUMP JUMPDEST SWAP4 POP PUSH2 0xEE9 DUP2 DUP6 PUSH1 0x20 DUP7 ADD PUSH2 0xEA7 JUMP JUMPDEST PUSH2 0xEF2 DUP2 PUSH2 0xEB5 JUMP JUMPDEST DUP5 ADD SWAP2 POP POP SWAP3 SWAP2 POP POP JUMP JUMPDEST PUSH0 PUSH1 0x20 DUP3 ADD SWAP1 POP DUP2 DUP2 SUB PUSH0 DUP4 ADD MSTORE PUSH2 0xF15 DUP2 DUP5 PUSH2 0xEC5 JUMP JUMPDEST SWAP1 POP SWAP3 SWAP2 POP POP JUMP JUMPDEST PUSH2 0xF26 DUP2 PUSH2 0xDC5 JUMP JUMPDEST DUP2 EQ PUSH2 0xF30 JUMPI PUSH0 DUP1 REVERT JUMPDEST POP JUMP JUMPDEST PUSH0 DUP2 CALLDATALOAD SWAP1 POP PUSH2 0xF41 DUP2 PUSH2 0xF1D JUMP JUMPDEST SWAP3 SWAP2 POP POP JUMP JUMPDEST PUSH0 DUP1 PUSH1 0x40 DUP4 DUP6 SUB SLT ISZERO PUSH2 0xF5D JUMPI PUSH2 0xF5C PUSH2 0xE30 JUMP JUMPDEST JUMPDEST PUSH0 PUSH2 0xF6A DUP6 DUP3 DUP7 ADD PUSH2 0xE4E JUMP JUMPDEST SWAP3 POP POP PUSH1 0x20 PUSH2 0xF7B DUP6 DUP3 DUP7 ADD PUSH2 0xF33 JUMP JUMPDEST SWAP2 POP POP SWAP3 POP SWAP3 SWAP1 POP JUMP JUMPDEST PUSH0 PUSH20 0xFFFFFFFFFFFFFFFFFFFFFFFFFFFFFFFFFFFFFFFF DUP3 AND SWAP1 POP SWAP2 SWAP1 POP JUMP JUMPDEST PUSH0 PUSH2 0xFAE DUP3 PUSH2 0xF85 JUMP JUMPDEST SWAP1 POP SWAP2 SWAP1 POP JUMP JUMPDEST PUSH2 0xFBE DUP2 PUSH2 0xFA4 JUMP JUMPDEST DUP2 EQ PUSH2 0xFC8 JUMPI PUSH0 DUP1 REVERT JUMPDEST POP JUMP JUMPDEST PUSH0 DUP2 CALLDATALOAD SWAP1 POP PUSH2 0xFD9 DUP2 PUSH2 0xFB5 JUMP JUMPDEST SWAP3 SWAP2 POP POP JUMP JUMPDEST PUSH0 PUSH1 0x20 DUP3 DUP5 SUB SLT ISZERO PUSH2 0xFF4 JUMPI PUSH2 0xFF3 PUSH2 0xE30 JUMP JUMPDEST JUMPDEST PUSH0 PUSH2 0x1001 DUP5 DUP3 DUP6 ADD PUSH2 0xFCB JUMP JUMPDEST SWAP2 POP POP SWAP3 SWAP2 POP POP JUMP JUMPDEST PUSH0 DUP1 REVERT JUMPDEST PUSH0 DUP1 REVERT JUMPDEST PUSH32 0x4E487B7100000000000000000000000000000000000000000000000000000000 PUSH0 MSTORE PUSH1 0x41 PUSH1 0x4 MSTORE PUSH1 0x24 PUSH0 REVERT JUMPDEST PUSH2 0x1048 DUP3 PUSH2 0xEB5 JUMP JUMPDEST DUP2 ADD DUP2 DUP2 LT PUSH8 0xFFFFFFFFFFFFFFFF DUP3 GT OR ISZERO PUSH2 0x1067 JUMPI PUSH2 0x1066 PUSH2 0x1012 JUMP JUMPDEST JUMPDEST DUP1 PUSH1 0x40 MSTORE POP POP POP JUMP JUMPDEST PUSH0 PUSH2 0x1079 PUSH2 0xE27 JUMP JUMPDEST SWAP1 POP PUSH2 0x1085 DUP3 DUP3 PUSH2 0x103F JUMP JUMPDEST SWAP2 SWAP1 POP JUMP JUMPDEST PUSH0 PUSH8 0xFFFFFFFFFFFFFFFF DUP3 GT ISZERO PUSH2 0x10A4 JUMPI PUSH2 0x10A3 PUSH2 0x1012 JUMP JUMPDEST JUMPDEST PUSH2 0x10AD DUP3 PUSH2 0xEB5 JUMP JUMPDEST SWAP1 POP PUSH1 0x20 DUP2 ADD SWAP1 POP SWAP2 SWAP1 POP JUMP JUMPDEST DUP3 DUP2 DUP4 CALLDATACOPY PUSH0 DUP4 DUP4 ADD MSTORE POP POP POP JUMP JUMPDEST PUSH0 PUSH2 0x10DA PUSH2 0x10D5 DUP5 PUSH2 0x108A JUMP JUMPDEST PUSH2 0x1070 JUMP JUMPDEST SWAP1 POP DUP3 DUP2 MSTORE PUSH1 0x20 DUP2 ADD DUP5 DUP5 DUP5 ADD GT ISZERO PUSH2 0x10F6 JUMPI PUSH2 0x10F5 PUSH2 0x100E JUMP JUMPDEST JUMPDEST PUSH2 0x1101 DUP5 DUP3 DUP6 PUSH2 0x10BA JUMP JUMPDEST POP SWAP4 SWAP3 POP POP POP JUMP JUMPDEST PUSH0 DUP3 PUSH1 0x1F DUP4 ADD SLT PUSH2 0x111D JUMPI PUSH2 0x111C PUSH2 0x100A JUMP JUMPDEST JUMPDEST DUP2 CALLDATALOAD PUSH2 0x112D DUP5 DUP3 PUSH1 0x20 DUP7 ADD PUSH2 0x10C8 JUMP JUMPDEST SWAP2 POP POP SWAP3 SWAP2 POP POP JUMP JUMPDEST PUSH0 DUP1 PUSH0 PUSH1 0x60 DUP5 DUP7 SUB SLT ISZERO PUSH2 0x114D JUMPI PUSH2 0x114C PUSH2 0xE30 JUMP JUMPDEST JUMPDEST PUSH0 DUP5 ADD CALLDATALOAD PUSH8 0xFFFFFFFFFFFFFFFF DUP2 GT ISZERO PUSH2 0x116A JUMPI PUSH2 0x1169 PUSH2 0xE34 JUMP JUMPDEST JUMPDEST PUSH2 0x1176 DUP7 DUP3 DUP8 ADD PUSH2 0x1109 JUMP JUMPDEST SWAP4 POP POP PUSH1 0x20 PUSH2 0x1187 DUP7 DUP3 DUP8 ADD PUSH2 0xF33 JUMP JUMPDEST SWAP3 POP POP PUSH1 0x40 PUSH2 0x1198 DUP7 DUP3 DUP8 ADD PUSH2 0xF33 JUMP JUMPDEST SWAP2 POP POP SWAP3 POP SWAP3 POP SWAP3 JUMP JUMPDEST PUSH0 DUP2 MLOAD SWAP1 POP SWAP2 SWAP1 POP JUMP JUMPDEST PUSH0 DUP3 DUP3 MSTORE PUSH1 0x20 DUP3 ADD SWAP1 POP SWAP3 SWAP2 POP POP JUMP JUMPDEST PUSH0 DUP2 SWAP1 POP PUSH1 0x20 DUP3 ADD SWAP1 POP SWAP2 SWAP1 POP JUMP JUMPDEST PUSH2 0x11D4 DUP2 PUSH2 0xDF6 JUMP JUMPDEST DUP3 MSTORE POP POP JUMP JUMPDEST PUSH0 DUP3 DUP3 MSTORE PUSH1 0x20 DUP3 ADD SWAP1 POP SWAP3 SWAP2 POP POP JUMP JUMPDEST PUSH0 PUSH2 0x11F4 DUP3 PUSH2 0xE8D JUMP JUMPDEST PUSH2 0x11FE DUP2 DUP6 PUSH2 0x11DA JUMP JUMPDEST SWAP4 POP PUSH2 0x120E DUP2 DUP6 PUSH1 0x20 DUP7 ADD PUSH2 0xEA7 JUMP JUMPDEST PUSH2 0x1217 DUP2 PUSH2 0xEB5 JUMP JUMPDEST DUP5 ADD SWAP2 POP POP SWAP3 SWAP2 POP POP JUMP JUMPDEST PUSH2 0x122B DUP2 PUSH2 0xDC5 JUMP JUMPDEST DUP3 MSTORE POP POP JUMP JUMPDEST PUSH0 PUSH1 0xA0 DUP4 ADD PUSH0 DUP4 ADD MLOAD PUSH2 0x1246 PUSH0 DUP7 ADD DUP3 PUSH2 0x11CB JUMP JUMPDEST POP PUSH1 0x20 DUP4 ADD MLOAD DUP5 DUP3 SUB PUSH1 0x20 DUP7 ADD MSTORE PUSH2 0x125E DUP3 DUP3 PUSH2 0x11EA JUMP JUMPDEST SWAP2 POP POP PUSH1 0x40 DUP4 ADD MLOAD PUSH2 0x1273 PUSH1 0x40 DUP7 ADD DUP3 PUSH2 0x1222 JUMP JUMPDEST POP PUSH1 0x60 DUP4 ADD MLOAD PUSH2 0x1286 PUSH1 0x60 DUP7 ADD DUP3 PUSH2 0x1222 JUMP JUMPDEST POP PUSH1 0x80 DUP4 ADD MLOAD PUSH2 0x1299 PUSH1 0x80 DUP7 ADD DUP3 PUSH2 0x11CB JUMP JUMPDEST POP DUP1 SWAP2 POP POP SWAP3 SWAP2 POP POP JUMP JUMPDEST PUSH0 PUSH2 0x12AF DUP4 DUP4 PUSH2 0x1231 JUMP JUMPDEST SWAP1 POP SWAP3 SWAP2 POP POP JUMP JUMPDEST PUSH0 PUSH1 0x20 DUP3 ADD SWAP1 POP SWAP2 SWAP1 POP JUMP JUMPDEST PUSH0 PUSH2 0x12CD DUP3 PUSH2 0x11A2 JUMP JUMPDEST PUSH2 0x12D7 DUP2 DUP6 PUSH2 0x11AC JUMP JUMPDEST SWAP4 POP DUP4 PUSH1 0x20 DUP3 MUL DUP6 ADD PUSH2 0x12E9 DUP6 PUSH2 0x11BC JUMP JUMPDEST DUP1 PUSH0 JUMPDEST DUP6 DUP2 LT ISZERO PUSH2 0x1324 JUMPI DUP5 DUP5 SUB DUP10 MSTORE DUP2 MLOAD PUSH2 0x1305 DUP6 DUP3 PUSH2 0x12A4 JUMP JUMPDEST SWAP5 POP PUSH2 0x1310 DUP4 PUSH2 0x12B7 JUMP JUMPDEST SWAP3 POP PUSH1 0x20 DUP11 ADD SWAP10 POP POP PUSH1 0x1 DUP2 ADD SWAP1 POP PUSH2 0x12EC JUMP JUMPDEST POP DUP3 SWAP8 POP DUP8 SWAP6 POP POP POP POP POP POP SWAP3 SWAP2 POP POP JUMP JUMPDEST PUSH0 PUSH1 0x20 DUP3 ADD SWAP1 POP DUP2 DUP2 SUB PUSH0 DUP4 ADD MSTORE PUSH2 0x134E DUP2 DUP5 PUSH2 0x12C3 JUMP JUMPDEST SWAP1 POP SWAP3 SWAP2 POP POP JUMP JUMPDEST PUSH32 0x4E487B7100000000000000000000000000000000000000000000000000000000 PUSH0 MSTORE PUSH1 0x22 PUSH1 0x4 MSTORE PUSH1 0x24 PUSH0 REVERT JUMPDEST PUSH0 PUSH1 0x2 DUP3 DIV SWAP1 POP PUSH1 0x1 DUP3 AND DUP1 PUSH2 0x139A JUMPI PUSH1 0x7F DUP3 AND SWAP2 POP JUMPDEST PUSH1 0x20 DUP3 LT DUP2 SUB PUSH2 0x13AD JUMPI PUSH2 0x13AC PUSH2 0x1356 JUMP JUMPDEST JUMPDEST POP SWAP2 SWAP1 POP JUMP JUMPDEST PUSH32 0x596F7520617265206E6F7420617574686F72697A656400000000000000000000 PUSH0 DUP3 ADD MSTORE POP JUMP JUMPDEST PUSH0 PUSH2 0x13E7 PUSH1 0x16 DUP4 PUSH2 0xE97 JUMP JUMPDEST SWAP2 POP PUSH2 0x13F2 DUP3 PUSH2 0x13B3 JUMP JUMPDEST PUSH1 0x20 DUP3 ADD SWAP1 POP SWAP2 SWAP1 POP JUMP JUMPDEST PUSH0 PUSH1 0x20 DUP3 ADD SWAP1 POP DUP2 DUP2 SUB PUSH0 DUP4 ADD MSTORE PUSH2 0x1414 DUP2 PUSH2 0x13DB JUMP JUMPDEST SWAP1 POP SWAP2 SWAP1 POP JUMP JUMPDEST PUSH32 0x4E487B7100000000000000000000000000000000000000000000000000000000 PUSH0 MSTORE PUSH1 0x32 PUSH1 0x4 MSTORE PUSH1 0x24 PUSH0 REVERT JUMPDEST PUSH32 0x4E487B7100000000000000000000000000000000000000000000000000000000 PUSH0 MSTORE PUSH1 0x11 PUSH1 0x4 MSTORE PUSH1 0x24 PUSH0 REVERT JUMPDEST PUSH0 PUSH2 0x147F DUP3 PUSH2 0xDC5 JUMP JUMPDEST SWAP2 POP PUSH2 0x148A DUP4 PUSH2 0xDC5 JUMP JUMPDEST SWAP3 POP DUP3 DUP3 ADD SWAP1 POP DUP3 DUP2 SLT ISZERO PUSH0 DUP4 SLT AND DUP4 DUP3 SLT PUSH0 DUP5 SLT ISZERO AND OR ISZERO PUSH2 0x14B0 JUMPI PUSH2 0x14AF PUSH2 0x1448 JUMP JUMPDEST JUMPDEST SWAP3 SWAP2 POP POP JUMP JUMPDEST PUSH0 PUSH2 0x14C0 DUP3 PUSH2 0xDC5 JUMP JUMPDEST SWAP2 POP PUSH2 0x14CB DUP4 PUSH2 0xDC5 JUMP JUMPDEST SWAP3 POP DUP3 DUP3 MUL PUSH2 0x14D9 DUP2 PUSH2 0xDC5 JUMP JUMPDEST SWAP2 POP PUSH32 0x8000000000000000000000000000000000000000000000000000000000000000 DUP5 EQ PUSH0 DUP5 SLT AND ISZERO PUSH2 0x1510 JUMPI PUSH2 0x150F PUSH2 0x1448 JUMP JUMPDEST JUMPDEST DUP3 DUP3 SDIV DUP5 EQ DUP4 ISZERO OR PUSH2 0x1525 JUMPI PUSH2 0x1524 PUSH2 0x1448 JUMP JUMPDEST JUMPDEST POP SWAP3 SWAP2 POP POP JUMP JUMPDEST PUSH32 0x496E73756666696369656E742045746865722073656E74000000000000000000 PUSH0 DUP3 ADD MSTORE POP JUMP JUMPDEST PUSH0 PUSH2 0x1560 PUSH1 0x17 DUP4 PUSH2 0xE97 JUMP JUMPDEST SWAP2 POP PUSH2 0x156B DUP3 PUSH2 0x152C JUMP JUMPDEST PUSH1 0x20 DUP3 ADD SWAP1 POP SWAP2 SWAP1 POP JUMP JUMPDEST PUSH0 PUSH1 0x20 DUP3 ADD SWAP1 POP DUP2 DUP2 SUB PUSH0 DUP4 ADD MSTORE PUSH2 0x158D DUP2 PUSH2 0x1554 JUMP JUMPDEST SWAP1 POP SWAP2 SWAP1 POP JUMP JUMPDEST PUSH0 DUP2 SWAP1 POP SWAP3 SWAP2 POP POP JUMP JUMPDEST POP JUMP JUMPDEST PUSH0 PUSH2 0x15AC PUSH0 DUP4 PUSH2 0x1594 JUMP JUMPDEST SWAP2 POP PUSH2 0x15B7 DUP3 PUSH2 0x159E JUMP JUMPDEST PUSH0 DUP3 ADD SWAP1 POP SWAP2 SWAP1 POP JUMP JUMPDEST PUSH0 PUSH2 0x15CB DUP3 PUSH2 0x15A1 JUMP JUMPDEST SWAP2 POP DUP2 SWAP1 POP SWAP2 SWAP1 POP JUMP JUMPDEST PUSH32 0x4661696C656420746F2073656E64204574686572000000000000000000000000 PUSH0 DUP3 ADD MSTORE POP JUMP JUMPDEST PUSH0 PUSH2 0x1609 PUSH1 0x14 DUP4 PUSH2 0xE97 JUMP JUMPDEST SWAP2 POP PUSH2 0x1614 DUP3 PUSH2 0x15D5 JUMP JUMPDEST PUSH1 0x20 DUP3 ADD SWAP1 POP SWAP2 SWAP1 POP JUMP JUMPDEST PUSH0 PUSH1 0x20 DUP3 ADD SWAP1 POP DUP2 DUP2 SUB PUSH0 DUP4 ADD MSTORE PUSH2 0x1636 DUP2 PUSH2 0x15FD JUMP JUMPDEST SWAP1 POP SWAP2 SWAP1 POP JUMP JUMPDEST PUSH0 DUP2 SWAP1 POP DUP2 PUSH0 MSTORE PUSH1 0x20 PUSH0 KECCAK256 SWAP1 POP SWAP2 SWAP1 POP JUMP JUMPDEST PUSH0 PUSH1 0x20 PUSH1 0x1F DUP4 ADD DIV SWAP1 POP SWAP2 SWAP1 POP JUMP JUMPDEST PUSH0 DUP3 DUP3 SHL SWAP1 POP SWAP3 SWAP2 POP POP JUMP JUMPDEST PUSH0 PUSH1 0x8 DUP4 MUL PUSH2 0x1699 PUSH32 0xFFFFFFFFFFFFFFFFFFFFFFFFFFFFFFFFFFFFFFFFFFFFFFFFFFFFFFFFFFFFFFFF DUP3 PUSH2 0x165E JUMP JUMPDEST PUSH2 0x16A3 DUP7 DUP4 PUSH2 0x165E JUMP JUMPDEST SWAP6 POP DUP1 NOT DUP5 AND SWAP4 POP DUP1 DUP7 AND DUP5 OR SWAP3 POP POP POP SWAP4 SWAP3 POP POP POP JUMP JUMPDEST PUSH0 DUP2 SWAP1 POP SWAP2 SWAP1 POP JUMP JUMPDEST PUSH0 PUSH2 0x16DE PUSH2 0x16D9 PUSH2 0x16D4 DUP5 PUSH2 0xDF6 JUMP JUMPDEST PUSH2 0x16BB JUMP JUMPDEST PUSH2 0xDF6 JUMP JUMPDEST SWAP1 POP SWAP2 SWAP1 POP JUMP JUMPDEST PUSH0 DUP2 SWAP1 POP SWAP2 SWAP1 POP JUMP JUMPDEST PUSH2 0x16F7 DUP4 PUSH2 0x16C4 JUMP JUMPDEST PUSH2 0x170B PUSH2 0x1703 DUP3 PUSH2 0x16E5 JUMP JUMPDEST DUP5 DUP5 SLOAD PUSH2 0x166A JUMP JUMPDEST DUP3 SSTORE POP POP POP POP JUMP JUMPDEST PUSH0 SWAP1 JUMP JUMPDEST PUSH2 0x171F PUSH2 0x1713 JUMP JUMPDEST PUSH2 0x172A DUP2 DUP5 DUP5 PUSH2 0x16EE JUMP JUMPDEST POP POP POP JUMP JUMPDEST JUMPDEST DUP2 DUP2 LT ISZERO PUSH2 0x174D JUMPI PUSH2 0x1742 PUSH0 DUP3 PUSH2 0x1717 JUMP JUMPDEST PUSH1 0x1 DUP2 ADD SWAP1 POP PUSH2 0x1730 JUMP JUMPDEST POP POP JUMP JUMPDEST PUSH1 0x1F DUP3 GT ISZERO PUSH2 0x1792 JUMPI PUSH2 0x1763 DUP2 PUSH2 0x163D JUMP JUMPDEST PUSH2 0x176C DUP5 PUSH2 0x164F JUMP JUMPDEST DUP2 ADD PUSH1 0x20 DUP6 LT ISZERO PUSH2 0x177B JUMPI DUP2 SWAP1 POP JUMPDEST PUSH2 0x178F PUSH2 0x1787 DUP6 PUSH2 0x164F JUMP JUMPDEST DUP4 ADD DUP3 PUSH2 0x172F JUMP JUMPDEST POP POP JUMPDEST POP POP POP JUMP JUMPDEST PUSH0 DUP3 DUP3 SHR SWAP1 POP SWAP3 SWAP2 POP POP JUMP JUMPDEST PUSH0 PUSH2 0x17B2 PUSH0 NOT DUP5 PUSH1 0x8 MUL PUSH2 0x1797 JUMP JUMPDEST NOT DUP1 DUP4 AND SWAP2 POP POP SWAP3 SWAP2 POP POP JUMP JUMPDEST PUSH0 PUSH2 0x17CA DUP4 DUP4 PUSH2 0x17A3 JUMP JUMPDEST SWAP2 POP DUP3 PUSH1 0x2 MUL DUP3 OR SWAP1 POP SWAP3 SWAP2 POP POP JUMP JUMPDEST PUSH2 0x17E3 DUP3 PUSH2 0xE8D JUMP JUMPDEST PUSH8 0xFFFFFFFFFFFFFFFF DUP2 GT ISZERO PUSH2 0x17FC JUMPI PUSH2 0x17FB PUSH2 0x1012 JUMP JUMPDEST JUMPDEST PUSH2 0x1806 DUP3 SLOAD PUSH2 0x1383 JUMP JUMPDEST PUSH2 0x1811 DUP3 DUP3 DUP6 PUSH2 0x1751 JUMP JUMPDEST PUSH0 PUSH1 0x20 SWAP1 POP PUSH1 0x1F DUP4 GT PUSH1 0x1 DUP2 EQ PUSH2 0x1842 JUMPI PUSH0 DUP5 ISZERO PUSH2 0x1830 JUMPI DUP3 DUP8 ADD MLOAD SWAP1 POP JUMPDEST PUSH2 0x183A DUP6 DUP3 PUSH2 0x17BF JUMP JUMPDEST DUP7 SSTORE POP PUSH2 0x18A1 JUMP JUMPDEST PUSH1 0x1F NOT DUP5 AND PUSH2 0x1850 DUP7 PUSH2 0x163D JUMP JUMPDEST PUSH0 JUMPDEST DUP3 DUP2 LT ISZERO PUSH2 0x1877 JUMPI DUP5 DUP10 ADD MLOAD DUP3 SSTORE PUSH1 0x1 DUP3 ADD SWAP2 POP PUSH1 0x20 DUP6 ADD SWAP5 POP PUSH1 0x20 DUP2 ADD SWAP1 POP PUSH2 0x1852 JUMP JUMPDEST DUP7 DUP4 LT ISZERO PUSH2 0x1894 JUMPI DUP5 DUP10 ADD MLOAD PUSH2 0x1890 PUSH1 0x1F DUP10 AND DUP3 PUSH2 0x17A3 JUMP JUMPDEST DUP4 SSTORE POP JUMPDEST PUSH1 0x1 PUSH1 0x2 DUP9 MUL ADD DUP9 SSTORE POP POP POP JUMPDEST POP POP POP POP POP POP JUMP JUMPDEST PUSH0 PUSH2 0x18B3 DUP3 PUSH2 0xDF6 JUMP JUMPDEST SWAP2 POP PUSH2 0x18BE DUP4 PUSH2 0xDF6 JUMP JUMPDEST SWAP3 POP DUP3 DUP3 ADD SWAP1 POP DUP1 DUP3 GT ISZERO PUSH2 0x18D6 JUMPI PUSH2 0x18D5 PUSH2 0x1448 JUMP JUMPDEST JUMPDEST SWAP3 SWAP2 POP POP JUMP JUMPDEST PUSH32 0x4F7574206F662073746F636B0000000000000000000000000000000000000000 PUSH0 DUP3 ADD MSTORE POP JUMP JUMPDEST PUSH0 PUSH2 0x1910 PUSH1 0xC DUP4 PUSH2 0xE97 JUMP JUMPDEST SWAP2 POP PUSH2 0x191B DUP3 PUSH2 0x18DC JUMP JUMPDEST PUSH1 0x20 DUP3 ADD SWAP1 POP SWAP2 SWAP1 POP JUMP JUMPDEST PUSH0 PUSH1 0x20 DUP3 ADD SWAP1 POP DUP2 DUP2 SUB PUSH0 DUP4 ADD MSTORE PUSH2 0x193D DUP2 PUSH2 0x1904 JUMP JUMPDEST SWAP1 POP SWAP2 SWAP1 POP JUMP JUMPDEST PUSH0 PUSH2 0x194E DUP3 PUSH2 0xDC5 JUMP JUMPDEST SWAP2 POP PUSH2 0x1959 DUP4 PUSH2 0xDC5 JUMP JUMPDEST SWAP3 POP DUP3 DUP3 SUB SWAP1 POP DUP2 DUP2 SLT PUSH0 DUP5 SLT AND DUP3 DUP3 SGT PUSH0 DUP6 SLT ISZERO AND OR ISZERO PUSH2 0x197E JUMPI PUSH2 0x197D PUSH2 0x1448 JUMP JUMPDEST JUMPDEST SWAP3 SWAP2 POP POP JUMP JUMPDEST PUSH32 0x496E73756666696369656E742062616C616E6365000000000000000000000000 PUSH0 DUP3 ADD MSTORE POP JUMP JUMPDEST PUSH0 PUSH2 0x19B8 PUSH1 0x14 DUP4 PUSH2 0xE97 JUMP JUMPDEST SWAP2 POP PUSH2 0x19C3 DUP3 PUSH2 0x1984 JUMP JUMPDEST PUSH1 0x20 DUP3 ADD SWAP1 POP SWAP2 SWAP1 POP JUMP JUMPDEST PUSH0 PUSH1 0x20 DUP3 ADD SWAP1 POP DUP2 DUP2 SUB PUSH0 DUP4 ADD MSTORE PUSH2 0x19E5 DUP2 PUSH2 0x19AC JUMP JUMPDEST SWAP1 POP SWAP2 SWAP1 POP JUMP INVALID LOG2 PUSH5 0x6970667358 0x22 SLT KECCAK256 0x4D BLOCKHASH BLOCKHASH 0xD6 0xCA 0xE2 GASLIMIT CALLDATACOPY PUSH25 0xDCA557FDA862CBCF2D4558943F21EA9533F2514ED59FC06473 PUSH16 0x6C634300081A00330000000000000000 "
				},
				"gasEstimates": {
					"creation": {
						"codeDepositCost": "1338000",
						"executionCost": "infinite",
						"totalCost": "infinite"
					},
					"external": {
						"acceptReturn(uint256)": "infinite",
						"addItem(uint256,int256)": "infinite",
						"addProduct(string,int256,int256)": "infinite",
						"changePrice(uint256,int256)": "infinite",
						"getAccountHistory(address)": "2940",
						"getProductHistory(uint256)": "2814",
						"getProducts()": "infinite",
						"getTotalProducts()": "2455",
						"ownerName()": "infinite",
						"purchaseItem(uint256,int256)": "infinite",
						"requestReturn(uint256,int256)": "93563",
						"revenue()": "2425",
						"totalProducts()": "2447"
					}
				},
				"methodIdentifiers": {
					"acceptReturn(uint256)": "811c18c7",
					"addItem(uint256,int256)": "76987ce6",
					"addProduct(string,int256,int256)": "9023f273",
					"changePrice(uint256,int256)": "96a9ddf9",
					"getAccountHistory(address)": "7a05c6cf",
					"getProductHistory(uint256)": "57a096a1",
					"getProducts()": "c29b2f20",
					"getTotalProducts()": "570aea8a",
					"ownerName()": "65ac2320",
					"purchaseItem(uint256,int256)": "c198bdb9",
					"requestReturn(uint256,int256)": "9c46b3a5",
					"revenue()": "3e9491a2",
					"totalProducts()": "9b9d326d"
				}
			},
			"storageLayout": {
				"storage": [
					{
						"astId": 3,
						"contract": "contracts/Ecommerce.sol:Ecommerce",
						"label": "revenue",
						"offset": 0,
						"slot": "0",
						"type": "t_int256"
					},
					{
						"astId": 5,
						"contract": "contracts/Ecommerce.sol:Ecommerce",
						"label": "ownerName",
						"offset": 0,
						"slot": "1",
						"type": "t_string_storage"
					},
					{
						"astId": 7,
						"contract": "contracts/Ecommerce.sol:Ecommerce",
						"label": "owner",
						"offset": 0,
						"slot": "2",
						"type": "t_address"
					},
					{
						"astId": 29,
						"contract": "contracts/Ecommerce.sol:Ecommerce",
						"label": "individualSpend",
						"offset": 0,
						"slot": "3",
						"type": "t_mapping(t_address,t_int256)"
					},
					{
						"astId": 33,
						"contract": "contracts/Ecommerce.sol:Ecommerce",
						"label": "individualProduct",
						"offset": 0,
						"slot": "4",
						"type": "t_mapping(t_uint256,t_int256)"
					},
					{
						"astId": 37,
						"contract": "contracts/Ecommerce.sol:Ecommerce",
						"label": "refundlist",
						"offset": 0,
						"slot": "5",
						"type": "t_array(t_struct(refundInfo)25_storage)dyn_storage"
					},
					{
						"astId": 41,
						"contract": "contracts/Ecommerce.sol:Ecommerce",
						"label": "productList",
						"offset": 0,
						"slot": "6",
						"type": "t_array(t_struct(product)18_storage)dyn_storage"
					},
					{
						"astId": 43,
						"contract": "contracts/Ecommerce.sol:Ecommerce",
						"label": "totalProducts",
						"offset": 0,
						"slot": "7",
						"type": "t_uint256"
					}
				],
				"types": {
					"t_address": {
						"encoding": "inplace",
						"label": "address",
						"numberOfBytes": "20"
					},
					"t_array(t_struct(product)18_storage)dyn_storage": {
						"base": "t_struct(product)18_storage",
						"encoding": "dynamic_array",
						"label": "struct Ecommerce.product[]",
						"numberOfBytes": "32"
					},
					"t_array(t_struct(refundInfo)25_storage)dyn_storage": {
						"base": "t_struct(refundInfo)25_storage",
						"encoding": "dynamic_array",
						"label": "struct Ecommerce.refundInfo[]",
						"numberOfBytes": "32"
					},
					"t_int256": {
						"encoding": "inplace",
						"label": "int256",
						"numberOfBytes": "32"
					},
					"t_mapping(t_address,t_int256)": {
						"encoding": "mapping",
						"key": "t_address",
						"label": "mapping(address => int256)",
						"numberOfBytes": "32",
						"value": "t_int256"
					},
					"t_mapping(t_uint256,t_int256)": {
						"encoding": "mapping",
						"key": "t_uint256",
						"label": "mapping(uint256 => int256)",
						"numberOfBytes": "32",
						"value": "t_int256"
					},
					"t_string_storage": {
						"encoding": "bytes",
						"label": "string",
						"numberOfBytes": "32"
					},
					"t_struct(product)18_storage": {
						"encoding": "inplace",
						"label": "struct Ecommerce.product",
						"members": [
							{
								"astId": 9,
								"contract": "contracts/Ecommerce.sol:Ecommerce",
								"label": "productNo",
								"offset": 0,
								"slot": "0",
								"type": "t_uint256"
							},
							{
								"astId": 11,
								"contract": "contracts/Ecommerce.sol:Ecommerce",
								"label": "prodName",
								"offset": 0,
								"slot": "1",
								"type": "t_string_storage"
							},
							{
								"astId": 13,
								"contract": "contracts/Ecommerce.sol:Ecommerce",
								"label": "noItem",
								"offset": 0,
								"slot": "2",
								"type": "t_int256"
							},
							{
								"astId": 15,
								"contract": "contracts/Ecommerce.sol:Ecommerce",
								"label": "unitCost",
								"offset": 0,
								"slot": "3",
								"type": "t_int256"
							},
							{
								"astId": 17,
								"contract": "contracts/Ecommerce.sol:Ecommerce",
								"label": "totalPurchase",
								"offset": 0,
								"slot": "4",
								"type": "t_uint256"
							}
						],
						"numberOfBytes": "160"
					},
					"t_struct(refundInfo)25_storage": {
						"encoding": "inplace",
						"label": "struct Ecommerce.refundInfo",
						"members": [
							{
								"astId": 20,
								"contract": "contracts/Ecommerce.sol:Ecommerce",
								"label": "customer",
								"offset": 0,
								"slot": "0",
								"type": "t_address"
							},
							{
								"astId": 22,
								"contract": "contracts/Ecommerce.sol:Ecommerce",
								"label": "id",
								"offset": 0,
								"slot": "1",
								"type": "t_uint256"
							},
							{
								"astId": 24,
								"contract": "contracts/Ecommerce.sol:Ecommerce",
								"label": "noItem",
								"offset": 0,
								"slot": "2",
								"type": "t_int256"
							}
						],
						"numberOfBytes": "96"
					},
					"t_uint256": {
						"encoding": "inplace",
						"label": "uint256",
						"numberOfBytes": "32"
					}
				}
			},
			"userdoc": {
				"kind": "user",
				"methods": {},
				"version": 1
			}
		}
	}
}